:020000040800F2
:100000000050002091200008491D00084B1D0008E9
:100010004D1D00084F1D0008511D00080000000084
:10002000000000000000000000000000531D000858
:10003000551D000800000000571D0008591D00084C
:10004000D9200008D9200008D9200008D9200008AC
:10005000D9200008D9200008D9200008D92000089C
:10006000D9200008D9200008D9200008D92000088C
:10007000D9200008D9200008D9200008D92000087C
:10008000D9200008D9200008D9200008D92000086C
:10009000D9200008D9200008D9200008D92000085C
:1000A000D9200008D9200008D9200008D92000084C
:1000B000D9200008D9200008D9200008D92000083C
:1000C000D9200008D9200008D9200008D92000082C
:1000D000D9200008D9200008D9200008D92000081C
:1000E000D9200008D9200008D9200008000000000D
:1000F0000000000000000000000000000000000000
:0C01000000000000000000005FF808F1A3
:1001100010B5054C237833B9044B13B10448AFF341
:1001200000800123237010BDF009002000000000B2
:100130009CD0000808B5034B1BB103490348AFF33B
:10014000008008BD00000000F40900209CD00008D9
:1001500081F0004102E000BF83F0004330B54FEA78
:1001600041044FEA430594EA050F08BF90EA020FE5
:100170001FBF54EA000C55EA020C7FEA645C7FEA78
:10018000655C00F0E2804FEA5454D4EB5555B8BF9B
:100190006D420CDD2C4480EA020281EA030382EA0C
:1001A000000083EA010180EA020281EA0303362D9E
:1001B00088BF30BD11F0004F4FEA01314FF4801C71
:1001C0004CEA113102D0404261EB410113F0004F83
:1001D0004FEA03334CEA133302D0524263EB43033A
:1001E00094EA050F00F0A780A4F10104D5F1200ED8
:1001F0000DDB02FA0EFC22FA05F2801841F1000133
:1002000003FA0EF2801843FA05F359410EE0A5F106
:1002100020050EF1200E012A03FA0EFC28BF4CF037
:10022000020C43FA05F3C01851EBE37101F00045ED
:1002300007D54FF0000EDCF1000C7EEB00006EEBFA
:100240000101B1F5801F1BD3B1F5001F0CD3490884
:100250005FEA30004FEA3C0C04F101044FEA4452DB
:1002600012F5800F80F09A80BCF1004F08BF5FEA62
:10027000500C50F1000041EB045141EA050130BD42
:100280005FEA4C0C404141EB0101013C28BFB1F554
:10029000801FE9D291F0000F04BF01460020B1FA9F
:1002A00081F308BF2033A3F10B03B3F120020CDA72
:1002B0000C3208DD02F1140CC2F10C0201FA0CF050
:1002C00021FA02F10CE002F11402D8BFC2F1200CB5
:1002D00001FA02F120FA0CFCDCBF41EA0C0190406B
:1002E000E41AA2BF01EB0451294330BD6FEA0404B4
:1002F0001F3C1CDA0C340EDC04F11404C4F120029F
:1003000020FA04F001FA02F340EA030021FA04F3B0
:1003100045EA030130BDC4F10C04C4F1200220FA07
:1003200002F001FA04F340EA0300294630BD21FA45
:1003300004F0294630BD94F0000F83F4801306BF0B
:1003400081F480110134013D4EE77FEA645C18BFFF
:100350007FEA655C29D094EA050F08BF90EA020F96
:1003600005D054EA000C04BF1946104630BD91EA8E
:10037000030F1EBF0021002030BD5FEA545C05D191
:100380004000494128BF41F0004130BD14F58004D0
:100390003CBF01F5801130BD01F0004545F0FE4144
:1003A00041F470014FF0000030BD7FEA645C1ABF79
:1003B000194610467FEA655C1CBF0B46024650EAB0
:1003C000013406BF52EA033591EA030F41F40021DC
:1003D00030BD00BF90F0000F04BF0021704730B562
:1003E0004FF4806404F132044FF000054FF0000137
:1003F00050E700BF90F0000F04BF0021704730B5F8
:100400004FF4806404F1320410F0004548BF4042CC
:100410004FF000013EE700BF42004FEAE2014FEA21
:1004200031014FEA02701FBF12F07F4393F07F4FFC
:1004300081F06051704732F07F4208BF704793F0FF
:100440007F4F04BF41F40021704730B54FF4607412
:1004500001F0004521F000411CE700BF50EA010215
:1004600008BF704730B54FF000050AE050EA0102BE
:1004700008BF704730B511F0004502D5404261EB2E
:1004800041014FF4806404F132045FEA915C3FF46F
:10049000D8AE4FF003025FEADC0C18BF03325FEA0C
:1004A000DC0C18BF033202EBDC02C2F1200300FABD
:1004B00003FC20FA02F001FA03FE40EA0E0021FAE2
:1004C00002F11444BDE600BF70B54FF0FF0C4CF4D0
:1004D000E06C1CEA11541DBF1CEA135594EA0C0F82
:1004E00095EA0C0F00F0DEF82C4481EA030621EABD
:1004F0004C5123EA4C5350EA013518BF52EA0335F8
:1005000041F4801143F4801338D0A0FB02CE4FF0A9
:100510000005E1FB02E506F00042E0FB03E54FF0D9
:100520000006E1FB03569CF0000F18BF4EF0010ED1
:10053000A4F1FF04B6F5007F64F5407404D25FEACD
:100540004E0E6D4146EB060642EAC62141EA555180
:100550004FEAC52040EA5E504FEACE2EB4F1FD0CC2
:1005600088BFBCF5E06F1ED8BEF1004F08BF5FEA40
:10057000500E50F1000041EB045170BD06F00046F2
:1005800046EA010140EA020081EA0301B4EB5C049F
:10059000C2BFD4EB0C0541EA045170BD41F4801197
:1005A0004FF0000E013C00F3AB8014F1360FDEBFBC
:1005B000002001F0004170BDC4F10004203C35DA98
:1005C0000C341BDC04F11404C4F1200500FA05F31B
:1005D00020FA04F001FA05F240EA020001F00042BC
:1005E00021F0004110EBD37021FA04F642EB060132
:1005F0005EEA430E08BF20EAD37070BDC4F10C045C
:10060000C4F1200500FA04F320FA05F001FA04F21F
:1006100040EA020001F0004110EBD37041F100010B
:100620005EEA430E08BF20EAD37070BDC4F1200516
:1006300000FA05F24EEA020E20FA04F301FA05F27E
:1006400043EA020321FA04F001F0004121FA04F226
:1006500020EA020000EBD3705EEA430E08BF20EAF6
:10066000D37070BD94F0000F0FD101F00046400030
:1006700041EB010111F4801F08BF013CF7D041EAB2
:10068000060195F0000F18BF704703F000465200B6
:1006900043EB030313F4801F08BF013DF7D043EA87
:1006A0000603704794EA0C0F0CEA135518BF95EA3D
:1006B0000C0F0CD050EA410618BF52EA4306D1D1C4
:1006C00081EA030101F000414FF0000070BD50EAE3
:1006D000410606BF1046194652EA430619D094EA6D
:1006E0000C0F02D150EA013613D195EA0C0F05D157
:1006F00052EA03361CBF104619460AD181EA0301AB
:1007000001F0004141F0FE4141F470014FF0000062
:1007100070BD41F0FE4141F4780170BD70B54FF0FD
:10072000FF0C4CF4E06C1CEA11541DBF1CEA13557D
:1007300094EA0C0F95EA0C0F00F0A7F8A4EB05045F
:1007400081EA030E52EA03354FEA013100F0888056
:100750004FEA03334FF0805545EA131343EA12631F
:100760004FEA022245EA111545EA10654FEA0026D4
:100770000EF000419D4208BF964244F1FD0404F58D
:10078000407402D25B084FEA3202B61A65EB0305E9
:100790005B084FEA32024FF480104FF4002CB6EBA6
:1007A000020E75EB030E22BFB61A754640EA0C0026
:1007B0005B084FEA3202B6EB020E75EB030E22BF66
:1007C000B61A754640EA5C005B084FEA3202B6EBA7
:1007D000020E75EB030E22BFB61A754640EA9C0066
:1007E0005B084FEA3202B6EB020E75EB030E22BF36
:1007F000B61A754640EADC0055EA060E18D04FEAF4
:10080000051545EA16754FEA06164FEAC30343EA93
:1008100052734FEAC2025FEA1C1CC0D111F4801F60
:100820000BD141EA00014FF000004FF0004CB6E759
:1008300011F4801F04BF01430020B4F1FD0C88BFF8
:10084000BCF5E06F3FF6AFAEB5EB030C04BFB6EB03
:10085000020C5FEA500C50F1000041EB045170BDF6
:100860000EF0004E4EEA113114EB5C04C2BFD4EB23
:100870000C0541EA045170BD41F480114FF0000EA7
:10088000013C90E645EA060E8DE60CEA135594EA23
:100890000C0F08BF95EA0C0F3FF43BAF94EA0C0F26
:1008A0000AD150EA01347FF434AF95EA0C0F7FF49B
:1008B00025AF104619462CE795EA0C0F06D152EAEF
:1008C00003353FF4FDAE1046194622E750EA4106D3
:1008D00018BF52EA43067FF4C5AE50EA41047FF4E4
:1008E0000DAF52EA43057FF4EBAE12E74FF0FF3C49
:1008F00006E000BF4FF0010C02E000BF4FF0010C1A
:100900004DF804CD4FEA410C7FEA6C5C4FEA430C92
:1009100018BF7FEA6C5C1BD001B050EA410C0CBFE1
:1009200052EA430C91EA030F02BF90EA020F002043
:10093000704710F1000F91EA030F58BF994208BFAA
:1009400090422CBFD8176FEAE37040F00100704767
:100950004FEA410C7FEA6C5C02D150EA013C07D1BE
:100960004FEA430C7FEA6C5CD6D152EA033CD3D009
:100970005DF8040B704700BF8446104662468C4603
:100980001946634600E000BF01B5FFF7B7FF002836
:1009900048BF10F1000F01BD4DF808EDFFF7F4FF5F
:1009A0000CBF012000205DF808FB00BF4DF808EDEA
:1009B000FFF7EAFF34BF012000205DF808FB00BF0D
:1009C0004DF808EDFFF7E0FF94BF012000205DF82F
:1009D00008FB00BF4DF808EDFFF7CEFF94BF0120E4
:1009E00000205DF808FB00BF4DF808EDFFF7C4FFDD
:1009F00034BF012000205DF808FB00BF4FEA410230
:100A000012F5001215D211D56FF47873B3EB625260
:100A100012D94FEAC12343F0004343EA505311F087
:100A2000004F23FA02F018BF404270474FF0000019
:100A3000704750EA013005D111F0004008BF6FF057
:100A4000004070474FF00000704700BF4FEA41027E
:100A5000B2F1E04324BFB3F5001CDCF1FE5C0DD91C
:100A600001F0004C4FEAC0024CEA5070B2F1004F66
:100A700040EB830008BF20F00100704711F0804F69
:100A800021D113F13872BCBF01F00040704741F42E
:100A900080114FEA5252C2F11802C2F1200C10FA32
:100AA0000CF320FA02F018BF40F001004FEAC12316
:100AB0004FEAD32303FA0CFC40EA0C0023FA02F3BA
:100AC0004FEA4303CCE77FEA625307D150EA013390
:100AD0001EBF4FF0FE4040F44000704701F0004060
:100AE00040F0FE4040F40000704700BF80F000403E
:100AF00002E000BF81F0004142001FBF5FEA4103F6
:100B000092EA030F7FEA226C7FEA236C6AD04FEAF5
:100B10001262D2EB1363C1BFD2184140484041403A
:100B2000B8BF5B42192B88BF704710F0004F40F4EC
:100B3000000020F07F4018BF404211F0004F41F408
:100B4000000121F07F4118BF494292EA030F3FD0D4
:100B5000A2F1010241FA03FC10EB0C00C3F12003E7
:100B600001FA03F100F0004302D5494260EB400076
:100B7000B0F5000F13D3B0F1807F06D340084FEAE1
:100B8000310102F10102FE2A51D2B1F1004F40EBD6
:100B9000C25008BF20F0010040EA0300704749003E
:100BA00040EB0000013A28BFB0F5000FEDD2B0FADB
:100BB00080FCACF1080CB2EB0C0200FA0CF0AABFFE
:100BC00000EBC25052421843BCBFD040184370479C
:100BD00092F0000F81F4000106BF80F400000132A2
:100BE000013BB5E74FEA41037FEA226C18BF7FEA79
:100BF000236C21D092EA030F04D092F0000F08BFBB
:100C00000846704790EA010F1CBF0020704712F0A1
:100C10007F4F04D1400028BF40F00040704712F1E0
:100C200000723CBF00F50000704700F0004343F045
:100C3000FE4040F4000070477FEA226216BF08467B
:100C40007FEA23630146420206BF5FEA412390EA3E
:100C5000010F40F4800070474FF0000304E000BF34
:100C600010F0004348BF40425FEA000C08BF7047E5
:100C700043F0964301464FF000001CE050EA0102A9
:100C800008BF70474FF000030AE000BF50EA0102BE
:100C900008BF704711F0004302D5404261EB4101AB
:100CA0005FEA010C02BF84460146002043F0B643D0
:100CB00008BFA3F18053A3F50003BCFA8CF2083AF5
:100CC000A3EBC25310DB01FA02FC634400FA02FCFE
:100CD000C2F12002BCF1004F20FA02F243EB020005
:100CE00008BF20F00100704702F1200201FA02FC67
:100CF000C2F1200250EA4C0021FA02F243EB02005A
:100D000008BF20EADC7070474FF0FF0C1CEAD0529D
:100D10001EBF1CEAD15392EA0C0F93EA0C0F6FD05E
:100D20001A4480EA010C400218BF5FEA41211ED03C
:100D30004FF0006343EA501043EA5111A0FB013128
:100D40000CF00040B1F5000F3EBF490041EAD371FD
:100D50005B0040EA010062F17F02FD2A1DD8B3F179
:100D6000004F40EBC25008BF20F00100704790F0E8
:100D7000000F0CF0004C08BF49024CEA502040EA3A
:100D800051207F3AC2BFD2F1FF0340EAC250704700
:100D900040F400004FF00003013A5DDC12F1190F3E
:100DA000DCBF00F000407047C2F10002410021FAB0
:100DB00002F1C2F1200200FA02FC5FEA310040F1C8
:100DC000000053EA4C0308BF20EADC70704792F041
:100DD000000F00F0004C02BF400010F4000F013A79
:100DE000F9D040EA0C0093F0000F01F0004C02BF74
:100DF000490011F4000F013BF9D041EA0C018FE7E3
:100E00000CEAD15392EA0C0F18BF93EA0C0F0AD0E8
:100E100030F0004C18BF31F0004CD8D180EA01000E
:100E200000F00040704790F0000F17BF90F0004FA7
:100E3000084691F0000F91F0004F14D092EA0C0F89
:100E400001D142020FD193EA0C0F03D14B0218BF1C
:100E5000084608D180EA010000F0004040F0FE4062
:100E600040F40000704740F0FE4040F440007047FE
:100E70004FF0FF0C1CEAD0521EBF1CEAD15392EA7D
:100E80000C0F93EA0C0F69D0A2EB030280EA010C6D
:100E900049024FEA402037D04FF0805343EA111106
:100EA00043EA10130CF000408B4238BF5B0042F164
:100EB0007D024FF4000C8B4224BF5B1A40EA0C0009
:100EC000B3EB510F24BFA3EB510340EA5C00B3EB3B
:100ED000910F24BFA3EB910340EA9C00B3EBD10F29
:100EE00024BFA3EBD10340EADC001B0118BF5FEA7B
:100EF0001C1CE0D1FD2A3FF650AF8B4240EBC250A4
:100F000008BF20F0010070470CF0004C4CEA502064
:100F10007F32C2BFD2F1FF0340EAC250704740F4B3
:100F200000004FF00003013A37E792F0000F00F0A5
:100F3000004C02BF400010F4000F013AF9D040EA23
:100F40000C0093F0000F01F0004C02BF490011F4B7
:100F5000000F013BF9D041EA0C0195E70CEAD153AF
:100F600092EA0C0F08D142027FF47DAF93EA0C0F96
:100F70007FF470AF084676E793EA0C0F04D14B027A
:100F80003FF44CAF08466EE730F0004C18BF31F02C
:100F9000004CCAD130F000427FF45CAF31F0004326
:100FA0007FF43CAF5FE700BF4FF0FF3C06E000BFBF
:100FB0004FF0010C02E000BF4FF0010C4DF804CDE2
:100FC0004FEA40024FEA41037FEA226C18BF7FEAF2
:100FD000236C11D001B052EA530C18BF90EA010FF4
:100FE00058BFB2EB030088BFC81738BF6FEAE17083
:100FF00018BF40F0010070477FEA226C02D15FEA1F
:10100000402C05D17FEA236CE4D15FEA412CE1D08A
:101010005DF8040B704700BF844608466146FFE751
:101020000FB5FFF7C9FF002848BF10F1000F0FBD33
:101030004DF808EDFFF7F4FF0CBF012000205DF82C
:1010400008FB00BF4DF808EDFFF7EAFF34BF0120B1
:1010500000205DF808FB00BF4DF808EDFFF7E0FF4A
:1010600094BF012000205DF808FB00BF4DF808ED9B
:10107000FFF7D2FF94BF012000205DF808FB00BFFE
:101080004DF808EDFFF7C8FF34BF012000205DF8E0
:1010900008FB00BF4FEA4002B2F1FE4F0FD34FF002
:1010A0009E03B3EB12620DD94FEA002343F00043D5
:1010B00010F0004F23FA02F018BF404270474FF083
:1010C0000000704712F1610F01D1420205D110F00A
:1010D000004008BF6FF0004070474FF000007047BD
:1010E00042000ED2B2F1FE4F0BD34FF09E03B3EB92
:1010F000126209D44FEA002343F0004323FA02F0BE
:1011000070474FF00000704712F1610F01D14202A9
:1011100002D14FF0FF3070474FF00000704700BF22
:101120007BB972B90029BEBF00204FF0004106E034
:1011300008BF00281CBF6FF000414FF0FF3000F0E7
:10114000A9B9ADF1080C6DE904CE002909DB002B2B
:101150001ADB00F035F8DDF804E0DDE9022304B025
:101160007047404261EB4101002B1BDB00F028F887
:10117000DDF804E0DDE9022304B0404261EB410107
:10118000524263EB43037047524263EB430300F068
:1011900017F8DDF804E0DDE9022304B0404261EB1A
:1011A00041017047524263EB430300F009F8DDF858
:1011B00004E0DDE9022304B0524263EB43037047CD
:1011C0002DE9F047089E0D4604468846002B4DD178
:1011D0008A42944668D9B2FA82F252B101FA02F315
:1011E000C2F1200120FA01F10CFA02FC41EA0308E5
:1011F00094404FEA1C41B8FBF1F71FFA8CFE01FB4B
:10120000178807FB0EF0230C43EA084398420AD9DB
:101210001CEB030307F1FF3580F01E81984240F27A
:101220001B81023F63441B1AB3FBF1F001FB103337
:1012300000FB0EFEA4B244EA0344A6450AD91CEB07
:10124000040400F1FF3380F00981A64540F20681D5
:10125000644402380021A4EB0E0440EA07401EB1AA
:101260000023D440C6E90043BDE8F0878B4208D98B
:10127000002E00F0EE800021C6E900050846BDE81A
:10128000F087B3FA83F100294AD1AB4202D38242FC
:1012900000F2FC80841A65EB030301209846002EBF
:1012A000E2D0C6E90048DFE702B9FFDEB2FA82F217
:1012B000002A40F09180A1EB0C0001214FEA1C476D
:1012C0001FFA8CFEB0FBF7F307FB1300250C45EA71
:1012D00000450EFB03F0A84208D91CEB050503F1FD
:1012E000FF3802D2A84200F2CE8043462D1AB5FB49
:1012F000F7F007FB10550EFB00FEA4B244EA0544CC
:10130000A64508D91CEB040400F1FF3502D2A6451E
:1013100000F2B6802846A4EB0E0440EA03409EE7A4
:10132000C1F120078B4022FA07FC4CEA030C25FA96
:1013300007FA4FEA1C49BAFBF9F820FA07F309FB50
:1013400018AA8D401FFA8CFE1D4300FA01F308FB1A
:101350000EF02C0C44EA0A44A04202FA01F20BD926
:101360001CEB040408F1FF3A80F08880A04240F2B0
:101370008580A8F102086444241AB4FBF9F009FB43
:10138000104400FB0EFEADB245EA0444A64508D960
:101390001CEB040400F1FF356CD2A6456AD9023873
:1013A000644440EA0840A0FB0295A4EB0E04AC4262
:1013B000C846AE4656D353D0002E69D0B3EB0802D0
:1013C00064EB0E0422FA01F304FA07F71F43CC4042
:1013D000C6E90074002147E70CFA02FCC2F12001C3
:1013E00025FA01F34FEA1C4720FA01F195400D431D
:1013F000B3FBF7F107FB11331FFA8CFE280C40EA10
:10140000034001FB0EF3834204FA02F408D91CEBFB
:10141000000001F1FF382FD283422DD902396044F8
:10142000C01AB0FBF7F307FB1300ADB245EA004565
:1014300003FB0EF0A84208D91CEB050503F1FF38A9
:1014400016D2A84214D9023B6544281A43EA014146
:1014500038E73146304607E72F46E4E61846F9E616
:101460004B45A9D2B9EB020865EB0C0E0138A3E796
:101470004346EAE7284694E74146D1E7D0467BE772
:101480006444023847E7023B65442FE7084606E715
:101490003146E9E6704700BF844641EA000313F095
:1014A000030349D1403A23D30B6803604B68436080
:1014B0008B688360CB68C3600B6903614B694361D0
:1014C0008B698361CB69C3610B6A03624B6A4362B8
:1014D0008B6A8362CB6AC3620B6B03634B6B4363A0
:1014E0008B6B8363CB6BC36340304031403ADBD2BC
:1014F00030320BD30B6803604B6843608B688360AA
:10150000CB68C36010301031103AF3D20C3205D3DF
:1015100051F8043B40F8043B043AF9D2043208D0B5
:10152000D2071CBF11F8013B00F8013B01D30B8827
:1015300003806046704700BF082A13D38B07B1D0E1
:1015400010F00303AED0C3F10403D21ADB071CBFB3
:1015500011F8013B00F8013BA4D331F8023B20F81D
:10156000023B9FE7043AD9D3013A11F8013B00F856
:10157000013BF9D20B7803704B7843708B78837002
:10158000604670474FEA410C7FEA6C5C02D150EA3A
:10159000013C0AD14FEA430C7FEA6C5C02D152EA6B
:1015A000033C02D14FF0000070474FF0010070473C
:1015B00053B94AB9002908BF00281CBF4FF0FF31BA
:1015C0004FF0FF30FFF766BFADF1080C6DE904CEB8
:1015D000FFF7F6FDDDF804E0DDE9022304B0704713
:1015E000F0B58DB006A909A803F07CFF072840F0EC
:1015F0009780584804F092FF0698FFF731FB4FF0B0
:101600005E51FFF781FB04460798FFF729FB4FF077
:101610005E51FFF779FB06460898FFF721FB4FF074
:101620005E51FFF771FB07462046FEF7F5FE0446C4
:101630000D463846FEF7F0FECDE902013046FEF7D2
:10164000EBFECDE9000122462B46434804F004FF9F
:101650000998FFF705FB4FF05E51FFF755FB044675
:101660000A98FFF7FDFA4FF05E51FFF74DFB064673
:101670000B98FFF7F5FA4FF05E51FFF745FB074671
:101680002046FEF7C9FE04460D463846FEF7C4FE66
:10169000CDE902013046FEF7BFFECDE9000122464A
:1016A0002B462E4804F0D8FE0DF1120003F0AAFAE2
:1016B000BDF81220069B02FB03F30693079B02FB77
:1016C00003F30793089B02FB03F30893032106A887
:1016D00004F0B4FC05A803F06FFA059C0998FFF725
:1016E000BFFA2146FFF710FBFFF7D4FC09900A98D8
:1016F000FFF7B6FA2146FFF707FBFFF7CBFC0A908E
:101700000B98FFF7ADFA2146FFF7FEFAFFF7C2FC90
:101710000B90032109A804F0BBFC00200DB0F0BD24
:10172000044610F0010F08D014F0020F09D014F095
:10173000040F0AD04FF0FF30F0E7094804F0EEFE46
:10174000F2E7084804F0EAFEF1E7074804F0E6FE95
:10175000F0E700BFB8D00008C0D00008DCD0000817
:10176000F8D0000808D1000818D1000808B568466C
:1017700003F028FD782003F0B1FC10F0FF0F01D03A
:10178000012008BD782003F06BFA10F0FF0F2CD178
:10179000142003F053FC10F0FF0F28D103F044FF96
:1017A00010F0FF0F25D1184804F0DEFC03F048FFCD
:1017B00010F0FF0F1FD140F2731004F005FA10F083
:1017C000FF0F1AD1142003F0E1FF10F0FF0F16D124
:1017D000FFF706FF10F0FF0F13D1012003F038FED2
:1017E00010F0FF00CDD00920CBE70220C9E703208D
:1017F000C7E70420C5E70520C3E70620C1E70720A7
:10180000BFE70820BDE700BF000000200000000087
:101810002DE9F04F8FB00DF1210301930DF122035B
:1018200000930DAB04AA09A90BA804F0D9FA00286B
:1018300040F0D280BDF8223013F4807F00F0CE80DB
:101840000498FEF7D7FD0022674BFEF73DFEFFF739
:10185000FDF807460598FEF7CDFD0022624BFEF726
:1018600033FEFFF7F3F805460698FEF7C3FD0022A6
:101870005D4BFEF729FEFFF7E9F804460798FEF7EF
:10188000B9FD0022584BFEF71FFEFFF7DFF80646B2
:101890004FF040412846FFF737FA81463146FFF7BF
:1018A00033FA804639463846FFF726F98346214603
:1018B000FFF72AFA01464046FFF71EF9FEF7ACFD96
:1018C0000AF0F0FF46A3D3E90023FEF7FDFDFFF782
:1018D000BDF8DFF81881C8F8000021462046FFF760
:1018E0000BF902903146FFF70FFA82462946584617
:1018F000FFF70AFA01465046FFF7FEF882462946EE
:101900004846FFF701FA814621460298FFF7FCF9A5
:1019100001464846FFF7EEF84FF07E51FFF7ECF82E
:10192000FEF77AFDCDE902015046FEF775FDDDE9CF
:1019300002230AF0DFFF2AA3D3E90023FEF7C4FD48
:10194000FFF784F8C8F8040021462846FFF7DCF9C1
:10195000814631463846FFF7D7F901464846FFF73A
:10196000CBF80146FFF7C8F8814639463846FFF7FD
:10197000CBF9074629462846FFF7C6F901463846FF
:10198000FFF7BAF8054621462046FFF7BDF90146A4
:101990002846FFF7AFF8044631463046FFF7B4F962
:1019A00001462046FFF7A6F8FEF736FD04460D4631
:1019B0004846FEF731FD22462B460AF09BFF08A35E
:1019C000D3E90023FEF780FDFFF740F8C8F80800D0
:1019D00000200FB0BDE8F08F0120FAE70220F8E701
:1019E0006666666666A64C400000103E0C0A002043
:1019F00030B589B000240494059406940794174BDD
:101A00009A6942F020029A619A6902F020020192DA
:101A1000019A9A6942F004029A619A6902F00402FA
:101A20000292029A9A6942F008029A619B6903F055
:101A300008030393039B0A4D22461021284600F019
:101A40001BFD10230493012305930694022307939F
:101A500004A9284600F0FEFB09B030BD001002408A
:101A6000000C014008B50B480B4B03600B4B436067
:101A700000238360C3604FF480420261436183614D
:101A8000C361036200F088FF00B908BD00F044F8AC
:101A9000FBE700BF180A002000540040A0860100A8
:101AA00010B586B000230293039304930593026854
:101AB000154B9A4201D006B010BD144CA36943F0F7
:101AC0000803A361A36903F008030093009B4FF48C
:101AD00040730293122303930323059302A90C4836
:101AE00000F0B8FB0B4A536843F0E06343F0020395
:101AF0005360E36943F40013E361E36903F4001303
:101B00000193019BD7E700BF005400400010024042
:101B1000000C01400000014072B6FEE700B591B034
:101B20002822002106A804F045FC0023019302931B
:101B3000039304930593012206924FF48033079395
:101B40000A9202220D920E934FF4E0130F9306A80F
:101B500001F06CFA80B90F23019302210291002356
:101B600003934FF480620492059301A801F090FC66
:101B700020B911B05DF804FBFFF7CEFFFFF7CCFFF3
:101B800080B584B000F0D0FAFFF7C8FFFFF730FF50
:101B900000F0E0F9FFF766FF00F068F900F0F4F9F3
:101BA0001B4800F03FF8FFF7E1FD1A4C00212046EA
:101BB00001F0C8FF0421204601F0C4FF082120469F
:101BC00001F0C0FF0C21204601F0BCFF01221021D2
:101BD000114800F051FC322000F0CAFAFFF718FE5D
:101BE0000E4B5E689F681868FEF716FC04460D46AB
:101BF0003846FEF711FCCDE902013046FEF70CFC39
:101C0000CDE9000122462B46054804F025FCE2E719
:101C1000BC0A0020740A0020000C01400C0A0020BD
:101C200028D1000808B5054B1860054B186800233B
:101C300002221946806804F079FC08BD6C0A002075
:101C400044000020022801D80120704708B504F0A4
:101C5000D7FA09230360002008BD000010B5013841
:101C600001280AD814464FF0FF3392B207480068A3
:101C700002F0CAF840B9204610BD04F0C1FA0923A9
:101C800003604FF0FF30F7E70520F5E76C0A00200E
:101C9000022801D80020704708B504F0B1FA0923E2
:101CA00003604FF0FF3008BD08B504F0A9FA09231E
:101CB00003604FF0FF3008BD08B548B94FF0FF335F
:101CC00001220848006802F0FEF840B9012008BD72
:101CD00004F096FA092303604FF0FF30F7E7052080
:101CE000F5E700BF6C0A002008B5022804D84FF4BD
:101CF00000534B60002008BD04F082FA0923036002
:101D0000F8E7000082B00E4B9A6942F001029A6136
:101D10009A6902F001020092009ADA6942F0805258
:101D2000DA61DB6903F080530193019B054A536834
:101D300023F0E06343F00073536002B0704700BFCC
:101D40000010024000000140FEE7FEE7FEE7FEE76C
:101D5000FEE770477047704708B500F0F7F908BD17
:101D60000120704708B504F04BFA162303604FF0CA
:101D7000FF3008BD08B54FF0FF31FFF7F3FFFEE776
:101D800010B503460C4A0D490D48006840B10C4897
:101D900000680344521A934206D8094A136010BDE2
:101DA0000748084C0460F2E704F02AFA0C230360A9
:101DB0004FF0FF30F3E700BF0050002000040000A8
:101DC000700A0020C00E0020704700000268094B16
:101DD0009A4200D0704782B003F50333DA6942F0CB
:101DE0000202DA61DB6903F002030193019B02B096
:101DF000704700BF0004004010B586B00023029376
:101E00000393049305930268154B9A4201D006B0E0
:101E100010BD03F503339A6942F004029A619A698E
:101E200002F004020092009A9A6942F008029A6154
:101E30009B6903F008030193019BC02302930224D2
:101E40000394059402A9074800F004FA03230293BF
:101E50000394059402A9044800F0FCF9D7E700BFF9
:101E60000004004000080140000C014000B58FB0A4
:101E700000230A930B930C930D93089309930193FA
:101E80000293039304930593069307932F48304AD4
:101E900002604360836041F61F42C2600361836158
:101EA00001F0BEFC002839D14FF480530A930AA9EF
:101EB000264801F0B9FD002833D1244801F0DCFCAC
:101EC000002831D100230893099308A91F4801F085
:101ED000A7FE60BB60230193002202920392059249
:101EE00001A91A4801F026FD20BB04220DEB0201D6
:101EF000164801F01FFD00BB082201A9134801F09C
:101F000019FDE8B90C2201A9104801F013FDD0B960
:101F10000E48FFF771FF0FB05DF804FBFFF7FCFD03
:101F2000C2E7FFF7F9FDC8E7FFF7F6FDCAE7FFF7DD
:101F3000F3FDCFE7FFF7F0FDD7E7FFF7EDFDDBE7B8
:101F4000FFF7EAFDDEE7FFF7E7FDE1E7740A0020AF
:101F50000004004008B50A480A4B03604FF4E1331F
:101F6000436000238360C36003610C22426183618C
:101F7000C36101F019FF00B908BDFFF7CDFDFBE714
:101F8000BC0A00200038014008B50A480A4B03602B
:101F90004FF4E133436000238360C36003610C228C
:101FA00042618361C36101F0FFFE00B908BDFFF724
:101FB000B3FDFBE7040B00200044004010B588B0DF
:101FC0000023049305930693079303682C4A9342D6
:101FD00004D02C4A93422BD008B010BD2A4B9A69EA
:101FE00042F480429A619A6902F480420092009A17
:101FF0009A6942F004029A619B6903F00403019319
:10200000019B4FF40073049302230593032307936A
:102010001E4C04A9204600F01DF94FF48063049380
:1020200000230593069304A9204600F013F9D3E793
:10203000154BDA6942F40032DA61DA6902F40032EF
:102040000292029A9A6942F004029A619B6903F033
:1020500004030393039B04230493022305930323A4
:1020600007930A4C04A9204600F0F4F808230493CF
:1020700000230593069304A9204600F0EBF8ABE794
:1020800000380140004400400010024000080140B8
:10209000FFF79AFE0B480C490C4A002302E0D45883
:1020A000C4500433C4188C42F9D3094A094C0023A4
:1020B00001E013600432A242FBD304F0A7F8FFF75B
:1020C0005FFD704700000020F009002064E2000876
:1020D000F0090020BC0E0020FEE7000010B5044609
:1020E0000E4B18784FF47A73B3FBF0F30C4A106878
:1020F000B0FBF3F000F09AF868B90F2C01D9012079
:102100000AE0002221464FF0FF3000F057F8054B5F
:102110001C60002000E0012010BD00BF1000002066
:102120000C0000201400002008B5074A136843F093
:1021300010031360032000F02FF80F20FFF7CEFFED
:10214000FFF7E0FD002008BD00200240034A1168AF
:10215000034B1B780B441360704700BF4C0B0020EF
:1021600010000020014B1868704700BF4C0B002086
:1021700038B50446FFF7F6FF0546B4F1FF3F02D03D
:10218000044B1B781C44FFF7EDFF401BA042FAD321
:1021900038BD00BF10000020074AD36823F4E06375
:1021A0001B041B0C000200F4E060034343F0BF6318
:1021B00043F40033D360704700ED00E000B5194BE5
:1021C000DB68C3F30223C3F1070CBCF1040F28BF83
:1021D0004FF0040C03F1040EBEF1060F18D9033BB7
:1021E0004FF0FF3E0EFA0CFC21EA0C0199400EFA6A
:1021F00003F322EA0303194300280BDB0901C9B2E8
:1022000000F1604000F5614080F800135DF804FBC8
:102210000023E5E700F00F000901C9B2024B195491
:10222000F4E700BF00ED00E014ED00E00138B0F18C
:10223000807F0BD24FF0E0235861054AF02182F8ED
:1022400023100020986107221A617047012070470F
:1022500000ED00E070B582B00024A446A6E0804DF9
:10226000AA4210D007D97F4DAA420CD005F580357F
:10227000AA4208D013E0A5F58015AA4203D005F5BF
:102280007025AA4207D18A68002A58D0012A51D065
:102290004361082403E0A5F58015AA42F3D0BEF1FE
:1022A000FF0F4ED80646BEF1FF0F4CD84FEA8C0206
:1022B00033680F25954023EA050304FA02F213431D
:1022C00033604B6813F0805F6ED0674B9A6942F0C1
:1022D00001029A619B6903F001030193019B4FEA9C
:1022E0009C02951C614B53F825600CF003039D0084
:1022F0000F23AB4026EA03065D4B984229D003F535
:102300008063984200F08E8003F58063984200F06D
:102310008B8003F58063984219D004231AE0CC68BF
:10232000BDE7CC680434BAE7CC680834B7E7CC68BA
:102330000C34B4E703610824B1E70024AFE70424B8
:10234000ADE7061DAFE7ACF108029200B0E703234A
:1023500000E00023AB4033430232444D45F82230C5
:102360004B6813F4801F61D0424A936843EA0E031E
:1023700093604B6813F4001F5ED03E4AD36843EA73
:102380000E03D3604B6813F4003F5BD0394A5368A7
:1023900043EA0E0353604B6813F4803F58D0354A2C
:1023A000136843EA0E0313600CF1010C0A6832FA59
:1023B0000CF353D0012303FA0CF302EA030E33EAC1
:1023C0000202F1D14A68122A3FF649AF122A3FF6BB
:1023D00066AF01A555F822F0872200081F230008E8
:1023E000292300083B2300089F2200089F220008A1
:1023F0009F2200089F2200089F2200089F220008B9
:102400009F2200089F2200089F2200089F220008A8
:102410009F2200089F2200089F2200082323000813
:102420002F230008012395E7022393E7114A9368BD
:1024300023EA0E0393609CE70E4AD36823EA0E0357
:10244000D3609FE70B4A536823EA0E035360A2E769
:10245000084A136823EA0E031360A5E702B070BDB3
:102460000000221000003110001002400000014066
:1024700000080140000401400AB1016170470904ED
:102480000161704703685A6912F4806F01D100201E
:1024900070476FF480625A6100230363202280F842
:1024A0003D2080F83E30026C42F00402026480F865
:1024B0003C30012070472DE9F04106460C46174696
:1024C00098463BE0FFF74EFE069BC01A404502D8F7
:1024D000B8F1000F32D1012D18D033689B6924EA7E
:1024E00003039BB2B3FA83F35B099F4226D1002317
:1024F0003363202286F83D2086F83E30326C42F06D
:102500002002326486F83C30012027E033685B69A2
:1025100024EA03039BB2B3FA83F35B09E5E733686C
:102520005B6924EA030C1FFA8CFCBCFA8CFC4FEAB2
:102530005C1C674511D1B8F1FF3FC3D1C4F3074517
:10254000012DECD033689B6924EA030C1FFA8CFC44
:10255000BCFA8CFC4FEA5C1CEBE70020BDE8F08184
:102560002DE9F84305460E469046994653E01A6811
:1025700042F400721A602B686FF480625A61002383
:102580002B63202285F83D2085F83E302A6C42F0EE
:1025900004022A6485F83C3001204AE0FFF7E2FD9E
:1025A000A0EB0900404502D8B8F1000F33D1012F4C
:1025B00017D02B689B6926EA03039BB2003B18BF28
:1025C000012343B300232B63202285F83D2085F8A7
:1025D0003E302A6C42F020022A6485F83C3001200B
:1025E00027E02B685B6926EA03039BB2003B18BF18
:1025F0000123E6E72B689C6926EA0404A4B2003CA8
:1026000018BF0124A4B12B685A6912F4806FAED1AF
:10261000B8F1FF3FC2D1C6F30747012FEAD12B68BB
:102620005C6926EA0404A4B2003C18BF0124E9E76F
:102630000020BDE8F88370B504460D4616462368B1
:102640005B6913F0800F21D12046FFF71BFFF8B91B
:10265000B5F1FF3FF3D0FFF785FD801BA84201D8FD
:10266000002DECD123685B6913F0800FE7D10023C4
:102670002363202284F83D2084F83E30226C42F00F
:102680002002226484F83C30012000E0002070BD6C
:102690000120FCE72DE9F04385B004460D46914644
:1026A0001F46DDF830800D9E0368196841F4807183
:1026B00019600096434600224FF00111FFF7FBFE20
:1026C00060B9236805F0FE051D6133464246264980
:1026D0002046FFF745FF68B1012008E023681B682A
:1026E00013F4807F02D04FF400732364032005B0FD
:1026F000BDE8F0830023039323685A6903929B6922
:102700000393039B324641462046FFF794FF30B9BE
:10271000012F0FD123685FFA89F61E61E7E7236C6A
:10272000042B01D00120E2E72268136843F4007310
:102730001360F7E723684FEA19221A6132464146CF
:102740002046FFF778FF20B923685FFA89F61E61FB
:10275000CDE7236C042B01D00120C8E72268136861
:1027600043F400731360F7E7020001002DE9F0471E
:1027700084B004460D46164699460C9FDDF8348019
:102780000268136843F4806313600368196841F4B6
:1027900080711960CDF800803B4600224FF0011196
:1027A000FFF789FE70B95FFA85FA236805F0FE0528
:1027B0001D6143463A4641492046FFF7D1FE68B1C4
:1027C000012008E023681B6813F4807F02D04FF4D7
:1027D00000732364032004B0BDE8F0870023039353
:1027E00023685A6903929B690393039B42463946C7
:1027F0002046FFF720FF80B9B9F1010F18D12368F7
:10280000F6B21E61424639462046FFF714FF68B310
:10281000236C042B24D00120DDE7236C042B01D092
:102820000120D8E72268136843F400731360F7E7C8
:102830002368320A1A61424639462046FFF7FBFEFA
:1028400018B92368F6B21E61DCE7236C042B01D0B3
:102850000120C0E72268136843F400731360F7E7B0
:102860002268136843F400731360D4E72268136886
:1028700043F480731360CDF800803B4600224FF094
:1028800001112046FFF717FE68B922684AF00103DC
:10289000136143463A4609492046FFF761FE002886
:1028A00099D0012097E723681B6813F4807F02D03A
:1028B0004FF40073236403208DE700BF0200010082
:1028C00070B504460D46164623685B6913F0040F85
:1028D00021D12046FFF7D6FDF8B9B5F1FF3FF3D07F
:1028E000FFF740FC801BA84201D8002DECD12368E3
:1028F0005B6913F0040FE7D100232363202284F8DF
:102900003D2084F83E30226C42F02002226484F89C
:102910003C30012000E0002070BD0120FCE770B5D4
:1029200004460D46164614E06FF010025A6100236B
:102930002363202284F83D2084F83E30226C2264F8
:1029400084F83C30012025E023685B6913F0400FD8
:1029500010D02368586910F0400F1AD1586910F050
:10296000100FE1D1FFF7FEFB801BA842ECD8002D31
:10297000EFD1E9E700232363202284F83D2084F887
:102980003E30226C42F02002226484F83C30012068
:1029900000E0002070BD0000002800F0CC8070B581
:1029A000044690F83D30002B77D0242384F83D3046
:1029B0002268136823F0010313602268136843F44C
:1029C000004313602268136823F40043136000F08F
:1029D0001BFE62685A4B9A4264D85A4B98428CBF8D
:1029E00000230123002B40F0A8805749A1FB0031B0
:1029F0008B0C25686A6822F03F0242EA91426A60C5
:102A000021680A6A22F03F0266684D4DAE424FD8F7
:102A1000013313430B622168CA6922F44F4222F04A
:102A2000FF026668464B9E424CD8431E7600B3FBBD
:102A3000F6F3013340F6FC70034278D0C3F30B0386
:102A40001343CB6121680B6823F0C003E269206A5D
:102A5000024313430B6021688B6823F4034323F084
:102A6000FF032269E068024313438B602168CB684F
:102A700023F0FF036269A06902431343CB6022681D
:102A8000136843F00103136000202064202384F8BE
:102A90003D30206384F83E0070BD80F83C30FEF786
:102AA000FFFF82E7294B98428CBF0023012399E75F
:102AB0004FF4967505FB03F3254DA5FB03539B09C6
:102AC0000133A6E7A368BBB9451E06EB460CB5FB70
:102AD000FCF50135C5F30B05B5FA85F56D0945BB68
:102AE000C3B9013806EB4603B0FBF3F30133C3F37C
:102AF0000B0343F40043A3E7451E06EB860C0CEBE7
:102B00008C0CB5FBFCF50135C5F30B05B5FA85F565
:102B10006D09E4E7013806EB860303EB8303B0FBA2
:102B2000F3F30133C3F30B0343F4404388E7042377
:102B300086E7012384E7012070470120ACE700BF4E
:102B4000A08601007F841E0083DE1B43FF083D003A
:102B5000D34D62102DE9F04383B004460F469046F2
:102B600099460C9EFFF7FEFA054694F83D00C0B268
:102B7000202803D0022003B0BDE8F083009519237C
:102B800001224B492046FFF796FC002840F089803F
:102B900094F83C30012B00F08680012384F83C300F
:102BA00023681A6812F0010F03D11A6842F001027B
:102BB0001A602268136823F400631360212384F8E9
:102BC0003D30402384F83E30002323640A9B636237
:102BD000BDF82C306385638D2385364BE362019508
:102BE00000964B46424639462046FFF753FD0028E3
:102BF0005BD1238D002B35D02A4631462046FFF786
:102C00001AFD20BB626A236812781A61626A531C3B
:102C10006362218D013989B22185638D9BB2013BAD
:102C20009BB263852368586910F0040FE1D0002936
:102C3000DFD052781A61636A01336362238D013BEE
:102C40002385638D9BB2013B9BB26385D1E7236CE7
:102C5000042B01D001208EE72268136843F400732F
:102C60001360F7E72A4631462046FFF729FE50B1A8
:102C7000236C042B01D001207DE72268136843F404
:102C800000731360F7E72268136843F4007313605E
:102C9000202384F83D30002384F83E3084F83C3013
:102CA00069E7022067E7022065E7012063E700BFCC
:102CB000020010000000FFFF2DE9F04389B0044638
:102CC0000F4690469946129E00230793FFF74AFA53
:102CD000054694F83D00C0B2202804D002273846AB
:102CE00009B0BDE8F08300951923012281492046EF
:102CF000FFF7E1FB002840F0728194F83C30012B93
:102D000000F06F81012384F83C3023681A6812F0C8
:102D1000010F03D11A6842F001021A602268136899
:102D200023F400631360222384F83D30402384F8A9
:102D30003E3000232364109B6362BDF844306385FA
:102D4000638D23856C4BE362019500964B464246AA
:102D500039462046FFF70AFD0746002840F0438128
:102D6000238D5BB9039323685A6903929A6903928E
:102D7000039A1A6842F400721A60EDE0012B0FD03A
:102D8000022B21D02268136843F480631360002370
:102D9000069323685A6906929B690693069BDBE0BB
:102DA0002268136823F48063136072B600230493CF
:102DB00023685A6904929A690492049A1A6842F440
:102DC00000721A6062B6C7E02268136843F40063B9
:102DD000136072B60023059323685A6905929A69B5
:102DE0000592059A1A6822F480621A6062B6B3E00E
:102DF0002A4631462046FFF792FD002840F0F58034
:102E000023681A69636A1A70636A01336362238DE7
:102E1000013B2385638D9BB2013B9BB263859BE0A5
:102E200000953346002235492046FFF744FB002831
:102E300040F0DF802268136823F48063136072B669
:102E400023681A69636A1A70636A01336362238DA7
:102E5000013B2385638D9BB2013B9BB26385284B6D
:102E60001B68DB08274AA2FB03231B0A03EB83032F
:102E7000C3EBC3030793079B013B0793079B002BFF
:102E800028D023685A6912F0040FF4D01A6842F46B
:102E900000721A6023681A69636A1A70636A0133E0
:102EA0006362238D013B2385638D9BB2013B9BB203
:102EB000638562B623681A69636A1A70636A0133AC
:102EC0006362238D013B2385638D9BB2013B9BB2E3
:102ED000638541E02363202284F83D2084F83E305E
:102EE000226C42F02002226462B684F83C30012752
:102EF000F5E600BF020010000000FFFF0400010023
:102F00000C00002089B5F8142A4631462046FFF708
:102F100006FD00286FD123681A69636A1A70626A15
:102F2000531C6362238D013B2385638D9BB2013B60
:102F30009BB263852368596911F0040F0CD01B699B
:102F40005370636A01336362238D013B2385638D74
:102F50009BB2013B9BB26385238D002B36D0032BA4
:102F6000D2D8012B3FF444AF022B7FF459AF009528
:102F70003346002221492046FFF79DFA002836D12A
:102F800072B62268136843F40073136023681A69E9
:102F9000636A1A70636A01336362238D013B238580
:102FA000638D9BB2013B9BB2638562B623681A694D
:102FB000636A1A70636A01336362238D013B238560
:102FC000638D9BB2013B9BB26385C5E7202384F8E8
:102FD0003D30002384F83E3084F83C307FE6022701
:102FE0007DE602277BE6012779E6012777E60127C0
:102FF00075E6012773E6012771E600BF04000100B2
:1030000082B0084B1B68084AA2FB03235B0A00FB43
:1030100003F3019300BF019B5A1E0192002BF9D1CB
:1030200002B070470C000020D34D6210002800F061
:10303000F18170B582B00446036813F0010F2CD003
:10304000994B5B6803F00C03042B1DD0964B5B6817
:1030500003F00C03082B12D06368B3F5803F41D016
:10306000002B55D103F1804303F504331A6822F491
:1030700080321A601A6822F480221A6037E08A4B84
:103080005B6813F4803FE7D0874B1B6813F4003F65
:1030900003D06368002B00F0BF81236813F0020F98
:1030A00075D0814B5B6813F00C0F5FD07E4B5B6873
:1030B00003F00C03082B54D02369002B00F08A8006
:1030C0007A4B01221A60FFF74DF80546764B1B68D4
:1030D00013F0020F75D1FFF745F8401B0228F5D910
:1030E00003209EE1704A136843F4803313606368E1
:1030F00043B3FFF737F805466B4B1B6813F4003FEB
:10310000CBD1FFF72FF8401B6428F5D9032088E1C5
:10311000B3F5A02F09D0644B1A6822F480321A60EC
:103120001A6822F480221A60E1E703F18043A3F5D4
:103130003C331A6842F480221A601A6842F48032E2
:103140001A60D4E7FFF70EF80546574B1B6813F4D7
:10315000003FA2D0FFF706F8401B6428F5D90320F2
:103160005FE1514B5B6813F4803FA5D14E4B1B6868
:1031700013F0020F03D02369012B40F04F814A4A1C
:10318000136823F0F803616943EAC10313602368FD
:1031900013F0080F33D0A369002B5CD0434B0122FE
:1031A000C3F88024FEF7DEFF05463F4B5B6A13F051
:1031B000020F21D1FEF7D6FF401B0228F5D90320CC
:1031C0002FE1394A136823F0F803616943EAC10328
:1031D0001360DCE7354B00221A60FEF7C3FF05469B
:1031E000314B1B6813F0020FD1D0FEF7BBFF401B21
:1031F0000228F5D9032014E10120FFF701FF23681D
:1032000013F0040F00F09680274BDB6913F0805F0A
:1032100034D1254BDA6942F08052DA61DB6903F080
:1032200080530193019B0125214B1B6813F4807F80
:1032300026D0E368012B3DD0002B53D103F180430E
:1032400003F504331A6A22F001021A621A6A22F0A4
:1032500004021A6233E0154B0022C3F88024FEF703
:1032600081FF0546104B5B6A13F0020FC7D0FEF7D3
:1032700079FF401B0228F5D90320D2E00025D3E7CF
:103280000B4A136843F480731360FEF76BFF064626
:10329000074B1B6813F4807FCBD1FEF763FF801BC5
:1032A0006428F5D90320BCE000100240000042422F
:1032B000007000405F4A136A43F001031362E36841
:1032C00033B3FEF74FFF06465A4B1B6A13F0020F4B
:1032D0002FD1FEF747FF801B41F288339842F3D984
:1032E00003209EE0052B09D0524B1A6A22F00102FE
:1032F0001A621A6A22F004021A62E0E74D4B1A6A57
:1033000042F004021A621A6A42F001021A62D6E717
:10331000FEF728FF0646474B1B6A13F0020F08D042
:10332000FEF720FF801B41F288339842F3D9032037
:1033300077E0E5B9E369002B72D03E4A526802F0AB
:103340000C02082A56D0022B17D03B4B00221A66DB
:10335000FEF708FF0446374B1B6813F0007F47D089
:10336000FEF700FF001B0228F5D9032059E0314A7F
:10337000D36923F08053D361DCE72F4B00221A6618
:10338000FEF7F0FE05462B4B1B6813F0007F06D0BE
:10339000FEF7E8FE401B0228F5D9032041E0236A2E
:1033A000B3F5803F1AD023494B6823F47413226A83
:1033B000606A024313434B601F4B01221A66FEF7FB
:1033C000D1FE04461B4B1B6813F0007F0ED1FEF7A5
:1033D000C9FE001B0228F5D9032022E0154A5368D4
:1033E00023F40033A1680B435360DCE7002018E0AE
:1033F000002016E0012B16D00E4B5B6803F48031E1
:10340000226A914211D103F47013626A93420ED181
:10341000002006E001207047012002E0012000E0CA
:10342000002002B070BD0120FBE70120F9E7012078
:10343000F7E700BF00100240000042420F4B5B68FC
:1034400003F00C02082A01D00D487047C3F38342F1
:103450000C49885C13F4803F0BD0084B5B68C3F3C6
:103460004043094AD35C064A02FB00F0B0FBF3F08C
:103470007047064B03FB00F0704700BF001002408E
:1034800000127A004CD100085CD1000800093D0010
:10349000002800F0A08070B50D460446524B1B6812
:1034A00003F007038B420BD24F4A136823F0070344
:1034B0000B431360136803F007038B4240F08D80C9
:1034C000236813F0020F17D013F0040F04D0474AFB
:1034D000536843F4E0635360236813F0080F04D08B
:1034E000424A536843F460535360404A536823F0A0
:1034F000F003A1680B435360236813F0010F31D030
:103500006368012B20D0022B25D0384A126812F0B4
:10351000020F64D035494A6822F0030213434B601E
:10352000FEF720FE0646314B5B6803F00C03626831
:10353000B3EB820F16D0FEF715FE801B41F28833E5
:103540009842F0D9032045E0284A126812F4003F5F
:10355000E0D101203EE0254A126812F0007FD9D167
:10356000012037E0204B1B6803F00703AB420AD968
:103570001D4A136823F007032B431360136803F0FD
:103580000703AB422DD1236813F0040F06D0174A6E
:10359000536823F4E063E1680B435360236813F03E
:1035A000080F07D0114A536823F46053216943EA96
:1035B000C1035360FFF742FF0C4B5B68C3F3031377
:1035C0000B4AD35CD8400B4B18600B4B1868FEF7C6
:1035D00085FD002070BD012070470120FAE7012021
:1035E000F8E70120F6E700BF00200240001002408B
:1035F00034D100080C00002014000020014B186892
:10360000704700BF0C00002008B5FFF7F7FF044B20
:103610005B68C3F30223034AD35CD84008BD00BFF4
:103620000010024044D1000808B5FFF7E7FF044B43
:103630005B68C3F3C223034AD35CD84008BD00BF14
:103640000010024044D1000870B4036A026A22F0FC
:10365000010202624668826922F073020C6844EA41
:10366000020523F002028B6813430D4CA04209D0DF
:103670000B4CA0420DD0466085614A6842630362EC
:1036800070BC704723F00803CA68134323F0040397
:10369000EEE726F440764A6932438E691643EAE73C
:1036A000002C014030B4036A026A22F48072026284
:1036B0004568C26922F073020C68224323F4007348
:1036C0008C6843EA04230F4CA04209D00D4CA04261
:1036D0000ED04560C2614A68C263036230BC704765
:1036E00023F40063CC6843EA042323F48063EDE70A
:1036F00025F440554C6945EA04158C6945EA0415E2
:10370000E7E700BF002C014030B4036A026A22F4EC
:10371000805202624468C26922F4E6420D6842EABD
:10372000052223F400538D6843EA0533074DA84270
:1037300006D04460C2614A680264036230BC7047CC
:1037400024F480444D6944EA8514F2E7002C0140DA
:1037500010B4036A046A24F001040462846924F04A
:10376000F00C4CEA021223F00A030B43826103625D
:1037700010BC704710B4036A046A24F01004046299
:10378000846924F4704C4CEA023223F0A00343EA2B
:1037900001138261036210BC7047836823F07003D9
:1037A0000B4343F0070383607047704703681B4A6D
:1037B00090420AD0B0F1804F07D0A2F594329042E7
:1037C00003D002F58062904203D123F070034A686F
:1037D0001343124A90420AD0B0F1804F07D0A2F5AD
:1037E0009432904203D002F58062904203D123F4D8
:1037F0004073CA68134323F080034A69134303608C
:103800008B68C3620B688362044B984202D0012329
:10381000436170470B690363F9E700BF002C014067
:1038200040B310B5044690F83D30F3B1022384F85C
:103830003D30214651F8040BFFF7B8FF012384F80F
:10384000463084F83E3084F83F3084F8403084F8C5
:10385000413084F8423084F8433084F8443084F8AE
:10386000453084F83D30002010BD80F83C30FEF734
:10387000ADFADBE70120704740B310B5044690F87D
:103880003D30F3B1022384F83D30214651F8040B5A
:10389000FFF78CFF012384F8463084F83E3084F82B
:1038A0003F3084F8403084F8413084F8423084F866
:1038B000433084F8443084F8453084F83D300020AB
:1038C00010BD80F83C30FFF770FFDBE70120704748
:1038D00030B4036A026A22F010020262446882690C
:1038E00022F4E6420D6842EA052223F020038D68A7
:1038F00043EA05130E4DA84209D00D4DA8420ED043
:10390000446082614A688263036230BC704723F07E
:103910008003CD6843EA051323F04003EDE724F468
:1039200040644D6944EA85048D6944EA8504E7E70B
:10393000002C014038B590F83C30012B66D004468D
:103940000D46012380F83C300C2A5AD8DFE802F0FB
:10395000075959591B595959305959594400006848
:10396000FFF772FE2268936943F0080393612268AF
:10397000936923F0040393612268936929690B43D7
:10398000936100203EE00068FFF7A2FF2268936980
:1039900043F4006393612268936923F48063936125
:1039A00022689369296943EA01239361002029E091
:1039B0000068FFF777FE2268D36943F00803D361FC
:1039C0002268D36923F00403D3612268D36929698B
:1039D0000B43D361002015E00068FFF795FE2268D5
:1039E000D36943F40063D3612268D36923F480630D
:1039F000D3612268D369296943EA0123D361002096
:103A000000E00120002384F83C3038BD0220FCE7B0
:103A100010B4846824F47F4C42EA03220A4342EA49
:103A20000C02826010BC704790F83C30012B78D0BB
:103A300010B50446012380F83C30022380F83D3065
:103A40000268936823F47F4323F0770393600B6845
:103A5000602B4CD029D8402B54D00CD9502B22D1DC
:103A6000CA6849680068FFF773FE50212068FFF7B5
:103A700094FE002005E0202B0DD009D9302B0AD070
:103A80000120012384F83D30002384F83C3010BD30
:103A90000BB1102B05D119462068FFF77EFE0020E0
:103AA000EFE70120EDE70120EBE7B3F5805F34D0CD
:103AB000B3F5005F0CD1CB684A6889680068FFF7EE
:103AC000A7FF2268936843F4804393600020D8E7FF
:103AD000702B24D1CB684A6889680068FFF798FF8B
:103AE0002268936843F0770393600020C9E7CA68AF
:103AF00049680068FFF73EFE60212068FFF74DFE31
:103B00000020BEE7CA6849680068FFF721FE40212F
:103B10002068FFF742FE0020B3E70020B1E7012054
:103B2000AFE70220704701F01F01012303FA01FCF7
:103B3000036A23EA0C030362036A02FA01F10B43EE
:103B40000362704710B50446084651BB94F83E30F6
:103B5000DBB2013B18BF0123002B5BD1002839D118
:103B6000022384F83E30012201462068FFF7DBFF84
:103B700023682A4A93423DD02368284A93423ED084
:103B8000B3F1804F3BD0A2F59432934237D002F587
:103B90008062934233D01A6842F001021A6000201A
:103BA00039E0042908D008290DD094F84130DBB25F
:103BB000013B18BF0123CFE794F83F30DBB2013B54
:103BC00018BF0123C8E794F84030DBB2013B18BFAF
:103BD0000123C1E7042805D0082807D0022384F870
:103BE0004130C0E7022384F83F30BCE7022384F869
:103BF0004030B8E75A6C42F400425A64BCE79A6815
:103C000002F00702062A07D01A6842F001021A6081
:103C1000002000E0012010BD0020FCE7002C014046
:103C200090F83C30012B2CD010B4012380F83C30AC
:103C3000022380F83D3003685A689C6822F0700CBB
:103C40000A6842EA0C025A6003680F4A93420AD09B
:103C5000B3F1804F07D0A2F59432934203D002F51E
:103C60008062934204D124F080044A6814439C602B
:103C7000012380F83D30002380F83C30184610BC0A
:103C800070470220704700BF002C014010B5044669
:103C90000268136923F44053C1680B4313618368BE
:103CA0000269134342691A430168CB6823F4B05395
:103CB00023F00C031343CB600268536923F4407371
:103CC00081690B4353610268134B9A4220D0FFF77E
:103CD0009BFC024602EB820202EB820263689B00BD
:103CE000B2FBF3F20D48A0FB02314909642303FB48
:103CF00011231B013233A0FB03235B0903F0F00205
:103D000002EB011203F00F03216813448B6010BD16
:103D1000FFF78AFC0246DDE7003801401F85EB51C2
:103D20002DE9F84305460F4616469946DDF82080F2
:103D30002C68246837EA04030CBF4FF0010C4FF0E5
:103D4000000CB4452DD1B8F1FF3FF1D0B8F1000F10
:103D500005D0FEF707FAA0EB09004045E8D92A682C
:103D600002F10C0353E8003F23F4D0730C3242E815
:103D700000310029F3D12A6802F1140353E8003F0F
:103D800023F00103143242E800310029F3D120234B
:103D900085F8413085F84230002385F84030032013
:103DA00000E00020BDE8F88360B310B5044690F849
:103DB000413013B3242384F841302268D36823F4BC
:103DC0000053D3602046FFF761FF2268136923F494
:103DD000904313612268536923F02A0353612268D8
:103DE000D36843F40053D36000206064202384F838
:103DF000413084F84230606310BD80F84030FEF7F7
:103E0000DDF8D7E7012070472DE9F04182B01E466A
:103E100090F84130DBB2202B4BD104460D46904642
:103E200000294AD00AB9012044E000234364212339
:103E300080F84130FEF796F90746A4F82480A4F8EC
:103E40002680A368B3F5805F02D04FF000080FE032
:103E50002369FBB14FF000080AE038F8023B226802
:103E6000C3F308035360E28C92B2013A92B2E28447
:103E7000E38C9BB28BB100963B460022802120460A
:103E8000FFF74EFFD8B9002DE7D015F8012B2368B6
:103E90005A60E8E7A8460025EAE700963B4600227C
:103EA00040212046FFF73CFF58B9202384F84130D9
:103EB00000E0022002B0BDE8F0810120FAE7032013
:103EC000F8E70320F6E72DE9F04182B01E4690F8AE
:103ED0004230DBB2202B53D104460D4690460029D8
:103EE00052D00AB901204CE000234364222280F81A
:103EF00042200363FEF736F90746A4F82C80A4F8A5
:103F00002E80A368B3F5805F02D04FF0000817E061
:103F1000236913B14FF0000812E0A84600250FE016
:103F200023685B68C3F3080328F8023B03E02368B7
:103F30005B682B700135E28D92B2013A92B2E28554
:103F4000E38D9BB2BBB100963B4600222021204668
:103F5000FFF7E6FED0B9002DE2D0A368B3F5805F8D
:103F6000E5D013B92369002BE1D023685B6803F027
:103F70007F032B70DEE7202384F84230002000E02E
:103F8000022002B0BDE8F0810120FAE70320F8E743
:103F900010B584B04FF47A74029401920093012317
:103FA0000A4600FA03F10448FEF7D4FD08B904B04C
:103FB00010BD0120FBE700BF180A002000B583B048
:103FC000234B93F82430CBB1A0B102238DF80730F6
:103FD0001F4B586819680DF107030122497C0078CE
:103FE000FFF7D6FF48BB9DF80720194B5A7403B062
:103FF0005DF804FB00238DF80730E9E7144B9B7A4A
:10400000F3B110B1124B5B7CEBB990B101238DF889
:1040100007300F4B586819680DF107030122497CDE
:104020000078FFF7B5FF80B99DF80720084B5A7458
:10403000DDE700238DF80730EBE74FF0FF30D6E7E0
:104040004FF0FF30D3E70020D1E74FF0FF30CEE74D
:104050001800002010B584B040004FF47A74029428
:104060000192009301230A4640EA03010348FEF748
:1040700023FE08B904B010BD0120FBE7180A002098
:104080002DE9F04188B005460C46164601238DF80F
:10409000143000238DF81530844B5868196805AB2F
:1040A0000222497D0078FFF773FF002840F0CD81A0
:1040B000C820FEF75DF800238DF814307B4B58685C
:1040C000196805AB0122497C0078FFF761FF0028E1
:1040D00040F0BE81754B5868196805AB01224979DB
:1040E0000078FFF755FF002840F0B5816F4B586806
:1040F000196805AB0122497D0078FFF749FF0028C8
:1041000040F0AC81694B5868196805AB0122897E83
:104110000078FFF73DFF002840F0A381634B58680B
:10412000196805AB012209790078FFF731FF0028F3
:1041300040F09A810C238DF814305C4B5868196854
:1041400005AB012209790078FFF722FF002840F033
:104150008E810F20FEF70CF8544B9A6A527A8DF834
:1041600014205868196805AB012289780078FFF798
:104170000FFF002840F07E814C4B9A6A127A8DF82E
:1041800014205868196805AB012249780078FFF7B8
:10419000FFFE002840F07181002E79D0434B9B6ACE
:1041A0009B7A63F01F038DF81430404B58681968F0
:1041B00005AB012289790078FFF7EAFE002840F07C
:1041C0005F81002E6AD0394B9B6ADB7A63F01F0354
:1041D0008DF81430354B5868196805AB0122C97940
:1041E0000078FFF7D5FE002840F04D81002E59D110
:1041F00040238DF814302D4B5868196805AB012207
:1042000009790078FFF7C4FE002840F03F81782349
:104210008DF81430254B5868196805AB012249798F
:104220000078FFF7B5FE002840F033813220FDF71B
:104230009FFF00238DF814301C4B5868196805AB9C
:10424000012249790078FFF7A3FE002840F024817D
:10425000164B5868196805AB0222097B0078FFF7F6
:10426000F9FE8046002840F01A819DF814309DF830
:10427000157047EA03270E4BA3FB0737C7F3C707A1
:104280000026AE606E602E60A660666026605BE011
:10429000064B9B6A9B7A8DF8143086E718238DF8BD
:1042A000143097E7C820FDF763FFA1E7180000204E
:1042B000ABAAAAAA9DF814309DF8151041EA032173
:1042C00009B2ADF804109DF816309DF8172042EAA7
:1042D000032212B2ADF806209DF818009DF819309F
:1042E00043EA00231BB2ADF8083020680144216086
:1042F00061680A446260A2681344A3609DF81A30A2
:104300009DF81B1041EA032109B2ADF80C109DF88D
:104310001C309DF81D2042EA032212B2ADF80E2097
:104320009DF81E009DF81F3043EA00231BB2ADF834
:10433000103028680144296069680A446A60AA68E4
:104340001344AB600136F6B2BE4210D2554B5868EA
:10435000196805AB0C22497B0078FFF77BFE00282B
:10436000A8D04FF0FF38404608B0BDE8F08129687A
:104370008322002308040914FCF7D2FE00263A46E3
:104380003346FCF7CDFE28606968832200230804C9
:104390000914FCF7C5FE3A463346FCF7C1FE6860D7
:1043A000A9688322002308040914FCF7B9FE3A46E1
:1043B0003346FCF7B5FEA8602068031400041946D4
:1043C000B3422CDBC00A3A46334640EA4150C91298
:1043D000FCF7A6FE20606068031400041946002B59
:1043E00023DBC00A3A46334640EA4150C912FCF783
:1043F00097FE6060A068031400041946002B1ADBC6
:10440000C00A3A46334640EA4150C912FCF788FEDA
:10441000A060002815DDA0F58030A060A3E740F281
:10442000FF72801843F10001CCE740F2FF72801860
:1044300043F10001D5E740F2FF72801843F100011B
:10444000DEE700F58030A0608DE74FF0FF388AE7A7
:104450004FF0FF3887E74FF0FF3884E74FF0FF3821
:1044600081E74FF0FF387EE74FF0FF387BE74FF0F2
:10447000FF3878E74FF0FF3875E74FF0FF3872E705
:104480004FF0FF386FE74FF0FF386CE74FF0FF3821
:1044900069E74FF0FF3866E74FF0FF3863E74FF00A
:1044A000FF3860E7180000202DE9F04182B0074690
:1044B0002C4B586801AB04220D210078FFF7CAFD90
:1044C000002849D180469DF80420D21002F01C0239
:1044D0009DF80710C1F301131A438DF800209DF8D1
:1044E0000520D21002F01C02C1F381031A438DF89B
:1044F00001209DF80630DB1003F01C0301F00301DE
:104500000B438DF80230002418E007EB8405164BAE
:1045100047F8243004E015492868FCF7F5FB2860CB
:1045200006F108030DEB030212F8083C013BDBB275
:1045300002F8083C002BEED10134E4B2022C0DD875
:10454000264604F108036B4413F8083C002BDCD129
:10455000002347F82430EFE74FF00708404602B049
:10456000BDE8F081180000207B14AE3E1D5A843F48
:104570002DE9F04385B08146884601A8FFF794FFF6
:1045800000273C460DE021493046FCF75BFD20B991
:104590001F493046FCF774FD10B10123A3401F43AF
:1045A0000134022C2EDCA50059F8240058F82430E0
:1045B000C01A0028B8BF4042FCF752FB4FF05E51D2
:1045C000FCF7A2FB064605F110030DEB030555F8B9
:1045D0000C5C00212846FCF72BFD0028D3D129468E
:1045E0003046FCF745FC4FF07E51FCF783FA20F093
:1045F00000400849FCF744FD0028D1D00123A34026
:104600001F43CDE7384605B0BDE8F0839A99993E3F
:104610003333733F295C0F3E2DE9F04182B00646EB
:104620000F46394B586801AB03220D210078FFF784
:1046300011FD002861D104469DF8043003F01F03EA
:104640008DF804309DF8053003F01F038DF8053018
:104650009DF8063003F01F038DF80630804628E0F1
:104660002A49FCF751FB04F108030DEB030212F891
:10467000043C013BDBB202F8043C002BF0D10146C4
:104680002846FCF7F5FB4FF07E51FCF733FA20F09B
:1046900000401F49FCF7F4FC50B10123A34048EA55
:1046A000030805E01B48DEE70123A34048EA0308AE
:1046B0000134022C23DC56F8240057F82430C01AA9
:1046C0000028B8BF4042FCF7CBFA4FF05E51FCF730
:1046D0001BFB054604F108036B4413F8043C002B54
:1046E000E0D10D49FCF7AEFC0028DDD10B4928468E
:1046F000FCF7C6FC0028DBD0D6E74FF007084046A1
:1047000002B0BDE8F08100BF1800002054E3853FEF
:10471000295C0F3E0000C841000020410000D24249
:104720007C4B9B7A002B00F0D48000B583B0002333
:104730008DF80730774B586819680DF1070301228F
:10474000497C0078FFF724FC002840F0C580714BBD
:10475000586819680DF10703012249790078FFF7BD
:1047600017FC002840F0BB806A4B586819680DF1AF
:104770000703012209790078FFF70AFC002840F0BE
:10478000B180644B93F82430002B52D00C238DF869
:104790000730604B586819680DF107030122097949
:1047A0000078FFF7F5FB002840F09F803220FDF7EE
:1047B000DFFCC0238DF80730564B9B7A13F0010FB6
:1047C00002D0E0238DF80730524B586819680DF17C
:1047D0000703012209790078FFF7DAFB002840F08F
:1047E00087804C4B5B7C03B302238DF80730494B29
:1047F000586819680DF107030122497C0078FFF71A
:10480000C7FB002877D100238DF80730414B58684B
:1048100019680DF10703012249790078FFF7B8FB09
:1048200000286BD103B05DF804FB00238DF807303E
:10483000DDE704238DF80730364B586819680DF111
:104840000703012209790078FFF7A2FB002858D15D
:10485000304B9B7C23B92F4B9B7A13F0010F30D147
:1048600040238DF807302B4B586819680DF107036A
:10487000012209790078FFF78BFB002844D1322010
:10488000FDF776FC234B5B7CFBB101238DF80730F1
:10489000204B586819680DF107030122497C007804
:1048A000FFF776FB98BB1B4B586853F8101B01228F
:1048B00049790078FFF76CFB0028B3D04FF0FF3048
:1048C000B0E760238DF80730CDE700238DF807307F
:1048D000DEE74FF0FF3070474FF0FF30A2E74FF0B8
:1048E000FF309FE74FF0FF309CE74FF0FF3099E734
:1048F0004FF0FF3096E74FF0FF3093E74FF0FF3077
:1049000090E74FF0FF308DE74FF0FF308AE74FF030
:10491000FF3087E7180000200D4B1B7A032B13D8BC
:10492000DFE803F002060A0EFA2303800020704736
:104930004FF4FA730380F9E74FF47A730380F5E7D5
:104940004FF4FA630380F1E700230380EEE700BF32
:1049500018000020244B9B7A002B3CD000B583B07C
:10496000B0F57A7F33D00BD8FA2813D0B0F5FA7FA0
:1049700003D108238DF807300FE04FF0FF3023E01C
:10498000B0F5FA6F03D118238DF8073005E04FF02A
:10499000FF3019E000238DF80730134B1B7A9DF888
:1049A0000720B3EBD20F19D00F4B586819680DF1DF
:1049B0000703012289790078FFF7EAFA80B99DF8A8
:1049C0000730DB08084A137203B05DF804FB1023BC
:1049D0008DF80730E1E74FF0FF3070470020F3E734
:1049E0004FF0FF30F0E700BF180000200F4B5B7A5C
:1049F000032B16D8DFE803F0020C0F12022303701A
:104A00000A4BDB7C83B103785B00037000207047A6
:104A100004230370F4E708230370F1E71023037005
:104A2000EEE74FF0FF30704700207047180000207D
:104A3000234B9B7A002B35D000B583B002380E286B
:104A400033D8DFE800F008322332323227323232F4
:104A5000323232322B0000238DF80730184B5B7A4C
:104A60009DF80720B3EBD20F24D0154B5868196876
:104A70000DF107030122C9790078FFF789FAD8B947
:104A80009DF80730DB080E4A537210E008238DF8BA
:104A90000730E3E710238DF80730DFE718238DF8A0
:104AA0000730DBE74FF0FF3070474FF0FF3003B0C7
:104AB0005DF804FB0020FAE74FF0FF30F7E700BF96
:104AC000180000200F4BDB7A013B052B17D8DFE8DD
:104AD00003F003070A0D1013BC2303800020704766
:104AE00062230380FAE72A230380F7E71423038075
:104AF000F4E70A230380F1E705230380EEE70023B0
:104B00000380EBE718000020234B9B7A002B3AD060
:104B100000B583B0BB281AD901238DF807301E4B8E
:104B2000DA7A9DF807309A4230D01B4B58681968E2
:104B30000DF10703012289780078FFF729FA38BBC5
:104B40009DF80720144BDA7203B05DF804FB61286E
:104B500003D902238DF80730E1E7292803D903237D
:104B60008DF80730DBE7132803D904238DF80730CD
:104B7000D5E7092803D905238DF80730CFE70623A9
:104B80008DF80730CBE74FF0FF3070470020DBE7B0
:104B90004FF0FF30D8E700BF18000020054B93F816
:104BA000243023B9034BDB890380002070474FF08A
:104BB000FF307047180000200D4B1B7A032B13D8D1
:104BC000DFE803F002060A0E0A4B0360002070477C
:104BD000094B036000207047084B036000207047BA
:104BE000074B0360002070474FF0FF30704700BF55
:104BF00018000020000003430000834233330342C7
:104C000033338341114B5B7A032B1AD8DFE803F06F
:104C1000020D11154FF4804303800C4BDB7C9BB1DC
:104C200003885B080380002070474FF40053038023
:104C3000F3E74FF480530380EFE74FF40063038002
:104C4000EBE74FF0FF30704700207047180000205E
:104C5000024B1B7C03700020704700BF180000202F
:104C600070B5174B93F824302BBB00F0FE04144BA7
:104C70009B7A13B3124A167C23401374A3420BD0C1
:104C80004FF0FF3514B90E4B1B7D3BB10120FFF7F0
:104C900095F93CB9284670BD0025F3E70020FFF7E1
:104CA0008DF9F6E7FFF73CFD0028F3D0044B1E74A6
:104CB0004FF0FF35EEE70025ECE74FF0FF35E9E771
:104CC000180000202E4B93F82430002B49D0F0B56B
:104CD00083B005460F461646294B9B7A002B43D0DE
:104CE000274B5868196801AB0222097B0078FFF74F
:104CF000B1F900283BD19DF804009DF8054044EA35
:104D00000024AC4223D31E4B58684388B4EB530FA6
:104D10000DD91B4B196801AB0122C97C0078FFF744
:104D200099F938BB9DF8043013F0100F14D1144BCF
:104D3000586819683B46EAB2497B0078FFF78AF960
:104D4000D8B9B4FBF5F4013C347003B0F0BD0023D6
:104D500033704FF0FF30F8E7FFF7E2FC6FF001002F
:104D6000F3E74FF0FF3070474FF0FF30EDE74FF0C3
:104D7000FF30EAE74FF0FF30E7E74FF0FF30E4E7BE
:104D800018000020584B9B7C834200F09C8010B59B
:104D900082B00446002844D0534B586819680DF17E
:104DA0000703012209790078FFF754F9002840F041
:104DB0008C809DF8073023F020038DF807304A4B94
:104DC000586819680DF10703012209790078FFF787
:104DD000DFF800287CD10320FDF7CAF902238DF803
:104DE0000730414B93F8223013B182238DF80730FE
:104DF0003D4B93F823302BB19DF8073043F030033F
:104E00008DF80730384B586819680DF107030122F7
:104E1000C97D0078FFF7BCF8002844D04FF0FF3080
:104E200044E0314B586819680DF1070301220979F4
:104E30000078FFF70FF900284DD12B4B9B7A13F028
:104E4000010F35D09DF8073043F020038DF807306F
:104E5000254B586819680DF107030122097900787C
:104E6000FFF796F8002839D10320FDF781F91E4B92
:104E700093F822301BB380238DF807301A4B93F838
:104E800023302BB19DF8073043F030038DF8073005
:104E9000154B586819680DF107030122C97D007888
:104EA000FFF776F8E8B9104B9C74002002B010BDF3
:104EB0009DF8073023F020038DF80730C8E7002362
:104EC0008DF80730DAE7002070474FF0FF30EDE74C
:104ED0004FF0FF30EAE74FF0FF30E7E74FF0FF30E9
:104EE000E4E74FF0FF30E1E7180000201B4B93F898
:104EF000233083422DD010B582B0044628B330232E
:104F00008DF80730154B9B7C2BB19DF8073043F093
:104F100002038DF80730114B93F822302BB19DF826
:104F2000073063F07F038DF807300C4B5868196821
:104F30000DF107030122C97D0078FFF729F850B968
:104F4000064B83F8234002B010BD00238DF80730D4
:104F5000D8E7002070474FF0FF30F4E7180000203A
:104F600010B582B028285ED80446D0B90020FFF7DB
:104F7000BDFF00238DF8043007238DF805302E4B3C
:104F80005868196801AB0222497D0078FFF700F8E4
:104F9000044600284AD1284B00221A75204602B048
:104FA00010BD0120FFF7A2FF20238DF80430012C53
:104FB00024D0052C29D9142C2ED802238DF80530A5
:104FC0000A20FFF7A1FD9DF805309B0143F0070380
:104FD0008DF80530184B5868196801AB0222497DDD
:104FE0000078FEF7D5FF044618BB134B08229A72CF
:104FF000187301221A75FFF733FECFE700238DF8EF
:1050000005300520FFF780FDDDE701238DF8053031
:105010000520FFF779FDD6E703238DF8053014202E
:10502000FFF772FDCFE74FF0FF34B7E74FF0FF34E3
:10503000B4E74FF0FF34B1E71800002010B582B09C
:10504000254B9B7A002B3ED00446234B93F824300B
:10505000002B3BD1204B1B7D33B1431E9BB2272B32
:105060000AD90020FFF77CFF032C09D9B4F57A7F19
:1050700007D94FF47A7404E0FFF772FF00241FE0B1
:1050800004244FF47A7090FBF4F4013C8DF807404F
:10509000114B586819680DF107030122497800780F
:1050A000FEF776FF0446A0B99DF80700431C4FF4B5
:1050B0007A7090FBF3F0084BD8814008FFF724FD8D
:1050C000204602B010BD4FF0FF34F9E74FF0FF3437
:1050D000F6E74FF0FF34F3E71800002030B583B057
:1050E000044610F0700F51D001238DF80730344B77
:1050F000586819680DF107030122497D0078FEF711
:1051000047FF00284BD19DF8073003F0BF032C4A1E
:10511000137300238DF8073014F0400F02D10423DD
:105120008DF8073014F0200F05D19DF8073043F0BB
:1051300002038DF8073014F0100F05D19DF80730E9
:1051400043F001038DF8073014F0080F05D19DF8E6
:10515000073043F038038DF80730194B5868196849
:105160000DF107030122897D0078FEF711FF054646
:10517000D8B90CB1082C1ED1114B9C7200221A75A3
:105180003220FCF7F5FF284603B030BD18B10023EC
:105190008DF80730ABE740238DF80730A7E7084BC1
:1051A00000229A724FF0FF35EDE7054B00229A720C
:1051B0004FF0FF35E7E70020FFF798FEDCE700BF80
:1051C0001800002010B582B080238DF80030384BD5
:1051D000586819686B460122497D0078FEF7D8FEB1
:1051E00000284DD16420FCF7C3FF00238DF8003068
:1051F0002F4B586819686B460122497D0078FEF7ED
:10520000C7FE00283FD12A4B0022DA74FF21997291
:1052100019725972D9724FF6FF70D8811974997446
:105220000121197383F8221083F823205A751A7507
:10523000C3F81620C3F81A20C3F81E2083F82420D0
:1052400083F82520DA844FF4FA60FFF783FBE8B98E
:105250000220FFF7EDFBE0B92A20FFF755FCD8B993
:105260003220FFF7EBFED0B9FFF7FAFCD0B9FFF719
:1052700089FD0446C8B9FFF731FF204602B010BDD2
:105280004FF0FF34F9E74FF0FF34F6E74FF0FF340B
:10529000F3E74FF0FF34F0E74FF0FF34EDE74FF066
:1052A000FF34EAE74FF0FF34E7E74FF0FF34E4E77D
:1052B000180000203AB370B582B00C461646194B60
:1052C0009B7A1BB3030A8DF80430C0B28DF8050039
:1052D0000844144B5D686B8998421ADC114B1968BD
:1052E00001AB0222C97E2878FEF752FEA0B90D4B11
:1052F000586819683346E2B2097E0078FEF748FE26
:1053000068B902B070BD4FF0FF3070474FF0FF300A
:10531000F7E74FF0FF30F4E74FF0FF30F1E74FF0E1
:10532000FF30EEE7180000203AB370B582B00C46AB
:105330001646194B9B7A1BB3030A8DF80430C0B292
:105340008DF805000844144B5D686B8998421ADC9F
:10535000114B196801AB0222C97E2878FEF718FEAE
:10536000A0B90D4B586819683346E2B2097E00783F
:10537000FEF770FE68B902B070BD4FF0FF307047A5
:105380004FF0FF30F7E74FF0FF30F4E74FF0FF301A
:10539000F1E74FF0FF30EEE7180000202DE9F04F65
:1053A00087B09A46294B93F82530002B3CD107460D
:1053B0008846914600293AD00024BC421BD23E1BAD
:1053C000102EA8BF1026B5B208EB040B5A4629468A
:1053D0002046FFF76FFF68BB02AA29462046FFF769
:1053E000A3FF50BB2A4602A9584600F033FF38BB42
:1053F0002C44A4B2E1E74FEA19238DF804308DF86C
:105400000590124B5868196801AB0222497F007859
:10541000FEF7BEFDB8B90D4B012283F82520A3F895
:1054200026A007B0BDE8F08F4FF0FF30F9E74FF04E
:10543000FF30F6E74FF0FF30F3E74FF0FF30F0E7D3
:105440006FF00100EDE74FF0FF30EAE718000020B1
:10545000234B93F8243083423CD030B583B018B34B
:105460001F4B93F82530002B36D00020FEF7A6FD09
:105470000020FFF787FC1A4DE88CFFF7DFFD0024C2
:105480008DF8074068680DF1070301222321007899
:10549000FEF77EFD012085F82400FEF78FFDFFF763
:1054A0003FF9204603B030BD0020FEF787FD0C4DCC
:1054B0002B7C8DF8073068680DF10703012223214A
:1054C0000078FEF765FD002485F82440FFF728F9F1
:1054D0002046E7E7002070474FF0FF30E2E700BFCB
:1054E000180000202DE9F04188B005460E463E4BDD
:1054F00093F82470FFB901A8FFF70EFA0DF1070029
:10550000FFF774FA6846FFF7DDFA0DF10200FFF7C6
:1055100045FB354B93F80A800DF10600FFF798FB29
:105520000024012C0CDC002231462846FEF7A8FDA1
:1055300030B10134F5E70020FFF78AFF0127DAE7F1
:10554000022C48D00024012C07DC012202A905A866
:10555000FEF796FD08B10134F5E7022C3DD002A913
:105560003046FFF705F8C6B205A92846FFF754F8FC
:1055700010F0FF0F2DD000240EB944F0020444F0C7
:105580000404194BFF221A725A72DA724FF6FF7135
:10559000D9819A721A7401221A73BDF80400FFF7B8
:1055A000D9F99DF80700FFF743FABDF80000FFF7AF
:1055B000ABFABDF80200FFF741FD4046FFF78EFD54
:1055C0009DF80600FFF74CFB4FB9204608B0BDE838
:1055D000F0810124D0E70024D3E70024D1E70120A3
:1055E000FFF736FFF1E700BF1800002038B504468A
:1055F000C578437813F0010F09D005F03F00C008CB
:1056000005F007010131074B1B6803B19847637828
:1056100013F0080F04D0034B5B680BB1A80998473F
:10562000002038BD500B002008B5C8234FF480621D
:10563000024940F6F630FFF7B1FE08BDECD1000894
:1056400010B586B004464C4B1B68ADF80C301B0CF3
:105650008DF80E30494B1B68ADF808301B0C8DF8E7
:105660000A30474B1B68ADF804301B0C8DF8063030
:10567000444B1B68ADF800301B0C8DF8023000F075
:10568000030101F118030DEB030111F80C3C8DF837
:105690001430C0F3C10202F118030DEB030212F83B
:1056A0000C3C8DF81530C0F3811318336B4413F89C
:1056B0000C0C8DF8160011F8101C8DF8101012F853
:1056C000102C8DF8112013F8103C8DF8123005AA1B
:1056D000032140F22640FFF7EDFD002840D104AA47
:1056E000032140F22A40FFF7E5FD00283BD1019B52
:1056F000ADF814301B0C8DF81630009BADF810304F
:105700001B0C8DF8123014F0040F05D037238DF8E0
:10571000143027238DF8103014F0200F05D05723B4
:105720008DF8153047238DF8113014F4807F05D0A3
:1057300077238DF8163067238DF8123005AA0321E0
:105740004FF48860FFF7B6FD80B904AA032140F248
:105750003140FFF7AFFD60B90B4B1C8106B010BDA7
:105760004FF0FF30FAE74FF0FF30F7E74FF0FF3030
:10577000F4E74FF0FF30F1E7B4D10008B8D10008EA
:10578000BCD10008C0D10008500B002010B586B075
:105790000446164B93E8070006AB03E90700C82C44
:1057A0001AD8C82393FBF4F3013B1A0E8DF804209A
:1057B0008DF8053001AA022140F21620FFF77AFD8C
:1057C00068B903AA0C2140F6C120FFF773FD48B960
:1057D000074B9C8106B010BD4FF0FF30FAE74FF049
:1057E000FF30F7E74FF0FF30F4E700BFC4D1000807
:1057F000500B002070B582B0044610F0070F00F087
:10580000AC800846B1F5C86F00F2AA80FBF724FA15
:105810005B49FBF72DFB05460DF10300FFF7E6F8AA
:105820009DF80330023B0E2B00F29D80DFE803F071
:10583000089B2C9B9B9B3C9B9B9B9B9B9B9B4C0003
:105840004FF08D412846FBF75FFAFBF749FC86B223
:105850004C492846FBF758FAFBF742FC80B2330A62
:105860008DF804308DF80560030A8DF806308DF848
:10587000070014F0010F37D114F0020F48D114F0D3
:10588000040F58D1002070E04FF08C412846FBF700
:105890003BFAFBF725FC86B23B492846FBF734FA76
:1058A000FBF71EFC80B2DAE74FF08B412846FBF78E
:1058B0002BFAFBF715FC86B234492846FBF724FA8D
:1058C000FBF70EFC80B2CAE74FF08A412846FBF78F
:1058D0001BFAFBF705FC86B22D492846FBF714FAA4
:1058E000FBF7FEFB80B2BAE701AA02214FF4EA708F
:1058F000FFF7E0FC00283AD10DF1060202214FF437
:105900009270FFF7D7FC0028B6D04FF0FF302CE0A4
:1059100001AA02214FF4EC70FFF7CCFC50BB0DF153
:10592000060202214FF49470FFF7C4FC0028A6D0B1
:105930004FF0FF3019E001AA02214FF4EE70FFF79B
:10594000B9FCD0B90DF1060202214FF49670FFF7B1
:10595000B1FC50B14FF0FF3007E04FF0FF3004E0F2
:105960004FF0FF3001E04FF0FF3002B070BD4FF05C
:10597000FF30FAE74FF0FF30F7E74FF0FF30F4E782
:1059800000004843000040460000C045000040457C
:105990000000C04400B583B000238DF8073010F03C
:1059A000010F02D030238DF8073010F0020F05D020
:1059B0009DF8073043F00C038DF8073010F0040F0A
:1059C00005D09DF8073043F003038DF807300DF143
:1059D000070201214FF4A470FFF76CFC03B05DF8DF
:1059E00004FB00B583B020B10346042802D9042388
:1059F00000E00123013B8DF807300DF10702012182
:105A000040F24F10FFF756FC03B05DF804FB0000B6
:105A100000B583B0094BA3FB0030830A8DF8043036
:105A2000C0F387008DF8050001AA02214FF4EF7042
:105A3000FFF740FC03B05DF804FB00BFCDCCCCCC3D
:105A400000B583B0094BA3FB0030830A8DF8043006
:105A5000C0F387008DF8050001AA02214FF4ED7014
:105A6000FFF728FC03B05DF804FB00BFCDCCCCCC25
:105A700000B583B00E4B83FB0023C017C0EBA3100F
:105A800000FB01F10B0E8DF80430C1F307438DF8D4
:105A90000530C1F307238DF806308DF8071001AAF1
:105AA00004214FF4AE70FFF705FC03B05DF804FB72
:105AB000D34D621000B583B0084BA3FB00308308C0
:105AC000800A8DF804008DF8053001AA02214FF4F8
:105AD000AD70FFF7EFFB03B05DF804FBCDCCCCCC91
