:020000040800F2
:1000000000500020D91B0008AD160008AF160008EC
:10001000B1160008B3160008B5160008000000006D
:10002000000000000000000000000000B7160008FB
:10003000B916000800000000BB160008BD16000835
:10004000211C0008211C0008211C0008211C00089C
:10005000211C0008211C0008211C0008211C00088C
:10006000211C0008211C0008211C0008211C00087C
:10007000211C0008211C0008211C0008211C00086C
:10008000211C0008211C0008211C0008211C00085C
:10009000211C0008211C0008211C0008211C00084C
:1000A000211C0008211C0008211C0008211C00083C
:1000B000C5160008211C0008D5160008211C0008E0
:1000C000211C0008211C0008211C0008211C00081C
:1000D000211C0008E5160008211C0008211C00084E
:1000E000211C0008211C0008211C00080000000041
:1000F0000000000000000000000000000000000000
:0C01000000000000000000005FF808F1A3
:1001100010B5054C237833B9044B13B10448AFF341
:1001200000800123237010BDC009002000000000E2
:100130008CA2000808B5034B1BB103490348AFF379
:10014000008008BD00000000C40900208CA2000847
:100150004FF0FF0C1CEAD0521EBF1CEAD15392EAAA
:100160000C0F93EA0C0F6FD01A4480EA010C400286
:1001700018BF5FEA41211ED04FF0006343EA5010E0
:1001800043EA5111A0FB01310CF00040B1F5000F22
:100190003EBF490041EAD3715B0040EA010062F1D1
:1001A0007F02FD2A1DD8B3F1004F40EBC25008BFBB
:1001B00020F00100704790F0000F0CF0004C08BFD9
:1001C00049024CEA502040EA51207F3AC2BFD2F1A6
:1001D000FF0340EAC250704740F400004FF00003B4
:1001E000013A5DDC12F1190FDCBF00F000407047EE
:1001F000C2F10002410021FA02F1C2F1200200FA2C
:1002000002FC5FEA310040F1000053EA4C0308BFF2
:1002100020EADC70704792F0000F00F0004C02BF43
:10022000400010F4000F013AF9D040EA0C0093F0BE
:10023000000F01F0004C02BF490011F4000F013B18
:10024000F9D041EA0C018FE70CEAD15392EA0C0F86
:1002500018BF93EA0C0F0AD030F0004C18BF31F0F1
:10026000004CD8D180EA010000F00040704790F0C7
:10027000000F17BF90F0004F084691F0000F91F06B
:10028000004F14D092EA0C0F01D142020FD193EA31
:100290000C0F03D14B0218BF084608D180EA0100B9
:1002A00000F0004040F0FE4040F40000704740F095
:1002B000FE4040F44000704781F0004102E000BF82
:1002C00083F0004330B54FEA41044FEA430594EA16
:1002D000050F08BF90EA020F1FBF54EA000C55EA51
:1002E000020C7FEA645C7FEA655C00F0E2804FEA22
:1002F0005454D4EB5555B8BF6D420CDD2C4480EA04
:10030000020281EA030382EA000083EA010180EA33
:10031000020281EA0303362D88BF30BD11F0004F81
:100320004FEA01314FF4801C4CEA113102D04042B7
:1003300061EB410113F0004F4FEA03334CEA1333F2
:1003400002D0524263EB430394EA050F00F0A7800A
:10035000A4F10104D5F1200E0DDB02FA0EFC22FA05
:1003600005F2801841F1000103FA0EF2801843FAF9
:1003700005F359410EE0A5F120050EF1200E012AEA
:1003800003FA0EFC28BF4CF0020C43FA05F3C01828
:1003900051EBE37101F0004507D54FF0000EDCF1A1
:1003A000000C7EEB00006EEB0101B1F5801F1BD34A
:1003B000B1F5001F0CD349085FEA30004FEA3C0C4E
:1003C00004F101044FEA445212F5800F80F09A8044
:1003D000BCF1004F08BF5FEA500C50F1000041EB48
:1003E000045141EA050130BD5FEA4C0C404141EB4C
:1003F0000101013C28BFB1F5801FE9D291F0000F47
:1004000004BF01460020B1FA81F308BF2033A3F1F5
:100410000B03B3F120020CDA0C3208DD02F1140CEC
:10042000C2F10C0201FA0CF021FA02F10CE002F127
:100430001402D8BFC2F1200C01FA02F120FA0CFC20
:10044000DCBF41EA0C019040E41AA2BF01EB045169
:10045000294330BD6FEA04041F3C1CDA0C340EDC67
:1004600004F11404C4F1200220FA04F001FA02F3AA
:1004700040EA030021FA04F345EA030130BDC4F168
:100480000C04C4F1200220FA02F001FA04F340EA5D
:100490000300294630BD21FA04F0294630BD94F00E
:1004A000000F83F4801306BF81F480110134013DF5
:1004B0004EE77FEA645C18BF7FEA655C29D094EA66
:1004C000050F08BF90EA020F05D054EA000C04BFE4
:1004D0001946104630BD91EA030F1EBF00210020CF
:1004E00030BD5FEA545C05D14000494128BF41F06E
:1004F000004130BD14F580043CBF01F5801130BDD2
:1005000001F0004545F0FE4141F470014FF000005C
:1005100030BD7FEA645C1ABF194610467FEA655C0D
:100520001CBF0B46024650EA013406BF52EA0335AF
:1005300091EA030F41F4002130BD00BF90F0000F9D
:1005400004BF0021704730B54FF4806404F13204D9
:100550004FF000054FF0000150E700BF90F0000F92
:1005600004BF0021704730B54FF4806404F13204B9
:1005700010F0004548BF40424FF000013EE700BF89
:1005800042004FEAE2014FEA31014FEA02701FBF19
:1005900012F07F4393F07F4F81F06051704732F04B
:1005A0007F4208BF704793F07F4F04BF41F40021A2
:1005B000704730B54FF4607401F0004521F0004100
:1005C0001CE700BF50EA010208BF704730B54FF08A
:1005D00000050AE050EA010208BF704730B511F08B
:1005E000004502D5404261EB41014FF4806404F1C3
:1005F00032045FEA915C3FF4D8AE4FF003025FEA49
:10060000DC0C18BF03325FEADC0C18BF033202EBCC
:10061000DC02C2F1200300FA03FC20FA02F001FA26
:1006200003FE40EA0E0021FA02F11444BDE600BFC9
:1006300070B54FF0FF0C4CF4E06C1CEA11541DBF78
:100640001CEA135594EA0C0F95EA0C0F00F0DEF843
:100650002C4481EA030621EA4C5123EA4C5350EA28
:10066000013518BF52EA033541F4801143F4801379
:1006700038D0A0FB02CE4FF00005E1FB02E506F00A
:100680000042E0FB03E54FF00006E1FB03569CF05F
:10069000000F18BF4EF0010EA4F1FF04B6F5007F65
:1006A00064F5407404D25FEA4E0E6D4146EB0606D7
:1006B00042EAC62141EA55514FEAC52040EA5E5060
:1006C0004FEACE2EB4F1FD0C88BFBCF5E06F1ED80A
:1006D000BEF1004F08BF5FEA500E50F1000041EB41
:1006E000045170BD06F0004646EA010140EA0200EE
:1006F00081EA0301B4EB5C04C2BFD4EB0C0541EA10
:10070000045170BD41F480114FF0000E013C00F324
:10071000AB8014F1360FDEBF002001F0004170BD48
:10072000C4F10004203C35DA0C341BDC04F1140461
:10073000C4F1200500FA05F320FA04F001FA05F2ED
:1007400040EA020001F0004221F0004110EBD370BA
:1007500021FA04F642EB06015EEA430E08BF20EAE6
:10076000D37070BDC4F10C04C4F1200500FA04F389
:1007700020FA05F001FA04F240EA020001F000411B
:1007800010EBD37041F100015EEA430E08BF20EA8E
:10079000D37070BDC4F1200500FA05F24EEA020ED6
:1007A00020FA04F301FA05F243EA020321FA04F005
:1007B00001F0004121FA04F220EA020000EBD370BC
:1007C0005EEA430E08BF20EAD37070BD94F0000FBC
:1007D0000FD101F00046400041EB010111F4801FF0
:1007E00008BF013CF7D041EA060195F0000F18BFA1
:1007F000704703F00046520043EB030313F4801FDD
:1008000008BF013DF7D043EA0603704794EA0C0F96
:100810000CEA135518BF95EA0C0F0CD050EA4106AC
:1008200018BF52EA4306D1D181EA030101F0004129
:100830004FF0000070BD50EA410606BF1046194651
:1008400052EA430619D094EA0C0F02D150EA01365D
:1008500013D195EA0C0F05D152EA03361CBF10469E
:1008600019460AD181EA030101F0004141F0FE413D
:1008700041F470014FF0000070BD41F0FE4141F4C1
:10088000780170BD70B54FF0FF0C4CF4E06C1CEAC1
:1008900011541DBF1CEA135594EA0C0F95EA0C0F76
:1008A00000F0A7F8A4EB050481EA030E52EA033531
:1008B0004FEA013100F088804FEA03334FF0805552
:1008C00045EA131343EA12634FEA022245EA11157F
:1008D00045EA10654FEA00260EF000419D4208BF30
:1008E000964244F1FD0404F5407402D25B084FEADD
:1008F0003202B61A65EB03055B084FEA32024FF489
:1009000080104FF4002CB6EB020E75EB030E22BFE5
:10091000B61A754640EA0C005B084FEA3202B6EBA5
:10092000020E75EB030E22BFB61A754640EA5C0054
:100930005B084FEA3202B6EB020E75EB030E22BFE4
:10094000B61A754640EA9C005B084FEA3202B6EBE5
:10095000020E75EB030E22BFB61A754640EADC00A4
:1009600055EA060E18D04FEA051545EA16754FEA06
:1009700006164FEAC30343EA52734FEAC2025FEA24
:100980001C1CC0D111F4801F0BD141EA00014FF0B3
:1009900000004FF0004CB6E711F4801F04BF014384
:1009A0000020B4F1FD0C88BFBCF5E06F3FF6AFAEA0
:1009B000B5EB030C04BFB6EB020C5FEA500C50F130
:1009C000000041EB045170BD0EF0004E4EEA1131B3
:1009D00014EB5C04C2BFD4EB0C0541EA045170BDBA
:1009E00041F480114FF0000E013C90E645EA060EFE
:1009F0008DE60CEA135594EA0C0F08BF95EA0C0F2C
:100A00003FF43BAF94EA0C0F0AD150EA01347FF473
:100A100034AF95EA0C0F7FF425AF104619462CE74A
:100A200095EA0C0F06D152EA03353FF4FDAE1046AD
:100A3000194622E750EA410618BF52EA43067FF4FE
:100A4000C5AE50EA41047FF40DAF52EA43057FF48E
:100A5000EBAE12E74FEA4102B2F1E04324BFB3F537
:100A6000001CDCF1FE5C0DD901F0004C4FEAC00225
:100A70004CEA5070B2F1004F40EB830008BF20F009
:100A80000100704711F0804F21D113F13872BCBFC3
:100A900001F00040704741F480114FEA5252C2F118
:100AA0001802C2F1200C10FA0CF320FA02F018BF61
:100AB00040F001004FEAC1234FEAD32303FA0CFCB4
:100AC00040EA0C0023FA02F34FEA4303CCE77FEA43
:100AD000625307D150EA01331EBF4FF0FE4040F48D
:100AE0004000704701F0004040F0FE4040F400003C
:100AF000704700BF80F0004002E000BF81F000417D
:100B000042001FBF5FEA410392EA030F7FEA226CB3
:100B10007FEA236C6AD04FEA1262D2EB1363C1BF43
:100B2000D218414048404140B8BF5B42192B88BFB2
:100B3000704710F0004F40F4000020F07F4018BFD5
:100B4000404211F0004F41F4000121F07F4118BFF5
:100B5000494292EA030F3FD0A2F1010241FA03FC9D
:100B600010EB0C00C3F1200301FA03F100F0004385
:100B700002D5494260EB4000B0F5000F13D3B0F14D
:100B8000807F06D340084FEA310102F10102FE2ABC
:100B900051D2B1F1004F40EBC25008BF20F001002C
:100BA00040EA03007047490040EB0000013A28BFCB
:100BB000B0F5000FEDD2B0FA80FCACF1080CB2EB4E
:100BC0000C0200FA0CF0AABF00EBC25052421843CC
:100BD000BCBFD0401843704792F0000F81F4000171
:100BE00006BF80F400000132013BB5E74FEA410344
:100BF0007FEA226C18BF7FEA236C21D092EA030FB0
:100C000004D092F0000F08BF0846704790EA010F29
:100C10001CBF0020704712F07F4F04D1400028BF56
:100C200040F00040704712F100723CBF00F5000038
:100C3000704700F0004343F0FE4040F4000070476E
:100C40007FEA226216BF08467FEA2363014642021A
:100C500006BF5FEA412390EA010F40F4800070472D
:100C60004FF0000304E000BF10F0004348BF4042D3
:100C70005FEA000C08BF704743F0964301464FF00F
:100C800000001CE050EA010208BF70474FF000036B
:100C90000AE000BF50EA010208BF704711F00043AC
:100CA00002D5404261EB41015FEA010C02BF84467C
:100CB0000146002043F0B64308BFA3F18053A3F5DB
:100CC0000003BCFA8CF2083AA3EBC25310DB01FA22
:100CD00002FC634400FA02FCC2F12002BCF1004FA6
:100CE00020FA02F243EB020008BF20F00100704737
:100CF00002F1200201FA02FCC2F1200250EA4C008B
:100D000021FA02F243EB020008BF20EADC707047D0
:100D10004FF0FF3C06E000BF4FF0010C02E000BFC7
:100D20004FF0010C4DF804CD4FEA40024FEA410369
:100D30007FEA226C18BF7FEA236C11D001B052EA1F
:100D4000530C18BF90EA010F58BFB2EB030088BFE5
:100D5000C81738BF6FEAE17018BF40F00100704754
:100D60007FEA226C02D15FEA402C05D17FEA236C36
:100D7000E4D15FEA412CE1D05DF8040B704700BF7D
:100D8000844608466146FFE70FB5FFF7C9FF002814
:100D900048BF10F1000F0FBD4DF808EDFFF7F4FF4D
:100DA0000CBF012000205DF808FB00BF4DF808EDE6
:100DB000FFF7EAFF34BF012000205DF808FB00BF09
:100DC0004DF808EDFFF7E0FF94BF012000205DF82B
:100DD00008FB00BF4DF808EDFFF7D2FF94BF0120DC
:100DE00000205DF808FB00BF4DF808EDFFF7C8FFD5
:100DF00034BF012000205DF808FB00BF42000ED286
:100E0000B2F1FE4F0BD34FF09E03B3EB126209D445
:100E10004FEA002343F0004323FA02F070474FF0FB
:100E20000000704712F1610F01D1420202D14FF070
:100E3000FF3070474FF00000704700BF844641EA22
:100E4000000313F0030349D1403A23D30B68036036
:100E50004B6843608B688360CB68C3600B69036138
:100E60004B6943618B698361CB69C3610B6A036220
:100E70004B6A43628B6A8362CB6AC3620B6B036308
:100E80004B6B43638B6B8363CB6BC36340304031ED
:100E9000403ADBD230320BD30B6803604B684360BF
:100EA0008B688360CB68C36010301031103AF3D286
:100EB0000C3205D351F8043B40F8043B043AF9D214
:100EC000043208D0D2071CBF11F8013B00F8013BE7
:100ED00001D30B8803806046704700BF082A13D3F4
:100EE0008B07B1D010F00303AED0C3F10403D21AC4
:100EF000DB071CBF11F8013B00F8013BA4D331F81C
:100F0000023B20F8023B9FE7043AD9D3013A11F89B
:100F1000013B00F8013BF9D20B7803704B7843702A
:100F20008B788370604670474FF0FF3C06E000BF4F
:100F30004FF0010C02E000BF4FF0010C4DF804CD62
:100F40004FEA410C7FEA6C5C4FEA430C18BF7FEA22
:100F50006C5C1BD001B050EA410C0CBF52EA430C50
:100F600091EA030F02BF90EA020F0020704710F1D0
:100F7000000F91EA030F58BF994208BF90422CBF5F
:100F8000D8176FEAE37040F0010070474FEA410C58
:100F90007FEA6C5C02D150EA013C07D14FEA430C76
:100FA0007FEA6C5CD6D152EA033CD3D05DF8040BE7
:100FB000704700BF8446104662468C461946634619
:100FC00000E000BF01B5FFF7B7FF002848BF10F1F0
:100FD000000F01BD4DF808EDFFF7F4FF0CBF012035
:100FE00000205DF808FB00BF4DF808EDFFF7EAFFB1
:100FF00034BF012000205DF808FB00BF4DF808ED6C
:10100000FFF7E0FF94BF012000205DF808FB00BF60
:101010004DF808EDFFF7CEFF94BF012000205DF8EA
:1010200008FB00BF4DF808EDFFF7C4FF34BF0120F7
:1010300000205DF808FB00BF4FEA410C7FEA6C5CC2
:1010400002D150EA013C0AD14FEA430C7FEA6C5CC2
:1010500002D152EA033C02D14FF0000070474FF03A
:10106000010070474FEA410212F5001215D211D566
:101070006FF47873B3EB625212D94FEAC12343F095
:10108000004343EA505311F0004F23FA02F018BF17
:10109000404270474FF00000704750EA013005D1E0
:1010A00011F0004008BF6FF0004070474FF00000A3
:1010B000704700BF53B94AB9002908BF00281CBFB8
:1010C0004FF0FF314FF0FF3000F076B9ADF1080C72
:1010D0006DE904CE00F006F8DDF804E0DDE9022356
:1010E00004B070472DE9F047089E0D460446884637
:1010F000002B4DD18A42944668D9B2FA82F252B19D
:1011000001FA02F3C2F1200120FA01F10CFA02FC0B
:1011100041EA030894404FEA1C41B8FBF1F71FFA7B
:101120008CFE01FB178807FB0EF0230C43EA0843F3
:1011300098420AD91CEB030307F1FF3580F01E81AA
:10114000984240F21B81023F63441B1AB3FBF1F04B
:1011500001FB103300FB0EFEA4B244EA0344A64593
:101160000AD91CEB040400F1FF3380F00981A64585
:1011700040F20681644402380021A4EB0E0440EAE8
:1011800007401EB10023D440C6E90043BDE8F08704
:101190008B4208D9002E00F0EE800021C6E9000540
:1011A0000846BDE8F087B3FA83F100294AD1AB4283
:1011B00002D3824200F2FC80841A65EB0303012013
:1011C0009846002EE2D0C6E90048DFE702B9FFDE0C
:1011D000B2FA82F2002A40F09180A1EB0C000121CA
:1011E0004FEA1C471FFA8CFEB0FBF7F307FB130016
:1011F000250C45EA00450EFB03F0A84208D91CEB7C
:10120000050503F1FF3802D2A84200F2CE80434622
:101210002D1AB5FBF7F007FB10550EFB00FEA4B22C
:1012200044EA0544A64508D91CEB040400F1FF3547
:1012300002D2A64500F2B6802846A4EB0E0440EA8E
:1012400003409EE7C1F120078B4022FA07FC4CEADD
:10125000030C25FA07FA4FEA1C49BAFBF9F820FA01
:1012600007F309FB18AA8D401FFA8CFE1D4300FAF4
:1012700001F308FB0EF02C0C44EA0A44A04202FAE7
:1012800001F20BD91CEB040408F1FF3A80F08880CE
:10129000A04240F28580A8F102086444241AB4FBFD
:1012A000F9F009FB104400FB0EFEADB245EA044420
:1012B000A64508D91CEB040400F1FF356CD2A64505
:1012C0006AD90238644440EA0840A0FB0295A4EBC6
:1012D0000E04AC42C846AE4656D353D0002E69D059
:1012E000B3EB080264EB0E0422FA01F304FA07F7E9
:1012F0001F43CC40C6E90074002147E70CFA02FC0A
:10130000C2F1200125FA01F34FEA1C4720FA01F14E
:1013100095400D43B3FBF7F107FB11331FFA8CFE29
:10132000280C40EA034001FB0EF3834204FA02F466
:1013300008D91CEB000001F1FF382FD283422DD9D0
:1013400002396044C01AB0FBF7F307FB1300ADB2DB
:1013500045EA004503FB0EF0A84208D91CEB050541
:1013600003F1FF3816D2A84214D9023B6544281A6B
:1013700043EA014138E73146304607E72F46E4E6C5
:101380001846F9E64B45A9D2B9EB020865EB0C0EFD
:101390000138A3E74346EAE7284694E74146D1E708
:1013A000D0467BE76444023847E7023B65442FE7B9
:1013B000084606E73146E9E6704700BF84B00F4BA8
:1013C0009A6942F020029A619A6902F02002019221
:1013D000019A9A6942F004029A619A6902F0040241
:1013E0000292029A9A6942F008029A619B6903F09C
:1013F00008030393039B04B0704700BF0010024032
:1014000072B6FEE700B591B02822002106A802F0CE
:1014100031FE002301930293039304930593012269
:1014200006924FF4803307930A9202220D920E9394
:101430004FF4E0130F9306A800F046FE80B90F2387
:10144000019302210291002303934FF480620492DE
:10145000059301A801F078F820B911B05DF804FBFC
:10146000FFF7CEFFFFF7CCFF2DE9804893B000F0E7
:10147000FFFBFFF7C7FFFFF7A1FF00F0D7F900F070
:1014800045FB00F06DF900F09FF900F0C9FA00F09B
:1014900083F802F049FB384802F052FD374F00262E
:1014A0000F966C4607F10C050FCD0FC40FCD0FC47E
:1014B0000FCD0FC495E8070084E8070097E80E00F9
:1014C000304602F09BFC2E4F0F966C4607F10C0540
:1014D0000FCD0FC40FCD0FC40FCD0FC495E807007B
:1014E00084E8070097E80E00304602F00DFD25481D
:1014F00001F0ACFB02F0C6FB234C207A7F38FFF7EB
:10150000B3FBFFF73DF81AA3D3E90023FFF7BAF9BD
:1015100000221E4BFFF78CF8FFF79CFA01461C4D8A
:10152000284602F045FB267863781093A178119144
:10153000E77894F8048094F8059094F806A094F85D
:1015400007B0247AA86AFFF71BF8CDE906010594D5
:10155000CDF810B0CDF80CA0CDF80890CDF80480EF
:101560000097119B109A31460A4802F0D5FDC1E759
:101570000000000000C05F40580B0020800A0020DF
:10158000C80A0020100B0020A00B002000408F4054
:10159000FC0B0020A8A2000808B50F480F4B036001
:1015A0004FF48273436000238360C36002220261B0
:1015B00043614FF4007282613822C261802202626C
:1015C000436283620A23C36201F016F900B908BDC1
:1015D000FFF716FFFBE700BFDC09002000300140E9
:1015E00010B586B000230293039304930593026819
:1015F0001A4B9A4201D006B010BD03F560439A69B8
:1016000042F480529A619A6902F480520092009AE0
:101610009A6942F008029A619B6903F008030193FA
:10162000019B2823029302230393032305930C4C6D
:1016300002A9204600F01AFC102302930023039312
:10164000049302A9204600F011FC064A536843F0B7
:10165000E06343F001035360CDE700BF0030014079
:10166000000C01400000014082B00E4B9A6942F02C
:1016700001029A619A6902F001020092009ADA6905
:1016800042F08052DA61DB6903F080530193019BE1
:10169000054A536823F0E06343F00073536002B0DF
:1016A000704700BF0010024000000140FEE7FEE767
:1016B000FEE7FEE7FEE770477047704708B500F0A9
:1016C000E9FA08BD08B5024801F0F9FA08BD00BF03
:1016D000800A002008B5024801F0F1FA08BD00BFF9
:1016E000100B002008B5024802F01CF908BD00BF2D
:1016F000580B00200120704708B502F091FC16231A
:1017000003604FF0FF3008BD08B54FF0FF31FFF721
:10171000F3FFFEE710B503460C4A0D490D4800687B
:1017200040B10C4800680344521A934206D8094A53
:10173000136010BD0748084C0460F2E702F070FC2B
:101740000C2303604FF0FF30F3E700BF0050002090
:1017500000040000340A0020E80D0020704700005B
:1017600000B58DB02422002103A802F083FC0023E1
:10177000019302931248134A0260436083604FF65C
:10178000FF72C2600361436180238361032303937B
:1017900001230593099303A901F0E0FB50B900234D
:1017A0000193029301A9064801F02AFE28B90DB061
:1017B0005DF804FBFFF724FEF1E7FFF721FEF6E7F3
:1017C000380A0020002C014000B58DB024220021F1
:1017D00003A802F04FFC00230193029312484FF03C
:1017E00080420260436083604FF6FF72C260036113
:1017F000802383610323039301230593099303A9A2
:1018000001F0ACFB50B900230193029301A90648F3
:1018100001F0F6FD28B90DB05DF804FBFFF7F0FD0F
:10182000F1E7FFF7EDFDF6E7800A002000B587B08D
:1018300000230293039304930593009301931648A6
:10184000164A026040F2CF224260836042F20F7279
:10185000C26003618023836101F028FB90B94FF4DB
:101860008053029302A90C4801F07AFC68B9002366
:10187000009301936946084801F0C2FD40B907B0E2
:101880005DF804FBFFF7BCFDE9E7FFF7B9FDEEE704
:10189000FFF7B6FDF3E700BF100B00200008004083
:1018A00000B589B00023049305930693079303685A
:1018B000234A934205D0B3F1804F1DD009B05DF8A3
:1018C00004FB204B9A6942F400629A619A6902F41F
:1018D00000620092009A9A6942F004029A619B6940
:1018E00003F004030193019B4FF44073049304A994
:1018F000154800F0BBFAE1E703F50433DA6942F07A
:101900000102DA61DA6902F001020292029A9A692E
:1019100042F004029A619B6903F004030393039B62
:101920000323049304A9084800F0A0FA00221146FA
:101930001C2000F0D3F91C2000F008FABEE700BF1D
:10194000002C0140001002400008014000B583B0A7
:101950000368134A934205D0124A93420DD003B054
:101960005DF804FB104BDA6942F00202DA61DB69D0
:1019700003F002030093009BF1E70B4BDA6942F09E
:101980000402DA61DB6903F004030193019B002286
:1019900011461E2000F0A2F91E2000F0D7F9DEE764
:1019A00000040040000800400010024010B586B05E
:1019B000002302930393049305930268154B9A4204
:1019C00001D006B010BD03F503339A6942F004025A
:1019D0009A619A6902F004020092009A9A6942F0B0
:1019E00008029A619B6903F008030193019BC023DD
:1019F000029302240394059402A9074800F036FAE2
:101A0000032302930394059402A9044800F02EFADC
:101A1000D7E700BF0004004000080140000C01406F
:101A200000B58FB000230A930B930C930D9308938A
:101A300009930193029303930493059306930793E9
:101A40003048314A026047224260836040F2E73208
:101A5000C26003618023836101F028FA002839D134
:101A60004FF480530A930AA9264801F079FB002815
:101A700033D1244801F046FA002831D100230893DD
:101A8000099308A91F4801F0BBFC60BB60230193C8
:101A9000002202920392059201A91A4801F0ECFA81
:101AA00020BB04220DEB0201164801F0E5FA00BB51
:101AB000082201A9134801F0DFFAE8B90C2201A9B4
:101AC000104801F0D9FAD0B90E48FFF76FFF0FB0F8
:101AD0005DF804FBFFF794FCC2E7FFF791FCC8E751
:101AE000FFF78EFCCAE7FFF78BFCCFE7FFF788FC18
:101AF000D7E7FFF785FCDBE7FFF782FCDEE7FFF7C0
:101B00007FFCE1E7C80A00200004004008B50A484D
:101B10000A4B03604FF4E133436000238360C360EA
:101B200003610C2242618361C36101F06BFD00B966
:101B300008BDFFF765FCFBE7580B002000380140AB
:101B400030B587B000230293039304930593026892
:101B50001E4B9A4201D007B030BD03F558439A6935
:101B600042F480429A619A6902F480420092009A9B
:101B70009A6942F008029A619B6903F00803019395
:101B8000019B402302930223039303230593104DEB
:101B900002A9284600F06AF98023029300240394E6
:101BA000049402A9284600F061F90A4A536843F0F8
:101BB000E06343F00403536022462146252000F0F1
:101BC0008DF8252000F0C2F8C5E700BF00380140BD
:101BD000000C0140000001400C480D490D4A002353
:101BE00002E0D458C4500433C4188C42F9D30A4AD2
:101BF0000A4C002301E013600432A242FBD3FFF73A
:101C0000ADFD02F013FAFFF72FFC70470000002033
:101C1000C009002004A70008C0090020E80D00202A
:101C2000FEE7000010B504460E4B18784FF47A73A7
:101C3000B3FBF0F30C4A1068B0FBF3F000F094F83B
:101C400068B90F2C01D901200AE0002221464FF08B
:101C5000FF3000F043F8054B1C60002000E001203D
:101C600010BD00BF0400002000000020080000207C
:101C700008B5074A136843F010031360032000F00F
:101C80001BF80F20FFF7CEFFFFF7EEFC002008BD8A
:101C900000200240034A1168034B1B780B44136079
:101CA000704700BF9C0B002004000020014B186807
:101CB000704700BF9C0B0020074AD36823F4E06301
:101CC0001B041B0C000200F4E060034343F0BF63FD
:101CD00043F40033D360704700ED00E000B5194BCA
:101CE000DB68C3F30223C3F1070CBCF1040F28BF68
:101CF0004FF0040C03F1040EBEF1060F18D9033B9C
:101D00004FF0FF3E0EFA0CFC21EA0C0199400EFA4E
:101D100003F322EA0303194300280BDB0901C9B2CC
:101D200000F1604000F5614080F800135DF804FBAD
:101D30000023E5E700F00F000901C9B2024B195476
:101D4000F4E700BF00ED00E014ED00E0002807DB41
:101D500000F01F02400901239340024A42F820305C
:101D6000704700BF00E100E00138B0F1807F0BD286
:101D70004FF0E0235861054AF02182F8231000203B
:101D8000986107221A6170470120704700ED00E05A
:101D900090F82130022B06D004238363002380F8BF
:101DA0002030012070470268136823F00E0313608F
:101DB0000268136823F001031360036CC16B0122F6
:101DC00002FA03F34B6080F82120002380F82030D2
:101DD0001846704708B590F82130022B03D0042331
:101DE0008363012008BD0268136823F00E031360AB
:101DF0000268136823F0010313600368194A9342D1
:101E000014D0143293421FD0143293421ED0143295
:101E100093421ED0143293421ED01432934202D009
:101E20004FF0807203E04FF4801200E001220E4B6D
:101E30005A60012380F82130002380F82030436B62
:101E40006BB198470020CDE71022F0E74FF4807285
:101E5000EDE74FF48052EAE74FF48032E7E70020E5
:101E6000C0E700BF080002400000024070B582B029
:101E70000024A446A6E0804DAA4210D007D97F4D89
:101E8000AA420CD005F58035AA4208D013E0A5F58A
:101E90008015AA4203D005F57025AA4207D18A68A9
:101EA000002A58D0012A51D04361082403E0A5F547
:101EB0008015AA42F3D0BEF1FF0F4ED80646BEF100
:101EC000FF0F4CD84FEA8C0233680F25954023EA68
:101ED000050304FA02F2134333604B6813F0805F8A
:101EE0006ED0674B9A6942F001029A619B6903F0D8
:101EF00001030193019B4FEA9C02951C614B53F82F
:101F000025600CF003039D000F23AB4026EA030677
:101F10005D4B984229D003F58063984200F08E8093
:101F200003F58063984200F08B8003F5806398424C
:101F300019D004231AE0CC68BDE7CC680434BAE7B2
:101F4000CC680834B7E7CC680C34B4E703610824E4
:101F5000B1E70024AFE70424ADE7061DAFE7ACF11D
:101F600008029200B0E7032300E00023AB403343B4
:101F70000232444D45F822304B6813F4803F61D063
:101F8000424A136843EA0E0313604B6813F4003FA0
:101F90005ED03E4A536843EA0E0353604B6813F425
:101FA000801F5BD0394A936843EA0E0393604B6805
:101FB00013F4001F58D0354AD36843EA0E03D360A8
:101FC0000CF1010C0A6832FA0CF353D0012303FA26
:101FD0000CF302EA030E33EA0202F1D14A68122A34
:101FE0003FF649AF122A3FF666AF01A555F822F039
:101FF0009F1E0008371F0008411F0008531F0008DC
:10200000B71E0008B71E0008B71E0008B71E00085C
:10201000B71E0008B71E0008B71E0008B71E00084C
:10202000B71E0008B71E0008B71E0008B71E00083C
:10203000B71E00083B1F0008471F0008012395E753
:10204000022393E7114A136823EA0E0313609CE707
:102050000E4A536823EA0E0353609FE70B4A9368C6
:1020600023EA0E039360A2E7084AD36823EA0E032B
:10207000D360A5E702B070BD00002210000031104F
:10208000001002400000014000080140000401402F
:102090000AB10161704709040161704782B0084BC1
:1020A0001B68084AA2FB03235B0A00FB03F30193AE
:1020B00000BF019B5A1E0192002BF9D102B070475C
:1020C00000000020D34D6210002800F0F18170B5AF
:1020D00082B00446036813F0010F2CD0994B5B6863
:1020E00003F00C03042B1DD0964B5B6803F00C032C
:1020F000082B12D06368B3F5803F41D0002B55D137
:1021000003F1804303F504331A6822F480321A6025
:102110001A6822F480221A6037E08A4B5B6813F455
:10212000803FE7D0874B1B6813F4003F03D0636800
:10213000002B00F0BF81236813F0020F75D0814B94
:102140005B6813F00C0F5FD07E4B5B6803F00C03F1
:10215000082B54D02369002B00F08A807A4B01228F
:102160001A60FFF7A3FD0546764B1B6813F0020FBC
:1021700075D1FFF79BFD401B0228F5D903209EE196
:10218000704A136843F480331360636843B3FFF706
:102190008DFD05466B4B1B6813F4003FCBD1FFF759
:1021A00085FD401B6428F5D9032088E1B3F5A02FF5
:1021B00009D0644B1A6822F480321A601A6822F43B
:1021C00080221A60E1E703F18043A3F53C331A68EB
:1021D00042F480221A601A6842F480321A60D4E70E
:1021E000FFF764FD0546574B1B6813F4003FA2D070
:1021F000FFF75CFD401B6428F5D903205FE1514BDC
:102200005B6813F4803FA5D14E4B1B6813F0020F9F
:1022100003D02369012B40F04F814A4A136823F011
:10222000F803616943EAC1031360236813F0080FE0
:1022300033D0A369002B5CD0434B0122C3F8802428
:10224000FFF734FD05463F4B5B6A13F0020F21D1C7
:10225000FFF72CFD401B0228F5D903202FE1394A56
:10226000136823F0F803616943EAC1031360DCE7F4
:10227000354B00221A60FFF719FD0546314B1B68EC
:1022800013F0020FD1D0FFF711FD401B0228F5D942
:10229000032014E10120FFF701FF236813F0040F6E
:1022A00000F09680274BDB6913F0805F34D1254B1B
:1022B000DA6942F08052DA61DB6903F080530193FE
:1022C000019B0125214B1B6813F4807F26D0E36816
:1022D000012B3DD0002B53D103F1804303F5043390
:1022E0001A6A22F001021A621A6A22F004021A62C1
:1022F00033E0154B0022C3F88024FFF7D7FC0546D6
:10230000104B5B6A13F0020FC7D0FFF7CFFC401BE6
:102310000228F5D90320D2E00025D3E70B4A136841
:1023200043F480731360FFF7C1FC0646074B1B683C
:1023300013F4807FCBD1FFF7B9FC801B6428F5D95B
:102340000320BCE000100240000042420070004048
:102350005F4A136A43F001031362E36833B3FFF784
:10236000A5FC06465A4B1B6A13F0020F2FD1FFF74C
:102370009DFC801B41F288339842F3D903209EE0F4
:10238000052B09D0524B1A6A22F001021A621A6A0E
:1023900022F004021A62E0E74D4B1A6A42F004028E
:1023A0001A621A6A42F001021A62D6E7FFF77EFC4F
:1023B0000646474B1B6A13F0020F08D0FFF776FC66
:1023C000801B41F288339842F3D9032077E0E5B9C6
:1023D000E369002B72D03E4A526802F00C02082AD0
:1023E00056D0022B17D03B4B00221A66FFF75EFC3B
:1023F0000446374B1B6813F0007F47D0FFF756FCAD
:10240000001B0228F5D9032059E0314AD36923F093
:102410008053D361DCE72F4B00221A66FFF746FC9E
:1024200005462B4B1B6813F0007F06D0FFF73EFCE0
:10243000401B0228F5D9032041E0236AB3F5803F11
:102440001AD023494B6823F47413226A606A02434A
:1024500013434B601F4B01221A66FFF727FC04460B
:102460001B4B1B6813F0007F0ED1FFF71FFC001BF6
:102470000228F5D9032022E0154A536823F40033DB
:10248000A1680B435360DCE7002018E0002016E051
:10249000012B16D00E4B5B6803F48031226A914207
:1024A00011D103F47013626A93420ED1002006E04A
:1024B00001207047012002E0012000E0002002B06E
:1024C00070BD0120FBE70120F9E70120F7E700BF1D
:1024D000001002400000424286B0174B0FCB0DF1B6
:1024E000180C0CE90F0040F20123ADF80430134B37
:1024F0005B6803F00C02082A02D0114806B070474E
:10250000C3F3834218326A4412F8100C13F4803F6C
:102510000DD00A4B5B68C3F3404318336B4413F888
:10252000143C074A02FB00F0B0FBF3F0E6E7054B72
:1025300003FB00F0E2E700BFE0A200080010024049
:1025400000127A0000093D00002800F0A08070B55C
:102550000D460446524B1B6803F007038B420BD217
:102560004F4A136823F007030B431360136803F00B
:1025700007038B4240F08D80236813F0020F17D0C1
:1025800013F0040F04D0474A536843F4E0635360E8
:10259000236813F0080F04D0424A536843F4605391
:1025A0005360404A536823F0F003A1680B43536023
:1025B000236813F0010F31D06368012B20D0022B68
:1025C00025D0384A126812F0020F64D035494A68A3
:1025D00022F0030213434B60FFF768FB0646314BC2
:1025E0005B6803F00C036268B3EB820F16D0FFF751
:1025F0005DFB801B41F288339842F0D9032045E00F
:10260000284A126812F4003FE0D101203EE0254A3A
:10261000126812F0007FD9D1012037E0204B1B68EF
:1026200003F00703AB420AD91D4A136823F00703DE
:102630002B431360136803F00703AB422DD12368CB
:1026400013F0040F06D0174A536823F4E063E168DF
:102650000B435360236813F0080F07D0114A5368E7
:1026600023F46053216943EAC1035360FFF734FF49
:102670000C4B5B68C3F303130B4AD35CD8400B4B82
:1026800018600B4B1868FFF7CDFA002070BD0120D1
:1026900070470120FAE70120F8E70120F6E700BFC4
:1026A0000020024000100240C8A2000800000020E4
:1026B00008000020014B1868704700BF0000002090
:1026C00008B5FFF7F7FF044B5B68C3F30223034A27
:1026D000D35CD84008BD00BF00100240D8A200085B
:1026E00008B5FFF7E7FF044B5B68C3F3C223034A57
:1026F000D35CD84008BD00BF00100240D8A200083B
:102700002DE9F04782B00546884617461E46FFF77A
:10271000CDFA0A9B1B1A03EB0609FFF7C7FA82469C
:102720002B4B1B68C3F3CB3309FB03F301932B68DB
:102730009C6838EA04030CBF4FF0010C4FF0000C0A
:10274000BC4540D0B6F1FF3FF1D0FFF7AFFAA0EBA8
:102750000A0048450AD2B9F1000F07D0019A02B128
:102760004A46019B013B01939146E0E72A68536882
:1027700023F0E00353606B68B3F5827F0BD0AB6A44
:10278000B3F5005F14D0012385F85130002385F89C
:102790005030032018E0AB68B3F5004F02D0B3F51A
:1027A000806FECD12A68136823F040031360E6E7DA
:1027B0002A68136823F4005313602A68136843F4EB
:1027C00000531360DFE7002002B0BDE8F08700BFD0
:1027D0000000002010B582B004460B460092002293
:1027E0008021FFF78DFF08B902B010BD636D43F083
:1027F000200363650320F7E7002856D010B5044690
:10280000436A33B94368B3F5827F05D00023C361BF
:1028100002E00023036143610023A36294F8513076
:10282000002B3CD0022384F851302268136823F037
:1028300040031360636803F48273A26802F40442E5
:102840001343E26802F400621343226902F00202B9
:102850001343626902F001021343A26902F4007299
:102860001343E26902F038021343226A02F0800245
:102870001343A26A02F40052216813430B60638B76
:10288000226803F0040353602268D36923F40063D1
:10289000D36100206065012384F8513010BD84F8B5
:1028A00050302046FEF79CFEBCE7012070472DE922
:1028B000F04383B01F460A9D90F85030012B00F082
:1028C0001081044688469146012380F85030FFF776
:1028D000EDF9064694F85130DBB26268012B0AD05C
:1028E000B2F5827F40F0E380A268002A40F0E980E0
:1028F000042B40F0E880B8F1000F00F0E680B9F159
:10290000000F00F0E480002F00F0E38094F85130D5
:10291000DBB2042B02D0052384F851300023636519
:10292000C4F83890E787A787C4F83080E786A78681
:102930002364636423681A6812F0400F03D11A6895
:1029400042F040021A60E368B3F5006F11D063688B
:102950000BB1012F0BD1226B236812781A73236BF2
:1029600001332363E38E9BB2013B9BB2E3860127D5
:102970006BE063680BB1012F0BD1226B23681288C7
:10298000DA60236B02332363E38E9BB2013B9BB27D
:10299000E38601271CE023689A6812F0010F0ED02D
:1029A000E28F92B25AB1DA68A36B1A80A36B02333A
:1029B000A363E38F9BB2013B9BB2E3870127FFF741
:1029C00075F9801BA84203D3B5F1FF3F40F0838027
:1029D000E38E9BB21BB9E38F9BB2002B53D02368CD
:1029E0009A6812F0020FD6D0E28E92B2002AD2D0AC
:1029F000002FD0D0226B1288DA60236B023323635E
:102A0000E38E9BB2013B9BB2E3860027C3E72368BA
:102A10009A6812F0010F0ED0E28F92B25AB1DA68C2
:102A2000A36B1A70A36B0133A363E38F9BB2013BCB
:102A30009BB2E3870127FFF739F9831BAB4202D32F
:102A4000B5F1FF3F49D1002D49D0E38E9BB213B9B8
:102A5000E38F9BB2BBB123689A6812F0020FD6D005
:102A6000E28E92B2002AD2D0002FD0D0226B127800
:102A70001A73236B01332363E38E9BB2013B9BB23A
:102A8000E3860027C3E7324629462046FFF7A2FE29
:102A900048B9A36863B901932368DA6801929B6817
:102AA0000193019B04E020236365012000E00220E4
:102AB000012384F85130002384F8503003B0BDE87E
:102AC000F0830220F4E70220F2E70120F0E7012082
:102AD000EEE70120ECE70320EAE70320E8E7032024
:102AE000E6E70220EAE7000070B4036A23F001037E
:102AF0000362036A4668826922F073020C6844EA42
:102B0000020523F002028B6813430D4CA04209D04A
:102B10000B4CA0420DD0466085614A684263036257
:102B200070BC704723F00803CA68134323F0040302
:102B3000EEE726F440764A6932438E691643EAE7A7
:102B4000002C014030B4036A23F480730362036AEB
:102B50004568C26922F073020C68224323F40073B3
:102B60008C6843EA04230F4CA04209D00D4CA042CC
:102B70000ED04560C2614A68C263036230BC7047D0
:102B800023F40063CC6843EA042323F48063EDE775
:102B900025F440554C6945EA04158C6945EA04154D
:102BA000E7E700BF002C014030B4036A23F48053F0
:102BB0000362036A4468C26922F4E6420D6842EA8D
:102BC000052223F400538D6843EA0533074DA842DC
:102BD00006D04460C2614A680264036230BC704738
:102BE00024F480444D6944EA8514F2E7002C014046
:102BF00010B4036A046A24F001040462846924F0B6
:102C0000F00C4CEA021223F00A030B4382610362C8
:102C100010BC704710B4046A24F010040462846984
:102C2000036A24F4704C4CEA023223F0A00343EA16
:102C300001138261036210BC7047836823F0700344
:102C40000B4343F0070383607047000090F83D306A
:102C5000DBB2012B27D1022380F83D300268D36814
:102C600043F00103D3600368114A934210D0B3F1DB
:102C7000804F0DD0A2F59432934209D002F58062C4
:102C8000934205D01A6842F001021A600020704792
:102C90009A6802F00702062A07D01A6842F0010279
:102CA0001A6000207047012070470020704700BF65
:102CB000002C01407047704770477047704710B54F
:102CC000044603681A6912F0020F11D0DA6812F094
:102CD000020F0DD06FF002021A610123037703681F
:102CE0009B6913F0030F70D0FFF7E6FF00232377F3
:102CF00023681A6912F0040F12D0DA6812F0040F78
:102D00000ED06FF004021A610223237723689B69B7
:102D100013F4407F5FD02046FFF7CEFF00232377D8
:102D200023681A6912F0080F12D0DA6812F0080F3F
:102D30000ED06FF008021A61042323772368DB6941
:102D400013F0030F4ED02046FFF7B6FF0023237782
:102D500023681A6912F0100F12D0DA6812F0100FFF
:102D60000ED06FF010021A61082323772368DB6905
:102D700013F4407F3DD02046FFF79EFF00232377CA
:102D800023681A6912F0010F03D0DA6812F0010FFC
:102D900036D123681A6912F0800F03D0DA6812F076
:102DA000800F34D123681A6912F0400F03D0DA681B
:102DB00012F0400F32D123681A6912F0200F03D0AD
:102DC000DA6812F0200F30D110BDFFF774FF2046F3
:102DD000FFF773FF8AE72046FFF76DFF2046FFF7F6
:102DE0006CFF9BE72046FFF766FF2046FFF765FF75
:102DF000ACE72046FFF75FFF2046FFF75EFFBDE729
:102E00006FF001021A61204600F0AEFEC1E76FF0DC
:102E100080021A61204600F02AFBC3E76FF04002EF
:102E20001A612046FFF74AFFC5E76FF020021A61DA
:102E3000204600F01BFBC7E703681B4A90420AD0FC
:102E4000B0F1804F07D0A2F59432904203D002F542
:102E50008062904203D123F070034A681343124A00
:102E600090420AD0B0F1804F07D0A2F59432904240
:102E700003D002F58062904203D123F44073CA6804
:102E8000134323F080034A69134303608B68C362D2
:102E90000B688362044B984202D001234361704760
:102EA0000B690363F9E700BF002C014040B310B584
:102EB000044690F83D30F3B1022384F83D302146BA
:102EC00051F8040BFFF7B8FF012384F8463084F86B
:102ED0003E3084F83F3084F8403084F8413084F844
:102EE000423084F8433084F8443084F8453084F824
:102EF0003D30002010BD80F83C30FEF727FDDBE7B9
:102F00000120704740B310B5044690F83D30F3B14E
:102F1000022384F83D30214651F8040BFFF78CFF63
:102F2000012384F8463084F83E3084F83F3084F83A
:102F3000403084F8413084F8423084F8433084F8DB
:102F4000443084F8453084F83D30002010BD80F8CE
:102F50003C30FFF7AFFEDBE701207047002857D079
:102F600070B50D46044690F83D30002B4BD002233F
:102F700084F83D302268936823F4804323F00703EC
:102F80009360214651F8040BFFF756FF21688A68C9
:102F90008B690E6A2868104323F4407C2CF0030CE4
:102FA000AA68AB6942EA032343EA0C0323F47C4397
:102FB00023F0FC03EA69D5F80CC04CEA022C4CEA79
:102FC000030C2A6A13032A6943EA021343EA0C0337
:102FD00026F022066A686D6942EA0512324388606B
:102FE00021688B6123681A62012384F8463084F8D3
:102FF0003E3084F83F3084F8423084F8433084F81F
:103000003D30002070BD80F83C30FEF749FCAEE753
:103010000120704730B4036A23F010030362036A8F
:103020004468826922F4E6420D6842EA052223F0F0
:1030300020038D6843EA05130E4DA84209D00D4DBB
:10304000A8420ED0446082614A688263036230BC49
:10305000704723F08003CD6843EA051323F0400353
:10306000EDE724F440644D6944EA85048D6944EA3F
:103070008504E7E7002C014038B590F83C30012B7F
:1030800060D004460D46012380F83C300C2A1AD843
:10309000DFE802F0071919191D1919193119191941
:1030A00044000068FFF720FD2268936943F008039D
:1030B00093612268936923F0040393612268936902
:1030C00029690B439361002084F83C0038BD0068F7
:1030D000FFF7A0FF2268936943F4006393612268BD
:1030E000936923F48063936122689369296943EAB1
:1030F00001239361E7E70068FFF724FD2268D369A5
:1031000043F00803D3612268D36923F00403D36139
:103110002268D36929690B43D361D4E70068FFF7BC
:1031200043FD2268D36943F40063D3612268D36905
:1031300023F48063D3612268D369296943EA0123B8
:10314000D361C0E70220C1E710B4846824F47F4C47
:1031500042EA03220A4342EA0C02826010BC704732
:1031600090F83C30012B66D010B50446012380F85E
:103170003C30022380F83D300268936823F47F439B
:1031800023F0770393600B68602B40D022D8402B4C
:1031900047D00BD9502B0ED1CA6849680068FFF799
:1031A00027FD50212068FFF748FD04E0202B0CD0BC
:1031B00008D9302B09D0012384F83D30002084F851
:1031C0003C0010BD0BB1102BF5D119462068FFF75C
:1031D00034FDF0E7702B0ED0B3F5005FEBD1CB6878
:1031E0004A6889680068FFF7AFFF2268936843F474
:1031F00080439360DFE7CB684A6889680068FFF71F
:10320000A3FF2268936843F077039360D3E7CA680B
:1032100049680068FFF7FEFC60212068FFF70DFD9C
:10322000C9E7CA6849680068FFF7E2FC40212068E6
:10323000FFF703FDBFE70220704701F01F010123E4
:1032400003FA01FC036A23EA0C030362036A02FA2D
:1032500001F10B430362704710B50446084651BBA9
:1032600094F83E30DBB2013B18BF0123002B5BD149
:10327000002839D1022384F83E300122014620681B
:10328000FFF7DBFF23682A4A93423DD02368284A90
:1032900093423ED0B3F1804F3BD0A2F5943293429B
:1032A00037D002F58062934233D01A6842F00102AF
:1032B0001A60002039E0042908D008290DD094F8BC
:1032C0004130DBB2013B18BF0123CFE794F83F3018
:1032D000DBB2013B18BF0123C8E794F84030DBB2F2
:1032E000013B18BF0123C1E7042805D0082807D0F7
:1032F000022384F84130C0E7022384F83F30BCE762
:10330000022384F84030B8E75A6C42F400425A6411
:10331000BCE79A6802F00702062A07D01A6842F052
:1033200001021A60002000E0012010BD0020FCE72F
:10333000002C014038B5044690F83E00C0B294F825
:103340003F3094F84220D2B294F843C00D46B1B950
:10335000012849D1012A48D1022384F83E3084F85B
:1033600042307DB3042D39D0012200212068FFF7BF
:1033700064FF012204212068FFF75FFF27E0DBB232
:103380005FFA8CFC042912D0012833D1012B2CD1F7
:10339000012A31D1BCF1010F30D1022384F83E3033
:1033A00084F83F3084F8423084F84330D9E7012B69
:1033B0001CD1BCF1010F1BD1022384F83F3084F8EB
:1033C0004330CEE7012200212068FFF736FF226854
:1033D000136843F001031360002006E0012204217A
:1033E0002068FFF72AFFF2E7012038BD0120FCE743
:1033F0001846FAE70120F8E71846F6E71046F4E722
:1034000090F83C30012B2CD010B4012380F83C30D4
:10341000022380F83D3003685A689C6822F0700CE3
:103420000A6842EA0C025A6003680F4A93420AD0C3
:10343000B3F1804F07D0A2F59432934203D002F546
:103440008062934204D124F080044A6814439C6053
:10345000012380F83D30002380F83C30184610BC32
:1034600070470220704700BF002C01407047704732
:103470000268D36823F49073D3600268536923F021
:1034800001035361036B012B05D0202380F83E30EC
:103490000023036370470268D36823F01003D360EE
:1034A000F3E790F83D30DBB2212B01D002207047CA
:1034B0008368B3F5805F17D0036A5A1C02621A78DA
:1034C00003685A60C38C9BB2013B9BB2C3844BB967
:1034D0000268D36823F08003D3600268D36843F0A6
:1034E0004003D360002070470369002BE4D1036AD6
:1034F0001B880268C3F308035360036A0233036244
:10350000E0E7000010B504460268136923F4405355
:10351000C1680B43136183680269134342691A430C
:103520000168CB6823F4B05323F00C031343CB6042
:103530000268536923F4407381690B435361026845
:10354000134B9A4220D0FFF7BBF8024602EB8202EF
:1035500002EB820263689B00B2FBF3F20D48A0FB12
:1035600002314909642303FB11231B013233A0FB01
:1035700003235B0903F0F00202EB011203F00F03D7
:10358000216813448B6010BDFFF7AAF80246DDE7FF
:10359000003801401F85EB512DE9F84305460F46E1
:1035A00016469946DDF820802C68246837EA040323
:1035B0000CBF4FF0010C4FF0000CB4451FD1B8F117
:1035C000FF3FF1D0B8F1000F05D0FEF76FFBA0EB85
:1035D00009004045E8D92A68D36823F4D073D36042
:1035E0002A68536923F001035361202385F83D3095
:1035F00085F83E30002385F83C30032000E00020B1
:10360000BDE8F88358B310B5044690F83D300BB3CD
:10361000242384F83D302268D36823F40053D36018
:103620002046FFF76FFF2268136923F4904313616C
:103630002268536923F02A0353612268D36843F454
:103640000053D36000202064202384F83D3084F8A8
:103650003E3010BD80F83C30FEF772FAD8E701200A
:1036600070472DE9F04182B01E4690F83D30DBB244
:10367000202B54D104460D469046002953D0002AF1
:1036800053D090F83C30012B51D0012380F83C30CE
:1036900000230364212380F83D30FEF707FB074633
:1036A000A4F82480A4F82680A368B3F5805F05D031
:1036B0004FF00008002384F83C3012E0236913B176
:1036C0004FF00008F6E7A8460025F3E738F8023B7C
:1036D0002268C3F308035360E28C92B2013A92B2BB
:1036E000E284E38C9BB273B100963B4600228021BA
:1036F0002046FFF751FFE0B9002DE7D015F8012B68
:1037000023685A60E8E700963B46002240212046A5
:10371000FFF742FF78B9202384F83D3000E0022013
:1037200002B0BDE8F0810120FAE70120F8E70220AD
:10373000F6E70320F4E70320F2E72DE9F04182B039
:103740001E4690F83E30DBB2202B5CD104460D467D
:10375000904600295BD0002A5BD090F83C30012BCA
:1037600059D0012380F83C3000230364222280F8E2
:103770003E200363FEF79AFA0746A4F82C80A4F8CB
:103780002E80A368B3F5805F05D04FF000080023BA
:1037900084F83C3017E0236913B14FF00008F6E7D6
:1037A000A8460025F3E723685B68C3F3080328F8FD
:1037B000023B03E023685B682B700135E28D92B217
:1037C000013A92B2E285E38D9BB2BBB100963B46D3
:1037D000002220212046FFF7DFFEF0B9002DE2D0C5
:1037E000A368B3F5805FE5D013B92369002BE1D05E
:1037F00023685B6803F07F032B70DEE7202384F8E7
:103800003E30002000E0022002B0BDE8F08101203F
:10381000FAE70120F8E70220F6E70320F4E7704713
:1038200008B50168CA6822F04002CA60202280F808
:103830003D20FFF7F4FF002008BD7047704708B532
:10384000406A0023C385C384FFF7F8FF08BD7047B3
:1038500090F83E30DBB2222B60D18368B3F5805FF5
:1038600046D0826AB3F5805F04D0002B4DD1036946
:10387000002B4AD103685B681370836A013383624B
:10388000C38D9BB2013B9BB2C385002B48D100B5D1
:1038900083B00268D36823F02003D3600268D36842
:1038A00023F48073D3600268536923F001035361EA
:1038B000202380F83E30036B012B2CD100230363BF
:1038C0000268D36823F01003D36003681A6812F00B
:1038D000100F06D0002201921A6801925B680193D2
:1038E000019B818DFFF7B3FF002003B05DF804FB5F
:1038F0000269002AB5D1826A03685B68C3F30803D2
:103900001380836A02338362BAE703685B6803F05B
:103910007F031370B1E7FFF790FFE5E702207047E0
:103920000020704730B583B0044602681368D06841
:10393000516913F00F0505D113F0200F02D010F0DC
:10394000200F19D12DB111F0010119D110F4907F80
:1039500016D1216B012975D013F0800F03D010F020
:10396000800F40F0D78013F0400F03D010F0400FCD
:1039700040F0D48003B030BD2046FFF769FFF9E77F
:1039800013F0010F06D010F4807F03D0226C42F0B8
:103990000102226413F0040F04D019B1226C42F02A
:1039A0000202226413F0020F04D019B1226C42F01B
:1039B0000402226413F0080F07D010F0200F00D18A
:1039C00019B1226C42F008022264226C002AD1D084
:1039D00013F0200F02D010F0200F21D123685B6973
:1039E00003F04003226C12F0080F00D123B32046ED
:1039F000FFF73EFD23685A6912F0400F18D05A694C
:103A000022F040025A61A36B73B1464A5A63A06B1D
:103A1000FEF7E0F90028ADD0A06B436B9847A9E70B
:103A20002046FFF715FFD9E72046FFF707FFA1E77C
:103A30002046FFF703FF9DE72046FFF7FFFE002328
:103A4000236497E713F0100F86D010F0100F83D087
:103A5000002301931368019353680193019B5369F9
:103A600013F0400F32D0A16B0B685B689BB2002B48
:103A700080D0A08D98427FF67DAFE3858B69202BA7
:103A800008D1A18DE38D9BB2C91A89B22046FFF7F8
:103A9000DEFE6FE7D36823F48073D3602268536936
:103AA00023F0010353612268536923F040035361FB
:103AB000202384F83E30002323632268D36823F058
:103AC0001003D360A06BFEF763F9DAE7A18DE38DF5
:103AD0009BB2C91A89B2E38D9BB2002B3FF44AAF67
:103AE00000293FF447AFD36823F49073D360226872
:103AF000536923F001035361202384F83E300023EF
:103B000023632268D36823F01003D3602046FFF7B5
:103B10009EFE2FE72046FFF7C4FC2BE72046FFF769
:103B20007FFE27E73F38000800B587B00C4B9A6945
:103B300042F004029A619B6903F004030193019B24
:103B40004FF480530293012303930323059300232F
:103B5000049302A90348FEF789F907B05DF804FB56
:103B6000001002400008014008B5044B834200D019
:103B700008BD034800F070F9FAE700BF100B002001
:103B8000AC0B0020074B8360074B43604FF07E5324
:103B900003600023036143618361C361C360034B1E
:103BA000036270479A99193ECDCCCC3D00007A440F
:103BB000016170472DE9F04104460069FCF79EFF62
:103BC000054660612768A6693146FCF797FF014604
:103BD0003846FCF7BDFA074661682846FCF7B8FA94
:103BE00001463846FCF78CFF0746D4F8088031467A
:103BF0003046FCF785FF01462846FCF77FFFE16968
:103C0000FCF77EFF01464046FCF7A2FA0146384623
:103C1000FCF776FFE168FCF773FF0746E0600A49AE
:103C2000FDF7E2F830B1084BE360E661A561E068BA
:103C3000BDE8F08105493846FDF7B8F80028F4D012
:103C4000024BE360F1E700BF00007A4400007AC451
:103C50004FF0E0239A6959690131094BA3FB01C375
:103C60009B0903FB00F003E0CB1A1344834206D800
:103C70004FF0E0239B699A42F6D3D31AF6E77047D8
:103C8000D34D6210F0B583B000224FF4807120480C
:103C9000FEF7FEF91F4E204D204C4FF6FF770097A0
:103CA0000123324629462046FEF701FE0A20FFF78F
:103CB000CFFF00970123F218E9182046FEF7F7FD21
:103CC0000A20FFF7C5FF00970123B21CA91C20465C
:103CD000FEF7EDFD0A20FFF7BBFF03240EE04FF6D1
:103CE000FF73009301230B4A22440D490B48FEF752
:103CF000DEFD0A20FFF7ACFF0134E4B2082CEED958
:103D000001224FF480710248FEF7C2F903B0F0BD02
:103D100000080140A00B00200C000020DC0900205E
:103D20000E00002070B504460D46066F3046FDF7C4
:103D30003DF8E8B13046FDF761F880B26080237845
:103D4000012B1AD02A4D00224FF480712846FEF72D
:103D50009FF901224FF400712846FEF799F9B4F853
:103D60004C30002B31D1234B1B6862885A6370BDE5
:103D70002846FDF743F880B2E0E71D4D01224FF4DD
:103D800080712846FEF784F900224FF4007128461E
:103D9000FEF77EF9B4F84C3023B9164B1B686288E5
:103DA0005A63E4E7042B06D0082B09D0114B1B689B
:103DB00062881A64DBE70F4B1B6862889A63D6E758
:103DC0000C4B1B686288DA63D1E7042B06D0082B02
:103DD00009D0084B1B6862881A64C8E7054B1B684A
:103DE00062889A63C3E7034B1B686288DA63BEE7A5
:103DF000000C0140C80A00200170704784B0F8B57B
:103E000007460DF11C0C8CE80E00114D4601C0EB6D
:103E10004014A20005EB84040023AB54638063705C
:103E20000023A36748226146201DFDF707F8BDF86F
:103E30006430A4F84C304FF400436367F01B8000FB
:103E400050302844FFF79EFEBDE8F84004B07047AC
:103E5000AC0B00200000000038B54378012B00D0E7
:103E600038BD044643685A6A42674FF400425A62BA
:103E7000406FA0F50040FCF7F7FEFCF781FB002245
:103E80001D4BFCF7FFFC00221C4BFCF7FBFC18A3AE
:103E9000D3E90023FCF7F6FCFCF7DCFDA067FCF798
:103EA0006FFB0022164BFCF7EDFC0022154BFCF7D4
:103EB000BFFBFCF7CFFD014604F15000FFF77AFE8F
:103EC00005460021FCF790FF40B101212046FFF795
:103ED00093FF29462046FFF725FFC1E705F100457E
:103EE00000212046FFF788FFF3E700BFAFF3008013
:103EF0009A9999999999B93F00004A4000003E402B
:103F00000000164000408F4084B010B503AC84E838
:103F10000E000A4BC0EB401203EB820201215170EC
:103F200010463C210430FFF705FABDF85410204636
:103F3000FFF792F9BDE8104004B07047AC0B0020C9
:103F400008B5054B1860054B186800230222194676
:103F5000806800F0F5F808BD9C0D002010000020DE
:103F6000022801D80120704708B500F059F809234C
:103F70000360002008BD000010B5013801280AD8F0
:103F800014464FF0FF3392B207480068FFF769FB11
:103F900040B9204610BD00F043F8092303604FF0FC
:103FA000FF30F7E70520F5E79C0D0020022801D837
:103FB0000020704708B500F033F8092303604FF084
:103FC000FF3008BD08B500F02BF8092303604FF05F
:103FD000FF3008BD08B548B94FF0FF33012208484B
:103FE0000068FFF7AAFB40B9012008BD00F018F8EF
:103FF000092303604FF0FF30F7E70520F5E700BF26
:104000009C0D002008B5022804D84FF400534B60E3
:10401000002008BD00F004F809230360F8E7000061
:10402000014B1868704700BF1000002070B50D4E9E
:104030000D4D761BB61006D0002455F8043B013414
:104040009847A642F9D1094E094D06F01FF9761B93
:10405000B61006D0002455F8043B01349847A64218
:10406000F9D170BDF8A60008F8A6000800A700085E
:10407000F8A60008830730B548D0541E002A3FD068
:104080000346CAB201E0013C3AD303F8012B9D0775
:10409000F9D1032C2DD9CDB245EA05250F2C45EADF
:1040A000054536D9A4F1100222F00F0C03F1200EC1
:1040B000E6444FEA121C03F1100242E9045542E9BA
:1040C000025510327245F8D10CF1010214F00C0FB8
:1040D00003EB021204F00F0C13D0ACF1040323F035
:1040E00003030433134442F8045B9342FBD10CF006
:1040F00003042CB1CAB21C4403F8012B9C42FBD12F
:1041000030BD64461346002CF4D1F9E7034614464B
:10411000BFE71A46A446E0E70FB400B5074A83B0EC
:1041200004AB106853F8042B8168019300F0E0F8A9
:1041300003B05DF804EB04B0704700BF100000202E
:104140002DE9F043694C0E46D4F80080174604462A
:104150001D4683B0B8F1000F03D0D8F83830002BDB
:1041600077D0022F05D0012F00F2AC80002DC0F2D5
:10417000A980636EDA0752D52146404602F0B0FFAF
:10418000216B41B104F14003994202D0404603F053
:10419000D3F8002323630023B4F90CC0A3611CF0FF
:1041A000800F636064D12CF44A6C2CF0030C022F56
:1041B000A4F80CC06AD001AB214640466A4603F021
:1041C0005BFAA3891843A081002D2FD0002E2ED09A
:1041D000D8F83830002B38D0009BC4E90465AB42D6
:1041E000B4F90C3026601CBF43F40063A381012F97
:1041F00004BF43F00103A3819AB213F008032CD04B
:10420000D1075DD500216D42A561656EA16015F0F5
:10421000010527D00025284603B0BDE8F083A38917
:104220009B05A9D4A06D03F0B3F9A5E7009D28462E
:1042300003F052FA0646002847D0A38943F08003D2
:10424000A381D8F83830002BC6D1404602F07CFF5D
:10425000C2E7404602F078FF83E7A360656E15F081
:104260000105D7D1930524D5284603B0BDE8F083D6
:104270004046216903F060F8B4F90CC0022F2CF419
:104280004A6C2CF0030CA4F80CC094D1002500213A
:10429000012204F1430323602361636E4CF0020C9E
:1042A000D807A4F80CC0A1606261DDD41CF4007FC3
:1042B000DAD1A06D03F06EF9284603B0BDE8F083B3
:1042C000A560CBE74FF0FF35CEE7DDF80090A945BC
:1042D00004D0484603F000FA064620B94FF0FF35F7
:1042E000B4F90CC0D3E74D46A7E700BF100000208B
:1042F0002DE9F04FD5B01C4691460791054609902F
:1043000003F03EF902680E941046179204F020F96B
:1043100016901DB1AB6B002B00F01D82079A536EF7
:10432000DD0740F12D81B2F90C2091B28F0409D440
:10433000079B42F400529A8191B21A465B6E23F4B5
:10434000005353660E0740F1C080079B1B69002B8A
:1043500000F0BB8001F01A030A2B00F0C480002497
:104360002BAB224698464D46CDE92944289312941A
:1043700000230024CDE914342B78CDE91922CDE9AE
:104380001B2218920B92002B00F08F81AA4604E0AA
:104390001AF8013F002B00F0BB80252BF8D1BAEBB7
:1043A000050640F0B9809AF80030002B00F07D81BE
:1043B00000234FF0FF324FF02B0920241F469AF8BC
:1043C000016008920AF1010A8DF883300A930AF11C
:1043D000010AA6F120035A2B00F2E180DFE813F076
:1043E0000503DF00DF000003DF00DF00DF00DE0287
:1043F000DF00DF006A006E02DF0055027802DF0096
:1044000073025B005B005B005B005B005B005B00BA
:104410005B005B00DF00DF00DF00DF00DF00DF00AC
:10442000DF006C01DF00EA01C4016C016C016C016A
:10443000DF00DF00DF00DF00D002DF00DF0023024B
:10444000DF00DF00DF00F801DF009202DF00DF00A5
:104450008707DF00DF00DF00DF00DF00DF00DF00B5
:10446000DF006C01DF00EA01C6016C016C016C0128
:10447000B602C601BF01DF00C302DF005A022502F7
:10448000A402BF01DF00F80172008407DF00DF0033
:104490006507DF0072000022A6F130031AF8016BF5
:1044A00002EB820203EB4202A6F13003092BF5D99D
:1044B0000A928EE70E9B53F8042B002A0A920E9361
:1044C000C0F2E0819AF8006081E7079D09982946CB
:1044D00001F0FCFC002841F04D83A98901F01A038A
:1044E0000A2B7FF43CAF079AB2F90E30002BFFF68F
:1044F00036AF536ED80702D4890541F1488123466F
:104500004A460799099855B0BDE8F04F01F09CBCA8
:10451000BAEB050600F0C9802A9BC8E9005633446F
:104520002A93299B0133072B299305DC08F10808FE
:104530000B9B33440B9336E70799099828AA04F09C
:10454000A5F880B90DF1AC08F2E70799099828AAF7
:1045500004F09CF8002800F099800D9B1BB11946CF
:10456000099802F0E9FE079A536ED90740F1E880F6
:1045700093895B0601F10A830B9855B0BDE8F08F73
:10458000079BB3F90C20900591B23FF5CFAE1D46C5
:10459000986D02F0FDFFB5F90C2091B2C6E6002E31
:1045A00000F08380012300228DF8EC6006933BAD80
:1045B0008DF883200C930D9208920F921392109213
:1045C00017F0020302D006990231069117F0840B0E
:1045D00007D10A990698A1EB0009B9F1000F00F381
:1045E00090832A9C82B10122C8F80420299A0134C0
:1045F00001320DF18301072A2A942992C8F800108C
:1046000000F3D88308F108087BB10223C8F804300E
:10461000299B0234013321AA072B2A942993C8F835
:10462000002000F3D58308F10808BBF1800F00F0EB
:104630008882089B0C9AA3EB020BBBF1000F00F3DE
:10464000CB82FB0500F11F820C9BC8F800501C4474
:10465000C8F80430299B2A940133072B299300F3CF
:10466000448308F10808780705D50A9B069A9D1A25
:10467000002D00F3B983DDE90A2306998A42ACBF15
:104680009B185B180B93002C7FF45FAF00232993DA
:104690000D9B1BB10D99099802F04EFE55460DF188
:1046A000AC082B78002B7FF471AE2A9B002B41F0D5
:1046B00010820023299356E70E9B073323F007024D
:1046C000F2E80234CDE91434DDE9143424F0004476
:1046D000994618460E9221464FF0FF32AB4BFCF73D
:1046E000ABFC002840F01885484621464FF0FF32C9
:1046F000A64BFCF783FC002840F00E85DDE9140191
:1047000000220023FCF770FC002840F065879DF82C
:104710008320002103209E4D9E4B27F080070D91A2
:104720000690472EC8BF1D4608910C900F9113911B
:104730001091002A3FF444AF069B013306933FE7F4
:10474000079B9B899A053FF514AF079CA06D02F06B
:1047500021FFA3890DE7099802F0F6FCDEE59AF83F
:10476000006047F0200732E647F01007BA060E9BBC
:1047700040F16E84073323F007031A465B6852F852
:10478000084B99460E92002BC0F26F84089B0133B0
:1047900000F0FB8254EA090327F0800B40F0F68218
:1047A000089B002B40F0F7825F46002354AD08932E
:1047B0000C933DE1012000220E9B069053F8041B50
:1047C0003BAD8DF883208DF8EC100E930C90F2E643
:1047D0004FF000090E9C089B54F8045B8DF8839001
:1047E000002D00F0A1855A1C00F0A5861A46494606
:1047F000284603F025FA0D90002801F050810D9B0A
:104800009DF883205B1B0C9323EAE373CDF8209083
:104810000E940693CDF83490CDF83C90CDF84C90A2
:10482000CDF8409085E747F0100717F0200900F019
:10483000F2830E9B073323F00703D3F8049053F859
:10484000084B0E93002327F4806B00228DF8832001
:10485000089A511C00F0D48054EA09012BF080071B
:1048600040F0CD80002A40F00486002B9DD11BF043
:1048700001030C9300F0308430230DF24F158DF8B6
:104880004F31D5E00A9B5B420A939AF8006047F0EB
:1048900004079CE5BD0600F1FD84FC0600F1EE85F1
:1048A000780600F1B286B90540F1E8850E9B0B99B8
:1048B00053F8042B554611700E93F2E69AF80060F7
:1048C0008DF8839083E59AF8006047F080077EE5D5
:1048D000524612F8016B2A2E01F08D82A6F13003A8
:1048E000092B924698BF002201F2E5801AF8016B6D
:1048F00002EB820203EB4202A6F13003092BF5D949
:10490000089266E547F0100B1BF0200900F0918338
:104910000E9B073323F007031A4652F8084BD3F8CF
:1049200004900E92012390E7302278260E9B8DF89A
:10493000842053F8044B184A0E934FF000090223C9
:1049400047F0020B8DF8856018927EE79AF80060B8
:10495000682E03BF9AF8016047F400770AF1010A54
:1049600047F0400733E59AF800606C2E03BF9AF8D1
:10497000016047F020070AF1010A47F0100726E519
:104980009AF8006047F0080721E500BFFFFFEF7FBE
:10499000F8A20008FCA2000808A30008099E3046FF
:1049A00002F0EEFD436818461B9303F0D1FD034669
:1049B00030461C931E4602F0E3FD83681993002ED7
:1049C0003FF480AD199B002B3FF47CAD199B1B7805
:1049D000002B3FF477AD9AF8006047F48067F6E467
:1049E0009AF8006047F00107F1E49DF88330002B4E
:1049F0007FF468AD9AF800608DF88340E7E4BB4629
:104A0000012B00F0C381022B54AD1FD1189A04F082
:104A10000F03D35C240944EA09744FEA191905F815
:104A2000013D54EA0903F2D15F4654AB5B1B0C9382
:104A3000089A0C9900238A42B8BF0A460D93069241
:104A40000F939DF883201393109372E604F00703ED
:104A5000E40844EA49744FEAD909303354EA0901B9
:104A60002A4605F8013DF1D11BF0010FDCD0302BB7
:104A7000DAD03023023A05F8013C54AB9B1A5F466A
:104A800015460C93D4E7652E40F3E980DDE9140167
:104A900000220023FCF79EFA002800F0E1810123A8
:104AA000C8F80430299BC04A01330134072B2A94EB
:104AB0002993C8F8002000F3BF8408F10808229B5E
:104AC000129A934280F2DC82169B179A1C44C8E922
:104AD0000023299B2A940133072B299300F3178481
:104AE00008F10808129B5D1E002D7FF7BCAD102D4C
:104AF00041F35D81DFF8B492224649461026B9465B
:104B0000299B0F46DDF824B0079C05E008F1080852
:104B1000103D102D40F39D8401331032072BC8E95E
:104B20000076CDE92932F1DD2146584628AA03F066
:104B3000ADFD00287FF411ADDDE929320DF1AC089F
:104B4000E6E70A9B069AA3EB020BBBF1000F7FF787
:104B500070ADBBF1100F41F35280DFF85092414627
:104B60002046A8464C461023299A079DDDF824903C
:104B700006E0ABF1100BBBF1100F01F1080119DDDC
:104B800001321030072AC1E90043CDE92920F0DDC8
:104B90002946484628AA03F079FD00287FF4DDACB9
:104BA000DDE92920ABF1100BBBF1100F4FF0100322
:104BB0002BA9E5DC4546A1468846044601325C4403
:104BC000072ACDE92924C8F80090C8F804B000F3FA
:104BD000918308F108082CE5BBF1100F40F3E38442
:104BE000DFF8C89141462046A8464C461023299A32
:104BF000079DDDF8249006E0ABF1100BBBF1100F20
:104C000001F1080119DD01321030072AC1E9004322
:104C1000CDE92920F0DD2946484628AA03F036FDD3
:104C200000287FF49AACDDE92920ABF1100BBBF131
:104C3000100F4FF010032BA9E5DC4546A14688462E
:104C4000044601325C44072ACDE92924C8F80090C3
:104C5000C8F804B000F3D28108F10808F1E4129B0F
:104C6000012B40F382810123299E01341E44072E2B
:104C7000C8F800502A94C8F80430299600F36C83D1
:104C800008F10808169B0136179A1C44072EC8E93C
:104C90000023CDE9296400F36C8308F108080022A1
:104CA000DDE914010023FCF795F9002840F07A8132
:104CB000129B0136013B01351C44072EC8F80050F9
:104CC0002996C8F804302A9400F35F8108F1080897
:104CD0001A9B01361C44C8F80430072E24ABCDE9DA
:104CE0002964C8F800307FF7BCAC0799099828AA56
:104CF00003F0CCFC00287FF430AC2A9C0DF1AC080A
:104D0000B1E4B9F1100F40F3C686DDE92921404630
:104D1000CDE91D36B84610244F46079EA946099D89
:104D200004E0103F102F00F1080016DD0132204B87
:104D30001031072AC0E90034CDE92921F1DD3146DF
:104D4000284628AA03F0A2FC00287FF406ACDDE97F
:104D50002921103F102F2BA8E8DC4D46DDE91D3638
:104D6000B9464746804609EB010401321049072A3B
:104D7000CDE92924C8F80490C8F8001000F3408356
:104D80009DF8832008F108082CE4BB460A2C79F131
:104D9000000380F0FB82012330345F468DF84F41E1
:104DA0000C930DF24F1543E638A300084CA30008FE
:104DB0003CA300080799099828AA1D9303F066FCF4
:104DC00000287FF4CAAB2A9C1D9B0DF1AC081BE4A4
:104DD0000799099828AA03F059FC00287FF4BDAB75
:104DE0002A9C0DF1AC0820E4102D40F3BE8610265D
:104DF000299B099FDDF81C9004E0103D102D08F15F
:104E0000080817DD0133BA4A1034072BC8E9002619
:104E1000CDE92934F1DD4946384628AA03F036FCAD
:104E200000287FF49AABDDE92934103D102D0DF1F7
:104E3000AC08E7DC0133AE4A2C44072BCDE929341A
:104E4000C8F80450C8F800207FF715AC07990998F6
:104E500028AA03F01BFC00287FF47FAB2A9C0AE4FD
:104E60002299002940F31081DDF84090129B99456A
:104E7000A8BF9946B9F1000F0BDD299B4C440133C3
:104E8000072BC8E900592A94299300F3818508F17A
:104E90000808109EB9F1000FA8BFA6EB0906002E66
:104EA00000F3F582DDF840B07905AB4400F1AC8445
:104EB000229B129A934202DBFA0740F19283169AE0
:104EC00017991444C8E90012299A2A940132072A32
:104ED000299200F3A88508F10808129AAE18A6EBEB
:104EE0000B06D51AAE42A8BF2E46002E0DDD299B1B
:104EF00034440133072BC8F800B0C8F804602A9482
:104F0000299300F3FC8508F10808002EA8BFAD1B0B
:104F1000002D7FF7A8AB102D40F34987DFF8D4911F
:104F2000224649461026B946299B0F46DDF824B093
:104F3000079C05E008F10808103D102D40F3898218
:104F400001331032072BC8E90076CDE92932F1DDB3
:104F50002146584628AA03F099FB00287FF4FDAAB1
:104F6000DDE929320DF1AC08E6E7FE073FF57BAE3F
:104F70000123299E01341E44072EC8F800502A94AC
:104F8000C8F8043029967FF7A1AE0799099828AA96
:104F900003F07CFB00287FF4E0AADDE929640DF131
:104FA000AC0895E6129B5D1E002D7FF791AE102D8B
:104FB00040F31987224608974FF0100BDFF8349121
:104FC000099C079F05E008F10808103D102D40F3EB
:104FD000C78201361032072EC8E9009BCDE929624D
:104FE000F1DD3946204628AA03F050FB00287FF463
:104FF000B4AADDE929620DF1AC08E6E70799099842
:1050000028AA03F043FB00287FF4A7AA2A9C0DF1ED
:10501000AC08FFF716BB17F0100377D117F040026A
:1050200000F0AC820E9A994652F8044B0E92A4B24C
:1050300008E41BF010030E9A54D11BF040014DD030
:1050400052F8044B99460E920123A4B2FFF7FDBB20
:1050500053F8044B0E93FB0653D47D064ED544F310
:10506000C0394B4624B2FFF78EBB2D2364428DF826
:105070008330BB464FF0010369EB4909FFF7E8BBFA
:10508000F8077FF5F0AA1FE50123C8F80430299B33
:10509000194A01330134072B2A942993C8F80020B8
:1050A00000F3688408F10808002940F02582129A6C
:1050B00007F0010313433FF4D6AA169B1799E21891
:1050C000C8E90013299B2A920133072B299300F387
:1050D000508308F1080820E254ADA9E41BF40079DC
:1050E00040F0A08252F8044B01230E92FFF7ADBBB3
:1050F0003CA300084CA3000838A30008B80500F141
:1051000079824FEAE4794B46FFF73DBB0E9B53F89B
:10511000044B0E93FFF796BBDDE9140102460B46E4
:10512000FBF78AFF002840F0F785612E00F06C85C0
:10513000412E00F07F82089B013300F0948526F019
:105140002003472B069300F07B85DDE9141247F41A
:1051500080730F931346002BC0F2F4850C93002349
:105160008B461D930D93069B462B00F02B84452BFD
:1051700000F0148508990C9B01910221009126A949
:10518000049123A9039122A95A460998029100F09B
:10519000AFFF069B0546472B40F0448617F0010FF2
:1051A000B9460F9F40F0F784269B5B1B1293069B2A
:1051B000472B00F0F182069B462B00F04284229B95
:1051C0001093109B069A013B412A229300F08A8596
:1051D0000021F2B2002B8DF89020B6BF2D222B2299
:1051E000109B8DF89120B8BFC3F10103092B40F348
:1051F00081850DF19F0C6246BA4F1C46104687FB15
:105200000312D917C1EBA20101EB8102A3EB420209
:105210003032632C00F8012C0B4600F1FF32ECDC3D
:105220003033811EDBB28C4502F8013C40F2FF8531
:105230000DF1920101E012F8013B944501F8013BA8
:10524000F9D10DF1A1030DF192021B1A134424AA06
:105250009B1A1A93129B1A9A012B1A440C9240F330
:105260009E850C9B169A13440C9300230C9A29F4E8
:10527000806722EAE27247F480770F9306921393D5
:1052800010931D9B002B40F0B0829DF88320089363
:10529000FFF74FBA0E9B0B9853F8041BC2175546E5
:1052A000C1E900020E93FFF7FCB98F4B189317F07A
:1052B000200949D00E9B073323F00703D3F804904D
:1052C00053F8084B0E93F80709D554EA090306D0A2
:1052D00030238DF8856047F002078DF88430022373
:1052E00027F4806BFFF7B1BABB46FFF70DBB7F4BCE
:1052F0001893DCE70799099828AA03F0C7F9002852
:105300007FF42BA92A9C0DF1AC08FFF792B90799FD
:10531000099828AA03F0BAF900287FF41EA92A9C4C
:105320000DF1AC08FFF7DEBB062B294628BF06238C
:105330002A4608950D9506936D4D0E940C930F918A
:1053400013911091FFF7F5B917F0100369D00E9B78
:1053500053F8044B0E93B6E70799099828AA03F06F
:1053600095F900287FF4F9A8DDE929640DF1AC086E
:1053700088E40799099828AA03F088F900287FF49F
:10538000ECA8DDE929640DF1AC0888E400230BF4F6
:105390008062CDE90CA8069692461E46DDF8648030
:1053A00054AF0CE00023204649460A22FBF782FE58
:1053B0000A2C79F100031BD3044689462F46204668
:1053C0000A2200234946FBF775FE30327D1E013666
:1053D00007F8012CBAF1000FE4D098F800309E4293
:1053E000E0D1FF2EDED00A2C79F1000380F0E080BE
:1053F000CDF864801296DDE90CA8069EFFF714BB79
:105400000799099828AA1D9303F040F900287FF412
:10541000A4A89DF883202A9C1D9B0DF1AC08FFF7E2
:10542000E1B817F0400200F0B4800E9A994652F8A5
:10543000044B0E92A4B246E70799099828AA03F0F4
:1054400025F900287FF489A82A9C0DF1AC08FFF704
:1054500036BB14463A464F46914601332C44072B3F
:10546000C8F80090C8F80450CDE929347FF7F9A8AE
:105470003BE4012BBB467FF4C6AA8CE40E9B0B9940
:1054800053F8042B554611600E93FFF70AB9102EFE
:1054900040F3AD84DFF85C90424648462146A8467A
:1054A000B9464FF0100B0746299B099C079D04E065
:1054B0000832103E102E40F3488201331031072B82
:1054C000C2E9007BCDE92931F2DD2946204628AA30
:1054D00003F0DCF800287FF440A8DDE929312BAA8D
:1054E000E7E700BF6766666608A300081CA300081C
:1054F00030A300084CA30008169B1798E218C8E9CF
:105500000003299B2A920133072B299300F3318151
:1055100008F108080029C0F20283129901338C189F
:10552000072BCDE92934C8F80050C8F804107FF7DC
:1055300098A8FFF7DABB2846CDF820900E9403F028
:1055400007F820EAE073CDE90C099DF88320CDF837
:105550003C90CDF84C90CDF840900693FFF7E9B819
:105560001446089F01362C44072ECDE92964C8F85B
:105570000090C8F804507FF7A9AB06E517F400794E
:105580000E9B3DD053F8044B91460E93E4B2FFF7C7
:1055900059B917F400790E9B40D053F8044B91464B
:1055A0000E93E4B28FE6299ADFF84C92FFF749BBDD
:1055B0001C9B1B99ED1A1A46284602F0F7FF98F833
:1055C00001300BB108F10108204649460A220023A8
:1055D0000026FBF76FFDEFE62D228DF88320FFF705
:1055E00098B8129AAE18A6EB0B06D51AAE42A8BF11
:1055F0002E468AE444F3C0194B4664B2FFF7C3B8A1
:1056000053F8044B0E93FFF71DB90E9B0B9953F8FB
:10561000042B554611800E93FFF743B853F8044B03
:105620000E9350E652F8044B894601230E92E4B2E1
:10563000FFF70BB930238DF8843058238DF885306F
:10564000089B47F00204632B00F3E38200233BAD89
:105650000D9347F481730F93DDE914121346002B69
:105660002746C0F240820C9300238B461D9326F000
:1056700020030693612E00F01783412E7FF473AD53
:1056800022AA58460C9902F0D3FE00224FF07F5315
:10569000FAF7CEFF02460B46CDE910230022002385
:1056A000FBF798FC08B101232293544B0C93089B01
:1056B000CDE912A6CDE91E78DDE91067AB46DDF82D
:1056C00030A003F1FF39109506E00022002309F114
:1056D000FF39FBF77FFCE8B90022494B30463946D9
:1056E000FAF7A6FF0F460646FBF7BCFC0446FAF79E
:1056F00035FF0B46024639463046FAF7E1FD1AF807
:105700000430B9F1FF3FD8464D4606460F460BF828
:10571000013BDAD13046394600223A4BA946DDF842
:1057200048A0109DCDF84880CDE91001DDF87C80BF
:10573000139E1E9FFBF776FC002840F04482DDE9B3
:10574000100100222F4BFBF745FC10B1E10700F1DF
:105750003A824B46002B06DB302201335B440BF8C8
:10576000012B5B45FBD1ABEB0503B94612930F9FB1
:105770001DE50799099828AA02F088FF00287EF401
:10578000ECAEDDE9293222990DF1AC08C2E6906D4C
:1057900001F000FFFEF7B3BE229BDA1C109302DB80
:1057A000089A934204DD023E26F02003069308E5A2
:1057B000109B129A9342C0F2828119F0010F00F0FF
:1057C000A882169A13440C9319F4806F00F090820B
:1057D000109B6726002B00F346810C9B23EAE373A2
:1057E000069300230F9313934BE52D2200238DF88E
:1057F00083200893FEF7A0BF4CA300081CA3000859
:10580000000030400000E03F129B4246DDF84C8033
:10581000EB185E460893CDF830A010972146199FEB
:10582000DDF87090DDF824A0DDF81CB00F9B139517
:10583000B8F1000F2ED0002B6CD1013F08F1FF38DA
:105840001B9B4944C2E90039299B2A910133072B4C
:10585000299363DC0832089B38789B1B8342A8BFDE
:105860000346002B1C460ADD2998194401300728FD
:10587000C2E900632A9129905BDC38780832002C59
:10588000B4BF0546051B002D15DC06440F9BB8F17F
:10589000000FD0D1002B3DD1DDE91235EB189E422F
:1058A000B346199790460C4628BF9B46DDF830A0BA
:1058B000109FFFF7FDBA102D40F36F821024299836
:1058C00004E0103D102D02F1080216DD0130A84B56
:1058D00010310728C2E90034CDE92901F1DD59462C
:1058E000504628AA02F0D2FE00287EF436AEDDE94A
:1058F0002901103D102D2BAAE8DC01309C4B2944D6
:105900000728CDE92901556013604EDC387808324C
:105910000644BBE70F9B013B0F9391E75946504666
:1059200028AA02F0B3FE00287EF417AE2A992BAA0B
:1059300091E75946504628AA02F0A8FE00287EF4B6
:105940000CAE38782A992BAA99E7454690463A46F4
:105950000C464F46914601333444072BCDE9293498
:10596000C8F80090C8F8046000F35D8108F10808E9
:10597000FFF798BA0799099828AA02F087FE00282D
:105980007EF4EBAD22992A9C0DF1AC08FFF78CBB9D
:105990000799099828AA02F079FE00287EF4DDAD67
:1059A0002A9C0DF1AC08FFF774BA5946504628AA54
:1059B00002F06CFE00287EF4D0AD38782A992BAA2C
:1059C000064463E708990C9B01910321009126A9E5
:1059D000049123A9039122A95A460998029100F043
:1059E00087FB03780546302B00F0C081229B089A84
:1059F000B94613440F9FEC185846002200230C9917
:105A0000FBF7E8FA10B12346FFF7CFBB269BA34272
:105A1000BFF4CBAB30215A1C26921970269B9C42B6
:105A2000F9D8FFF7C2BB0799099828AA02F02EFE01
:105A300000287EF492AD229B2A9C0DF1AC08FFF762
:105A40004CBA229A002A109240F3B981089909F0C1
:105A500001030B4340F040816626109B0C9319F420
:105A6000806F3FF4BAAE19990B78FF2B00F0D68106
:105A70000024109A204604E001300131FF2B00F091
:105A80006481934280F26181D21A4B78002BF3D16A
:105A90000B780134F2E7DDE92921FFF764B9089BAF
:105AA0009DF883200E9406930C9308900F9013900A
:105AB0001090FEF73EBE00230893FEF78ABC129BAF
:105AC000169A9A18109B0C92002B40F35D81672662
:105AD000C5E70799099828AA02F0D8FD00283EF4E6
