:020000040800F2
:10000000005000202D1400084D1200084F12000867
:100010005112000853120008551200080000000099
:10002000000000000000000000000000571200085F
:1000300059120008000000005B1200085D12000861
:10004000751400087514000875140008751400086C
:10005000751400087514000875140008751400085C
:10006000751400087514000875140008751400084C
:10007000751400087514000875140008751400083C
:10008000751400087514000875140008751400082C
:10009000751400087514000875140008751400081C
:1000A000751400087514000875140008751400080C
:1000B00075140008751400087514000875140008FC
:1000C00075140008751400087514000875140008EC
:1000D00075140008751400086512000875140008EE
:1000E000751400087514000875140008000000005D
:1000F0000000000000000000000000000000000000
:0C01000000000000000000005FF808F1A3
:10010C0010B5054C237833B9044B13B10448AFF345
:10011C0000800123237010BD4C080020000000005B
:10012C00F43C000808B5034B1BB103490348AFF37B
:10013C00008008BD0000000050080020F43C0008BE
:10014C0003685A004CBF43F0004323F000431844AB
:10015C00704700BF2DE9F84339B34F1E04461546CE
:10016C003E464FF0000808EB060101EBD171491037
:10017C0004EBC1094846FFF7E3FF0346C80008300B
:10018C008F4220440BD0AB420BD8FFF7D9FF01387C
:10019C00A84201F10108E6D34846BDE8F883AB421A
:1001AC00FAD9884501D04E1EDDE74FF000094846CC
:1001BC00BDE8F883012807D0022807D0044B00289B
:1001CC000CBF184600207047024870470248704721
:1001DC00B1080008B5080008B908000830B5244B70
:1001EC00044683B08D1E3BB3284601A9AFF30080B3
:1001FC00E8B101992A46FFF7ADFF0146B8B1FFF708
:10020C009FFF4B68A064012B2ED0002B27DB081D11
:10021C00FFF796FF0023C4E913030368002B12DBDE
:10022C00FFF78EFF03460020236103B030BD00238F
:10023C000920236103B030BD0E4B0F491846C91A73
:10024C00C9100191D6E7C3F30360FFF7B3FF002891
:10025C00034614BF00200920236103B030BD0123E5
:10026C00081DC4E91303D8E7002305202361DCE74C
:10027C0000000000543D00081C3E0008036810B547
:10028C00DA07044606D49B0700F1480009D500F0B4
:10029C005DFC2368590709D51A070ED5DB0613D563
:1002AC0010BD00F04BFC23685907F5D404F1D000C5
:1002BC0000F054FC23681A07F0D404F5A87000F081
:1002CC0055FC2368DB06EBD404F5E870BDE8104060
:1002DC0000F090BC092070470346006800B1184438
:1002EC00704700BF704700BF70B504460E462046ED
:1002FC00316CFFF773FF054698B9D6F840C032460B
:10030C00214601202369C4F814C098470828EED070
:10031C00072806D12846316CFFF7E4FF301D00F0AA
:10032C0001FC02F0EBFB00BF2DE9F0474FF0000A97
:10033C00ADF5727D0DF10C0E01F1040CC768D0F80F
:10034C00188006461446BCE80F00AEE80F00BCE867
:10035C000F00AEE80F00BCE80F00AEE80F009CE801
:10036C000F0002AD8EE80F00C5F800A021E02B6C49
:10037C004FF4F072294673617AA800F06FFE314693
:10038C00504633697AAA9847889C82466C643346F7
:10039C00324649460120CDE90058B8470446F0B929
:1003AC004FF4F07228467AA900F058FEBAF1080F03
:1003BC001BD13046296CFFF711FF04F109095FFAD4
:1003CC0089FA04460028D2D0A96B334669643246B8
:1003DC000120CDE900584AF01001B84700B10924BA
:1003EC0020460DF5727DBDE8F087BAF1070FF6D106
:1003FC002046296CFFF776FF03A800F093FB00BFA3
:10040C00406C7047F0B54FF0FF37CB6BF9B00B6415
:10041C0001AC01F1040C0E460546BCE80F000FC4FC
:10042C00BCE80F000FC4BCE80F000FC49CE80F0021
:10043C0084E80F00009706E06A4629462B69984726
:10044C000828044608D128461099FFF7C7FE002853
:10045C00F2D0092079B0F0BD6846FFF70FFF062CEB
:10046C00F7D131462846FFF73FFF00BF10B41446C2
:10047C008461DC6BC16000221C64194610BC53E71C
:10048C0070B54369C6680B64AEB90A460369044685
:10049C000D46014602209847072805D008280FD1A1
:1004AC0029462046FFF720FF3046296CFFF71AFF3C
:1004BC00281D00F037FB0122FFF736FF02F01EFB70
:1004CC0002F01CFBC2682AB1D1F83CC00022C1F872
:1004DC0040C029E796E700BF704700BF836801461C
:1004EC000BB1012018477047012912D009D873B9F4
:1004FC000F2A0CD800EB820042681846009B1A6049
:10050C0070470339012994BF012002207047022053
:10051C0070470846704700BF002300B585B00A46F7
:10052C0003A900911946FFF7DFFF039805B05DF8AA
:10053C0004FB00BF012912D009D873B90F2A0CD8BB
:10054C00009900EB82020968184651607047033924
:10055C00012994BF012002207047022070470846F1
:10056C00704700BF002310B584B003AC0392009415
:10057C000A461946FFF7DEFF04B010BD70B54FF008
:10058C00FF36D36BADF50E7D13640DF15C0E02F1ED
:10059C00040C05460C46BCE80F00AEE80F00BCE8A6
:1005AC000F00AEE80F00BCE80F00AEE80F009CE8AF
:1005BC000F008EE80F00169612E00C2116A86A4662
:1005CC00FFF7D0FF214616A8A84778B9694608203E
:1005DC00049B16AA98470528064608D0092805D07A
:1005EC0068462699FFF7FAFD0028E6D0092616A8DA
:1005FC00FFF744FE30460DF50E7D70BD2DE9F04F32
:10060C001E46CC6C89B054F8043B0D46174600F0DE
:10061C0003080694002E79D002228DF81C201A0CA7
:10062C008DF81D201B04D2B2059304EB82042B6DB4
:10063C00B8F1020F08BFAC6B13F001030CD03846B5
:10064C0005A900F071FB18B9082009B0BDE8F08FBE
:10065C00092009B0BDE8F08FD4F800A0BAF1000F62
:10066C00EDD0019300F008030293022E4AD0B4F8A7
:10067C0000A0B4F802900434AA6C0F21384629F07B
:10068C00010B9344FFF748FF834539D82AF0010248
:10069C005A44824294BF002001204FEA490303F0E0
:1006AC0002030AF0010A43EA0A03012B49D0022B88
:1006BC0032D0002BCCD1B8F1000F02D0002840F082
:1006CC00CE800434D4F800A0BAF1000FCDD1384656
:1006DC0005A900F029FB0028BAD1019B002BB3D04F
:1006EC000F213846FFF718FF0E2102463846FFF758
:1006FC0039FF38460F216A4AFFF734FF0720A8E775
:10070C000020CAE7D4F804900834B5E71B0205931F
:10071C000323ADF81C308AE7236823F0004BB8F1B3
:10072C00000F45D128B1029A002A5CD0BBF1000F12
:10073C0074D0002B00DA04340BF1010B04EB8B04A6
:10074C00C0E7B8F1000F19D1B0B163682268991CE9
:10075C004FEAD2723FF47CAF05F15801013304919A
:10076C0000F09180201DFFF7B7FD04AB0146284631
:10077C00AFF3008000285CD10834A3E70D21384684
:10078C00D5F82090FFF7C8FE8145F5D1AB6A9C42A5
:10079C00F2D12046FFF7D4FC0F2102463846FFF772
:1007AC00E1FE38462A460021FFF7DCFE072050E721
:1007BC000D213846D5F82090FFF7AEFE814501D0CB
:1007CC002368B6E7AB6A9C42FAD104230022C5E940
:1007DC000B23E318C5F828B06B632368002B5ADB96
:1007EC0001230193A8E705F15803CDF80C8091463D
:1007FC00B04604F1040A1E460EE050460496FFF77C
:10080C006BFD0022014604AB284609F101090AF1EF
:10081C00040AAFF30080E8B9D945EED10D21384672
:10082C00FFF77AFE0346049A0620C5E909242B62D9
:10083C000FE781460D213846FFF76EFEB9F1020F26
:10084C00286225D12B46049A43F82C2F6B62062084
:10085C00AC62FEE646462368DDF80C8069E720466C
:10086C00FFF76EFC02460434AC6328461446AFF323
:10087C00008000283FF4ECAE384622460F21FFF7EB
:10088C0071FE0720E5E60D213846FFF745FE28628C
:10089C00049B6B62DBE70BF1010004EB800079E752
:1008AC00000000000023A9E60123A7E60223A5E629
:1008BC002DE9F043064615461C46C3B0042900F248
:1008CC00B880DFE801F09C56B62D0300002C40F0F8
:1008DC00B080102A00F2AD800368D80600F1F180D8
:1008EC0020AF384600F090F9012438460023B16B54
:1008FC0004FA03F22A4203F1010305D00A4652F826
:10090C0004CB1146C0F800C0042B00F10400EFD159
:10091C003846B16300F06EF9002043B0BDE8F083B7
:10092C00032C40F0868094B204EB1243102B4FEA58
:10093C0012457ED803681F0700F1CB8020AF3846E4
:10094C0000F036F9B26B07EBC50154B10B4601EB65
:10095C00C401D01AE4001D5843F8045B8B42FAD151
:10096C0022443846B26300F001F9002043B0BDE8E0
:10097C00F083012C4FEA124895B256D0052C58D171
:10098C0008EB0509B9F1200F53D8B8F10F0F73D943
:10099C00A946002D40F08480B36B65B320AF4FF0B7
:1009AC00000907EBC807043F03EBC50553F8041B0C
:1009BC00AB4247F8041FF9D1B9F1000F0FD06F46C5
:1009CC004146102938BF102107EBC101843903EBD4
:1009DC00C90553F8040BAB4241F8040FF9D1012CB3
:1009EC007FD0B8F10F0FB56342D9B9F1000F02D027
:1009FC00684600F0B3F8002043B0BDE8F083C4B9FA
:100A0C0023460124826B371DA8B204FA03F101427C
:100A1C001CBF52F8041B47F823100133102BF4D1E0
:100A2C0015F40050E7D1B26304E008EB0503102B7A
:100A3C0003D9022043B0BDE8F083B8F10F0FF8D80A
:100A4C003368DA0706D5304623F0030340F8483BF9
:100A5C0000F078F820AF384600F074F8B36B002D36
:100A6C009DD11D4604353846B56300F067F8C2E7E2
:100A7C0020A800F06BF8B8E7B9F1100F3FD9A9F135
:100A8C0010093368D90708D5304623F0010343F029
:100A9C00020340F8483B00F05DF8B9F1000F31D08B
:100AAC0033685A071FD4B8F10F0F24D96F46C8F119
:100ABC001005384600F056F8002DB36B80DD20AFE2
:100ACC006FE723F01003336006F5E87000F09CF834
:100ADC0006E723F00803036000F5A87000F068F83F
:100AEC002CE720AFBEE7304623F0040340F8D03BA0
:100AFC0000F038F8D7E720A800F02CF8D6E74FF034
:100B0C000009BEE7B8F10F0F3FF646AF20AF3846ED
:100B1C0000F020F8B36B002D7FF441AF384600F0A5
:100B2C0015F868E700F1340191E838009C46A646B8
:100B3C004CF8045D90E8FF0FE54600BD90EC210BEE
:100B4C00704700BF80EC210B704700BF90EC200B6E
:100B5C00704700BF80EC200B704700BFD0EC200B1F
:100B6C00704700BFC0EC200B704700BFF0EC0201D7
:100B7C00F0EC0211F0EC0221F0EC0231F0EC02414D
:100B8C00F0EC0251F0EC0261F0EC0271F0EC02813D
:100B9C00F0EC0291F0EC02A1F0EC02B1F0EC02C12D
:100BAC00F0EC02D1F0EC02E1F0EC02F1704700BF86
:100BBC00E0EC0201E0EC0211E0EC0221E0EC02318D
:100BCC00E0EC0241E0EC0251E0EC0261E0EC02717D
:100BDC00E0EC0281E0EC0291E0EC02A1E0EC02B16D
:100BEC00E0EC02C1E0EC02D1E0EC02E1E0EC02F15D
:100BFC00704700BFB0FC0181B0FC0191B0FC01A1B9
:100C0C00B0FC01B1704700BFA0FC0181A0FC0191B8
:100C1C00A0FC01A1A0FC01B1704700BFEC4600B5DF
:100C2C002DE900502DE9FF1F4FF000032DE90C00BA
:100C3C0001A9FFF7E7FBDDF840E012B0704700BFF9
:100C4C00EC4600B52DE900502DE9FF1F4FF00003D5
:100C5C002DE90C0001A9FFF713FCDDF840E012B000
:100C6C00704700BFEC4600B52DE900502DE9FF1F81
:100C7C004FF000032DE90C0001A9FFF723FCDDF870
:100C8C0040E012B0704700BFEC4600B52DE90050B3
:100C9C002DE9FF1F4FF000032DE90C0001ABFFF70E
:100CAC00E5FBDDF840E012B0704700BFEC4600B544
:100CBC002DE900502DE9FF1F4FF000032DE90C002A
:100CCC0001AAFFF75BFCDDF840E012B0704700BFF3
:100CDC00027A03467AB9427AA2B14FF0030C41680A
:100CEC00013A427208680A1D5A60020283F808C071
:100CFC00000E1A6070470068013A1A7202021A60FC
:100D0C00000E7047B0207047002300B585B003A9D2
:100D1C0000910C221946FFF7E7FB039805B05DF82C
:100D2C0004FB00BFF0E700BF2DE9F0434FF00008D3
:100D3C0005460E4685B03046FFF7CAFFB02804467C
:100D4C0000F0BA80070620D500F0F003802B4DD0C0
:100D5C00902B36D0A02B60D0B02B73D0C02B00F0D2
:100D6C008A8000F0F803D02B0BD100F0070201327F
:100D7C0005230121284642F40022FFF799FD0028A3
:100D8C00D9D0092005B0BDE8F0838300DBB21F1D6C
:100D9C0000230DF10C0919460D222846CDF80090C0
:100DAC00FFF7A2FB039B60064CBFDF1BFF18002361
:100DBC000D2228461946CDF800900397FFF7BAFB91
:100DCC00B9E700F00D030D2BDBD0002303AF194660
:100DDC0000F00F0200972846FFF786FB00230D2238
:100DEC00284619460097FFF7A5FBA4E73046FFF706
:100DFC006FFF24022043B0F5004FC2D00023040142
:100E0C0019462846A2B2FFF753FD0028B9D114F4B5
:100E1C00004F18BF4FF001088DE7C3434FF47F62BA
:100E2C0003F007031A410023010702F47F6248BF55
:100E3C0042F4804228461946FFF73AFD00283FF459
:100E4C007AAF9EE7B1283CD0B22800F0B080B3282E
:100E5C004AD000F0FC03B42B93D0012300F007021E
:100E6C001A442846194642F40022FFF721FD0028B7
:100E7C003FF461AF85E7C6284FD0C72861D000F09A
:100E8C00F803C02B70D0C8287CD0C9287FF479AF68
:100E9C003046FFF71DFF05230246012128461403A7
:100EAC0002F00F0204F470240A442243FFF700FD01
:100EBC0000283FF440AF64E7B8F1000F1CD00020CD
:100ECC0060E73046FFF704FF024600283FF459AFB5
:100EDC0010F0F0037FF455AF19462846FFF7E8FCF5
:100EEC0000283FF428AF4CE73046FFF7F1FE012312
:100EFC00024619462846D2E703AC43460E22414629
:100F0C0028460094FFF7F0FA43460F222846414644
:100F1C000094FFF70FFB404634E73046FFF7D8FE4E
:100F2C0002460323140302F00F0204F4702401326E
:100F3C00284619462243FFF7BBFC00283FF4FBAEC2
:100F4C001FE73046FFF7C4FE024600283FF419AFF6
:100F5C0010F0F0037FF415AF04212846FFF7A8FC2E
:100F6C0000283FF4E8AE0CE7032300F00F02013237
:100F7C002846194642F42022FFF79AFC00283FF439
:100F8C00DAAEFEE63046FFF7A3FE0246012102F080
:100F9C00F00402F00F0210340A440523284642EAFA
:100FAC000432FFF785FC00283FF4C5AEE9E60023C8
:100FBC000DF10C090D2219462846CDF80090FFF7CB
:100FCC0093FA3046FFF784FE02064FF002040CD56C
:100FDC00039B00F07F00A040184403903046FFF7BD
:100FEC0077FE030604F10704F2D4039B00F07F02A2
:100FFC00A24003F501731A440023039228460D22E4
:10100C001946CDF80090FFF795FA94E60B464FF091
:10101C00030C00B5C26C1846536885B008320292B6
:10102C0001A91A0E1B028DF80CC001938DF80D202E
:10103C00FFF77AFE05B05DF804FB00BF08B5FFF7BB
:10104C0071FE806C08BD00BF08B5FFF76BFEC06C6D
:10105C00C379023300EB830008BD00BF844641EA2C
:10106C00000313F0030349D1403A23D30B68036008
:10107C004B6843608B688360CB68C3600B6903610A
:10108C004B6943618B698361CB69C3610B6A0362F2
:10109C004B6A43628B6A8362CB6AC3620B6B0363DA
:1010AC004B6B43638B6B8363CB6BC36340304031BF
:1010BC00403ADBD230320BD30B6803604B68436091
:1010CC008B688360CB68C36010301031103AF3D258
:1010DC000C3205D351F8043B40F8043B043AF9D2E6
:1010EC00043208D0D2071CBF11F8013B00F8013BB9
:1010FC0001D30B8803806046704700BF082A13D3C6
:10110C008B07B1D010F00303AED0C3F10403D21A95
:10111C00DB071CBF11F8013B00F8013BA4D331F8ED
:10112C00023B20F8023B9FE7043AD9D3013A11F86D
:10113C00013B00F8013BF9D20B7803704B784370FC
:10114C008B7883706046704782B00A4B9A6942F084
:10115C0020029A619A6902F020020092009A9A6920
:10116C0042F004029A619B6903F004030193019B12
:10117C0002B070470010024072B6FEE700B591B0A5
:10118C002822002106A801F0EBFC00230193029316
:10119C00039304930593012206924FF48033079333
:1011AC000A9202220D920E934FF4E0130F9306A8AD
:1011BC0000F0BEFB80B90F230193022102910023A2
:1011CC0003934FF480620492059301A800F0E2FDB2
:1011DC0020B911B05DF804FBFFF7CEFFFFF7CCFF91
:1011EC0008B500F069F9FFF7C9FFFFF7ADFF00F094
:1011FC0071F800F089F801F059FAFEE782B00E4B55
:10120C009A6942F001029A619A6902F00102009215
:10121C00009ADA6942F08052DA61DB6903F080539C
:10122C000193019B054A536823F0E06343F000737C
:10123C00536002B0704700BF001002400000014034
:10124C00FEE7FEE7FEE7FEE7FEE7704770477047F4
:10125C0008B500F043F908BD08B5024801F0E2F802
:10126C0008BD00BFB40800200120704708B501F08C
:10127C004DFC162303604FF0FF3008BD08B54FF04E
:10128C00FF31FFF7F3FFFEE710B503460C4A0D499B
:10129C000D48006840B10C4800680344521A934250
:1012AC0006D8094A136010BD0748084C0460F2E7E1
:1012BC0001F02CFC0C2303604FF0FF30F3E700BF70
:1012CC000050002000040000680800205009002095
:1012DC007047000008B50A480A4B03604FF4E1332D
:1012EC00436000238360C36003610C22426183610D
:1012FC00C36100F017FF00B908BDFFF73DFFFBE726
:10130C006C0800200038014008B50A480A4B0360FD
:10131C004FF4E133436000238360C36003610C220C
:10132C0042618361C36100F0FDFE00B908BDFFF7A7
:10133C0023FFFBE7B40800200044004030B589B01F
:10134C00002304930593069307930368304A934252
:10135C0004D0304A93422BD009B030BD2E4B9A6941
:10136C0042F480429A619A6902F480420092009A97
:10137C009A6942F004029A619B6903F00403019399
:10138C00019B4FF4007304930223059303230793EB
:10139C00224C04A9204600F0A3F94FF48063049377
:1013AC0000230593069304A9204600F099F9D3E78E
:1013BC00194BDA6942F40032DA61DA6902F400326C
:1013CC000292029A9A6942F004029A619B6903F0B4
:1013DC0004030393039B0423049302230593032325
:1013EC0007930E4D04A9284600F07AF908230493BC
:1013FC0000240594069404A9284600F071F92246AD
:10140C002146262000F0A2F8262000F0D7F8A3E70A
:10141C000038014000440040001002400008014028
:10142C00FFF756FF0B480C490C4A002302E0D45836
:10143C00C4500433C4188C42F9D3094A094C002314
:10144C0001E013600432A242FBD301F065FBFFF70D
:10145C00C7FE7047000000204C080020283E000802
:10146C004C0800204C090020FEE7000010B5044693
:10147C000E4B18784FF47A73B3FBF0F30C4A1068E8
:10148C00B0FBF3F000F0A8F868B90F2C01D90120DB
:10149C000AE0002221464FF0FF3000F057F8054BD0
:1014AC001C60002000E0012010BD00BF04000020E3
:1014BC00000000200800002008B5074A136843F01C
:1014CC0010031360032000F02FF80F20FFF7CEFF5E
:1014DC00FFF794FE002008BD00200240034A11686B
:1014EC00034B1B780B441360704700BFFC080020B3
:1014FC0004000020014B1868704700BFFC08002056
:10150C0038B50446FFF7F6FF0546B4F1FF3F02D0AD
:10151C00044B1B781C44FFF7EDFF401BA042FAD391
:10152C0038BD00BF04000020074AD36823F4E063F1
:10153C001B041B0C000200F4E060034343F0BF6388
:10154C0043F40033D360704700ED00E000B5194B55
:10155C00DB68C3F30223C3F1070CBCF1040F28BFF3
:10156C004FF0040C03F1040EBEF1060F18D9033B27
:10157C004FF0FF3E0EFA0CFC21EA0C0199400EFADA
:10158C0003F322EA0303194300280BDB0901C9B258
:10159C0000F1604000F5614080F800135DF804FB39
:1015AC000023E5E700F00F000901C9B2024B195402
:1015BC00F4E700BF00ED00E014ED00E0002807DBCD
:1015CC0000F01F02400901239340024A42F82030E8
:1015DC00704700BF00E100E00138B0F1807F0BD212
:1015EC004FF0E0235861054AF02182F823100020C7
:1015FC00986107221A6170470120704700ED00E0E6
:10160C0090F82130DBB2022B06D004238363002335
:10161C0080F82030012070470268136823F00E0315
:10162C0013600268136823F001031360036CC16B31
:10163C00012202FA03F34B6080F82120002380F88A
:10164C00203018467047000008B590F82130DBB206
:10165C00022B03D004238363012008BD02681368A6
:10166C0023F00E0313600268136823F00103136068
:10167C000368194A934214D0143293421FD0143287
:10168C0093421ED0143293421ED0143293421ED079
:10169C001432934202D04FF0807203E04FF4801268
:1016AC0000E001220D4B5A60012380F82130002309
:1016BC0080F82030436B6BB198470020CDE71022A7
:1016CC00F0E74FF48072EDE74FF48052EAE74FF405
:1016DC008032E7E70020C0E708000240000002402B
:1016EC0070B582B00024A446A6E0804DAA4210D06A
:1016FC0007D97F4DAA420CD005F58035AA4208D0F7
:10170C0013E0A5F58015AA4203D005F57025AA4271
:10171C0007D18A68002A58D0012A51D04361082485
:10172C0003E0A5F58015AA42F3D0BEF1FF0F4ED809
:10173C000646BEF1FF0F4CD84FEA8C0233680F25DA
:10174C00954023EA050304FA02F2134333604B6815
:10175C0013F0805F6ED0674B9A6942F001029A6178
:10176C009B6903F001030193019B4FEA9C02951CBA
:10177C00614B53F825600CF003039D000F23AB4025
:10178C0026EA03065D4B984229D003F58063984204
:10179C0000F08E8003F58063984200F08B8003F597
:1017AC008063984219D004231AE0CC68BDE7CC685A
:1017BC000434BAE7CC680834B7E7CC680C34B4E727
:1017CC0003610824B1E70024AFE70424ADE7061D4C
:1017DC00AFE7ACF108029200B0E7032300E000236E
:1017EC00AB4033430232444D45F822304B6813F47E
:1017FC00801F61D0424A936843EA0E0393604B68A2
:10180C0013F4001F5ED03E4AD36843EA0E03D36044
:10181C004B6813F4003F5BD0394A536843EA0E031C
:10182C0053604B6813F4803F58D0354A136843EA31
:10183C000E0313600CF1010C0A6832FA0CF353D04E
:10184C00012303FA0CF302EA030E33EA0202F1D18C
:10185C004A68122A3FF649AF122A3FF666AF01A535
:10186C0055F822F01F170008B7170008C117000819
:10187C00D317000837170008371700083717000868
:10188C0037170008371700083717000837170008F4
:10189C0037170008371700083717000837170008E4
:1018AC003717000837170008BB170008C7170008C0
:1018BC00012395E7022393E7114A936823EA0E0369
:1018CC0093609CE70E4AD36823EA0E03D3609FE72C
:1018DC000B4A536823EA0E035360A2E7084A1368C5
:1018EC0023EA0E031360A5E702B070BD00002210BE
:1018FC0000003110001002400000014000080140BF
:10190C000004014082B0084B1B68084AA2FB032369
:10191C005B0A00FB03F3019300BF019B5A1E01926B
:10192C00002BF9D102B0704700000020D34D62109B
:10193C00002800F0F18170B582B00446036813F002
:10194C00010F2CD0994B5B6803F00C03042B1DD0BA
:10195C00964B5B6803F00C03082B12D06368B3F54D
:10196C00803F41D0002B55D103F1804303F5043364
:10197C001A6822F480321A601A6822F480221A60E3
:10198C0037E08A4B5B6813F4803FE7D0874B1B68CA
:10199C0013F4003F03D06368002B00F0BF81236871
:1019AC0013F0020F75D0814B5B6813F00C0F5FD0F6
:1019BC007E4B5B6803F00C03082B54D02369002B7F
:1019CC0000F08A807A4B01221A60FFF793FD0546DE
:1019DC00764B1B6813F0020F75D1FFF78BFD401B84
:1019EC000228F5D903209EE1704A136843F4803332
:1019FC001360636843B3FFF77DFD05466B4B1B68B3
:101A0C0013F4003FCBD1FFF775FD401B6428F5D9CB
:101A1C00032088E1B3F5A02F09D0644B1A6822F497
:101A2C0080321A601A6822F480221A60E1E703F10E
:101A3C008043A3F53C331A6842F480221A601A687A
:101A4C0042F480321A60D4E7FFF754FD0546574B39
:101A5C001B6813F4003FA2D0FFF74CFD401B642819
:101A6C00F5D903205FE1514B5B6813F4803FA5D19E
:101A7C004E4B1B6813F0020F03D02369012B40F06F
:101A8C004F814A4A136823F0F803616943EAC103A2
:101A9C001360236813F0080F33D0A369002B5CD0BC
:101AAC00434B0122C3F88024FFF724FD05463F4B2E
:101ABC005B6A13F0020F21D1FFF71CFD401B0228BB
:101ACC00F5D903202FE1394A136823F0F803616933
:101ADC0043EAC1031360DCE7354B00221A60FFF7C1
:101AEC0009FD0546314B1B6813F0020FD1D0FFF7EF
:101AFC0001FD401B0228F5D9032014E10120FFF75A
:101B0C0001FF236813F0040F00F09680274BDB696C
:101B1C0013F0805F34D1254BDA6942F08052DA61E0
:101B2C00DB6903F080530193019B0125214B1B685A
:101B3C0013F4807F26D0E368012B3DD0002B53D1CA
:101B4C0003F1804303F504331A6A22F001021A628E
:101B5C001A6A22F004021A6233E0154B0022C3F811
:101B6C008024FFF7C7FC0546104B5B6A13F0020F8D
:101B7C00C7D0FFF7BFFC401B0228F5D90320D2E0E9
:101B8C000025D3E70B4A136843F480731360FFF707
:101B9C00B1FC0646074B1B6813F4807FCBD1FFF7D3
:101BAC00A9FC801B6428F5D90320BCE0001002407E
:101BBC0000004242007000405F4A136A43F0010388
:101BCC001362E36833B3FFF795FC06465A4B1B6A66
:101BDC0013F0020F2FD1FFF78DFC801B41F28833DD
:101BEC009842F3D903209EE0052B09D0524B1A6A78
:101BFC0022F001021A621A6A22F004021A62E0E769
:101C0C004D4B1A6A42F004021A621A6A42F001023F
:101C1C001A62D6E7FFF76EFC0646474B1B6A13F0B9
:101C2C00020F08D0FFF766FC801B41F28833984204
:101C3C00F3D9032077E0E5B9E369002B72D03E4A73
:101C4C00526802F00C02082A56D0022B17D03B4BDC
:101C5C0000221A66FFF74EFC0446374B1B6813F044
:101C6C00007F47D0FFF746FC001B0228F5D9032064
:101C7C0059E0314AD36923F08053D361DCE72F4B11
:101C8C0000221A66FFF736FC05462B4B1B6813F037
:101C9C00007F06D0FFF72EFC401B0228F5D903204D
:101CAC0041E0236AB3F5803F1AD023494B6823F4F3
:101CBC007413226A606A024313434B601F4B012268
:101CCC001A66FFF717FC04461B4B1B6813F0007FCA
:101CDC000ED1FFF70FFC001B0228F5D9032022E0E0
:101CEC00154A536823F40033A1680B435360DCE7B7
:101CFC00002018E0002016E0012B16D00E4B5B687C
:101D0C0003F48031226A914211D103F47013626A98
:101D1C0093420ED1002006E001207047012002E022
:101D2C00012000E0002002B070BD0120FBE7012083
:101D3C00F9E70120F7E700BF001002400000424223
:101D4C000F4B5B6803F00C02082A01D00D4870475A
:101D5C00C3F383420C49885C13F4803F0BD0084BCF
:101D6C005B68C3F34043094AD35C064A02FB00F0AC
:101D7C00B0FBF3F07047064B03FB00F0704700BF5D
:101D8C000010024000127A00243D0008343D000887
:101D9C0000093D00002800F0A08070B50D460446F7
:101DAC00524B1B6803F007038B420BD24F4A13684C
:101DBC0023F007030B431360136803F007038B42F4
:101DCC0040F08D80236813F0020F17D013F0040F2E
:101DDC0004D0474A536843F4E0635360236813F01C
:101DEC00080F04D0424A536843F460535360404A8E
:101DFC00536823F0F003A1680B435360236813F07E
:101E0C00010F31D06368012B20D0022B25D0384A2A
:101E1C00126812F0020F64D035494A6822F00302AE
:101E2C0013434B60FFF766FB0646314B5B6803F0D0
:101E3C000C036268B3EB820F16D0FFF75BFB801BC1
:101E4C0041F288339842F0D9032045E0284A1268C1
:101E5C0012F4003FE0D101203EE0254A126812F056
:101E6C00007FD9D1012037E0204B1B6803F007031A
:101E7C00AB420AD91D4A136823F007032B431360A6
:101E8C00136803F00703AB422DD1236813F0040F42
:101E9C0006D0174A536823F4E063E1680B435360A0
:101EAC00236813F0080F07D0114A536823F46053CA
:101EBC00216943EAC1035360FFF742FF0C4B5B6897
:101ECC00C3F303130B4AD35CD8400B4B18600B4B7A
:101EDC001868FFF7CBFA002070BD01207047012075
:101EEC00FAE70120F8E70120F6E700BF00200240E6
:101EFC00001002400C3D00080000002008000020EB
:101F0C00014B1868704700BF0000002008B5FFF7B0
:101F1C00F7FF044B5B68C3F30223034AD35CD8403E
:101F2C0008BD00BF001002401C3D000808B5FFF7BB
:101F3C00E7FF044B5B68C3F3C223034AD35CD8406E
:101F4C0008BD00BF001002401C3D0008026802F1F1
:101F5C000C0353E8003F23F490730C3242E8003139
:101F6C000029F3D1026802F1140353E8003F23F077
:101F7C000103143242E800310029F3D1036B012B29
:101F8C0005D0202380F84230002303637047026899
:101F9C0002F10C0353E8003F23F010030C3242E82B
:101FAC0000310029F3D1ECE790F84130DBB2212B62
:101FBC0001D0022070478368B3F5805F17D0036AA5
:101FCC005A1C02621A7803685A60C38C9BB2013B9C
:101FDC009BB2C3844BB90268D36823F08003D360EF
:101FEC000268D36843F04003D36000207047036954
:101FFC00002BE4D1036A1B880268C3F30803536007
:10200C00036A02330362E0E710B504460268136901
:10201C0023F44053C1680B43136183680269134373
:10202C0042691A430168CB6823F4B05323F00C03C4
:10203C001343CB600268536923F4407381690B43EB
:10204C0053610268134B9A4220D0FFF75FFF0246A0
:10205C0002EB820202EB820263689B00B2FBF3F29A
:10206C000D48A0FB02314909642303FB11231B011A
:10207C003233A0FB03235B0903F0F00202EB0112E5
:10208C0003F00F03216813448B6010BDFFF74EFF64
:10209C000246DDE7003801401F85EB512DE9F8437E
:1020AC0005460F4616469946DDF820802C682468B4
:1020BC0037EA04030CBF4FF0010C4FF0000CB44591
:1020CC002DD1B8F1FF3FF1D0B8F1000F05D0FFF7DB
:1020DC0011FAA0EB09004045E8D92A6802F10C037B
:1020EC0053E8003F23F4D0730C3242E8003100294E
:1020FC00F3D12A6802F1140353E8003F23F00103E3
:10210C00143242E800310029F3D1202385F8413004
:10211C0085F84230002385F84030032000E0002091
:10212C00BDE8F88360B310B5044690F8413013B3A2
:10213C00242384F841302268D36823F40053D360FD
:10214C002046FFF761FF2268136923F49043136163
:10215C002268536923F02A0353612268D36843F43D
:10216C000053D36000206064202384F8413084F84D
:10217C004230606310BD80F84030FFF7DFF8D7E7DE
:10218C00012070472DE9F04182B01E4690F8413095
:10219C00DBB2202B4BD104460D46904600294AD089
:1021AC000AB9012044E000234364212380F8413024
:1021BC00FFF7A0F90746A4F82480A4F82680A368AA
:1021CC00B3F5805F02D04FF000080FE02369FBB13C
:1021DC004FF000080AE038F8023B2268C3F308030A
:1021EC005360E28C92B2013A92B2E284E38C9BB2DD
:1021FC008BB100963B46002280212046FFF74EFF14
:10220C00D8B9002DE7D015F8012B23685A60E8E700
:10221C00A8460025EAE700963B46002240212046CE
:10222C00FFF73CFF58B9202384F8413000E002202E
:10223C0002B0BDE8F0810120FAE70320F8E70320A3
:10224C00F6E72DE9F04182B01E4690F84230DBB241
:10225C00202B53D104460D469046002952D00AB982
:10226C0001204CE000234364222280F842200363C7
:10227C00FFF740F90746A4F82C80A4F82E80A36839
:10228C00B3F5805F02D04FF0000817E0236913B15B
:10229C004FF0000812E0A84600250FE023685B68A9
:1022AC00C3F3080328F8023B03E023685B682B7038
:1022BC000135E28D92B2013A92B2E285E38D9BB286
:1022CC00BBB100963B46002220212046FFF7E6FEDC
:1022DC00D0B9002DE2D0A368B3F5805FE5D013B977
:1022EC002369002BE1D023685B6803F07F032B701C
:1022FC00DEE7202384F84230002000E0022002B008
:10230C00BDE8F0810120FAE70320F8E7704708B533
:10231C000168CA6822F04002CA60202280F841207D
:10232C00FFF7F4FF002008BD7047704708B5406AFE
:10233C000023C385C384FFF7F8FF08BD704790F8EE
:10234C004230DBB2222B69D18368B3F5805F4FD06A
:10235C00826AB3F5805F04D0002B56D10369002B41
:10236C0053D103685B681370836A01338362C38D36
:10237C009BB2013B9BB2C385002B51D100B583B0FE
:10238C000268D36823F02003D3600268D36823F477
:10239C008073D3600268536923F0010353612023D7
:1023AC0080F8423000234363036B012B33D10023AD
:1023BC000363026802F10C0353E8003F23F010039F
:1023CC000C3242E800310029F3D103681A6812F08C
:1023DC00100F06D0002201921A6801925B680193DB
:1023EC00019B818DFFF7AAFF002003B05DF804FB71
:1023FC000269002AACD1826A03685B68C3F30803E4
:10240C001380836A02338362B1E703685B6803F06D
:10241C007F031370A8E7FFF787FFE5E702207047FB
:10242C000020704730B583B0044602681368D0684A
:10243C00516913F00F0505D113F0200F02D010F0E5
:10244C00200F19D12DB111F0010119D110F4907F89
:10245C0016D1216B01297DD013F0800F03D010F021
:10246C00800F40F0188113F0400F03D010F0400F94
:10247C0040F0158103B030BD2046FFF760FFF9E74F
:10248C0013F0010F06D010F4807F03D0626C42F081
:10249C000102626413F0040F04D019B1626C42F0B3
:1024AC000202626413F0020F04D019B1626C42F0A4
:1024BC000402626413F0080F07D010F0200F00D153
:1024CC0019B1626C42F008026264626C002AD1D0CD
:1024DC0013F0200F02D010F0200F29D123685B6974
:1024EC0003F04003626C12F0080F00D163B3204676
:1024FC00FFF72CFD23685B6913F0400F20D0226896
:10250C0002F1140353E8003F23F04003143242E875
:10251C0000310029F3D1E36B73B1634A5A63E06B6A
:10252C00FFF792F80028A5D0E06B436B9847A1E722
:10253C002046FFF704FFD1E72046FFF7F6FE99E7A8
:10254C002046FFF7F2FE95E72046FFF7EEFE00234C
:10255C0063648FE713F0100F3FF47EAF10F0100F91
:10256C003FF47AAF002301931368019353680193EE
:10257C00019B536913F0400F51D0E26B13685B68F9
:10258C009BB2002B3FF476AFA18D99427FF672AFD0
:10259C00E3859369202B37D0226802F10C0353E8B2
:1025AC00003F23F480730C3242E800310029F3D150
:1025BC00226802F1140353E8003F23F001031432A4
:1025CC0042E800310029F3D1226802F1140353E8E8
:1025DC00003F23F04003143242E800310029F3D1CC
:1025EC00202384F8423000232363226802F10C0379
:1025FC0053E8003F23F010030C3242E8003100296D
:10260C00F3D1E06BFEF7FCFF02236363A18DE38D36
:10261C009BB2C91A89B22046FFF790FE2AE7A18D1A
:10262C00E38D9BB2C91A89B2E38D9BB2002B3FF4A8
:10263C0021AF00293FF41EAF226802F10C0353E8CE
:10264C00003F23F490730C3242E800300028F3D1A1
:10265C00226802F1140353E8003F23F00103143203
:10266C0042E800300028F3D1202384F842300023C4
:10267C002363226802F10C0353E8003F23F010039C
:10268C000C3242E800300028F3D102236363204669
:10269C00FFF754FEEEE62046FFF786FCEAE62046FE
:1026AC00FFF735FEE6E600BF3923000810B5ACB0E5
:1026BC00A74800F0BFF948242246A64903A8FEF714
:1026CC00CDFC224603A919A8FEF7C8FC0123ADF8DE
:1026DC00AC3000238DF8AE308DF8AF300F238DF871
:1026EC000530FE238DF8043000248DF80340FF23C1
:1026FC008DF80C308DF80D30BDF8AC308DF80E30F7
:10270C0003238DF8103005238DF80F3009238DF835
:10271C0011304FF6FF73062203A919A8FFF732FDFB
:10272C00BDF8AC300533DBB20333DBB209338DF8C3
:10273C0003302346012B0CD803F1B0026A4412F883
:10274C00AC2C9DF803100A448DF803200133DBB246
:10275C00F0E74FF6FF73022201A919A8FFF712FD4B
:10276C009DF80330DB438DF803304FF6FF730122E5
:10277C000DF1030119A8FFF705FD9DF8AE30002BF4
:10278C003AD00C238DF8043010238DF8053000243A
:10279C008DF80340FF238DF80C308DF80D30BDF80B
:1027AC00AC308DF80E3003238DF8103005238DF8E6
:1027BC000F3009238DF811304FF6FF73062203A951
:1027CC0019A8FFF7DFFCBDF8AC300533DBB20333DF
:1027DC00DBB209338DF803302346012B13D803F1F8
:1027EC00B0026A4412F8AC2C9DF803100A448DF820
:1027FC0003200133DBB2F0E70C238DF805301023F6
:10280C008DF80430C3E74FF6FF73022201A919A813
:10281C00FFF7B8FC9DF80330DB438DF803304FF61F
:10282C00FF7301220DF1030119A8FFF7ABFCABE01C
:10283C000F228DF80E20FF228DF80D20B2E0002221
:10284C008DF810208DF80F20B4E000238DF8123095
:10285C00FE238DF81130B6E04FF6FF73072203A963
:10286C0019A8FFF78FFC9DF80330DB438DF803307C
:10287C004FF6FF7301220DF1030119A8FFF782FC3B
:10288C0040F6DE00FEF73CFEFA238DF80C309DF886
:10289C00AE30002B48D000228DF80D208DF80E2084
:1028AC00002B47D000228DF80F208DF81020002B24
:1028BC0046D000238DF81130FE238DF81230002401
:1028CC008DF80340FF238DF804308DF80530BDF8EA
:1028DC00AC308DF8063003238DF808300A238DF8C0
:1028EC00073029238DF809304FF6FF73062201A912
:1028FC0019A8FFF747FCBDF8AC300A33DBB2033341
:10290C00DBB229338DF803302346062B24D803F190
:10291C00B0026A4412F8A42C9DF803100A448DF8F6
:10292C0003200133DBB2F0E700228DF80E208DF886
:10293C000D20B5E700228DF810208DF80F20B6E79A
:10294C0000238DF81230FE238DF81130B7E700BF4D
:10295C006C080020B40800204FF6FF73072203A96F
:10296C0019A8FFF70FFC9DF80330DB438DF80330FB
:10297C004FF6FF7301220DF1030119A8FFF702FCBA
:10298C0040F6DE00FEF7BCFDFA238DF80C309DF806
:10299C00AE30002B3FF44CAF0F228DF80D20FF22F0
:1029AC008DF80E20002B3FF44AAF00228DF80F203B
:1029BC008DF81020002B3FF448AF00238DF8113018
:1029CC00FE238DF8123000248DF80340FF238DF880
:1029DC0004308DF80530BDF8AC308DF8063003238B
:1029EC008DF808300A238DF8073029238DF809302B
:1029FC004FF6FF73062201A919A8FFF7C3FBBDF818
:102A0C00AC300A33DBB20333DBB229338DF803303D
:102A1C002346062B3FF620AF03F1B0026A4412F8AE
:102A2C00A42C9DF803100A448DF803200133DBB26B
:102A3C00EFE700BF08B5054B1860054B186800237D
:102A4C0002221946806800F0DDF808BD000900205C
:102A5C000C00002010B5013801280AD814464FF09C
:102A6C00FF3392B207480068FFF78CFB40B9204651
:102A7C0010BD00F04BF8092303604FF0FF30F7E76F
:102A8C000520F5E700090020022801D80020704736
:102A9C0008B500F03BF8092303604FF0FF3008BD88
:102AAC0008B500F033F8092303604FF0FF3008BD80
:102ABC0008B548B94FF0FF33012208480068FFF70A
:102ACC00C0FB40B9012008BD00F020F809230360C9
:102ADC004FF0FF30F7E70520F5E700BF00090020B5
:102AEC0008B5022804D84FF400534B60002008BDF1
:102AFC0000F00CF809230360F8E70000062008B585
:102B0C0000F058F90120FEF7B9FB00BF014B186823
:102B1C00704700BF0C00002070B50D4E0D4D761B9C
:102B2C00B61006D0002455F8043B01349847A64251
:102B3C00F9D1094E094D01F0D7F8761BB61006D025
:102B4C00002455F8043B01349847A642F9D170BDD6
:102B5C001C3E00081C3E0008243E00081C3E0008D9
:102B6C00830730B548D0541E002A3FD00346CAB262
:102B7C0001E0013C3AD303F8012B9D07F9D1032C5A
:102B8C002DD9CDB245EA05250F2C45EA054536D998
:102B9C00A4F1100222F00F0C03F1200EE6444FEAD0
:102BAC00121C03F1100242E9045542E9025510329D
:102BBC007245F8D10CF1010214F00C0F03EB021268
:102BCC0004F00F0C13D0ACF1040323F00303043313
:102BDC00134442F8045B9342FBD10CF003042CB178
:102BEC00CAB21C4403F8012B9C42FBD130BD644695
:102BFC001346002CF4D1F9E703461446BFE71A46F6
:102C0C00A446E0E72DE9F043694C0E46D4F8008069
:102C1C00174604461D4683B0B8F1000F03D0D8F810
:102C2C003830002B77D0022F05D0012F00F2AC806A
:102C3C00002DC0F2A980636EDA0752D521464046BA
:102C4C0000F09EF9216B41B104F14003994202D08E
:102C5C00404600F0C1FA002323630023B4F90CC0F2
:102C6C00A3611CF0800F636064D12CF44A6C2CF0CF
:102C7C00030C022FA4F80CC06AD001AB21464046CD
:102C8C006A4600F0D5FBA3891843A081002D2FD0F4
:102C9C00002E2ED0D8F83830002B38D0009BC4E949
:102CAC000465AB42B4F90C3026601CBF43F40063DE
:102CBC00A381012F04BF43F00103A3819AB213F047
:102CCC0008032CD0D1075DD500216D42A561656E3E
:102CDC00A16015F0010527D00025284603B0BDE8FA
:102CEC00F083A3899B05A9D4A06D00F09DFBA5E7FB
:102CFC00009D284600F0CCFB0646002847D0A3894F
:102D0C0043F08003A381D8F83830002BC6D140465D
:102D1C0000F06AF9C2E7404600F066F983E7A36069
:102D2C00656E15F00105D7D1930524D5284603B05F
:102D3C00BDE8F0834046216900F04EFAB4F90CC0AE
:102D4C00022F2CF44A6C2CF0030CA4F80CC094D178
:102D5C0000250021012204F1430323602361636EEB
:102D6C004CF0020CD807A4F80CC0A1606261DDD451
:102D7C001CF4007FDAD1A06D00F058FB284603B09C
:102D8C00BDE8F083A560CBE74FF0FF35CEE7DDF86B
:102D9C000090A94504D0484600F07AFB064620B9BD
:102DAC004FF0FF35B4F90CC0D3E74D46A7E700BF91
:102DBC000C00002038B5154B1F281D6820D8D5F8FD
:102DCC00DC22044662B152F820304BB1012B15D0F5
:102DDC00591C0FD0002542F820509847284638BD82
:102DEC00284600F029F8224601462846BDE838401E
:102DFC0000F00EB8162301202B6038BD002038BD22
:102E0C0016234FF0FF302B6038BD00BF0C000020A4
:102E1C0070B50026074D0446084611462E60FEF795
:102E2C0025FA431C00D070BD2B68002BFBD023600F
:102E3C0070BD00BF48090020FEF716BA024B13B153
:102E4C00024800F005B87047000000001931000876
:102E5C00002301461A46184600F048BEB1F90C2072
:102E6C00F8B50C461107074643D4636842F4006278
:102E7C00002BA2815BDDA56A002D56D000233E6895
:102E8C003B6093B212F4805255D101233846E1696C
:102E9C00A847421C65D0A389A56A5B0705D5636862
:102EAC00C01A236B0BB1E36BC01A0246E169002315
:102EBC003846A847411C40D13B68002B3DD01D2B08
:102ECC0001D0162B54D10022A38923F40063A381D3
:102EDC002369C4E90032216B3E6031B304F1400335
:102EEC00994202D0384600F077F900231846236344
:102EFC00F8BD2669CEB193B29A0718BF0023256896
:102F0C0008BF63692660AD1BA3600CE02B463246FC
:102F1C00D4F824C03846E169E047B0F1000CA5EBC9
:102F2C000C05664416DD002DF0DC0020F8BDE36BCB
:102F3C00002BA0DCF9E7206DAFE70022B4F90C30D0
:102F4C00626023F400632269A381DB042260C2D592
:102F5C002065C0E7A3894FF0FF3043F04003A38105
:102F6C00F8BD3B68002B96D01D2B06D0162B04D039
:102F7C00A38943F04003A381F8BD00203E60F8BD57
:102F8C0038B505460C4608B1836BA3B1B4F90C00F7
:102F9C00B8B1636EDB0701D4810515D528462146EF
:102FAC00FFF75CFF636E0546DA0702D4A3899B0525
:102FBC000ED5284638BD00F017F8B4F90C000028DF
:102FCC00E7D10546284638BDA06D00F02DFAE5E79F
:102FDC00A06D00F02BFA284638BD00BF014900F067
:102FEC00FBB900BFA93B00082DE9F04782463948E0
:102FFC0000F01AFADAF83840002C66D104230322C8
:10300C003549DAF80450CAF83C10DFF8D090DFF8F4
:10301C00D080344F344E0AF53B71CAE9B921CAF855
:10302C00E0422146EB600822C5E90044C5E90444AE
:10303C006C66AC60AC6105F15C00FFF791FDC5E915
:10304C000759C5E90987EE6205F1580000F0E8F967
:10305C00DAF80850254B2146EB600822C5E90044FC
:10306C00C5E904446C66AC60AC6105F15C00FFF72B
:10307C0077FDC5E90759C5E90987EE6205F15800E6
:10308C0000F0CEF9DAF80C50194B2146EB6008220F
:10309C00C5E90044C5E904446C66AC60AC6105F15B
:1030AC005C00FFF75DFD05F15800C5E90759C5E95E
:1030BC000A76C5F8248000F0B3F901230548CAF854
:1030CC003830BDE8F04700F0B1B90248BDE8F04730
:1030DC0000F0ACB910090020E92F0008413A0008B3
:1030EC00653A0008A53A0008C53A00080900010035
:1030FC0012000200014800F097B900BF0C09002033
:10310C00014800F093B900BF0C09002038B5084BFA
:10311C00084D5B1B9C1007D0043B1D44013C55F82B
:10312C0004399847002CF9D1BDE8384000F0E2BDD5
:10313C00283E0008243E0008F8B50C46234F0646EE
:10314C0000F05AFCBB685D68C4F57E6325F003058E
:10315C000F332B4423F47F6323F00F03A3F5805428
:10316C00B4F5805F07DB0021304600F051FCBB68F2
:10317C002B44984204D0304600F044FC0020F8BDAB
:10318C003046614200F044FC01300DD0104ABB685F
:10319C002D1B45F001055D60136830461B1B136049
:1031AC0000F030FC0120F8BD0021304600F030FC6E
:1031BC00BA68831A0F2BDEDD43F001035360054B15
:1031CC0003491B68C01A0860D5E700BF3C04002007
:1031DC00140900204408002000295ED0F8B50C46E4
:1031EC00064600F009FC54F8042C784FA4F10805AD
:1031FC0022F001016818D7F808C04368844523F011
:10320C00030300F08780D207436034D454F8082CB1
:10321C0007F10804AD1A1144AA68A24268D000EB69
:10322C00030CDCF804E0D5F80CC01EF0010FC2F85A
:10323C000CC0CCF8082000F0918041F001036B60C9
:10324C000160B1F5007F31D24A09CB0801219140D0
:10325C007A6801331143796007EBC30257F83310D6
:10326C00083AC5E9021247F83350CD603046BDE844
:10327C00F84000F0C7BBC2185268D2070ED41944EC
:10328C0007F108048368A34270D0C268DA609360C7
:10329C0041F001036B606950D3E7704741F00103C3
:1032AC00B1F5007F44F8043C0160CDD3B1F5206F3B
:1032BC004FEA512347D28B0903F1390003F138024D
:1032CC00C300F818FB580838984258D05A6822F0B6
:1032DC0003028A4202D99B689842F7D1D868C5E9A3
:1032EC00023085603046DD60BDE8F84000F08ABBF6
:1032FC00C2185268D20763D40B44D0E90212CA60D8
:10330C00916043F001026A603046EB50BDE8F84032
:10331C0000F078BB0B44D10707D454F8082CAD1A35
:10332C001344D5E90212CA60916043F001026A604D
:10333C00274ABD6012689A4298D8264B30461968C5
:10334C00FFF7FAFE92E7142B0AD9542B1FD80B0B5C
:10335C0003F16F0003F16E02C300B2E7194491E769
:10336C0003F15C0003F15B02C300AAE741F0010327
:10337C00C7E90455C5E902446B60695076E7012141
:10338C00921001FA02F279680A437A60A7E7B3F562
:10339C00AA7F06D8CB0B03F1780003F17702C300A8
:1033AC008FE740F25452934206D88B0C03F17D0008
:1033BC0003F17C02C30084E74FF47E737E2280E726
:1033CC0041F001036B60016050E700BF3C0400203A
:1033DC0048080020440900202DE9F8434FF000096B
:1033EC000746884600F53876D6E90154013D10D4DD
:1033FC00A389013D012B08D9B4F90E30013304D057
:10340C0021463846C04749EA00096B1C04F16804A0
:10341C00EED13668002EE7D14846BDE8F88300BFF0
:10342C00704700BF704700BF704700BF704700BFB8
:10343C0070B50C46B1F90E10154600291E4696B013
:10344C0014DB6A4600F010FC00280FDB019A4FF4E5
:10345C00806302F47042A2F50052B2FA82F24FF489
:10346C000060520932602B6016B070BD0023B4F9B5
:10347C000C10336011F0800004D0402218462A60F2
:10348C0016B070BD4FF480632B6016B070BD00BFDA
:10349C00024B0146186800F003B800BF0C00002076
:1034AC002DE9F04F01F10B05162D064683B025D8FA
:1034BC00102900F2B88000F09FFA102518224FF066
:1034CC00020CB54F3A445368A2F108018B4200F04C
:1034DC00B7805A68D96822F003021A449C683046B7
:1034EC00E1608C60516803F1080441F00101516006
:1034FC0000F088FA204603B0BDE8F08F35F00705E0
:10350C0000F19180A94200F28E8000F075FAB5F5B9
:10351C00FC7FC0F094816B0A00F08C80042B00F2CD
:10352C006A81AB0903F1390C03F138044FEACC0082
:10353C00994F384443680838984206D10CE000296A
:10354C0080F22681DB68984206D05A6822F003028A
:10355C00511B0F29F3DDA4463C69DFF840E27445AA
:10356C007AD0626822F00302531B0F2B00F3768192
:10357C00002BC7E904EE80F26781B2F5007F80F082
:10358C0019810121D30852090B4491407A6857F8EC
:10359C0033000A4307EBC3010839A060E1607A608D
:1035AC0047F83340C46001214FEAAC039940914283
:1035BC0059D8114206D12CF0030C490011420CF1E0
:1035CC00040CFAD007EBCC0948466446D0F80C80C2
:1035DC00404508D11CE1002B80F22181D8F80C80E9
:1035EC00404500F01581D8F8042022F00302531B4B
:1035FC000F2BF0DD08EB050145F00105C8F8045070
:10360C003046D8E90264F460A66043F00104C7E9CF
:10361C0004114C60C1E902EE48F8023000F0F2F9F6
:10362C0008F1080402E00C2300243360204603B0A8
:10363C00BDE8F08F4FF400704FF0400C3F2477E75B
:10364C00D3689A4208BF0CF1020C7FF442AF3C697C
:10365C00DFF848E1744584D101217A684FEAAC0364
:10366C0099409142A5D9BC68636823F003094D4584
:10367C0003D8A9EB05030F2B7ADCDFF824B1494BF7
:10368C00DBF800201B6801322B4404EB090A00F024
:10369C002F8103F580530F3323F47F6828F00F0834
:1036AC004146304600F0B4F9411C024600F0EF8070
:1036BC00824500F2EA803C4B196841440846196087
:1036CC0000F04981DBF80010019301311BBFA2EB24
:1036DC000A0A5044CBF80020186012F0070B00F0D7
:1036EC001181CBF108010A44CBF58051904408318B
:1036FC00A1EB0801C1F30B0A51463046009200F0D1
:10370C0087F9421CDDE9002300F04B81801A00EBA5
:10371C000A08196848F001005144BC42BA601960AB
:10372C00506000F02481B9F10F0F40F222814FF06C
:10373C00050E6068A9F10C0C2CF0070C00F00100D0
:10374C0040EA0C006060BCF10F0F04EB0C00C0E908
:10375C0001EE00F22E8114465068144B1A688A420E
:10376C0038BF1960124B1A688A4238BF196090E052
:10377C00621943F0010345F0010565603046BA60FB
:10378C000834536000F03EF9204603B0BDE8F08FDA
:10379C00D9681A44A2E600BF3C040020440400206F
:1037AC004408002044090020140900203C09002092
:1037BC0040090020B2F5206F4FEA52235FD3142B3F
:1037CC0000F2B18003F15C01C9005B3378187958C1
:1037DC000838884200F08F804B6823F00303934233
:1037EC0002D989688842F7D1C8687A68C4E902109E
:1037FC008460CC60D7E6142B59D9542B00F29B80F3
:10380C002B0B03F16F0C03F16E044FEACC008FE627
:10381C000134A30700F108007FF4D8AE53E044460E
:10382C0042445368D8F80C1043F00103536054F829
:10383C00083F3046D9608B6000F0E4F8F6E64FEABA
:10384C00D50C05F108023CE622445368304643F09F
:10385C000103536000F0D6F80834E7E6611945F02F
:10386C000105656043F00105C7E904113046C1E963
:10387C0002EE4D60A35000F0C5F80834D6E693096B
:10388C0003F13901C9003833A0E7BC425ED0BC68F3
:10389C00606820F003084545A8EB050302D80F2B00
:1038AC003FF766AF304600F0ADF80024BEE603F1FA
:1038BC005C0C03F15B044FEACC0039E659F808398B
:1038CC004B4540F095801CF0030F0CF1FF3CF5D1FB
:1038DC007B6823EA01037B60490099423FF6C3AE43
:1038EC0011B9C0E6490004341942FBD0A44669E67C
:1038FC0003F11008D4E601229B109A407B681A430E
:10390C007A6073E702EB08014942C1F30B0A514696
:10391C003046009200F07CF8431CDDE900237FF474
:10392C00F5AEDA46F5E6542B26D8130B03F16F01EE
:10393C00C9006E334AE7B3F5AA7F26D8EB0B03F127
:10394C00780C03F177044FEACC00F1E5294B1868A9
:10395C0040441860B6E6CAF30B0CBCF1000F7FF4C0
:10396C00B1AEBC68C84448F001006060F5E614468E
:10397C00F3E60123536095E7B3F5AA7F24D8D30B64
:10398C0003F17801C900773320E740F25452934297
:10399C0024D8AB0C03F17D0C03F17C044FEACC0072
:1039AC00C6E5ABF1080BD8444FF0000AA8EB0208AF
:1039BC00AFE604F1080130460093FFF70DFCBC683C
:1039CC00009B60681968C8E640F254518B420BD8D2
:1039DC00930C03F17D01C9007C33F7E64FF47E7044
:1039EC004FF07F0C7E24A3E54FF47E717E23EDE631
:1039FC007B6871E7140900200148FFF715BD00BF73
:103A0C00080900200148FFF711BD00BF080900207C
:103A1C00002238B5064D044608462A60FDF734FCF2
:103A2C00431C00D038BD2B68002BFBD0236038BD65
:103A3C004809002010B50C46B1F90E1000F03EF903
:103A4C00002803DB236D0344236510BDA38923F4F5
:103A5C008053A38110BD00BF2DE9F0410C46B1F994
:103A6C000C101F46CB05054616460BD421F480518D
:103A7C00A1813B4632462846B4F90E10BDE8F04110
:103A8C0000F01EB8B4F90E100223002200F000F969
:103A9C00B4F90C10EAE700BF10B50C46B1F90E10E2
:103AAC0000F0F6F8A389421C0EBF23F4805343F4B4
:103ABC0080532065A38110BDB1F90E1000F05CB8E5
:103ACC0038B50C46114600228446074D20462A6024
:103ADC001A466446FEF7BEFF431C00D038BD2B6867
:103AEC00002BFBD0236038BD480900202DE9F0479E
:103AFC00DFF87CA00646DAF8000098460F4691469F
:103B0C00FFF792FC1B4B1B68D3F8484124B3656844
:103B1C001F2D26DC5EB96B1C0235DAF800006360E1
:103B2C0044F82570FFF782FC0020BDE8F0870123E4
:103B3C0004EB8501C1F88890D4F88821AB401A4376
:103B4C00022EC4F88821C1F80881E4D1D4F88C2164
:103B5C001343C4F88C31DEE703F5A674C3F848416F
:103B6C00D5E7DAF80000FFF761FC4FF0FF30DCE737
:103B7C0038040020383D0008002238B5064D0446B4
:103B8C0008462A60FEF780FF431C00D038BD2B6826
:103B9C00002BFBD0236038BD4809002070B50029EC
:103BAC004BD006460C4610B1836B002B48D0636E8D
:103BBC00D80734D5B4F90C30002B3ED02146304612
:103BCC00FFF74CF9E36A054633B13046E169984793
:103BDC000028B8BF4FF0FF35A3891A063BD4216BE0
:103BEC0041B104F14003994202D03046FFF7F4FA98
:103BFC0000232363616C21B13046FFF7EDFA0023FB
:103C0C006364FFF777FA0022636EA281DB0727D586
:103C1C00A06DFFF707FCFFF773FA284670BDA38968
:103C2C009905CBD4A06DFFF7FFFBB4F90C30002B3A
:103C3C00C4D1656E15F0010508D00025284670BD6D
:103C4C00FFF7D2F9636ED807B4D4E8E7A06DFFF79D
:103C5C00EDFB284670BD30462169FFF7BDFABEE783
:103C6C00A06DFFF7E3FBD3E770B50026074D0446C4
:103C7C00084611462E60FEF733FF431C00D070BD82
:103C8C002B68002BFBD0236070BD00BF48090020BF
:103C9C0038B50C46114600228446074D20462A6052
:103CAC001A466446FEF7FCFE431C00D038BD2B6858
:103CBC00002BFBD0236038BD4809002038B50C46DA
:103CCC00114600228446074D20462A601A46644657
:103CDC00FEF7EEFE431C00D038BD2B68002BFBD04A
:103CEC00236038BD48090020F8B500BFF8BC08BCFB
:103CFC009E467047F8B500BFF8BC08BC9E4670479E
:103D0C00000000000000000001020304060708097F
:103D1C000000000001020304020304050607080961
:103D2C000A0B0C0D0E0F10100102000010000020E9
:103D3C0008B10181B0B000840000000008B101811D
:083D4C00B0B00084000000008B
:103D5400F8C3FF7F010000008CC4FF7FB0A902807C
:103D640024C5FF7FB0B0A88074C5FF7F01000000A8
:103D740080C5FF7FB0B0AA80B8C5FF7FAE71B280A6
:103D840088C6FF7F0100000084C6FF7FAB3F3880F8
:103D9400E4C6FF7F01000000F0C6FF7FB0B0AA8038
:103DA4002CC7FF7F01000000DCC7FF7FAA0DB28093
:103DB40054C8FF7FB0AF0880F4CAFF7F0100000041
:103DC400F8CAFF7FAD3F028064CDFF7F0100000091
:103DD40040CFFF7F0084048054CFFF7F01000000A8
:103DE40050CFFF7FB0AD04802CD2FF7F00840480CD
:103DF40054D2FF7F44FFFF7F58D2FF7F48FFFF7FED
:103E040064D2FF7F01000000ACE8FF7FB0A82B80E4
:083E14002CECFF7F010000000F
:083E1C00492E000831010008E5
:043E24000D01000884
:103E28000024F40001000000100000001000002031
:103E380000000000FC02002064030020CC030020E6
:103E4800000000000000000000000000000000006A
:103E5800000000000000000000000000000000005A
:103E6800000000000000000000000000000000004A
:103E7800000000000000000000000000000000003A
:103E8800000000000000000000000000000000002A
:103E9800000000000000000000000000000000001A
:103EA800000000000000000000000000000000000A
:103EB80000000000000000000000000000000000FA
:103EC80000000000000000000000000000000000EA
:103ED80000000000000000000100000000000000D9
:103EE8000E33CDAB34126DE6ECDE05000B0000009E
:103EF80000000000000000000000000000000000BA
:103F080000000000000000000000000000000000A9
:103F18000000000000000000000000000000000099
:103F28000000000000000000000000000000000089
:104258000000000000000000040900200000000029
:10426800000000003C0400203C040020440400201E
:10427800440400204C0400204C0400205404002076
:10428800540400205C0400205C0400206404002026
:10429800640400206C0400206C04002074040020D6
:1042A800740400207C0400207C0400208404002086
:1042B800840400208C0400208C0400209404002036
:1042C800940400209C0400209C040020A4040020E6
:1042D800A4040020AC040020AC040020B404002096
:1042E800B4040020BC040020BC040020C404002046
:1042F800C4040020CC040020CC040020D4040020F6
:10430800D4040020DC040020DC040020E4040020A5
:10431800E4040020EC040020EC040020F404002055
:10432800F4040020FC040020FC0400200405002004
:10433800040500200C0500200C05002014050020B1
:10434800140500201C0500201C0500202405002061
:10435800240500202C0500202C0500203405002011
:10436800340500203C0500203C05002044050020C1
:10437800440500204C0500204C0500205405002071
:10438800540500205C0500205C0500206405002021
:10439800640500206C0500206C05002074050020D1
:1043A800740500207C0500207C0500208405002081
:1043B800840500208C0500208C0500209405002031
:1043C800940500209C0500209C050020A4050020E1
:1043D800A4050020AC050020AC050020B405002091
:1043E800B4050020BC050020BC050020C405002041
:1043F800C4050020CC050020CC050020D4050020F1
:10440800D4050020DC050020DC050020E4050020A0
:10441800E4050020EC050020EC050020F405002050
:10442800F4050020FC050020FC05002004060020FF
:10443800040600200C0600200C06002014060020AC
:10444800140600201C0600201C060020240600205C
:10445800240600202C0600202C060020340600200C
:10446800340600203C0600203C06002044060020BC
:10447800440600204C0600204C060020540600206C
:10448800540600205C0600205C060020640600201C
:10449800640600206C0600206C06002074060020CC
:1044A800740600207C0600207C060020840600207C
:1044B800840600208C0600208C060020940600202C
:1044C800940600209C0600209C060020A4060020DC
:1044D800A4060020AC060020AC060020B40600208C
:1044E800B4060020BC060020BC060020C40600203C
:1044F800C4060020CC060020CC060020D4060020EC
:10450800D4060020DC060020DC060020E40600209B
:10451800E4060020EC060020EC060020F40600204B
:10452800F4060020FC060020FC06002004070020FA
:10453800040700200C0700200C07002014070020A7
:10454800140700201C0700201C0700202407002057
:10455800240700202C0700202C0700203407002007
:10456800340700203C0700203C07002044070020B7
:10457800440700204C0700204C0700205407002067
:10458800540700205C0700205C0700206407002017
:10459800640700206C0700206C07002074070020C7
:1045A800740700207C0700207C0700208407002077
:1045B800840700208C0700208C0700209407002027
:1045C800940700209C0700209C070020A4070020D7
:1045D800A4070020AC070020AC070020B407002087
:1045E800B4070020BC070020BC070020C407002037
:1045F800C4070020CC070020CC070020D4070020E7
:10460800D4070020DC070020DC070020E407002096
:10461800E4070020EC070020EC070020F407002046
:10462800F4070020FC070020FC07002004080020F5
:10463800040800200C0800200C08002014080020A2
:10464800140800201C0800201C0800202408002052
:10465800240800202C0800202C0800203408002002
:0C46680034080020FFFFFFFF00000200EC
:040000050800142DAE
:00000001FF
