:020000040800F2
:1000000000000320C11B00089D1900089F1900086B
:10001000A1190008A3190008A51900080000000094
:10002000000000000000000000000000A719000808
:10003000A919000800000000AB190008AD1900085C
:10004000111C0008111C0008111C0008111C0008DC
:10005000111C0008111C0008111C0008111C0008CC
:10006000111C0008111C0008111C0008111C0008BC
:10007000111C0008111C0008111C0008111C0008AC
:10008000111C0008111C0008111C0008111C00089C
:10009000111C0008111C0008111C0008111C00088C
:1000A000111C0008111C0008111C0008111C00087C
:1000B000111C0008111C0008111C0008111C00086C
:1000C000111C0008111C0008111C0008111C00085C
:1000D000111C0008111C0008111C0008111C00084C
:1000E000111C0008111C0008111C0008111C00083C
:1000F000111C0008111C0008111C0008111C00082C
:10010000111C0008111C0008111C0008111C00081B
:10011000111C0008111C0008111C0008111C00080B
:10012000111C0008B5190008111C0008111C00085A
:10013000111C0008111C0008111C0008111C0008EB
:10014000111C0008111C0008111C0008111C0008DB
:10015000111C0008111C0008111C0008C51900081A
:10016000111C0008111C0008111C0008111C0008BB
:10017000111C0008111C0008111C000800000000E0
:10018000111C0008111C0008111C0008111C00089B
:10019000111C0008111C0008111C0008111C00088B
:0C01A0000000000000000000111C00081E
:1001C00010B5054C237833B9044B13B10448AFF391
:1001D00000800123237010BDB8090020000000003A
:1001E000309A000808B5034B1BB103490348AFF32D
:1001F000008008BD00000000BC090020309A000803
:1002000081F0004102E000BF83F0004330B54FEAC7
:1002100041044FEA430594EA050F08BF90EA020F34
:100220001FBF54EA000C55EA020C7FEA645C7FEAC7
:10023000655C00F0E2804FEA5454D4EB5555B8BFEA
:100240006D420CDD2C4480EA020281EA030382EA5B
:10025000000083EA010180EA020281EA0303362DED
:1002600088BF30BD11F0004F4FEA01314FF4801CC0
:100270004CEA113102D0404261EB410113F0004FD2
:100280004FEA03334CEA133302D0524263EB430389
:1002900094EA050F00F0A780A4F10104D5F1200E27
:1002A0000DDB02FA0EFC22FA05F2801841F1000182
:1002B00003FA0EF2801843FA05F359410EE0A5F156
:1002C00020050EF1200E012A03FA0EFC28BF4CF087
:1002D000020C43FA05F3C01851EBE37101F000453D
:1002E00007D54FF0000EDCF1000C7EEB00006EEB4A
:1002F0000101B1F5801F1BD3B1F5001F0CD34908D4
:100300005FEA30004FEA3C0C04F101044FEA44522A
:1003100012F5800F80F09A80BCF1004F08BF5FEAB1
:10032000500C50F1000041EB045141EA050130BD91
:100330005FEA4C0C404141EB0101013C28BFB1F5A3
:10034000801FE9D291F0000F04BF01460020B1FAEE
:1003500081F308BF2033A3F10B03B3F120020CDAC1
:100360000C3208DD02F1140CC2F10C0201FA0CF09F
:1003700021FA02F10CE002F11402D8BFC2F1200C04
:1003800001FA02F120FA0CFCDCBF41EA0C019040BA
:10039000E41AA2BF01EB0451294330BD6FEA040403
:1003A0001F3C1CDA0C340EDC04F11404C4F12002EE
:1003B00020FA04F001FA02F340EA030021FA04F300
:1003C00045EA030130BDC4F10C04C4F1200220FA57
:1003D00002F001FA04F340EA0300294630BD21FA95
:1003E00004F0294630BD94F0000F83F4801306BF5B
:1003F00081F480110134013D4EE77FEA645C18BF4F
:100400007FEA655C29D094EA050F08BF90EA020FE5
:1004100005D054EA000C04BF1946104630BD91EADD
:10042000030F1EBF0021002030BD5FEA545C05D1E0
:100430004000494128BF41F0004130BD14F580041F
:100440003CBF01F5801130BD01F0004545F0FE4193
:1004500041F470014FF0000030BD7FEA645C1ABFC8
:10046000194610467FEA655C1CBF0B46024650EAFF
:10047000013406BF52EA033591EA030F41F400212B
:1004800030BD00BF90F0000F04BF0021704730B5B1
:100490004FF4806404F132044FF000054FF0000186
:1004A00050E700BF90F0000F04BF0021704730B547
:1004B0004FF4806404F1320410F0004548BF40421C
:1004C0004FF000013EE700BF42004FEAE2014FEA71
:1004D00031014FEA02701FBF12F07F4393F07F4F4C
:1004E00081F06051704732F07F4208BF704793F04F
:1004F0007F4F04BF41F40021704730B54FF4607462
:1005000001F0004521F000411CE700BF50EA010264
:1005100008BF704730B54FF000050AE050EA01020D
:1005200008BF704730B511F0004502D5404261EB7D
:1005300041014FF4806404F132045FEA915C3FF4BE
:10054000D8AE4FF003025FEADC0C18BF03325FEA5B
:10055000DC0C18BF033202EBDC02C2F1200300FA0C
:1005600003FC20FA02F001FA03FE40EA0E0021FA31
:1005700002F11444BDE600BF70B54FF0FF0C4CF41F
:10058000E06C1CEA11541DBF1CEA135594EA0C0FD1
:1005900095EA0C0F00F0DEF82C4481EA030621EA0C
:1005A0004C5123EA4C5350EA013518BF52EA033547
:1005B00041F4801143F4801338D0A0FB02CE4FF0F9
:1005C0000005E1FB02E506F00042E0FB03E54FF029
:1005D0000006E1FB03569CF0000F18BF4EF0010E21
:1005E000A4F1FF04B6F5007F64F5407404D25FEA1D
:1005F0004E0E6D4146EB060642EAC62141EA5551D0
:100600004FEAC52040EA5E504FEACE2EB4F1FD0C11
:1006100088BFBCF5E06F1ED8BEF1004F08BF5FEA8F
:10062000500E50F1000041EB045170BD06F0004641
:1006300046EA010140EA020081EA0301B4EB5C04EE
:10064000C2BFD4EB0C0541EA045170BD41F48011E6
:100650004FF0000E013C00F3AB8014F1360FDEBF0B
:10066000002001F0004170BDC4F10004203C35DAE7
:100670000C341BDC04F11404C4F1200500FA05F36A
:1006800020FA04F001FA05F240EA020001F000420B
:1006900021F0004110EBD37021FA04F642EB060181
:1006A0005EEA430E08BF20EAD37070BDC4F10C04AB
:1006B000C4F1200500FA04F320FA05F001FA04F26F
:1006C00040EA020001F0004110EBD37041F100015B
:1006D0005EEA430E08BF20EAD37070BDC4F1200566
:1006E00000FA05F24EEA020E20FA04F301FA05F2CE
:1006F00043EA020321FA04F001F0004121FA04F276
:1007000020EA020000EBD3705EEA430E08BF20EA45
:10071000D37070BD94F0000F0FD101F0004640007F
:1007200041EB010111F4801F08BF013CF7D041EA01
:10073000060195F0000F18BF704703F00046520005
:1007400043EB030313F4801F08BF013DF7D043EAD6
:100750000603704794EA0C0F0CEA135518BF95EA8C
:100760000C0F0CD050EA410618BF52EA4306D1D113
:1007700081EA030101F000414FF0000070BD50EA32
:10078000410606BF1046194652EA430619D094EABC
:100790000C0F02D150EA013613D195EA0C0F05D1A6
:1007A00052EA03361CBF104619460AD181EA0301FA
:1007B00001F0004141F0FE4141F470014FF00000B2
:1007C00070BD41F0FE4141F4780170BD70B54FF04D
:1007D000FF0C4CF4E06C1CEA11541DBF1CEA1355CD
:1007E00094EA0C0F95EA0C0F00F0A7F8A4EB0504AF
:1007F00081EA030E52EA03354FEA013100F08880A6
:100800004FEA03334FF0805545EA131343EA12636E
:100810004FEA022245EA111545EA10654FEA002623
:100820000EF000419D4208BF964244F1FD0404F5DC
:10083000407402D25B084FEA3202B61A65EB030538
:100840005B084FEA32024FF480104FF4002CB6EBF5
:10085000020E75EB030E22BFB61A754640EA0C0075
:100860005B084FEA3202B6EB020E75EB030E22BFB5
:10087000B61A754640EA5C005B084FEA3202B6EBF6
:10088000020E75EB030E22BFB61A754640EA9C00B5
:100890005B084FEA3202B6EB020E75EB030E22BF85
:1008A000B61A754640EADC0055EA060E18D04FEA43
:1008B000051545EA16754FEA06164FEAC30343EAE3
:1008C00052734FEAC2025FEA1C1CC0D111F4801FB0
:1008D0000BD141EA00014FF000004FF0004CB6E7A9
:1008E00011F4801F04BF01430020B4F1FD0C88BF48
:1008F000BCF5E06F3FF6AFAEB5EB030C04BFB6EB53
:10090000020C5FEA500C50F1000041EB045170BD45
:100910000EF0004E4EEA113114EB5C04C2BFD4EB72
:100920000C0541EA045170BD41F480114FF0000EF6
:10093000013C90E645EA060E8DE60CEA135594EA72
:100940000C0F08BF95EA0C0F3FF43BAF94EA0C0F75
:100950000AD150EA01347FF434AF95EA0C0F7FF4EA
:1009600025AF104619462CE795EA0C0F06D152EA3E
:1009700003353FF4FDAE1046194622E750EA410622
:1009800018BF52EA43067FF4C5AE50EA41047FF433
:100990000DAF52EA43057FF4EBAE12E780F0004062
:1009A00002E000BF81F0004142001FBF5FEA410347
:1009B00092EA030F7FEA226C7FEA236C6AD04FEA47
:1009C0001262D2EB1363C1BFD2184140484041408C
:1009D000B8BF5B42192B88BF704710F0004F40F43E
:1009E000000020F07F4018BF404211F0004F41F45A
:1009F000000121F07F4118BF494292EA030F3FD026
:100A0000A2F1010241FA03FC10EB0C00C3F1200338
:100A100001FA03F100F0004302D5494260EB4000C7
:100A2000B0F5000F13D3B0F1807F06D340084FEA32
:100A3000310102F10102FE2A51D2B1F1004F40EB27
:100A4000C25008BF20F0010040EA0300704749008F
:100A500040EB0000013A28BFB0F5000FEDD2B0FA2C
:100A600080FCACF1080CB2EB0C0200FA0CF0AABF4F
:100A700000EBC25052421843BCBFD04018437047ED
:100A800092F0000F81F4000106BF80F400000132F3
:100A9000013BB5E74FEA41037FEA226C18BF7FEACA
:100AA000236C21D092EA030F04D092F0000F08BF0C
:100AB0000846704790EA010F1CBF0020704712F0F3
:100AC0007F4F04D1400028BF40F00040704712F132
:100AD00000723CBF00F50000704700F0004343F097
:100AE000FE4040F4000070477FEA226216BF0846CD
:100AF0007FEA23630146420206BF5FEA412390EA90
:100B0000010F40F4800070474FF0000304E000BF85
:100B100010F0004348BF40425FEA000C08BF704736
:100B200043F0964301464FF000001CE050EA0102FA
:100B300008BF70474FF000030AE000BF50EA01020F
:100B400008BF704711F0004302D5404261EB4101FC
:100B50005FEA010C02BF84460146002043F0B64321
:100B600008BFA3F18053A3F50003BCFA8CF2083A46
:100B7000A3EBC25310DB01FA02FC634400FA02FC4F
:100B8000C2F12002BCF1004F20FA02F243EB020056
:100B900008BF20F00100704702F1200201FA02FCB8
:100BA000C2F1200250EA4C0021FA02F243EB0200AB
:100BB00008BF20EADC7070474FF0FF0C1CEAD052EF
:100BC0001EBF1CEAD15392EA0C0F93EA0C0F6FD0B0
:100BD0001A4480EA010C400218BF5FEA41211ED08E
:100BE0004FF0006343EA501043EA5111A0FB01317A
:100BF0000CF00040B1F5000F3EBF490041EAD3714F
:100C00005B0040EA010062F17F02FD2A1DD8B3F1CA
:100C1000004F40EBC25008BF20F00100704790F039
:100C2000000F0CF0004C08BF49024CEA502040EA8B
:100C300051207F3AC2BFD2F1FF0340EAC250704751
:100C400040F400004FF00003013A5DDC12F1190F8F
:100C5000DCBF00F000407047C2F10002410021FA01
:100C600002F1C2F1200200FA02FC5FEA310040F119
:100C7000000053EA4C0308BF20EADC70704792F092
:100C8000000F00F0004C02BF400010F4000F013ACA
:100C9000F9D040EA0C0093F0000F01F0004C02BFC5
:100CA000490011F4000F013BF9D041EA0C018FE734
:100CB0000CEAD15392EA0C0F18BF93EA0C0F0AD03A
:100CC00030F0004C18BF31F0004CD8D180EA010060
:100CD00000F00040704790F0000F17BF90F0004FF9
:100CE000084691F0000F91F0004F14D092EA0C0FDB
:100CF00001D142020FD193EA0C0F03D14B0218BF6E
:100D0000084608D180EA010000F0004040F0FE40B3
:100D100040F40000704740F0FE4040F4400070474F
:100D20004FF0FF0C1CEAD0521EBF1CEAD15392EACE
:100D30000C0F93EA0C0F69D0A2EB030280EA010CBE
:100D400049024FEA402037D04FF0805343EA111157
:100D500043EA10130CF000408B4238BF5B0042F1B5
:100D60007D024FF4000C8B4224BF5B1A40EA0C005A
:100D7000B3EB510F24BFA3EB510340EA5C00B3EB8C
:100D8000910F24BFA3EB910340EA9C00B3EBD10F7A
:100D900024BFA3EBD10340EADC001B0118BF5FEACC
:100DA0001C1CE0D1FD2A3FF650AF8B4240EBC250F5
:100DB00008BF20F0010070470CF0004C4CEA5020B6
:100DC0007F32C2BFD2F1FF0340EAC250704740F405
:100DD00000004FF00003013A37E792F0000F00F0F7
:100DE000004C02BF400010F4000F013AF9D040EA75
:100DF0000C0093F0000F01F0004C02BF490011F409
:100E0000000F013BF9D041EA0C0195E70CEAD15300
:100E100092EA0C0F08D142027FF47DAF93EA0C0FE7
:100E20007FF470AF084676E793EA0C0F04D14B02CB
:100E30003FF44CAF08466EE730F0004C18BF31F07D
:100E4000004CCAD130F000427FF45CAF31F0004377
:100E50007FF43CAF5FE700BF4FF0FF3C06E000BF10
:100E60004FF0010C02E000BF4FF0010C4DF804CD33
:100E70004FEA40024FEA41037FEA226C18BF7FEA43
:100E8000236C11D001B052EA530C18BF90EA010F45
:100E900058BFB2EB030088BFC81738BF6FEAE170D4
:100EA00018BF40F0010070477FEA226C02D15FEA70
:100EB000402C05D17FEA236CE4D15FEA412CE1D0DC
:100EC0005DF8040B704700BF844608466146FFE7A3
:100ED0000FB5FFF7C9FF002848BF10F1000F0FBD85
:100EE0004DF808EDFFF7F4FF0CBF012000205DF87E
:100EF00008FB00BF4DF808EDFFF7EAFF34BF012003
:100F000000205DF808FB00BF4DF808EDFFF7E0FF9B
:100F100094BF012000205DF808FB00BF4DF808EDEC
:100F2000FFF7D2FF94BF012000205DF808FB00BF4F
:100F30004DF808EDFFF7C8FF34BF012000205DF831
:100F400008FB00BF4FEA4002B2F1FE4F0FD34FF053
:100F50009E03B3EB12620DD94FEA002343F0004326
:100F600010F0004F23FA02F018BF404270474FF0D4
:100F70000000704712F1610F01D1420205D110F05B
:100F8000004008BF6FF0004070474FF0000070470E
:100F900053B94AB9002908BF00281CBF4FF0FF31E0
:100FA0004FF0FF3000F074B9ADF1080C6DE904CEDC
:100FB00000F006F8DDF804E0DDE9022304B0704734
:100FC0002DE9F047089E0D4604468846002B4DD17A
:100FD0008A42944668D9B2FA82F252B101FA02F317
:100FE000C2F1200120FA01F10CFA02FC41EA0308E7
:100FF00094404FEA1C45210CB8FBF5FE1FFA8CF714
:1010000005FB1E8341EA03430EFB07F199420BD90E
:101010001CEB03030EF1FF3080F01E81994240F279
:101020001B81AEF1020E63445B1AA4B2B3FBF5F070
:1010300005FB103344EA034400FB07F7A7420AD933
:101040001CEB040400F1FF3380F00881A74240F25A
:10105000058164440238E41B40EA0E4000211EB1C1
:10106000D4400023C6E90043BDE8F0878B4208D98D
:10107000002E00F0EE800021C6E900050846BDE81C
:10108000F087B3FA83F100294AD1AB4202D38242FE
:1010900000F2F980841A65EB030301209846002EC4
:1010A000E2D0C6E90048DFE702B9FFDEB2FA82F219
:1010B000002A40F09180A1EB0C054FEA1C471FFA73
:1010C0008CFE0121B5FBF7F307FB1350250C45EA15
:1010D00000450EFB03F0A84208D91CEB050503F1FF
:1010E000FF3802D2A84200F2CB8043462D1AA4B2A8
:1010F000B5FBF7F007FB105544EA05440EFB00FE74
:10110000A64508D91CEB040400F1FF3502D2A64520
:1011100000F2BB802846A4EB0E0440EA03409EE7A1
:10112000C1F120078B4022FA07FC4CEA030C20FA9D
:1011300007F405FA01F31C43FD404FEA1C4900FA8D
:1011400001F3B5FBF9F8200C1FFA8CFE09FB1855CA
:1011500040EA054508FB0EF0A84202FA01F20BD95D
:101160001CEB050508F1FF3A80F08880A84240F2A8
:101170008580A8F1020865442D1AA4B2B5FBF9F0E8
:1011800009FB105544EA054500FB0EFEAE4508D9A3
:101190001CEB050500F1FF346CD2AE456AD902386C
:1011A000654440EA0840A0FB0294A5EB0E05A54269
:1011B000C846A64656D353D05EB1B3EB080265EBE2
:1011C0000E0505FA07F722FA01F3CD401F43C6E9E1
:1011D00000750021BDE8F087C2F1200320FA03F179
:1011E0000CFA02FC25FA03F395400D434FEA1C4725
:1011F0001FFA8CFEB3FBF7F107FB11302B0C43EA0F
:10120000004301FB0EF0984204FA02F408D91CEBEB
:10121000030301F1FF382FD298422DD902396344DC
:101220001B1AADB2B3FBF7F007FB103345EA0345D9
:1012300000FB0EF3AB4208D91CEB050500F1FF38AB
:1012400016D2AB4214D902386544ED1A40EA014186
:1012500038E73146304607E78646E5E61846FAE6BF
:101260004B45A9D2B9EB020864EB0C0E0138A3E799
:101270004046EAE7204694E74146D1E7D0467BE77F
:10128000023B654432E7084609E76444023842E716
:10129000704700BF000000000000000000000000D8
:1012A00001F0FF01102A2BDB10F0070F08D010F817
:1012B000013B013A8B422DD010F0070F42B3F6D11B
:1012C000F0B441EA012141EA014122F007047FF034
:1012D00000070023F0E80256083C85EA010586EA8B
:1012E000010685FA47F5A3FA87F586FA47F6A5FAC7
:1012F00087F68EB9EED1F0BC01F0FF0102F00702D3
:1013000032B110F8013B013A83EA010313B1F8D17D
:101310000020704701387047002D06BF354603385E
:10132000073815F0010F07D1013015F4807F02BF97
:10133000013015F4C03F0130F0BC0138704700BFE8
:10134000844641EA000313F003036DD1403A41D3D0
:1013500051F8043B40F8043B51F8043B40F8043B8F
:1013600051F8043B40F8043B51F8043B40F8043B7F
:1013700051F8043B40F8043B51F8043B40F8043B6F
:1013800051F8043B40F8043B51F8043B40F8043B5F
:1013900051F8043B40F8043B51F8043B40F8043B4F
:1013A00051F8043B40F8043B51F8043B40F8043B3F
:1013B00051F8043B40F8043B51F8043B40F8043B2F
:1013C00051F8043B40F8043B51F8043B40F8043B1F
:1013D000403ABDD2303211D351F8043B40F8043BBF
:1013E00051F8043B40F8043B51F8043B40F8043BFF
:1013F00051F8043B40F8043B103AEDD20C3205D3CF
:1014000051F8043B40F8043B043AF9D2043208D0C6
:10141000D2071CBF11F8013B00F8013B01D30B8838
:1014200003806046704700BF082A13D38B078DD016
:1014300010F003038AD0C3F10403D21ADB071CBFE8
:1014400011F8013B00F8013B80D331F8023B20F852
:10145000023B7BE7043AD9D3013A11F8013B00F88B
:10146000013BF9D20B7803704B7843708B78837013
:10147000604670470000000000000000000000000F
:1014800090F800F06DE9024520F007016FF0000CC4
:1014900010F0070491F820F040F049804FF000046C
:1014A0006FF00700D1E9002391F840F000F1080047
:1014B00082FA4CF2A4FA8CF283FA4CF3A2FA8CF37F
:1014C0004BBBD1E9022382FA4CF200F10800A4FAE6
:1014D0008CF283FA4CF3A2FA8CF3E3B9D1E904233A
:1014E00082FA4CF200F10800A4FA8CF283FA4CF371
:1014F000A2FA8CF37BB9D1E9062301F1200182FA2B
:101500004CF200F10800A4FA8CF283FA4CF3A2FA30
:101510008CF3002BC6D0002A04BF04301A4612BA3E
:10152000B2FA82F2FDE8024500EBD2007047D1E941
:10153000002304F00305C4F100004FEAC50514F0D0
:10154000040F91F840F00CFA05F562EA05021CBFA1
:1015500063EA050362464FF00004A9E74FF0FF3C41
:1015600006E000BF4FF0010C02E000BF4FF0010C9D
:101570004DF804CD4FEA410C7FEA6C5C4FEA430C16
:1015800018BF7FEA6C5C1BD001B050EA410C0CBF65
:1015900052EA430C91EA030F02BF90EA020F0020C7
:1015A000704710F1000F91EA030F58BF994208BF2E
:1015B00090422CBFD8176FEAE37040F001007047EB
:1015C0004FEA410C7FEA6C5C02D150EA013C07D142
:1015D0004FEA430C7FEA6C5CD6D152EA033CD3D08D
:1015E0005DF8040B704700BF8446104662468C4687
:1015F0001946634600E000BF01B5FFF7B7FF0028BA
:1016000048BF10F1000F01BD4DF808EDFFF7F4FFE2
:101610000CBF012000205DF808FB00BF4DF808ED6D
:10162000FFF7EAFF34BF012000205DF808FB00BF90
:101630004DF808EDFFF7E0FF94BF012000205DF8B2
:1016400008FB00BF4DF808EDFFF7CEFF94BF012067
:1016500000205DF808FB00BF4DF808EDFFF7C4FF60
:1016600034BF012000205DF808FB00BF4FEA410CA9
:101670007FEA6C5C02D150EA013C0AD14FEA430C8C
:101680007FEA6C5C02D152EA033C02D14FF00000C9
:1016900070474FF0010070474FEA410212F5001207
:1016A00015D211D56FF47873B3EB625212D94FEAA9
:1016B000C12343F0004343EA505311F0004F23FA93
:1016C00002F018BF404270474FF00000704750EAE8
:1016D000013005D111F0004008BF6FF000407047A5
:1016E0004FF00000704700BF00B583B000210191AA
:1016F000094B1A6B42F480021A631B6B03F48003DC
:101700000193019B0A46392000F0FCFA392000F0D1
:1017100031FB03B05DF804FB0038024070B58AB0BD
:101720000024059406940794089409940094264B89
:101730001A6B42F010021A631A6B02F01002009248
:10174000009A01941A6B42F040021A631A6B02F07D
:1017500040020192019A02941A6B42F001021A634C
:101760001A6B02F001020292029A03941A6B42F081
:1017700020021A631A6B02F020020392039A049467
:101780001A6B42F080021A631B6B03F08003049310
:10179000049B0E4D22460321284600F06FFE0126D1
:1017A0000596069607940323089305A9284600F09A
:1017B00067FD0223059306960794089405A9284619
:1017C00000F05EFD0AB070BD003802400014024017
:1017D00072B6FEE700B595B03022002108A802F0ED
:1017E000CDF8002303930493059306930793019385
:1017F000204A116C41F080511164126C02F0805249
:101800000192019A02931C4B1A6842F440421A60FA
:101810001B6803F440430293029B012308934FF497
:101820008033099302230E934FF480020F92062215
:101830001092A022119212930423139308A800F08F
:1018400023FE98B90F2303930223049300230593E7
:101850004FF4A05306934FF480530793052103A838
:1018600001F060F820B915B05DF804FBFFF7B0FF98
:10187000FFF7AEFF0038024000700040000000009B
:101880002DE9F04385B000F0EBF9FFF7A3FFFFF778
:1018900045FFFFF729FF00F0EDF800F0D1F82A48E6
:1018A00001F0D2FF294C204601F096FF0A2000F0FB
:1018B00003FA0025264E03964FF07C530293254BE6
:1018C000019300952B4601220021204601F0A0FF44
:1018D0004FF47A6000F0F0F903961F4B02930195E4
:1018E0001E4B00932B4601220021204601F090FF61
:1018F000A56EE06EFEF7E8FD06460F46206FFEF788
:10190000E3FD804689462846FEF7DEFD04460D4687
:101910000BA3D3E9002340464946FEF757FFCDE924
:10192000020107A3D3E9002330463946FEF74EFFF4
:10193000CDE9000122462B46094802F071F8FEE786
:1019400052B81E85EB5119407C0A0020C80A0020BD
:101950000AD7233CC3F548C08FC2F53CC3F54840C5
:10196000489A000882B0002100910B4B5A6C42F457
:1019700080425A645A6C02F480420092009A0191AB
:101980001A6C42F080521A641B6C03F0805301936E
:10199000019B02B0704700BF00380240FEE7FEE73F
:1019A000FEE7FEE7FEE770477047704708B500F0B6
:1019B00071F908BD08B5024800F074FB08BD00BF0E
:1019C000D809002008B5024801F080FB08BD00BF1F
:1019D000380A00200120704708B501F0A5FF162342
:1019E00003604FF0FF3008BD08B54FF0FF31FFF73F
:1019F000F3FFFEE710B503460C4A0D490D48006899
:101A000040B10C4800680344521A934206D8094A70
:101A1000136010BD0748084C0460F2E701F084FF32
:101A20000C2303604FF0FF30F3E700BF00000320FA
:101A300000040000D4090020900B00207047000033
:101A400008B50A480A4B03604FF4E13343600023B2
:101A50008360C36003610C2242618361C36101F052
:101A600071F900B908BDFFF7B3FEFBE77C0A00205F
:101A7000007C004008B50A480A4B03600A4B4360EB
:101A800000238360C36003610C2242618361C361F0
:101A900001F058F900B908BDFFF79AFEFBE700BF57
:101AA000380A00200014014000093D0030B58BB019
:101AB0000023059306930793089309930368394A13
:101AC000934205D00446384A934223D00BB030BD30
:101AD00000210191354B1A6C42F000421A641A6CD5
:101AE00002F000420192019A02911A6B42F0100238
:101AF0001A631B6B03F010030293029B03230593ED
:101B00000222069208930823099305A9284800F0A9
:101B1000B7FBDBE700250395244B5A6C42F020020B
:101B20005A645A6C02F020020392039A04951A6BCD
:101B300042F040021A631B6B03F040030493049BC2
:101B40004FF4844305930223069303230893082349
:101B5000099305A9174800F093FB1748174B03603A
:101B60004FF0206343608560C5604FF4806303617C
:101B700045618561C5614FF440330362456200F001
:101B800099F958B90C4BA3639C6300221146472076
:101B900000F0B8F8472000F0EDF897E7FFF718FEDF
:101BA000F0E700BF007C0040001401400038024014
:101BB0000010024000180240D809002028640240AA
:101BC000DFF834D00D480E490E4A002302E0D45805
:101BD000C4500433C4188C42F9D30B4A0B4C002375
:101BE00001E013600432A242FBD3FFF727FF01F0AC
:101BF000A1FEFFF745FE7047000003200000002013
:101C0000B80900208CA00008B80900208C0B002027
:101C1000FEE7000010B504460E4B18784FF47A73B7
:101C2000B3FBF0F30C4A1068B0FBF3F000F0B0F82F
:101C300068B90F2C01D901200AE0002221464FF09B
:101C4000FF3000F05FF8054B1C60002000E0012031
:101C500010BD00BF0400002000000020080000208C
:101C600008B50B4B1A6842F400721A601A6842F405
:101C700080621A601A6842F480721A60032000F0D1
:101C80002FF80F20FFF7C6FFFFF76CFE002008BDFE
:101C9000003C0240034A1168034B1B780B4413605D
:101CA000704700BFC00A002004000020014B1868E4
:101CB000704700BFC00A002038B50446FFF7F6FFA2
:101CC0000546B4F1FF3F02D0044B1B781C44FFF7DC
:101CD000EDFF401BA042FAD338BD00BF0400002036
:101CE000074AD36823F4E0631B041B0C000200F4D2
:101CF000E060034343F0BF6343F40033D3607047B5
:101D000000ED00E000B5194BDB68C3F30223C3F11B
:101D1000070CBCF1040F28BF4FF0040C03F1040EB4
:101D2000BEF1060F18D9033B4FF0FF3E0EFA0CFC34
:101D300021EA0C0199400EFA03F322EA0303194346
:101D400000280BDB0901C9B200F1604000F56140D9
:101D500080F800135DF804FB0023E5E700F00F00B6
:101D60000901C9B2024B1954F4E700BF00ED00E0CD
:101D700014ED00E0002807DB00F01F0240090123FA
:101D80009340024A42F82030704700BF00E100E073
:101D90000138B0F1807F0BD24FF0E0235861054A43
:101DA000F02182F823100020986107221A61704701
:101DB0000120704700ED00E030B405682C6824F481
:101DC00080242C60046863608368402B05D003681E
:101DD00099600368DA6030BC704703689A600368F2
:101DE000D960F8E710B40368D9B210390B4AA2FBE6
:101DF000014212090A4CA25CC2655F2908D923F48A
:101E00007F7323F0030304338365806D10BC704738
:101E100023F47F7323F003038365F6E7ABAAAAAA32
:101E2000709A0008836A826992B9012B0AD0022B4A
:101E300002D00BB100207047C36A13F0807F28D115
:101E400000207047C36AB3F1C07F24D000207047E0
:101E5000B2F5005F09D0022B25D9032B25D1C36A27
:101E600013F0807F23D100207047032B03D8DFE8D5
:101E700003F01404140A00207047C36A13F0807F33
:101E80000DD100207047C36AB3F1C07F09D0002094
:101E900070470120704701207047012070470120E2
:101EA00070470120704701207047002070470120D3
:101EB0007047000070B50446FFF7F8FE002C5BD0B9
:101EC0000546022384F83530002384F83430226834
:101ED000136823F00103136023681A6812F0010FDE
:101EE0000AD0FFF7E3FE431B052BF5D920236365DA
:101EF000032084F8350070BD1A68204810406168DE
:101F0000A2680A43E1680A4321690A4361690A43F6
:101F1000A1690A43E1690A43216A0A430243616AEB
:101F200004291ED01A602668756925F00705636AC2
:101F30001D43042B07D1A36A1D43E36A1BB120464E
:101F4000FFF770FF90B975612046FFF74BFFE26D18
:101F50003F239340836000206065012384F835307F
:101F6000C9E7E16A206B01430A43DBE7402363656D
:101F7000012084F83500BEE70120BCE73F8010F067
:101F800038B50446856D90F8340001282BD0012027
:101F900084F8340094F83500C0B2012804D000233E
:101FA00084F83430022038BD022084F83500002047
:101FB00060652046FFF700FFE26D3F239340AB6072
:101FC0002268136843F016031360236C23B1226860
:101FD000136843F0080313602268136843F0010399
:101FE00013600020DFE70220DDE770B50446866D50
:101FF000FFF75CFE94F83530DBB2022B06D080236D
:102000006365002384F83430012070BD05462268E2
:10201000136823F0160313602268536923F08003CA
:102020005361236CE3B12268136823F00803136043
:102030002268136823F00103136023681B6813F000
:10204000010F11D0FFF732FE431B052BF5D92023DA
:102050006365032084F83500002384F83430D4E726
:10206000A36C002BDFD1E3E7E26D3F239340B36025
:10207000012384F83530002084F83400C5E790F857
:102080003530DBB2022B03D080234365012070473B
:10209000052380F835300268136823F001031360CC
:1020A00000207047F0B583B0044600230193724BC3
:1020B0001D68724BA3FB0535AD0A876D3E68C26D86
:1020C00008239340334210D003681A6812F0040FBB
:1020D0000BD01A6822F004021A60C26D08239340E4
:1020E000BB60436D43F001034365E26D0123934000
:1020F000334209D02268526912F0800F04D0BB60CD
:10210000636D43F002036365E26D04239340334241
:1021100009D02268126812F0020F04D0BB60636D10
:1021200043F004036365E26D10239340334224D0EF
:102130002268126812F0080F1FD0BB6023681A686B
:1021400012F4802F0DD01B6813F4002F04D1236CE0
:102150009BB12046984710E0A36C73B12046984786
:102160000BE01A6812F4807F03D11A6822F008028B
:102170001A60236C0BB120469847E26D20239340F0
:10218000334255D02268126812F0100F50D0BB6055
:1021900094F83530DBB2052B0ED023681A6812F4A0
:1021A000802F33D01B6813F4002F2AD1636C002BCF
:1021B0003ED0204698473BE02268136823F0160380
:1021C00013602268536923F080035361236CA3B129
:1021D0002268136823F008031360E26D3F239340E5
:1021E000BB60012384F83530002384F83430236D3C
:1021F000002B3FD0204698473CE0A36C002BE7D152
:10220000EBE7E36BA3B12046984711E01A6812F49C
:10221000807F09D11A6822F010021A60012384F825
:102220003530002384F83430E36B0BB120469847F7
:10223000636DFBB1636D13F0010F17D0052384F8B4
:1022400035302268136823F001031360019B0133CA
:102250000193AB4204D823681B6813F0010FF5D13A
:10226000012384F83530002384F83430E36C0BB15B
:102270002046984703B0F0BD00000020B5814E1BFA
:1022800000230F2B00F2F18070B582B061E0856809
:102290005E000324B44025EA0405CC68B4402C4316
:1022A0008460456825EA02054C68C4F300129A4030
:1022B0002A4342605BE0DC08083450F8246003F0F5
:1022C000070295000F22AA4026EA020E0A69AA40D8
:1022D00042EA0E0240F824205DE0092200E00022DC
:1022E00002FA0EF22A430234604D45F82420604A77
:1022F00094686FEA0C0224EA0C054E6816F4801FFD
:1023000001D04CEA04055A4CA560E46802EA0405D1
:102310004E6816F4001F01D04CEA0405544CE560E9
:10232000646802EA04054E6816F4003F01D04CEAE6
:1023300004054F4C6560246822404D6815F4803FC9
:1023400001D04CEA04024A4C226001330F2B00F208
:102350008A8001229A400C6804EA020C32EA0404E2
:10236000F3D14C6804F00304013C012C8FD94A6876
:1023700002F00302032A09D0C4685D000322AA40C8
:1023800024EA02048A68AA402243C2604A6802F032
:102390000302022A8FD004684FEA430E032202FA96
:1023A0000EF224EA02044A6802F0030202FA0EF274
:1023B000224302604A6812F4403FC6D000220192D4
:1023C0002C4A546C44F480445464526C02F48042AD
:1023D0000192019A9C08A51C244A52F8255003F04A
:1023E00003024FEA820E0F2202FA0EF225EA0205DC
:1023F000214A90423FF473AF02F58062904222D0AE
:1024000002F58062904220D002F5806290421ED098
:1024100002F5806290421CD002F5806290421AD090
:1024200002F58062904218D002F58062904216D088
:1024300002F58062904214D002F5806290423FF42F
:102440004CAF0A224CE701224AE7022248E7032266
:1024500046E7042244E7052242E7062240E7072236
:102460003EE708223CE702B070BD704700380140EB
:10247000003C014000380240000002400AB1816186
:102480007047090481617047002800F0E08170B551
:1024900082B00446036813F0010F3BD09F4B9B684A
:1024A00003F00C03042B2CD09C4B9B6803F00C0313
:1024B000082B21D06368B3F5803F4FD0B3F5A02F30
:1024C00052D0964B1A6822F480321A601A6822F4AD
:1024D00080221A606368002B50D0FFF7E7FB0546A7
:1024E0008E4B1B6813F4003F14D1FFF7DFFB401B3A
:1024F0006428F5D90320B1E1884B5B6813F4800FA1
:10250000D8D0864B1B6813F4003F03D06368002BC0
:1025100000F09F81236813F0020F54D07F4B9B681B
:1025200013F00C0F3ED07D4B9B6803F00C03082B7F
:1025300033D0E368002B68D0794B01221A60FFF793
:10254000B5FB0546754B1B6813F0020F54D1FFF71E
:10255000ADFB401B0228F5D903207FE16F4A1368C9
:1025600043F480331360B5E76C4B1A6842F4802261
:102570001A601A6842F480321A60ABE7FFF796FBE4
:102580000546664B1B6813F4003FC3D0FFF78EFB74
:10259000401B6428F5D9032060E1604B5B6813F4AD
:1025A000800FC6D15D4B1B6813F0020F03D0E368A8
:1025B000012B40F05081594A136823F0F803216938
:1025C00043EAC1031360236813F0080F42D0636924
:1025D0006BB3534B0122C3F8802EFFF767FB054610
:1025E0004E4B5B6F13F0020F34D1FFF75FFB401BC4
:1025F0000228F5D9032031E1484A136823F0F80393
:10260000216943EAC1031360DDE7454B00221A60EC
:10261000FFF74CFB0546414B1B6813F0020FD2D06D
:10262000FFF744FB401B0228F5D9032016E13C4B81
:102630000022C3F8802EFFF739FB0546374B5B6F4E
:1026400013F0020F06D0FFF731FB401B0228F5D92B
:10265000032003E1236813F0040F77D02F4B1B6C8A
:1026600013F0805F33D1002301932C4B1A6C42F09E
:1026700080521A641B6C03F080530193019B012567
:10268000284B1B6813F4807F23D0A368012B34D020
:10269000052B38D0214B1A6F22F001021A671A6FEE
:1026A00022F004021A67A368002B3DD0FFF7FEFA60
:1026B00006461A4B1B6F13F0020F46D1FFF7F6FACE
:1026C000801B41F288339842F3D90320C6E00025ED
:1026D000D6E7144A136843F480731360FFF7E6FAF1
:1026E0000646104B1B6813F4807FCED1FFF7DEFA4D
:1026F000801B0228F5D90320B0E0084A136F43F08D
:1027000001031367CFE7054B1A6F42F004021A6703
:102710001A6F42F001021A67C5E700BF0038024095
:102720000000474200700040FFF7C0FA0646524BD7
:102730001B6F13F0020F08D0FFF7B8FA801B41F2AD
:1027400088339842F3D9032088E0EDB9A369002BC0
:1027500000F08380484A926802F00C02082A51D0A7
:10276000022B17D0454B00221A66FFF79FFA04464A
:10277000414B1B6813F0007F42D0FFF797FA001B14
:102780000228F5D9032069E03B4A136C23F08053FB
:102790001364DBE7394B00221A66FFF787FA054618
:1027A000354B1B6813F0007F06D0FFF77FFA401B04
:1027B0000228F5D9032051E0E369226A1343626AD3
:1027C00043EA8213A26A5208013A43EA0243E26AE8
:1027D00043EA0263284A5360284B01221A66FFF736
:1027E00065FA0446244B1B6813F0007F06D1FFF7FF
:1027F0005DFA001B0228F5D903202FE000202DE010
:1028000000202BE0012B2BD01B4B5B6803F48001D5
:10281000E269914226D103F03F02216A8A4223D124
:10282000616A47F6C0721A40B2EB811F1ED103F4F1
:102830004031A26A5208013AB1EB024F18D103F0BD
:102840007063E26AB3EB026F14D1002006E001204E
:102850007047012002E0012000E0002002B070BDBE
:102860000120FBE70120F9E70120F7E70120F5E768
:102870000120F3E70120F1E7003802400000474261
:1028800008B5254B9B6803F00C03042B3FD0082BA5
:102890003FD1214B5A6802F03F025B6813F4800F6E
:1028A00012D01D4B5968C1F388111C480023A1FBAD
:1028B0000001FEF76DFB184B5B68C3F30143013366
:1028C0005B00B0FBF3F025E0134B5968C1F3881CA3
:1028D0004FEA4C11B1EB0C006EEB0E0E4FEA8E136B
:1028E00043EA90638101091A63EB0E03DB0043EABC
:1028F0005173C90011EB0C0C43F100039902002342
:102900004FEA8C2041EA9C51FEF742FBD3E7034893
:1029100000E0034808BD00BF00380240001BB700BC
:102920000024F400002800F09B8070B50D4604469A
:102930004F4B1B6803F00F038B4208D2CBB24C4ABB
:102940001370136803F00F038B4240F08B802368F1
:1029500013F0020F17D013F0040F04D0454A936808
:1029600043F4E0539360236813F0080F04D0414A06
:10297000936843F4604393603E4A936823F0F00306
:10298000A1680B439360236813F0010F32D0636892
:10299000012B21D09A1E012A25D9364A126812F03D
:1029A000020F61D033498A6822F0030213438B601F
:1029B000FFF77CF906462F4B9B6803F00C03626817
:1029C000B3EB820F16D0FFF771F9801B41F2883309
:1029D0009842F0D9032042E0264A126812F4003FE0
:1029E000E0D101203BE0234A126812F0007FD9D1E8
:1029F000012034E01E4B1B6803F00F03AB4207D9E4
:102A0000EAB21B4B1A701B6803F00F03AB422DD1C7
:102A1000236813F0040F06D0164A936823F4E0539A
:102A2000E1680B439360236813F0080F07D0114A45
:102A3000936823F46043216943EAC1039360FFF77D
:102A40001FFF0C4B9B68C3F303130B4AD35CD840A6
:102A50000A4B18600A4B1868FFF7DCF8002070BDBD
:102A6000012070470120FAE70120F8E70120F6E78E
:102A7000003C024000380240589A00080000002044
:102A800008000020014B1868704700BF00000020BC
:102A900008B5FFF7F7FF044B9B68C3F38223034A93
:102AA000D35CD84008BD00BF00380240689A0008D7
:102AB00008B5FFF7E7FF044B9B68C3F34233034AB3
:102AC000D35CD84008BD00BF00380240689A0008B7
:102AD000026802F10C0353E8003F23F0C0030C32FC
:102AE00042E800310029F3D1202380F83D307047BF
:102AF000026802F10C0353E8003F23F490730C3298
:102B000042E800310029F3D1026802F1140353E8CE
:102B1000003F23F00103143242E800310029F3D1D1
:102B2000036B012B05D0202380F83E300023036384
:102B30007047026802F10C0353E8003F23F01003D2
:102B40000C3242E800310029F3D1ECE790F83D3037
:102B5000DBB2212B01D0022070478368B3F5805F80
:102B600017D0036A5A1C02621A7803685A60C38C31
:102B70009BB2013B9BB2C3844BB90268D36823F07C
:102B80008003D3600268D36843F04003D360002021
:102B900070470369002BE4D1036A1B880268C3F302
:102BA00008035360036A02330362E0E738B5044662
:102BB0000268136923F44053C1680B4313618368AF
:102BC0000269134342691343C2691A430168CB681F
:102BD00023F4164323F00C031343CB6002685369BC
:102BE00023F4407381690B4353610368314A934274
:102BF00006D002F58062934202D0FFF749FF01E060
:102C0000FFF756FFE369B3F5004F29D00021031801
:102C100049411B1841F10001C90041EA5371DB0031
:102C2000181863684FEA83024FEA937341F1000179
:102C3000FEF7AEF9204DA5FB00325109642303FBDA
:102C400011031B013233A5FB03235B0903F0F002E0
:102C500002EB011203F00F03216813448B6038BDAF
:102C60000023021843EB0301121841F10001C900CF
:102C700041EA5271D200101841F1000162689218C5
:102C80005B41FEF785F90C4DA5FB00325109642329
:102C900003FB1103DB003233A5FB03235B095A005E
:102CA00002F4F87202EB011203F0070321681344E7
:102CB0008B60D4E7001001401F85EB512DE9F843EC
:102CC00005460F4616469946DDF820802C68246894
:102CD00037EA04030CBF4FF0010C4FF0000CB44571
:102CE0002DD1B8F1FF3FF1D0B8F1000F05D0FEF7BC
:102CF000DDFFA0EB09004045E8D92A6802F10C038A
:102D000053E8003F23F4D0730C3242E8003100292D
:102D1000F3D12A6802F1140353E8003F23F00103C2
:102D2000143242E800310029F3D1202385F83D30E8
:102D300085F83E30002385F83C30032000E0002079
:102D4000BDE8F88358B310B5044690F83D300BB396
:102D5000242384F83D302268D36823F40053D360E1
:102D60002046FFF723FF2268136923F49043136181
:102D70002268536923F02A0353612268D36843F41D
:102D80000053D36000202064202384F83D3084F871
:102D90003E3010BD80F83C30FEF788FED8E70120B9
:102DA00070472DE9F04182B01E4690F83D30DBB20D
:102DB000202B54D104460D469046002953D0002ABA
:102DC00053D090F83C30012B51D0012380F83C3097
:102DD00000230364212380F83D30FEF767FF074698
:102DE000A4F82480A4F82680A368B3F5805F05D0FA
:102DF0004FF00008002384F83C3012E0236913B13F
:102E00004FF00008F6E7A8460025F3E738F8023B44
:102E10002268C3F308035360E28C92B2013A92B283
:102E2000E284E38C9BB273B100963B460022802182
:102E30002046FFF743FFE0B9002DE7D015F8012B3E
:102E400023685A60E8E700963B460022402120466E
:102E5000FFF734FF78B9202384F83D3000E00220EA
:102E600002B0BDE8F0810120FAE70120F8E7022076
:102E7000F6E70320F4E70320F2E72DE9F04182B002
:102E80001E4690F83E30DBB2202B5CD104460D4646
:102E9000904600295BD0002A5BD090F83C30012B93
:102EA00059D0012380F83C3000230364222280F8AB
:102EB0003E200363FEF7FAFE0746A4F82C80A4F830
:102EC0002E80A368B3F5805F05D04FF00008002383
:102ED00084F83C3017E0236913B14FF00008F6E79F
:102EE000A8460025F3E723685B68C3F3080328F8C6
:102EF000023B03E023685B682B700135E28D92B2E0
:102F0000013A92B2E285E38D9BB2BBB100963B469B
:102F1000002220212046FFF7D1FEF0B9002DE2D09B
:102F2000A368B3F5805FE5D013B92369002BE1D026
:102F300023685B6803F07F032B70DEE7202384F8AF
:102F40003E30002000E0022002B0BDE8F081012008
:102F5000FAE70120F8E70220F6E70320F4E77047DC
:102F600008B50168CA6822F04002CA60202280F8D1
:102F70003D20FFF7F4FF002008BD70477047704701
:102F800010B5846B23685A6994F83D30DBB2212B6D
:102F900010D023685A6902F0400294F83E30DBB248
:102FA000222B11D0236C43F0100323642046FFF73B
:102FB000E6FF10BD02F08002002AEAD00023E3847D
:102FC0002046FFF785FDE4E7002AEBD00023E385E8
:102FD0002046FFF78DFDE5E708B5806B0023C3852C
:102FE000C384FFF7CCFF08BD704790F83E30DBB2DA
:102FF000222B67D18368B3F5805F4DD0826AB3F529
:10300000805F04D0002B54D10369002B51D1036899
:103010005B681370836A01338362C38D9BB2013B8B
:103020009BB2C385002B4FD100B583B00268D36833
:1030300023F02003D3600268D36823F48073D36045
:103040000268536923F001035361202380F83E3066
:10305000036B012B33D100230363026802F10C03DD
:1030600053E8003F23F010030C3242E800310029FE
:10307000F3D103681A6812F0100F06D000220192F3
:103080001A6801925B680193019B818DFFF7ACFF89
:10309000002003B05DF804FB0269002AAED1826A09
:1030A00003685B68C3F308031380836A0233836297
:1030B000B3E703685B6803F07F031370AAE7FFF7C9
:1030C0005CFFE5E7022070470020704730B583B011
:1030D000044602681368D068516913F00F0505D1E2
:1030E00013F0200F02D010F0200F19D12DB111F0E4
:1030F000010119D110F4907F16D1216B01297DD0E7
:1031000013F0800F03D010F0800F40F0158113F002
:10311000400F03D010F0400F40F0128103B030BDDB
:103120002046FFF762FFF9E713F0010F06D010F415
:10313000807F03D0226C42F00102226413F0040F5E
:1031400004D019B1226C42F00202226413F0020F83
:1031500004D019B1226C42F00402226413F0080F6B
:1031600007D010F0200F00D119B1226C42F00802F4
:103170002264226C002AD1D013F0200F02D010F06C
:10318000200F29D123685B6903F04003226C12F001
:10319000080F00D163B32046FFF7AAFC23685B69E0
:1031A00013F0400F20D0226802F1140353E8003FCF
:1031B00023F04003143242E800310029F3D1A36B1D
:1031C00073B1614A1A65A06BFEF759FF0028A5D0BC
:1031D000A06B036D9847A1E72046FFF706FFD1E7F4
:1031E0002046FFF7CCFE99E72046FFF7C8FE95E79B
:1031F0002046FFF7C4FE002323648FE713F0100F6F
:103200003FF47EAF10F0100F3FF47AAF002301932C
:103210001368019353680193019B536913F0400FA6
:1032200050D0A26B13685B689BB2002B3FF476AF63
:10323000A18D99427FF672AFE385D369B3F5807FA4
:1032400037D0226802F10C0353E8003F23F4807367
:103250000C3242E800310029F3D1226802F1140354
:1032600053E8003F23F00103143242E80031002903
:10327000F3D1226802F1140353E8003F23F0400326
:10328000143242E800310029F3D1202384F83E3083
:1032900000232363226802F10C0353E8003F23F06C
:1032A00010030C3242E800310029F3D1A06BFEF785
:1032B0009CFEA18DE38D9BB2C91A89B22046FFF70F
:1032C00093FE2BE7A18DE38D9BB2C91A89B2E38DE2
:1032D0009BB2002B3FF422AF00293FF41FAF2268BE
:1032E00002F10C0353E8003F23F490730C3242E8E0
:1032F00000300028F3D1226802F1140353E8003FA4
:1033000023F00103143242E800300028F3D12023D7
:1033100084F83E3000232363226802F10C0353E853
:10332000003F23F010030C3242E800300028F3D1B4
:103330002046FFF759FEF1E62046FFF707FCEDE6D1
:103340002046FFF70DFEE9E6D92F000808B5806B8F
:10335000036B012B02D0FFF711FE08BD818D4908D8
:10336000FFF742FEF9E708B50346806B1B681B6850
:1033700013F4807F2BD10023C385026802F10C0374
:1033800053E8003F23F480730C3242E800310029F7
:10339000F3D1026802F1140353E8003F23F0010364
:1033A000143242E800310029F3D1026802F114031B
:1033B00053E8003F23F04003143242E80031002973
:1033C000F3D1202380F83E30036B012B05D0036B33
:1033D000012B0FD0FFF7D1FD08BD026802F10C03ED
:1033E00053E8003F23F010030C3242E8003100297B
:1033F000F3D1ECE7818DFFF7F7FDEDE730B583B052
:10340000044613468162828500250564222280F8E5
:103410003E20826B2048D063A26B20481064A26BD0
:103420001F48D064A26B156520680A46011DA06B79
:10343000FEF7A6FD019523681A6801925B68019367
:10344000019B84F83C5023695BB1226802F10C03B4
:1034500053E8003F43F480730C3242E80031002906
:10346000F3D1226802F1140353E8003F43F0010353
:10347000143242E800310029F3D1226802F114032A
:1034800053E8003F43F04003143242E80031002982
:10349000F3D1002003B030BD673300084D3300087E
:1034A000812F000890F83E30DBB2202B29D110B5D7
:1034B00082B0044639B342B390F83C30012B27D098
:1034C000012380F83C300363FFF798FFF0B9236BCA
:1034D000012B01D0012019E00023019323681A6811
:1034E00001925B680193019B226802F10C0353E88F
:1034F000003F43F010030C3242E800310029F3D1C1
:1035000004E002207047012000E0012002B010BD5D
:103510000220FBE74140C9B2024B33F8113083EA85
:1035200010207047789A000838B50C4604E014F86B
:10353000011BFFF7EFFF2A46551E002AF7D138BDC1
:1035400038B5044611234361FE230370EE23437014
:10355000038C0F2B01D90F230384638C072B01D914
:1035600007236384256B00212846FDF7C3FC38B987
:103570004D492846FDF7DCFC20B14B4B236301E0AD
:1035800000232363656B00212846FDF7B3FC38B99F
:1035900045492846FDF7CCFC20B1434B636301E06D
:1035A00000236363656A41492846FDF7A3FC0028B0
:1035B0005FD03E4B6362A56A3D492846FDF79AFC01
:1035C00000285FD03A4BA362E56A3A492846FDF7E6
:1035D00091FC00285FD0374BE362228CA37862F322
:1035E0000303A370628CDBB262F30613A37032494B
:1035F000206BFDF795FB4FF08E41FDF7DDFAFDF7EF
:10360000A1FCA4F80B002C49606BFDF789FB4FF07F
:103610008E41FDF7D1FAFDF795FCA4F80D0027497E
:10362000E06AFDF77DFB4FF08E41FDF7C5FAFDF72F
:1036300089FCC4F807002149A06AFDF771FB4FF02F
:103640008741FDF7B9FAFDF77DFCA4F805004FF0BE
:103650008741606AFDF7B0FAFDF774FCA4F8030037
:103660000F2221460020FFF75FFFA4F80F00002083
:1036700038BD13492846FDF75BFC00289BD0104B52
:10368000636298E70F492846FDF752FC00289BD05B
:103690000C4BA36298E70C492846FDF749FC00282B
:1036A0009BD0094BE36298E7C1CACC41E1FAFFC263
:1036B000000049C4C00FC9C8CDCCCC41F90FC940E6
:1036C000E1FAFF4200004944C00FC94838B504463A
:1036D000C5890E2201460020FFF726FF854202D051
:1036E0000020206238BDA378C3F3030284F82420AD
:1036F000C3F3021384F8253094F90B30A362237BC3
:10370000C3F3020384F82C30B4F90500FDF700FA86
:103710004FF06E51FDF750FA1049FDF74DFA606316
:10372000B4F90300FDF7F4F94FF06E51FDF744FAD8
:103730002063D4F80700FDF7EBF90849FDF73CFAE0
:103740004FF06051FDF738FAA063A089C0F3CB00B9
:10375000FDF7DAF9E06301202062C3E7F90FC94001
:10376000F8B506460C46FFF7EBFE194D012211464F
:103770002846FEF783FE012202212846FEF77EFE40
:10378000144F0A23112231463846FFF70AFB002264
:1037900002212846FEF772FE002201212846FEF78C
:1037A0006DFE102221463846FFF77CFE2378FD2B64
:1037B00001D00120F8BD6378EE2B01D00120F9E79C
:1037C000012323622046FFF781FF0020F2E700BFBC
:1037D00000140240380A002010B504460023038478
:1037E00001234384002343628362C3620363074B64
:1037F000436300F13801FFF7B3FF20B994F8640088
:1038000010B1012000E0012010BD00BFCDCC4C3D27
:1038100010B504460184428443620A490298FDF7C8
:10382000CBF9A06207490398FDF7C6F9E062049B53
:103830002363059B636304F138012046FFF790FF83
:1038400010BD00BF5C8FCA4008B5054B1860054B22
:103850001868002302221946806800F0F5F808BDB8
:10386000400B00200C000020022801D801207047E6
:1038700008B500F059F809230360002008BD0000D6
:1038800010B5013801280AD814464FF0FF3392B220
:1038900007480068FFF785FA40B9204610BD00F0E0
:1038A00043F8092303604FF0FF30F7E70520F5E701
:1038B000400B0020022801D80020704708B500F016
:1038C00033F8092303604FF0FF3008BD08B500F05E
:1038D0002BF8092303604FF0FF3008BD08B548B945
:1038E0004FF0FF33012208480068FFF7C6FA40B9DD
:1038F000012008BD00F018F8092303604FF0FF30E5
:10390000F7E70520F5E700BF400B002008B50228C7
:1039100004D84FF400534B60002008BD00F004F8B9
:1039200009230360F8E70000014B1868704700BFE7
:103930000C00002070B50D4E0D4D761BB61006D054
:10394000002455F8043B01349847A642F9D1094EAA
:10395000094D761B06F06CF8B61006D0002455F819
:10396000043B01349847A642F9D170BD80A00008FD
:1039700080A0000888A0000880A00008830730B558
:1039800048D0541E002A3FD0CAB2034601E0013C91
:103990003AD303F8012B9D07F9D1032C2DD9CDB2D1
:1039A00045EA05250F2C45EA054536D9A4F1100254
:1039B00022F00F0C03F1200EE6444FEA121C03F133
:1039C000100242E9045542E9025510327245F8D11D
:1039D0000CF1010214F00C0F03EB021204F00F0CB7
:1039E00013D0ACF1040323F003030433134442F86F
:1039F000045B9342FBD10CF003042CB1CAB21C440B
:103A000003F8012B9C42FBD130BD64461346002CC9
:103A1000F4D1F9E703461446BFE71A46A446E0E7A7
:103A20000FB400B5074983B004AB086853F8042B02
:103A30008168019300F0E0F803B05DF804EB04B096
:103A4000704700BF0C0000202DE9F043694CD4F80A
:103A5000008083B004460E4617461D46B8F1000F9D
:103A600003D0D8F83830002B77D0022F05D0012FA3
:103A700000F2AC80002DC0F2A980636EDA0752D547
:103A80002146404602F062FF216B41B104F1400340
:103A9000994202D0404603F085F800232363B4F92D
:103AA0000CC000231CF0800FA361636064D12CF470
:103AB0004A6C2CF0030C022FA4F80CC06AD001ABA6
:103AC0006A462146404603F013FAA3891843A081B1
:103AD000002D2FD0002E2ED0D8F83830002B38D023
:103AE000009B2660AB42B4F90C301CBF43F400636A
:103AF000A381012F04BF43F00103A3819AB213F005
:103B00000803C4E904652CD0D1075DD56D42A561D9
:103B1000656E002315F00105A36027D00025284617
:103B200003B0BDE8F083A3899B05A9D4A06D03F081
:103B30006BF9A5E7009D284603F00AFA064600281F
:103B400047D0A38943F08003A381D8F83830002BF5
:103B5000C6D1404602F02EFFC2E7404602F02AFFDF
:103B600083E7A360656E15F00105D7D1930524D5D1
:103B7000284603B0BDE8F0832169404603F012F8FF
:103B8000B4F90CC02CF44A6C2CF0030C022FA4F8EE
:103B90000CC094D10025002204F14303A26001224D
:103BA000C4E904322360636E4CF0020CD807A4F819
:103BB0000CC0DDD41CF4007FDAD1A06D03F026F92F
:103BC000284603B0BDE8F083A560CBE74FF0FF3592
:103BD000CEE7DDF80090A94504D0484603F0B8F9D7
:103BE000064620B9B4F90CC04FF0FF35D3E74D4677
:103BF000A7E700BF0C0000202DE9F04FD5B01C4610
:103C0000079191460546099003F0F6F8026817926D
:103C100010460E94FDF734FC16901DB1AB6B002BD3
:103C200000F02A82079A536EDD0740F13881B2F91D
:103C30000C2091B28F0409D4079B42F400529A8160
:103C400091B21A465B6E23F4005353660E0740F19F
:103C5000CB80079B1B69002B00F0C68001F01A0384
:103C60000A2B00F0CF8000242BAB4D46CDE9294430
:103C7000CDE91944CDE91B44129428939846189431
:103C800000230B940024CDE914342B78002B00F092
:103C90009D81AA4604E01AF8013F002B00F0C7807E
:103CA000252BF8D1BAEB050640F0C5809AF8003014
:103CB000002B00F08B8100234FF0FF329AF8016057
:103CC0008DF883300A930AF1010A08921F462B24CB
:103CD0004FF020090AF1010AA6F120035A2B00F245
:103CE000ED80DFE813F0EB02EB00EB00E602EB0007
:103CF000EB00EB006A00EB00EB005C028002EB00E3
:103D000067028A02EB0085025B005B005B005B00E0
:103D10005B005B005B005B005B00EB00EB00EB001B
:103D2000EB00EB00EB00EB007A01EB00F801D201B5
:103D30007A017A017A01EB00EB00EB00EB00E10283
:103D4000EB00EB002D02EB00EB00EB000202EB00BE
:103D5000A402EB00EB008307EB00EB00EB00EB00B1
:103D6000EB00EB00EB00EB007A01EB00F801D40173
:103D70007A017A017A01C702D401CD01EB00D402A5
:103D8000EB006C022F02B502CD01EB0002027E00B7
:103D90008007EB00EB006107EB007E00A6F130032B
:103DA00000221AF8016B02EB820203EB4202A6F139
:103DB0003003092BF5D90A928EE7DDF824B0584676
:103DC00003F01AF843681B931846FDF759FB1C9043
:103DD0000646584603F010F883681993002E40F009
:103DE000CD869AF8006075E7079D0998294601F08D
:103DF000ADFC002841F01C83A98901F01A030A2BAD
:103E00007FF431AF079AB2F90E30002BFFF62BAFDB
:103E1000536ED80702D4890541F13B81079909986F
:103E200023464A4655B0BDE8F04F01F04FBCBAEB0F
:103E3000050600F0CB802A9B33442A93299B01334B
:103E4000072BC8E90056299305DC08F108080B9BED
:103E500033440B932AE70799099828AA03F0E4FF53
:103E600080B90DF1AC08F2E70799099828AA03F088
:103E7000DBFF002800F09B800D9B1BB109981946C1
:103E800002F090FE079A536ED90740F1EA809389B9
:103E90005B0601F1D9820B9855B0BDE8F08F079B06
:103EA000B3F90C20900591B23FF5C4AE1D46986D54
:103EB00002F0AAFFB5F90C2091B2BBE6002E00F08B
:103EC000858000228DF8EC608DF883200123CDE9F8
:103ED0000C32069308920F92139210923BAD17F09A
:103EE000020302D006990231069117F0840B07D124
:103EF0000A990698A1EB0009B9F1000F00F370834D
:103F00002A9C8AB1299A0DF1830101320134C8F843
:103F10000010072A4FF001012A942992C8F80410D2
:103F200000F3B68308F1080883B1299B21AA013365
:103F30000234C8F80020072B4FF002022A9429937C
:103F4000C8F8042000F3B28308F10808BBF1800F21
:103F500000F06982089B0C9AA3EB020BBBF1000FE7
:103F600000F3AA82FB0500F100820C9BC8F8043024
:103F70001C44299BC8F800500133072B2A9429932D
:103F800000F3228308F10808780705D50A9B069AF2
:103F90009D1A002D00F39683DDE90A2306998A42D3
:103FA000ACBF9B185B180B93002C7FF45DAF002314
:103FB00029930D9B1BB10D99099802F0F3FD0DF1AA
:103FC000AC0855462B78002B7FF463AE2A9B002B60
:103FD00041F0D3810023299354E70E9B073323F04C
:103FE0000702F2E80234CDE91434DDE9143424F098
:103FF00000440E92994618462146B54B4FF0FF32C9
:10400000FDF734FB002840F0EF84B14B48462146D1
:104010004FF0FF32FDF70CFB002840F0E584DDE9AE
:10402000140100220023FDF7F9FA002840F0678709
:104030009DF88320A74DA84B27F080070321472E2A
:10404000C8BF1D4600230D9306910C9108930F9352
:1040500013931093002A3FF442AF069B013306935B
:104060003DE7079B9B899A053FF512AF079CA06D22
:1040700002F0CCFEA3890BE7099802F09BFCD1E586
:104080009AF8006047F0200724E647F01007BA06C8
:104090000E9B40F13B84073323F007031A465B680D
:1040A00052F8084B0E929946002BC0F24C84089BA4
:1040B000013300F0D88254EA090327F0800B40F066
:1040C000D382089B002B40F0D4825F4600230893E4
:1040D0000C9354AD1DE10E9B002253F8041B8DF888
:1040E00083208DF8EC100E93F0E60E9C089B54F89C
:1040F000045B4FF000098DF88390002D00F093854C
:104100005A1C00F051861A4649462846FDF7C8F861
:104110000D90002801F00E810D9BCDF820905B1BC7
:104120000C930E9423EAE3739DF883200693CDF855
:104130003490CDF83C90CDF84C90CDF8409089E784
:1041400047F0100717F0200900F0D2830E9B0733C9
:1041500023F00703D3F8049053F8084B0E9327F489
:10416000806B002300228DF88320089A511C00F0F8
:10417000B88054EA09012BF0800740F0B180002A92
:1041800040F0F685002BA1D11BF001030C9300F049
:10419000148430238DF84F310DF24F15B9E00E9B8A
:1041A00053F8042B0A92002A80F2DA830A9A0E93BB
:1041B00052420A929AF8006047F004078AE5BD0669
:1041C00000F1D184FC0600F1D885780600F1A586BF
:1041D000B90540F1D2850E9B0B9953F8042B0E9331
:1041E00011705546EEE69AF800608DF8834071E54F
:1041F0009AF8006047F080076CE5524612F8016BB0
:104200002A2E01F03F82A6F13003092B924698BF77
:10421000002201F2BC801AF8016B02EB820203EB70
:104220004202A6F13003092BF5D9089254E547F074
:10423000100B1BF0200900F076830E9B073323F050
:104240000703D3F8049053F8084B0E93012389E732
:104250000E9B53F8044B0E93302378268DF8843050
:104260001E4B189347F0020B8DF885604FF0000944
:10427000022377E79AF80060682E03BF9AF801607E
:1042800047F400770AF1010A47F0400722E59AF85F
:1042900000606C2E03BF9AF8016047F020070AF116
:1042A000010A47F0100715E59AF8006047F0080783
:1042B00010E59AF8006047F001070BE59DF88330A0
:1042C000002B7FF48EAD9AF800608DF8839001E5A5
:1042D000FFFFEF7F7C9C0008809C00088C9C0008FE
:1042E000BB46012B00F0C081022B54AD20D1189A9F
:1042F00004F00F032409D35C05F8013D44EA097476
:104300004FEA191954EA0903F2D154AB5B1B5F461B
:104310000C9308990C989DF8832081424FF000037C
:10432000B8BF01460D9306910F931393109391E636
:1043300004F00703E40844EA49744FEAD90930332A
:1043400054EA09012A4605F8013DF1D11BF0010F9D
:10435000DBD0302BD9D03023023A05F8013C54ABE6
:104360009B1A5F460C931546D3E7652E40F3E68013
:10437000DDE9140100220023FDF746F9002800F0D2
:10438000DC81299BBF4AC8F8002001330134012297
:10439000072B2A942993C8F8042000F3CC8408F151
:1043A0000808229B129A934280F2D682169B179A93
:1043B0001C44C8E90023299B2A940133072B299325
:1043C00000F3248408F10808129B5D1E002D7FF77E
:1043D000DBAD102D299BDFF8B09240F3BD84494638
:1043E0002246B946DDF824B0079C10260F4605E0AA
:1043F00008F10808103D102D40F3AA840133103253
:10440000072BC8E90076CDE92932F1DD28AA21463B
:10441000584603F009FD00287FF42EADDDE929326E
:104420000DF1AC08E6E70A9B069AA3EB020BBBF181
:10443000000F7FF78FADBBF1100F299ADFF848927C
:104440002CDD1D9621464E46079CDDF82490102356
:1044500006E0ABF1100BBBF1100F08F108081ADDF4
:1044600001321031072AC8E90063CDE92921F0DDC6
:1044700028AA214648460DF1AC0803F0D5FC0028D7
:104480007FF4FAACABF1100BBBF1100FDDE9292181
:104490004FF01003E4DCB1461D9E0C4601325C4433
:1044A000072ACDE92924C8F80090C8F804B000F321
:1044B000A08308F108084DE5BBF1100F299ADFF839
:1044C000C8912DDD41462046A8464C46079DDDF8A3
:1044D0002490102306E0ABF1100BBBF1100F01F19B
:1044E000080119DD01321030072AC1E90043CDE986
:1044F0002920F0DD28AA2946484603F095FC00282B
:104500007FF4BAACABF1100BBBF1100FDDE9292041
:104510002BA94FF01003E5DC4546A146884604462A
:1045200001325C44072ACDE92924C8F80090C8F874
:1045300004B000F3D08108F1080813E5129B012BA9
:1045400040F38081299EC8F80050013601340123D0
:10455000072E2A942996C8F8043000F37C8308F1CA
:104560000808169B179A01361C44072EC8E9002339
:10457000CDE9296400F37C8308F10808DDE9140122
:1045800000220023FDF740F8002840F07881129BBC
:104590000136013B01351C44072EC8F8005029960E
:1045A000C8F804302A9400F35D8108F108081A9BCA
:1045B000C8F8043001361C44072E24ABCDE9296429
:1045C000C8F800307FF7DEAC0799099828AA03F0F5
:1045D0002BFC00287FF450AC2A9C0DF1AC08D3E4EE
:1045E000B9F1100FDDE929212BDDCDE91D3B1F9627
:1045F000DDF824B04E461024A946079D04E0103E85
:10460000102E08F1080817DD0132204B1031072A5F
:10461000C8E90034CDE92921F1DD28AA2946584608
:104620000DF1AC0803F000FC00287FF425AC103E2F
:10463000102EDDE92921E7DCDDE91D3B4D46B146C1
:104640001F9EC8F80490013209EB0104072A0F49A4
:10465000C8F80010CDE9292400F351839DF8832088
:1046600008F108084DE4BB460A2C79F1000380F0FC
:104670000C83303401238DF84F415F460C930DF2CB
:104680004F1546E6BC9C0008D09C0008C09C000862
:10469000079909981D9328AA03F0C6FB00287FF408
:1046A000EBAB2A9C1D9B0DF1AC083DE407990998E2
:1046B00028AA03F0B9FB00287FF4DEAB2A9C0DF199
:1046C000AC0843E4102D299B21DD099FDDF81C90E7
:1046D000102604E0103D102D08F1080817DD013305
:1046E000BB4A1034072BC8E90026CDE92934F1DD97
:1046F00028AA494638460DF1AC0803F095FB00287E
:104700007FF4BAAB103D102DDDE92934E7DC01332D
:10471000AF4AC8F804502C44072BCDE92934C8F817
:1047200000207FF739AC0799099828AA03F07CFB91
:1047300000287FF4A1AB2A9C2EE42299002940F3A3
:104740001481DDF84090129B9945A8BF9946B9F1B4
:10475000000F0BDD299B01334C44072BC8E900599E
:104760002A94299300F39A8508F10808109EB9F15C
:10477000000FA8BFA6EB0906002E00F34683DDF864
:1047800040B07905AB4400F1CE84229B129A93424B
:1047900002DBFA0740F1B883169A17991444C8E966
:1047A0000012299A2A940132072A299200F383855C
:1047B00008F10808129AAE18A6EB0B06D51AAE42FD
:1047C000A8BF2E46002E0DDD299BC8F800B001338E
:1047D0003444072BC8F804602A94299300F3F18528
:1047E00008F10808002EA8BFAD1B002D7FF7CCAB49
:1047F000102D299BDFF8DC9140F3AE82494622461A
:10480000B946DDF824B0079C10260F4605E008F1F4
:104810000808103D102D40F39B8201331032072B06
:10482000C8E90076CDE92932F1DD28AA21465846AB
:1048300003F0FAFA00287FF41FABDDE929320DF10D
:10484000AC08E6E7FE073FF57DAE299EC8F80050AC
:10485000013601340123072E2A942996C8F8043022
:104860007FF7A3AE0799099828AA03F0DDFA00287C
:104870007FF402ABDDE929640DF1AC0897E6129BE9
:104880005D1E002D7FF793AE102DDFF8489140F3A9
:104890007F8222460897099C079F4FF0100B05E086
:1048A00008F10808103D102D40F3708201361032D7
:1048B000072EC8E9009BCDE92962F1DD28AA394617
:1048C000204603F0B1FA00287FF4D6AADDE9296278
:1048D0000DF1AC08E6E70799099828AA03F0A4FAB5
:1048E00000287FF4C9AA2A9C0DF1AC08FFF73ABB57
:1048F00017F0100372D117F0400200F0BD820E9A3B
:1049000052F8044B0E929946A4B228E453F8044B93
:104910000E93FB0656D47D0651D544F3C0394B4661
:1049200024B2FFF7C1BB1BF0100340F036811BF02F
:10493000400200F092820E9A52F8044B0E92994671
:10494000A4B201230EE42D2364428DF8833069EB79
:104950004909BB46012308E4F8077FF515AB25E5B7
:104960009AF800600E93FFF7B5B9299B1A4AC8F868
:104970000020013301340122072B2A942993C8F81F
:10498000042000F3708408F10808002940F01E821A
:10499000129A07F0010313433FF4F6AA169B1799E6
:1049A000E218C8E90013299B2A920133072B2993A7
:1049B00000F3618308F1080819E254ADA9E4B805D1
:1049C00000F1B4824FEAE4794B46FFF76DBB00BFBC
:1049D000C09C0008D09C0008BC9C00080E9B53F8AB
:1049E000044B0E93FFF7BBBBDDE9140102460B46F7
:1049F000FCF73CFE002840F0A085612E00F05085B9
:104A0000412E00F09982089B013326F02003069383
:104A100000F08F85472B00F07985DDE9141247F40B
:104A200080730F931346002BC0F2ED850C93002387
:104A30001D938B460D93069B462B00F04A84452B15
:104A400000F04F850899019126A9049123A90391AB
:104A500022A9029102210C9B099800915A4600F06C
:104A600083FF069B472B054640F01C8617F0010F7D
:104A7000B9460F9F40F0D984269B5B1B1293069B7F
:104A8000472B00F01883069B462B00F05F84229B87
:104A90001093109B069A013B412A229300F0AA85AD
:104AA000F2B20021002BB8BF109B8DF89020BABF46
:104AB000C3F101032D222B22092B8DF8912040F305
:104AC00063850DF19F04BD4F2246104687FB0321ED
:104AD000DA17C2EBA10202EB8201A3EB41013031F4
:104AE00000F8011C19466329134600F1FF32ECDC83
:104AF0003033D9B2831E9C4202F8011C40F2CE85AD
:104B000013460DF1920201E013F8011B02F8011B9C
:104B10009C42F9D10DF1A1030DF192021B1A13442D
:104B200024AA9B1A1A93129B1A9A012B1A440C92CC
:104B300040F372850C9B169A13440C930C9A002335
:104B400029F4806722EAE27247F480770F93069295
:104B5000139310931D9B002B40F0DE829DF8832061
:104B60000893FFF777BA0E9B0B9853F8041B0E932C
:104B7000C217C1E900025546FFF724BA199B002B62
:104B80003FF42FA9199B1B78002B3FF42AA99AF810
:104B9000006047F48067FFF79DB80E9B53F8044B05
:104BA0000E930123FFF7DEBA854B189317F0200907
:104BB00049D00E9B073323F00703D3F8049053F832
:104BC000084B0E93F80709D554EA090306D03023A1
:104BD0008DF8856047F002078DF8843027F4806BEC
:104BE0000223FFF7BFBABB46FFF723BB754B1893F1
:104BF000DCE70799099828AA03F016F900287FF442
:104C00003BA92A9C0DF1AC08FFF7A4B907990998B4
:104C100028AA03F009F900287FF42EA92A9C0DF197
:104C2000AC08FFF7D1BB062B294628BF0623089501
:104C30000D952A460693644D0E940C930F91139193
:104C40001091FFF707BA17F0100369D00E9B53F8C5
:104C5000044B0E93B6E70799099828AA03F0E4F8E5
:104C600000287FF409A9DDE929640DF1AC0878E496
:104C70000799099828AA03F0D7F800287FF4FCA820
:104C8000DDE929640DF1AC0878E40BF480630022BF
:104C9000CDE90CA80696DDF8648054AF16469A4616
:104CA0000CE00023204649460A22FCF771F90A2C41
:104CB00079F100031BD3044689462F4620460A2279
:104CC00000234946FCF764F930327D1E013607F8AF
:104CD000012CBAF1000FE4D098F800309E42E0D1E8
:104CE000FF2EDED00A2C79F1000380F0F480CDF89D
:104CF00064801296DDE90CA8069EFFF706BB0799B3
:104D000009981D9328AA03F08FF800287FF4B4A80F
:104D10009DF883202A9C1D9B0DF1AC08FFF7F1B88C
:104D200017F0400200F0B6800E9A52F8044B0E9233
:104D30009946A4B246E70799099828AA03F074F89F
:104D400000287FF499A82A9C0DF1AC08FFF729BB35
:104D500014463A464F46914601332C44072BC8F877
:104D60000090C8F80450CDE929347FF70BA92BE453
:104D7000012BBB467FF4B8AA7BE40E9B0B9953F83A
:104D8000042B554611600E93FFF71CB9089F14467B
:104D900001362C44072ECDE92964C8F80090C8F8E4
:104DA00004507FF702AC5DE52846CDF820900E94C4
:104DB000FCF766FB03460C90FFF7B4B967666666BE
:104DC0008C9C0008A09C0008B49C0008169B1798B7
:104DD000E218C8E90003299B2A920133072B299383
:104DE00000F3498108F108080029C0F2FA821299FB
:104DF000C8F8005001338C18072BCDE92934C8F8C6
:104E000004107FF7BFA8FFF7DFBB102E299BDFF848
:104E1000C09252DD484642462146A846B946099C02
:104E2000079D4FF0100B074603E00832103E102E8E
:104E30003DDD01331031072BC2E9007BCDE929317B
:104E4000F3DD28AA2946204602F0EEFF00287FF471
:104E500013A8DDE929312BAAE8E70E9B1BF40079A2
:104E600014BF53F8044B53F8044B0E931CBF9146E8
:104E7000E4B20123FFF776B90E9B17F4007914BF53
:104E800053F8044B53F8044B0E931CBF9146E4B205
:104E9000FFF765B90E9B17F4007914BF53F8044B64
:104EA00053F8044B0E931CBF9146E4B28AE6454684
:104EB00090463A460C464F46914601333444072B00
:104EC000CDE92934C8F80090C8F8046000F3E68002
:104ED00008F1080853E41C9B1B99ED1A1A46284652
:104EE00002F034FF98F801300BB108F101082046B8
:104EF00049460A2200230026FCF74AF8DBE62D2269
:104F00008DF88320FFF796B8129AAE18A6EB0B0621
:104F1000D51AAE42A8BF2E4664E40E9B0B9953F8F7
:104F2000042B0E9311805546FFF74CB844F3C0197B
:104F30004B4664B2FFF7B8B830238DF8843058235D
:104F40008DF88530089B632B47F0020400F39B82A9
:104F500000230D933BADDDE9141247F481730F93E9
:104F60001346002B2746C0F220820C9326F0200324
:104F7000069300238B461D93612E00F0ED82412E97
:104F80007FF459AD22AA0C99584602F04FFE002238
:104F90004FF07F53FBF7F0FA02460B46CDE91023A2
:104FA00000220023FCF730FB08B101232293494B78
:104FB0000C93089BCDE912A6CDE91E78DDF830A050
:104FC000DDE9106703F1FF39AB46109506E00022DA
:104FD000002309F1FF39FCF717FBE8B93E4B00222B
:104FE00030463946FBF7C8FA0F460646FCF754FB35
:104FF0000446FBF757FA0B46024639463046FBF7A4
:1050000003F91AF80430B9F1FF3FD8464D460BF8C2
:10501000013B06460F46DAD1304639462F4BDDF8C4
:1050200048A0139ECDF848800022A946DDF87C8078
:10503000109D1E9FCDE91001FCF70EFB002840F0EB
:105040003482DDE91001254B0022FCF7DDFA10B1B6
:10505000E10700F12A824B46002B06DB01335B445B
:1050600030220BF8012B5B45FBD1ABEB0503B946B6
:1050700012930F9F03E50799099828AA02F0D4FE1E
:1050800000287EF4F9AEDDE9293222990DF1AC0851
:10509000AAE6906D01F0BAFEFEF7C0BE0799099826
:1050A00028AA02F0C1FE00287EF4E6AE2A9C0DF18B
:1050B000AC08FFF764BB229B1093DA1C02DB089A52
:1050C00093420DDD023E26F020030693E1E400BF8B
:1050D000D09C0008A09C0008000030400000E03F89
:1050E000109B129A9342C0F2568119F0010F00F002
:1050F0008782169A13440C9319F4806F03D0109B87
:10510000002B00F350820C9B23EAE373069367267F
:1051100000230F9313931DE52D2200238DF8832088
:105120000893FEF79ABF129BCDF830A04246DDF8F7
:105130004C801097EB1808935E46199FDDF870902D
:10514000DDF824A0DDF81CB00F9B13952146B8F1C3
:10515000000F2ED0002B6BD1013F08F1FF381B9BB5
:10516000C2E90039299B01334944072B2A9129932D
:1051700062DC0832089B38789B1B8342A8BF034639
:10518000002B1C460ADD2998013019440728C2E982
:1051900000632A9129905ADC38780832002CACBF81
:1051A000051B0546002D15DC06440F9BB8F1000FCA
:1051B000D0D1002B3CD1DDE91235EB189E42199776
:1051C000B346DDF830A0109F90460C4628BF9B46A2
:1051D000FFF7DBBA102D29981DDD102404E0103DE7
:1051E000102D02F1080216DD0130AC4B10310728FA
:1051F000C2E90034CDE92901F1DD28AA594650461B
:1052000002F012FE00287EF437AE103D102DDDE9CD
:1052100029012BAAE8DC0130A04B5560294407285E
:10522000CDE9290113602CDC387808320644BCE74C
:105230000F9B013B0F9392E728AA5946504602F074
:10524000F3FD00287EF418AE2A992BAA92E728AA2B
:105250005946504602F0E8FD00287EF40DAE38783D
:105260002A992BAA9AE70799099828AA02F0DCFD47
:1052700000287EF401AE22992A9C0DF1AC08FFF7BC
:1052800084BB28AA5946504602F0CEFD00287EF481
:10529000F3AD38782A992BAA064486E7079909982E
:1052A00028AA02F0C1FD00287EF4E6AD2A9C0DF18B
:1052B000AC08FFF75BBA0799099828AA02F0B4FD79
:1052C00000287EF4D9AD229B2A9C0DF1AC08FFF793
:1052D00071BA0899019126A9049123A9039122A9E1
:1052E000029103210C9B099800915A4600F03CFB67
:1052F0000378302B054600F09581229B089AB94629
:1053000013440F9FEC180C99584600220023FCF719
:105310007BF910B12346FFF7B0BB269BA342BFF435
:10532000ACAB30215A1C26921970269B9C42F9D8AE
:10533000FFF7A3BB089B9DF883200E9406930C9364
:1053400008900F9013901090FEF784BE229A10924E
:10535000002A40F38181089909F001030B4340F0D2
:105360005581109B0C93662619F4806F40F01C81C8
:105370000C9B23EAE3730693CAE60799099828AAC7
:1053800002F052FD00283EF425AEFEF77BBD00235F
:105390000893FEF7A1BC129B169A9A18109B0C92C8
:1053A000002B40F34D816726DEE726F020030693AD
:1053B000DDE914349B4604F100430C932D231D9327
:1053C000DAE50799099828AA02F02EFD00287EF454
:1053D00053AD229D129B2A9C5D1B0DF1AC08FFF77B
:1053E00001BA4E421031DFF8B49034DA4146DDF8AC
:1053F00024B0A8461024079D03E00831103E102E6B
:1054000027DD01331032072BC1E90094CDE92932A1
:10541000F3DD28AA2946584602F006FD00287EF44E
:105420002BADDDE929322BA9E8E7089BEC186AE7E8
:10543000079B5B6EDD0707D4079B9B899C0503D404
:10544000079B986D01F0E2FC4FF0FF330B93FEF7E2
:1054500022BD4546884601333244072BCDE9293227
:10546000C8F80090C8F804607FF7A4AA07990998C3
:1054700028AA02F0D9FC00287EF4FEACDDE929322E
:105480000DF1AC08B3E40998591C01F069FD05461B
:10549000002800F00D810D905DE500BFD09C000854
:1054A00030238DF8843078234AE5129B26930C9B99
:1054B0001BF8012CD97B8A425B4609D1302003F8C6
:1054C000010C269B5A1E269213F8012C9142F6D00D
:1054D000392A0BBF0C9A0132927AD2B203F8012C0E
:1054E000C3E508990C9B09984C1C26A9049123A993
:1054F000039122A9029102215A460194009100F0E1
:1055000033FA0546B9462C440F9FFCE6089B002B56
:1055100008BF0123089347F480730F93159B002B5A
:10552000C0F2AE80DDF850B01D900C930D90FFF7E7
:1055300089BA06230893FFF770BA159B604D002BBC
:10554000B4BF2D229DF883205E4BB8BF8DF8832019
:1055500027F08007FEF772BD22AA0C99584602F088
:1055600065FB00224FF07F53FBF706F802460B461F
:10557000CDE9102300220023FCF746F808B10123EF
:105580002293514B0C9314E5002962D130228DF8FF
:1055900092200DF19302303302F8013B24ABD31A71
:1055A0001A93FFF7C0BA672619990B78FF2B7BD0A7
:1055B0000024109A204603E001300131FF2B08D06F
:1055C000934206DAD21A4B78002BF5D10B780134CE
:1055D000F4E71991109213900F940F9A139B1C9952
:1055E00013440C9A01FB03230C9323EAE373069301
:1055F000FFF7B0BA06F10F02D2B20121FFF752BA9B
:10560000109B0C9378E500230D93D1E6169BD318DD
:1056100019440C916626A7E619F0010F3FF48EAAF3
:10562000FFF788BA0C99584600220023FBF7ECFFDD
:1056300000287FF462AE089BC3F1010322935DE66C
:10564000C3F101031A4422EAE2730C92069367261F
:105650005EE50DF192029EE7089A09F0010959EA08
:10566000020304D10123069366260C9350E5169B92
:1056700001331A4422EAE2730C920693662647E548
:105680000D9095E60E9B9AF80160924653F8042B14
:105690000E9342EAE2720892FEF71CBB02231A93B1
:1056A000FFF741BA089C2DE700230F93139394E76B
:1056B000079A938943F040039381FEF7E3BB00BF51
:1056C000849C0008889C00088C9C0008F0B51F464C
:1056D0008B89ADF26C4D23F00203ADF80C304B6EAC
:1056E0001993CB89ADF80E30CB6907934B6A0993B8
:1056F0001AAB009304934FF4806315460646029359
:10570000059316A800230C46069301F079FB2A4660
:105710003B4669463046FEF76FFA051E07DB6946D1
:10572000304601F013F9002818BF4FF0FF35BDF8DF
:105730000C305B0603D5A38943F04003A381169880
:1057400001F060FB28460DF26C4DF0BD38B5334BCF
:105750001B6805460C460BB19A6B12B3B4F90C30BA
:1057600018079AB225D5216900292DD012F0010021
:1057700007D00020A06060694042A06139B10020DC
:1057800038BD950758BF6069A0600029F7D112069F
:1057900058BF0846F4D543F04003A3814FF0FF30D3
:1057A00038BD184601F006F9B4F90C3018079AB262
:1057B000D9D4D1062AD5520714D4216943F008035D
:1057C000A3819AB20029D1D102F42070B0F5007FF4
:1057D000CCD02146284601F01BFBB4F90C302169DE
:1057E0009AB2C3E7216B51B104F14002914204D057
:1057F000284601F0D7F9B4F90C3000222263216960
:105800000022C4E9001223F02403D7E7092243F061
:1058100040032A604FF0FF30A38138BD0C00002008
:10582000024B13B1024800F005B8704700000000B9
:10583000D96A0008002301461A46184603F024BA24
:105840002DE9F04F03690C69A34283B0C0F2868052
:10585000013C01F11405A30000F11408009355F870
:10586000243058F8242001338A469A4208EB8401F8
:10587000814605EB84070191B2FBF3F638D3002390
:10588000AE4640469B465EF8041B02681FFA81FC48
:1058900006FB0C33090C4FEA134C06FB01CC99B202
:1058A000ABEB01011FFA8CF311FA82F1C3EB124248
:1058B00002EB214289B241EA0241774540F8041BDC
:1058C0004FEA1C434FEA224BDDD2009B58F80330CD
:1058D00073B9019B043B984504D307E0984504F154
:1058E000FF3403D253F80429002AF7D0C9F8104036
:1058F0005146484602F072F800282BDB013640463C
:10590000002355F8041BD0F800C08AB29A1A0B0C79
:1059100012FA8CF2C3EB1C4303EB224392B242EA2D
:105920000342AF4240F8042B4FEA2343E9D258F830
:10593000242008EB84036AB9043B984504D307E0AC
:10594000984504F1FF3403D253F80429002AF7D014
:10595000C9F81040304603B0BDE8F08F002003B016
:10596000BDE8F08F000000002DE9F04F016C99B008
:1059700090469946CDE90489259D044641B1426C83
:105980004A60012393408B6001F0CCFD0023236427
:10599000B9F1000AB4BF012300232B60764BBCBFD2
:1059A0002AF0004ACDF814A033EA0A0300F0AA80D6
:1059B000DDE904231046194600220023CDE90A013F
:1059C000FBF722FE074670B1249A01231360269B41
:1059D000002B00F0E48269481860431E039303988B
:1059E00019B0BDE8F08F16AB019317AB00932046BA
:1059F000DDE90A2302F0B8F85FEA1A56054640F0DE
:105A00009780DDE916763E4406F23240202840F3C6
:105A1000B583C0F140000AFA00FA06F2124028FAF3
:105A200000F04AEA0000FAF72DFD0123013EA1F142
:105A3000F8710F93524B0022FAF7E6FB48A3D3E923
:105A40000023FAF799FD48A3D3E90023FAF7DEFB18
:105A5000804630468946FAF725FD45A3D3E9002361
:105A6000FAF78AFD02460B4640464946FAF7CEFB56
:105A700080468946FBF710FE0022834600234046FD
:105A80004946FBF7CBFD002840F07C82BBF1160FA6
:105A900000F26B823B4B03EBCB03D3E90023DDE940
:105AA0000A01FBF7BBFD002872D00023BE1B0E933A
:105AB000731E0BF1FF3B069300F15E8200230993F6
:105AC000BBF1000F6BDA099BCDF81CB0A3EB0B0305
:105AD0000993CBF100030D93229B092B4FF0000B90
:105AE00066D8052B40F34883043B22930026229B73
