:020000040800F2
:1000000000000320AD0D0008810D0008830D0008DD
:10001000850D0008870D0008890D0008000000000C
:100020000000000000000000000000008B0D000830
:100030008D0D0008000000008F0D0008910D0008D4
:10004000FD0D0008FD0D0008FD0D0008FD0D000868
:10005000FD0D0008FD0D0008FD0D0008FD0D000858
:10006000FD0D0008FD0D0008FD0D0008FD0D000848
:10007000FD0D0008FD0D0008FD0D0008FD0D000838
:10008000FD0D0008FD0D0008FD0D0008FD0D000828
:10009000990D0008FD0D0008FD0D0008FD0D00087C
:1000A000FD0D0008FD0D0008FD0D0008FD0D000808
:1000B000FD0D0008FD0D0008FD0D0008FD0D0008F8
:1000C000FD0D0008FD0D0008FD0D0008FD0D0008E8
:1000D000FD0D0008FD0D0008FD0D0008FD0D0008D8
:1000E000FD0D0008FD0D0008FD0D0008FD0D0008C8
:1000F000FD0D0008FD0D0008FD0D0008FD0D0008B8
:10010000FD0D0008FD0D0008FD0D0008FD0D0008A7
:10011000FD0D0008FD0D0008FD0D0008FD0D000897
:10012000FD0D0008FD0D0008FD0D0008FD0D000887
:10013000FD0D0008FD0D0008FD0D0008FD0D000877
:10014000FD0D0008FD0D0008FD0D0008FD0D000867
:10015000FD0D0008FD0D0008FD0D0008FD0D000857
:10016000FD0D0008FD0D0008FD0D0008FD0D000847
:10017000FD0D0008FD0D0008FD0D00080000000049
:10018000FD0D0008FD0D0008FD0D0008FD0D000827
:10019000FD0D0008FD0D0008FD0D0008FD0D000817
:0C01A0000000000000000000FD0D000841
:1001AC0010B5054C237833B9044B13B10448AFF3A5
:1001BC0000800123237010BD3C04002000000000CF
:1001CC00A026000808B5034B1BB103490348AFF345
:1001DC00008008BD0000000040040020A02600089C
:1001EC0080F0004002E000BF81F0004142001FBFE0
:1001FC005FEA410392EA030F7FEA226C7FEA236CE9
:10020C006AD04FEA1262D2EB1363C1BFD2184140DD
:10021C0048404140B8BF5B42192B88BF704710F073
:10022C00004F40F4000020F07F4018BF404211F016
:10023C00004F41F4000121F07F4118BF494292EA7E
:10024C00030F3FD0A2F1010241FA03FC10EB0C00AA
:10025C00C3F1200301FA03F100F0004302D5494237
:10026C0060EB4000B0F5000F13D3B0F1807F06D3E4
:10027C0040084FEA310102F10102FE2A51D2B1F1DC
:10028C00004F40EBC25008BF20F0010040EA0300D1
:10029C007047490040EB0000013A28BFB0F5000F51
:1002AC00EDD2B0FA80FCACF1080CB2EB0C0200FA07
:1002BC000CF0AABF00EBC25052421843BCBFD04056
:1002CC001843704792F0000F81F4000106BF80F4D0
:1002DC0000000132013BB5E74FEA41037FEA226C93
:1002EC0018BF7FEA236C21D092EA030F04D092F05E
:1002FC00000F08BF0846704790EA010F1CBF002092
:10030C00704712F07F4F04D1400028BF40F00040EE
:10031C00704712F100723CBF00F50000704700F00E
:10032C00004343F0FE4040F4000070477FEA226235
:10033C0016BF08467FEA23630146420206BF5FEA06
:10034C00412390EA010F40F4800070474FF0000306
:10035C0004E000BF10F0004348BF40425FEA000CCD
:10036C0008BF704743F0964301464FF000001CE075
:10037C0050EA010208BF70474FF000030AE000BFCB
:10038C0050EA010208BF704711F0004302D5404209
:10039C0061EB41015FEA010C02BF8446014600207B
:1003AC0043F0B64308BFA3F18053A3F50003BCFA96
:1003BC008CF2083AA3EBC25310DB01FA02FC634443
:1003CC0000FA02FCC2F12002BCF1004F20FA02F24A
:1003DC0043EB020008BF20F00100704702F120023D
:1003EC0001FA02FCC2F1200250EA4C0021FA02F29E
:1003FC0043EB020008BF20EADC7070474FF0FF0CA3
:10040C001CEAD0521EBF1CEAD15392EA0C0F93EA9D
:10041C000C0F6FD01A4480EA010C400218BF5FEA3F
:10042C0041211ED04FF0006343EA501043EA5111B2
:10043C00A0FB01310CF00040B1F5000F3EBF4900AC
:10044C0041EAD3715B0040EA010062F17F02FD2AB0
:10045C001DD8B3F1004F40EBC25008BF20F0010093
:10046C00704790F0000F0CF0004C08BF49024CEAAA
:10047C00502040EA51207F3AC2BFD2F1FF0340EA3C
:10048C00C250704740F400004FF00003013A5DDCAD
:10049C0012F1190FDCBF00F000407047C2F10002EE
:1004AC00410021FA02F1C2F1200200FA02FC5FEADB
:1004BC00310040F1000053EA4C0308BF20EADC7025
:1004CC00704792F0000F00F0004C02BF400010F497
:1004DC00000F013AF9D040EA0C0093F0000F01F044
:1004EC00004C02BF490011F4000F013BF9D041EA66
:1004FC000C018FE70CEAD15392EA0C0F18BF93EA68
:10050C000C0F0AD030F0004C18BF31F0004CD8D191
:10051C0080EA010000F00040704790F0000F17BF18
:10052C0090F0004F084691F0000F91F0004F14D05E
:10053C0092EA0C0F01D142020FD193EA0C0F03D1B6
:10054C004B0218BF084608D180EA010000F00040B9
:10055C0040F0FE4040F40000704740F0FE4040F494
:10056C00400070474FF0FF0C1CEAD0521EBF1CEA33
:10057C00D15392EA0C0F93EA0C0F69D0A2EB030251
:10058C0080EA010C49024FEA402037D04FF08053EB
:10059C0043EA111143EA10130CF000408B4238BFB0
:1005AC005B0042F17D024FF4000C8B4224BF5B1ABE
:1005BC0040EA0C00B3EB510F24BFA3EB510340EA0C
:1005CC005C00B3EB910F24BFA3EB910340EA9C00BA
:1005DC00B3EBD10F24BFA3EBD10340EADC001B012A
:1005EC0018BF5FEA1C1CE0D1FD2A3FF650AF8B42CE
:1005FC0040EBC25008BF20F0010070470CF0004CDB
:10060C004CEA50207F32C2BFD2F1FF0340EAC25005
:10061C00704740F400004FF00003013A37E792F0C6
:10062C00000F00F0004C02BF400010F4000F013A24
:10063C00F9D040EA0C0093F0000F01F0004C02BF1F
:10064C00490011F4000F013BF9D041EA0C0195E788
:10065C000CEAD15392EA0C0F08D142027FF47DAF21
:10066C0093EA0C0F7FF470AF084676E793EA0C0F11
:10067C0004D14B023FF44CAF08466EE730F0004C0F
:10068C0018BF31F0004CCAD130F000427FF45CAF9F
:10069C0031F000437FF43CAF5FE700BF4FF0FF3C0D
:1006AC0006E000BF4FF0010C02E000BF4FF0010C60
:1006BC004DF804CD4FEA40024FEA41037FEA226C29
:1006CC0018BF7FEA236C11D001B052EA530C18BF4B
:1006DC0090EA010F58BFB2EB030088BFC81738BFB0
:1006EC006FEAE17018BF40F0010070477FEA226C9E
:1006FC0002D15FEA402C05D17FEA236CE4D15FEA9A
:10070C00412CE1D05DF8040B704700BF84460846CD
:10071C006146FFE70FB5FFF7C9FF002848BF10F18E
:10072C00000F0FBD4DF808EDFFF7F4FF0CBF0120D3
:10073C0000205DF808FB00BF4DF808EDFFF7EAFF5D
:10074C0034BF012000205DF808FB00BF4DF808ED18
:10075C00FFF7E0FF94BF012000205DF808FB00BF0D
:10076C004DF808EDFFF7D2FF94BF012000205DF893
:10077C0008FB00BF4DF808EDFFF7C8FF34BF0120A0
:10078C0000205DF808FB00BF4FEA4002B2F1FE4FBB
:10079C000FD34FF09E03B3EB12620DD94FEA002337
:1007AC0043F0004310F0004F23FA02F018BF404210
:1007BC0070474FF00000704712F1610F01D14202F7
:1007CC0005D110F0004008BF6FF0004070474FF0AB
:1007DC000000704753B94AB9002908BF00281CBF54
:1007EC004FF0FF314FF0FF3000F074B9ADF1080C51
:1007FC006DE904CE00F006F8DDF804E0DDE9022333
:10080C0004B070472DE9F047089E0D460446884613
:10081C00002B4DD18A42944668D9B2FA82F252B179
:10082C0001FA02F3C2F1200120FA01F10CFA02FCE8
:10083C0041EA030894404FEA1C45210CB8FBF5FE35
:10084C001FFA8CF705FB1E8341EA03430EFB07F1ED
:10085C0099420BD91CEB03030EF1FF3080F01E8183
:10086C00994240F21B81AEF1020E63445B1AA4B2B2
:10087C00B3FBF5F005FB103344EA034400FB07F728
:10088C00A7420AD91CEB040400F1FF3380F0088165
:10089C00A74240F2058164440238E41B40EA0E4052
:1008AC0000211EB1D4400023C6E90043BDE8F08707
:1008BC008B4208D9002E00F0EE800021C6E900051D
:1008CC000846BDE8F087B3FA83F100294AD1AB4260
:1008DC0002D3824200F2F980841A65EB03030120F3
:1008EC009846002EE2D0C6E90048DFE702B9FFDEE9
:1008FC00B2FA82F2002A40F09180A1EB0C054FEA8B
:10090C001C471FFA8CFE0121B5FBF7F307FB1350B4
:10091C00250C45EA00450EFB03F0A84208D91CEB58
:10092C00050503F1FF3802D2A84200F2CB80434602
:10093C002D1AA4B2B5FBF7F007FB105544EA054499
:10094C000EFB00FEA64508D91CEB040400F1FF3594
:10095C0002D2A64500F2BB802846A4EB0E0440EA66
:10096C0003409EE7C1F120078B4022FA07FC4CEABA
:10097C00030C20FA07F405FA01F31C43FD404FEA7F
:10098C001C4900FA01F3B5FBF9F8200C1FFA8CFE98
:10099C0009FB185540EA054508FB0EF0A84202FA7F
:1009AC0001F20BD91CEB050508F1FF3A80F08880A9
:1009BC00A84240F28580A8F1020865442D1AA4B221
:1009CC00B5FBF9F009FB105544EA054500FB0EFE9A
:1009DC00AE4508D91CEB050500F1FF346CD2AE45D1
:1009EC006AD90238654440EA0840A0FB0294A5EBA2
:1009FC000E05A542C846A64656D353D05EB1B3EBFE
:100A0C00080265EB0E0505FA07F722FA01F3CD4053
:100A1C001F43C6E900750021BDE8F087C2F1200331
:100A2C0020FA03F10CFA02FC25FA03F395400D436E
:100A3C004FEA1C471FFA8CFEB3FBF7F107FB113092
:100A4C002B0C43EA004301FB0EF0984204FA02F42B
:100A5C0008D91CEB030301F1FF382FD298422DD992
:100A6C00023963441B1AADB2B3FBF7F007FB10332A
:100A7C0045EA034500FB0EF3AB4208D91CEB050518
:100A8C0000F1FF3816D2AB4214D902386544ED1A86
:100A9C0040EA014138E73146304607E78646E5E64D
:100AAC001846FAE64B45A9D2B9EB020864EB0C0EDA
:100ABC000138A3E74046EAE7204694E74146D1E7F0
:100ACC00D0467BE7023B654432E7084609E76444BD
:100ADC00023842E7704700BF08B50C480C4B036066
:100AEC000923436000238360C3604FF4003202612A
:100AFC004361037643768376C3760377437700F0BE
:100B0C00DFF900B908BD00F073F8FBE758040020CA
:100B1C000064004010B588B0002303930493059340
:100B2C00069307930268184B9A4201D008B010BD87
:100B3C000024019403F5EA331A6C42F000721A6433
:100B4C001A6C02F000720192019A02941A6B42F034
:100B5C0008021A631B6B03F008030293029B032326
:100B6C0003930222049206930923079303A90748CF
:100B7C0000F00AFE22462146142000F0ABFD1420A2
:100B8C0000F0E0FDD2E700BF00640040000C024022
:100B9C0084B000220092154B196B41F001011963CE
:100BAC00196B01F00101009100990192196B41F050
:100BBC0008011963196B01F0080101910199029266
:100BCC00196B41F004011963196B01F004010291D6
:100BDC00029903921A6B42F080021A631B6B03F0AA
:100BEC0080030393039B04B0704700BF003802409E
:100BFC0072B6FEE700B595B03022002108A801F0CE
:100C0C0087FC0023039304930593069307930193A6
:100C1C00234A116C41F080511164126C02F0805225
:100C2C000192019A02931F4B1A6842F440421A60D7
:100C3C001B6803F440430293029B012308934FF477
:100C4C008033099302230E934FF480020F920622F5
:100C5C001092B422119212930423139308A800F05B
:100C6C00D5FEB0B900F094FEA8B90F23039302236C
:100C7C000493002305934FF4A05306934FF4805331
:100C8C000793052103A801F00FF930B915B05DF8F1
:100C9C0004FBFFF7ADFFFFF7ABFFFFF7A9FF00BFAA
:100CAC00003802400070004000B583B000F0C8F876
:100CBC00FFF7A0FFFFF76CFFFFF70EFF01F090FBB3
:100CCC00194C00220221204600F05CFE0022042177
:100CDC00204600F057FE154801F024FB144B00226F
:100CEC001A7083F8902001F0DFF9114C214611485D
:100CFC0001F0D1F904F190010F4801F0CCF9A56D88
:100D0C00D4F8E800FFF740FD04B22846FFF73CFD9D
:100D1C0000230093224601B2044801F01FFA02207E
:100D2C0000F0BAF8E1E700BF0018024058040020B8
:100D3C008804002000A00C4600A00CC682B0002144
:100D4C0000910B4B5A6C42F480425A645A6C02F478
:100D5C0080420092009A01911A6C42F080521A64FF
:100D6C001B6C03F080530193019B02B0704700BFD2
:100D7C0000380240FEE7FEE7FEE7FEE7FEE77047BD
:100D8C007047704708B500F075F808BD08B5024803
:100D9C0000F068FB08BD00BF58040020704700003D
:100DAC00DFF834D00D480E490E4A002302E0D45827
:100DBC00C4500433C4188C42F9D30B4A0B4C002397
:100DCC0001E013600432A242FBD3FFF7E7FF01F00E
:100DDC007BFBFFF769FF7047000003200000002039
:100DEC003C040020E02600083C04002014090020EC
:100DFC00FEE7000010B504460E4B18784FF47A73DA
:100E0C00B3FBF0F30C4A1068B0FBF3F000F0A8FC55
:100E1C0068B90F2C01D901200AE0002221464FF0BD
:100E2C00FF3000F057FC054B1C60002000E0012057
:100E3C0010BD00BF040000200000002008000020AE
:100E4C0008B50B4B1A6842F400721A601A6842F427
:100E5C0080621A601A6842F480721A60032000F0F3
:100E6C0027FC0F20FFF7C6FFFFF768FF002008BD27
:100E7C00003C0240034A1168034B1B780B4413607F
:100E8C00704700BF8004002004000020014B18684C
:100E9C00704700BF8004002038B50446FFF7F6FF0A
:100EAC000546B4F1FF3F02D0044B1B781C44FFF7FE
:100EBC00EDFF401BA042FAD338BD00BF0400002058
:100ECC00002800F0A18038B5044690F82030D3B14A
:100EDC002268136843F001031360FFF7D7FF054640
:100EEC0023685A6812F0010F10D1FFF7CFFF401B97
:100EFC000A28F5D9636A43F400336362052384F846
:100F0C002030012038BDFFF705FEE1E71A6822F01A
:100F1C0002021A60FFF7BAFF054623685A6812F0FE
:100F2C00020F0DD0FFF7B2FF401B0A28F5D9636AF8
:100F3C0043F400336362052384F820300120E1E799
:100F4C00227E012A3DD01A6822F080021A60637E4C
:100F5C00012B3BD02268136823F040031360A37E5F
:100F6C00012B39D02268136823F020031360E37E31
:100F7C00012B37D02268136843F010031360237FD2
:100F8C00012B35D02268136823F008031360637FAC
:100F9C00012B33D02268136823F004031360A36879
:100FAC00E268134322691343626913436268013A8E
:100FBC0021681343CB6100206062012384F8203048
:100FCC00A0E71A6842F080021A60C0E72268136832
:100FDC0043F040031360C2E72268136843F0200318
:100FEC001360C4E72268136823F010031360C6E78C
:100FFC002268136843F008031360C8E7226813687B
:10100C0043F004031360CAE70120704790F82030C6
:10101C00013BDBB2012B05D9436A43F480234362C5
:10102C000120704710B5474BD3F8002242F0010263
:10103C00C3F80022D3F8002222F47C52C3F8002219
:10104C00D3F80022486A42EA0022C3F800224A6917
:10105C0002F01F02012000FA02F2D3F81C026FEA20
:10106C00020C20EA0200C3F81C02CB69CBB9354B49
:10107C00D3F80C020CEA0000C3F80C028C88486907
:10108C00D1F80CE044EA0E44483043F830408C6808
:10109C00088840EA04404C6904F1480E03EBCE0387
:1010AC005860CB69012B1ED08B69002B35D125489C
:1010BC00D0F804320CEA0303C0F804320B699BBB72
:1010CC002048D0F814320CEA0303C0F814320B6A2F
:1010DC00012B30D01B4AD2F8003223F00103C2F8A6
:1010EC000032002010BD174BD3F80C021043C3F88C
:1010FC000C028C884869D1F800E044EA0E44483070
:10110C0043F8304088894C69D1F808E040EA0E4039
:10111C00483403EBC4035860C6E70A48D0F80432DD
:10112C001343C0F80432C9E70648D0F8143213430D
:10113C00C0F81432CBE70349D1F81C321A43C1F87A
:10114C001C22C7E70064004070B5044690F820509C
:10115C00EDB2012D06D0436A43F40023436201250E
:10116C00284670BD022380F820300268136823F0F3
:10117C0001031360FFF78AFE064623685B6813F0D1
:10118C00010F0CD0FFF782FE831B0A2BF5D9636A83
:10119C0043F400336362052384F82030E0E7002534
:1011AC006562DDE730B590F820C00468A4680CF1E6
:1011BC00FF3C5FFA8CFCBCF1010F6BD814F0E05FC4
:1011CC0062D0C4F3016CBCF1020F05D9436A43F43D
:1011DC0000034362012062E0012404FA0CF41C6059
:1011EC008B68002B3DD10D68CB68046843EA4555EC
:1011FC000CF118031B01E55003680C690CF1180E77
:10120C0003EB0E135C600B7D012B35D0D1799379F8
:10121C001B0443EA0163517943EA01231479016801
:10122C00234301EB0C11C1F88C31D17893781B045A
:10123C0043EA0163517843EA0123117802680B43B6
:10124C0002EB0C12C2F8883102680CF1180C4FEA50
:10125C000C1C52F80C3043F0010342F80C30002007
:10126C001DE04C6843EAC403CC6823430CF118041A
:10127C00240105682B51BFE7036803EB0E13596873
:10128C0041F480715960C1E7436A43F4001343622F
:10129C00012004E0436A43F480234362012030BD03
:1012AC0090F82030013BDBB2012B01D900207047B4
:1012BC000368986810F0806000D001209A6812F0E2
:1012CC00006F00D001309B6813F0805FEFD00130CD
:1012DC00704790F820C00CF1FF3C5FFA8CFCBCF11D
:1012EC00010F00F29B8010B451B90468E46814F04B
:1012FC00030F10D1436A43F40013436201207BE0D7
:10130C000468246914F0030F05D1436A43F40013F5
:10131C004362012070E001F11B042401D0F800C0ED
:10132C005CF8044004F004049460002C66D101F1D4
:10133C001B042401D0F800C05CF80440640D146058
:10134C00046801F11B0C4FEA0C1C54F80C4004F01F
:10135C000204D46004686444646804F00F041461EB
:10136C00046864446468C4F30724946104686444A6
:10137C006468240C5461026802EB0112D2F8B821A3
:10138C001A70026802EB0112D2F8B821C2F30722DC
:10139C005A70026802EB0112D2F8B821C2F307426C
:1013AC009A70026802EB0112D2F8B821120EDA70B0
:1013BC00026802EB0112D2F8BC211A71026802EB2E
:1013CC000112D2F8BC21C2F307225A71026802EB57
:1013DC000112D2F8BC21C2F307429A71026802EBE7
:1013EC000112D2F8BC21120EDA7189B90268D368E5
:1013FC0043F02003D360002010BC704701F11B04A4
:10140C002401D0F800C05CF80440E408546097E76D
:10141C000268136943F020031361ECE7436A43F459
:10142C00802343620120704790F82030013BDBB2EF
:10143C00012B05D9436A43F4802343620120704792
:10144C000268536919435161002070477047704717
:10145C0070477047704770477047704770477047C8
:10146C00704770472DE9F84F054603685C69D3F85F
:10147C0004809F68D3F80CB0D3F810A0D3F8189060
:10148C0014F001063BD017F0010616D001229A6029
:10149C0017F0020F08D117F0040F0CD117F0080643
:1014AC0006D04FF4805608E0FFF7D0FF002604E08A
:1014BC00FFF7CFFF01E04FF4006617F4807F0DD0EB
:1014CC002B684FF480729A6017F4007F40F086808E
:1014DC0017F4806F00F0868046F4005617F4803FB6
:1014EC000DD02B684FF480329A6017F4003F40F017
:1014FC00838017F4802F00F0838046F4004614F0AC
:10150C00080F07D01BF0100F04D046F400762B68A0
:10151C001022DA6014F0040F02D01BF0080F79D1FE
:10152C0014F0020F04D02B68DB6813F0030F78D192
:10153C0014F0400F07D01AF0100F04D046F4806658
:10154C002B6810221A6114F0200F02D01AF0080F29
:10155C006BD114F0100F04D02B681B6913F0030F20
:10156C006AD114F4003F02D018F0100F68D114F4B3
:10157C00803F02D018F0080F69D114F4004F7AD0D4
:10158C0018F0040F74D014F4807F04D019F0010FFC
:10159C0001D046F0010614F4007F04D019F0020FBC
:1015AC0001D046F0020614F4806F04D019F0040F39
:1015BC0001D046F0040614F4006F59D019F07009EC
:1015CC0056D0B9F1400F65D058D8B9F1200F5ED084
:1015DC00B9F1300F42D146F0200644E02846FFF71F
:1015EC0036FF7BE717F4006F02D046F4804675E7B0
:1015FC002846FFF72FFF71E72846FFF729FF7EE704
:10160C0017F4002F02D046F4803678E72846FFF70F
:10161C0022FF74E72B680822DA602846FFF71CFFCC
:10162C007EE7284600F0BAFE82E72B6808221A6192
:10163C002846FFF713FF8CE72846FFF70EFF90E7CD
:10164C002B6810225A602846FFF709FF8FE72B689A
:10165C0008225A602846FFF703FF8EE7B9F1100FF6
:10166C0001D146F008062A68936923F07003936150
:10167C002B6804225A609EB9BDE8F88FB9F1500F5F
:10168C000BD0B9F1600FEED146F48076EBE746F063
:10169C001006E8E746F04006E5E746F08006E2E78C
:1016AC006B6A1E436E622846FFF7DBFEE4E7000020
:1016BC00074AD36823F4E0631B041B0C000200F4FC
:1016CC00E060034343F0BF6343F40033D3607047DF
:1016DC0000ED00E000B5194BDB68C3F30223C3F146
:1016EC00070CBCF1040F28BF4FF0040C03F1040EDF
:1016FC00BEF1060F18D9033B4FF0FF3E0EFA0CFC5F
:10170C0021EA0C0199400EFA03F322EA0303194370
:10171C0000280BDB0901C9B200F1604000F5614003
:10172C0080F800135DF804FB0023E5E700F00F00E0
:10173C000901C9B2024B1954F4E700BF00ED00E0F7
:10174C0014ED00E0002807DB00F01F024009012324
:10175C009340024A42F82030704700BF00E100E09D
:10176C000138B0F1807F0BD24FF0E0235861054A6D
:10177C00F02182F823100020986107221A6170472B
:10178C000120704700ED00E000230F2B00F2F180E8
:10179C0070B582B061E085685E000324B44025EA30
:1017AC000405CC68B4402C438460456825EA0205E6
:1017BC004C68C4F300129A402A4342605BE0DC0898
:1017CC00083450F8246003F0070295000F22AA4059
:1017DC0026EA020E0A69AA4042EA0E0240F82420C8
:1017EC005DE0092200E0002202FA0EF22A430234E4
:1017FC00604D45F82420604A94686FEA0C0224EA94
:10180C000C054E6816F4801F01D04CEA04055A4CA6
:10181C00A560E46802EA04054E6816F4001F01D0C6
:10182C004CEA0405544CE560646802EA04054E6811
:10183C0016F4003F01D04CEA04054F4C6560246857
:10184C0022404D6815F4803F01D04CEA04024A4C0A
:10185C00226001330F2B00F28A8001229A400C681F
:10186C0004EA020C32EA0404F3D14C6804F00304D9
:10187C00013C012C8FD94A6802F00302032A09D0DB
:10188C00C4685D000322AA4024EA02048A68AA40C4
:10189C002243C2604A6802F00302022A8FD0046815
:1018AC004FEA430E032202FA0EF224EA02044A68BB
:1018BC0002F0030202FA0EF2224302604A6812F4AA
:1018CC00403FC6D0002201922C4A546C44F4804410
:1018DC005464526C02F480420192019A9C08A51C3B
:1018EC00244A52F8255003F003024FEA820E0F22CD
:1018FC0002FA0EF225EA0205214A90423FF473AF38
:10190C0002F58062904222D002F58062904220D093
:10191C0002F5806290421ED002F5806290421CD08B
:10192C0002F5806290421AD002F58062904218D083
:10193C0002F58062904216D002F58062904214D07B
:10194C0002F5806290423FF44CAF0A224CE7012230
:10195C004AE7022248E7032246E7042244E705222D
:10196C0042E7062240E707223EE708223CE702B0A6
:10197C0070BD704700380140003C01400038024007
:10198C00000002400AB1816170470904816170470F
:10199C0010B582B000230193194B1A6C42F080529F
:1019AC001A641B6C03F080530193019B154B0122AD
:1019BC001A64FFF76BFA0446134B5B6813F4803F11
:1019CC0008D1FFF763FA001BB0F57A7FF4D9032036
:1019DC0002B010BD0B4B01225A64FFF757FA0446B4
:1019EC00094B5B6813F4003F07D1FFF74FFA001B5C
:1019FC00B0F57A7FF4D90320EAE70020E8E700BFCE
:101A0C000038024000000E4200700040002800F038
:101A1C00E08170B582B00446036813F0010F3BD02F
:101A2C009F4B9B6803F00C03042B2CD09C4B9B68A6
:101A3C0003F00C03082B21D06368B3F5803F4FD023
:101A4C00B3F5A02F52D0964B1A6822F480321A604C
:101A5C001A6822F480221A606368002B50D0FFF7BA
:101A6C0015FA05468E4B1B6813F4003F14D1FFF793
:101A7C000DFA401B6428F5D90320B1E1884B5B6853
:101A8C0013F4800FD8D0864B1B6813F4003F03D09F
:101A9C006368002B00F09F81236813F0020F54D071
:101AAC007F4B9B6813F00C0F3ED07D4B9B6803F073
:101ABC000C03082B33D0E368002B68D0794B012240
:101ACC001A60FFF7E3F90546754B1B6813F0020F1C
:101ADC0054D1FFF7DBF9401B0228F5D903207FE135
:101AEC006F4A136843F480331360B5E76C4B1A6884
:101AFC0042F480221A601A6842F480321A60ABE712
:101B0C00FFF7C4F90546664B1B6813F4003FC3D0BE
:101B1C00FFF7BCF9401B6428F5D9032060E1604B4A
:101B2C005B6813F4800FC6D15D4B1B6813F0020F7A
:101B3C0003D0E368012B40F05081594A136823F01D
:101B4C00F803216943EAC1031360236813F0080FFB
:101B5C0042D063696BB3534B0122C3F8802EFFF75D
:101B6C0095F905464E4B5B6F13F0020F34D1FFF71E
:101B7C008DF9401B0228F5D9032031E1484A13683E
:101B8C0023F0F803216943EAC1031360DDE7454BF9
:101B9C0000221A60FFF77AF90546414B1B6813F0D7
:101BAC00020FD2D0FFF772F9401B0228F5D903209F
:101BBC0016E13C4B0022C3F8802EFFF767F905466F
:101BCC00374B5B6F13F0020F06D0FFF75FF9401B2A
:101BDC000228F5D9032003E1236813F0040F77D012
:101BEC002F4B1B6C13F0805F33D1002301932C4BD4
:101BFC001A6C42F080521A641B6C03F080530193F0
:101C0C00019B0125284B1B6813F4807F23D0A3680C
:101C1C00012B34D0052B38D0214B1A6F22F0010246
:101C2C001A671A6F22F004021A67A368002B3DD0C2
:101C3C00FFF72CF906461A4B1B6F13F0020F46D117
:101C4C00FFF724F9801B41F288339842F3D9032023
:101C5C00C6E00025D6E7144A136843F4807313607A
:101C6C00FFF714F90646104B1B6813F4807FCED196
:101C7C00FFF70CF9801B0228F5D90320B0E0084AC5
:101C8C00136F43F001031367CFE7054B1A6F42F054
:101C9C0004021A671A6F42F001021A67C5E700BF07
:101CAC00003802400000474200700040FFF7EEF899
:101CBC000646524B1B6F13F0020F08D0FFF7E6F8E5
:101CCC00801B41F288339842F3D9032088E0EDB9A8
:101CDC00A369002B00F08380484A926802F00C0242
:101CEC00082A51D0022B17D0454B00221A66FFF759
:101CFC00CDF80446414B1B6813F0007F42D0FFF730
:101D0C00C5F8001B0228F5D9032069E03B4A136C87
:101D1C0023F080531364DBE7394B00221A66FFF77C
:101D2C00B5F80546354B1B6813F0007F06D0FFF75E
:101D3C00ADF8401B0228F5D9032051E0E369226A73
:101D4C001343626A43EA8213A26A5208013A43EAD5
:101D5C000243E26A43EA0263284A5360284B012299
:101D6C001A66FFF793F80446244B1B6813F0007FA8
:101D7C0006D1FFF78BF8001B0228F5D903202FE0C2
:101D8C0000202DE000202BE0012B2BD01B4B5B689F
:101D9C0003F48001E269914226D103F03F02216AEB
:101DAC008A4223D1616A47F6C0721A40B2EB811F96
:101DBC001ED103F44031A26A5208013AB1EB024F32
:101DCC0018D103F07063E26AB3EB026F14D10020F8
:101DDC0006E001207047012002E0012000E0002015
:101DEC0002B070BD0120FBE70120F9E70120F7E705
:101DFC000120F5E70120F3E70120F1E7003802406C
:101E0C000000474208B5254B9B6803F00C03042BDC
:101E1C003FD0082B3FD1214B5A6802F03F025B6840
:101E2C0013F4800F12D01D4B5968C1F388111C4854
:101E3C000023A1FB0001FEF7CDFC184B5B68C3F33C
:101E4C00014301335B00B0FBF3F025E0134B596801
:101E5C00C1F3881C4FEA4C11B1EB0C006EEB0E0E6B
:101E6C004FEA8E1343EA90638101091A63EB0E0368
:101E7C00DB0043EA5173C90011EB0C0C43F1000376
:101E8C00990200234FEA8C2041EA9C51FEF7A2FCF8
:101E9C00D3E7034800E0034808BD00BF0038024008
:101EAC00001BB7000024F400002800F09B8070B5E4
:101EBC000D4604464F4B1B6803F00F038B4208D2B0
:101ECC00CBB24C4A1370136803F00F038B4240F0F3
:101EDC008B80236813F0020F17D013F0040F04D07B
:101EEC00454A936843F4E0539360236813F0080F5A
:101EFC0004D0414A936843F4604393603E4A93682C
:101F0C0023F0F003A1680B439360236813F0010FD7
:101F1C0032D06368012B21D09A1E012A25D9364A6A
:101F2C00126812F0020F61D033498A6822F0030262
:101F3C0013438B60FEF7AAFF06462F4B9B6803F0FA
:101F4C000C036268B3EB820F16D0FEF79FFF801B69
:101F5C0041F288339842F0D9032042E0264A1268B5
:101F6C0012F4003FE0D101203BE0234A126812F04A
:101F7C00007FD9D1012034E01E4B1B6803F00F0306
:101F8C00AB4207D9EAB21B4B1A701B6803F00F0364
:101F9C00AB422DD1236813F0040F06D0164A936878
:101FAC0023F4E053E1680B439360236813F0080FAC
:101FBC0007D0114A936823F46043216943EAC103B3
:101FCC009360FFF71FFF0C4B9B68C3F303130B4A83
:101FDC00D35CD8400A4B18600A4B1868FEF70AFF0E
:101FEC00002070BD012070470120FAE70120F8E7BE
:101FFC000120F6E7003C024000380240B8260008F9
:10200C0000000020080000202DE9F0410446C168C2
:10201C000069FEF7E9F8054660612768E669314614
:10202C00FEF7E2F801463846FEF7E8F90746616824
:10203C002846FEF7E3F901463846FEF7D7F807467F
:10204C00D4F8088031463046FEF7D0F801462846D1
:10205C00FEF7CAF8A169FEF7C9F801464046FEF73B
:10206C00CDF901463846FEF7C1F8216AFEF7BEF8F5
:10207C002062A661E561656A2946FEF77BFB00B12B
:10208C00256205F100452946206AFEF755FB00B193
:10209C002562BDE8F08108B58864CB684B6401F11A
:1020AC003800FFF7B1FF08BD00220AE0012B37D042
:1020BC0002EBC20319011F4B0B444FF08C415963C7
:1020CC000132072A34DC1B4802EBC2031901431806
:1020DC00DFF864C0C3F838C0DFF860C0C3F83CC098
:1020EC00DFF85CC0C3F840C0DFF858C0C3F85CC070
:1020FC00DFF854C0C3F864C0DFF850C0C3F868C040
:10210C004FF0814CC3F86CC0DFF844C0C3F888C0F2
:10211C00435C002BCAD103460B440E491963C7E735
:10212C0002EBC2031901034B0B440B491963BFE7C4
:10213C00704700BF8804002000004041CDCC4C3ECD
:10214C000000A04000A00C460000A0423333333FF7
:10215C0000409C452CA099410000104210B588B05D
:10216C000446BDF928C0082006904FF40070029078
:10217C00002004900590C1F307208DF800008DF825
:10218C000110C2F307218DF802108DF80320C3F360
:10219C0007228DF804208DF805309DF929308DF833
:1021AC0006308DF807C02046FFF77AF80028FAD0E1
:1021BC00054B6A4602A92046FEF7F4FF08B908B0A1
:1021CC0010BDFEF715FDFAE7840400202DE9F84355
:1021DC0004460D4608784B7843EA0020FEF7BAF81F
:1021EC002F49FEF70BF9616BFEF7BCF90646A060B0
:1021FC00AB78E87840EA032000B2FEF7ABF807466C
:10220C00E0602B79687940EA032000B2FEF7A2F86F
:10221C002061E169A161E6613046FDF7E5FF054605
:10222C002049FEF7A7FA002830D0636A013B6362AD
:10223C00D4F824904846FEF78DF81949FEF7DEF8DD
:10224C000546A062D4F8208041463046FDF7CCFF0D
:10225C0001462846FDF7CAFFA062256B2946FEF70A
:10226C0081F9A06229463846FEF77CF9E0624FF40A
:10227C00B47000FB09F0FEF76DF83146FDF7B6FFC0
:10228C004146FDF7B1FF6061BDE8F8830649284679
:10229C00FEF752FA0028CBD0636A01336362C7E7BA
:1022AC000000B44300003443000034C310B50446AE
:1022BC0008784B7843EA0020FEF74CF80549FEF706
:1022CC009DF8616BFEF74EF9A060A061E0612062A1
:1022DC0010BD00BF0000B443F8B5A0F20124072CD8
:1022EC0001D90120F8BD04EBC4030D4A02EB031322
:1022FC005B68312B0BDC04EBC40602EB0616304694
:10230C00FFF7D4FF7368013373600020EAE704EB36
:10231C00C404034800EB0410FFF758FFF5E700BFB7
:10232C008804002010B58AB0044600230593069358
:10233C000122079200930193029303930493089252
:10234C000E2309936946FEF761FE58B92046FEF745
:10235C00FBFE50B902212046FFF766F840B9002079
:10236C000AB010BDFEF744FCF0E7FEF741FCF1E7C4
:10237C00FEF73EFCF3E7000084B008B50DF1080C45
:10238C008CE80F001AB1BDE8084004B07047024950
:10239C00FFF7A2FFF7E700BF0809002002680E4B09
:1023AC001B689A4200D0704700B58DB00B4B05AA44
:1023BC000021FEF78EFF58B90CAB13E907008DE82E
:1023CC00070005AB0FCBFFF7D7FF0DB05DF804FB93
:1023DC00FEF70EFCF0E700BF5804002008090020AF
:1023EC0070B586B000230093354A116B41F0400163
:1023FC001163126B02F040020092009A02260196C1
:10240C0001250295049303932E4C01A92046FFF756
:10241C00BBF92A4631462046FFF7B4FA042601964A
:10242C000DEB06012046FFF7AFF92A463146204650
:10243C00FFF7A8FA0826019601A92046FFF7A4F990
:10244C002A4631462046FFF79DFA1026019601A92F
:10245C002046FFF799F92A4631462046FFF792FAB3
:10246C002026019601A92046FFF78EF92A4631460F
:10247C002046FFF787FA4026019601A92046FFF770
:10248C0083F92A4631462046FFF77CFA80260196CE
:10249C0001A92046FFF778F92A4631462046FFF776
:1024AC0071FA4FF48076019601A92046FFF76CF97A
:1024BC002A4631462046FFF765FA06B070BD00BFCC
:1024CC00003802400018024070B50D4E0D4D761BC1
:1024DC00B61006D0002455F8043B01349847A642A8
:1024EC00F9D1094E094D761B00F0D4F8B61006D080
:1024FC00002455F8043B01349847A642F9D170BD2D
:10250C00D4260008D4260008DC260008D4260008AF
:10251C00830730B548D0541E002A3FD0CAB20346B8
:10252C0001E0013C3AD303F8012B9D07F9D1032CB0
:10253C002DD9CDB245EA05250F2C45EA054536D9EE
:10254C00A4F1100222F00F0C03F1200EE6444FEA26
:10255C00121C03F1100242E9045542E902551032F3
:10256C007245F8D10CF1010214F00C0F03EB0212BE
:10257C0004F00F0C13D0ACF1040323F00303043369
:10258C00134442F8045B9342FBD10CF003042CB1CE
:10259C00CAB21C4403F8012B9C42FBD130BD6446EB
:1025AC001346002CF4D1F9E703461446BFE71A464C
:1025BC00A446E0E7024B13B1024800F005B870479F
:1025CC0000000000E1250008002301461A461846C9
:1025DC0000F01AB838B5084B084D5B1B9C1007D09F
:1025EC00043B1D44013C55F804399847002CF9D1A3
:1025FC00BDE8384000F054B8E0260008DC2600089E
:10260C00704700BF704700BF2DE9F047DFF87CA092
:10261C000646DAF8000098460F469146FFF7F0FFA1
:10262C001B4B1B68D3F8484124B365681F2D26DC6F
:10263C005EB96B1C0235DAF80000636044F8257053
:10264C00FFF7E0FF0020BDE8F08704EB85010123D4
:10265C00C1F88890D4F88821AB401A43022EC4F8F4
:10266C008821C1F80881E4D1D4F88C211343C4F833
:10267C008C31DEE703F5A674C3F84841D5E7DAF8E8
:10268C000000FFF7BFFF4FF0FF30DCE738040020FD
:10269C00C8260008F8B500BFF8BC08BC9E467047B9
:0C26AC00F8B500BFF8BC08BC9E467047A3
:1026B80000000000000000000102030406070809EA
:0426C80010000020DE
:0826CC0044E1FF7F0100000062
:0826D400C1250008D101000836
:0426DC00AD01000844
:1026E0000024F400010000001000000000000000C1
:1026F00000000000FC02002064030020CC03002046
:1027000000000000000000000000000000000000C9
:1027100000000000000000000000000000000000B9
:1027200000000000000000000000000000000000A9
:102730000000000000000000000000000000000099
:102740000000000000000000000000000000000089
:102750000000000000000000000000000000000079
:102760000000000000000000000000000000000069
:102770000000000000000000000000000000000059
:102780000000000000000000000000000000000049
:102790000000000000000000010000000000000038
:1027A0000E33CDAB34126DE6ECDE05000B000000FD
:1027B0000000000000000000000000000000000019
:1027C0000000000000000000000000000000000009
:1027D00000000000000000000000000000000000F9
:1027E00000000000000000000000000000000000E9
:0C2B100000000000000000001009002080
:0400000508000DAD35
:00000001FF
