:020000040800F2
:1000000000000220F52C0008A51F0008A71F00080B
:10001000A91F0008AB1F0008AD1F0008000000006A
:10002000000000000000000000000000AF1F0008FA
:10003000B11F000800000000B31F0008B51F000832
:10004000452D0008452D0008452D0008452D0008C8
:10005000452D0008452D0008452D0008452D0008B8
:10006000452D0008452D0008452D0008452D0008A8
:10007000452D0008452D0008452D0008452D000898
:10008000BD1F0008CD1F0008452D0008452D0008A4
:10009000452D0008452D0008452D0008452D000878
:1000A000452D0008452D0008452D0008452D000868
:1000B000452D0008452D0008452D0008452D000858
:1000C000452D0008452D0008452D0008452D000848
:1000D000452D0008452D0008DD1F00083D200008C3
:1000E000452D0008452D0008452D0008452D000828
:1000F000452D00084D200008452D0008452D00081D
:10010000452D0008452D0008452D0008452D000807
:100110005D200008452D00086D2000087D200008A6
:10012000452D0008452D0008452D0008452D0008E7
:10013000452D0008452D0008452D0008452D0008D7
:10014000452D0008452D0008452D0008452D0008C7
:10015000452D0008452D0008452D0008452D0008B7
:10016000452D0008452D0008452D0008452D0008A7
:10017000452D0008452D0008452D00080000000011
:08018000452D0008452D000883
:1001C00010B5054C237833B9044B13B10448AFF391
:1001D00000800123237010BDF809002000000000FA
:1001E000A0CF000808B5034B1BB103490348AFF388
:1001F000008008BD00000000FC090020A0CF00081E
:1002000081F0004102E000BF83F0004330B54FEAC7
:1002100041044FEA430594EA050F08BF90EA020F34
:100220001FBF54EA000C55EA020C7FEA645C7FEAC7
:10023000655C00F0E2804FEA5454D4EB5555B8BFEA
:100240006D420CDD2C4480EA020281EA030382EA5B
:10025000000083EA010180EA020281EA0303362DED
:1002600088BF30BD11F0004F4FEA01314FF4801CC0
:100270004CEA113102D0404261EB410113F0004FD2
:100280004FEA03334CEA133302D0524263EB430389
:1002900094EA050F00F0A780A4F10104D5F1200E27
:1002A0000DDB02FA0EFC22FA05F2801841F1000182
:1002B00003FA0EF2801843FA05F359410EE0A5F156
:1002C00020050EF1200E012A03FA0EFC28BF4CF087
:1002D000020C43FA05F3C01851EBE37101F000453D
:1002E00007D54FF0000EDCF1000C7EEB00006EEB4A
:1002F0000101B1F5801F1BD3B1F5001F0CD34908D4
:100300005FEA30004FEA3C0C04F101044FEA44522A
:1003100012F5800F80F09A80BCF1004F08BF5FEAB1
:10032000500C50F1000041EB045141EA050130BD91
:100330005FEA4C0C404141EB0101013C28BFB1F5A3
:10034000801FE9D291F0000F04BF01460020B1FAEE
:1003500081F308BF2033A3F10B03B3F120020CDAC1
:100360000C3208DD02F1140CC2F10C0201FA0CF09F
:1003700021FA02F10CE002F11402D8BFC2F1200C04
:1003800001FA02F120FA0CFCDCBF41EA0C019040BA
:10039000E41AA2BF01EB0451294330BD6FEA040403
:1003A0001F3C1CDA0C340EDC04F11404C4F12002EE
:1003B00020FA04F001FA02F340EA030021FA04F300
:1003C00045EA030130BDC4F10C04C4F1200220FA57
:1003D00002F001FA04F340EA0300294630BD21FA95
:1003E00004F0294630BD94F0000F83F4801306BF5B
:1003F00081F480110134013D4EE77FEA645C18BF4F
:100400007FEA655C29D094EA050F08BF90EA020FE5
:1004100005D054EA000C04BF1946104630BD91EADD
:10042000030F1EBF0021002030BD5FEA545C05D1E0
:100430004000494128BF41F0004130BD14F580041F
:100440003CBF01F5801130BD01F0004545F0FE4193
:1004500041F470014FF0000030BD7FEA645C1ABFC8
:10046000194610467FEA655C1CBF0B46024650EAFF
:10047000013406BF52EA033591EA030F41F400212B
:1004800030BD00BF90F0000F04BF0021704730B5B1
:100490004FF4806404F132044FF000054FF0000186
:1004A00050E700BF90F0000F04BF0021704730B547
:1004B0004FF4806404F1320410F0004548BF40421C
:1004C0004FF000013EE700BF42004FEAE2014FEA71
:1004D00031014FEA02701FBF12F07F4393F07F4F4C
:1004E00081F06051704732F07F4208BF704793F04F
:1004F0007F4F04BF41F40021704730B54FF4607462
:1005000001F0004521F000411CE700BF50EA010264
:1005100008BF704730B54FF000050AE050EA01020D
:1005200008BF704730B511F0004502D5404261EB7D
:1005300041014FF4806404F132045FEA915C3FF4BE
:10054000D8AE4FF003025FEADC0C18BF03325FEA5B
:10055000DC0C18BF033202EBDC02C2F1200300FA0C
:1005600003FC20FA02F001FA03FE40EA0E0021FA31
:1005700002F11444BDE600BF70B54FF0FF0C4CF41F
:10058000E06C1CEA11541DBF1CEA135594EA0C0FD1
:1005900095EA0C0F00F0DEF82C4481EA030621EA0C
:1005A0004C5123EA4C5350EA013518BF52EA033547
:1005B00041F4801143F4801338D0A0FB02CE4FF0F9
:1005C0000005E1FB02E506F00042E0FB03E54FF029
:1005D0000006E1FB03569CF0000F18BF4EF0010E21
:1005E000A4F1FF04B6F5007F64F5407404D25FEA1D
:1005F0004E0E6D4146EB060642EAC62141EA5551D0
:100600004FEAC52040EA5E504FEACE2EB4F1FD0C11
:1006100088BFBCF5E06F1ED8BEF1004F08BF5FEA8F
:10062000500E50F1000041EB045170BD06F0004641
:1006300046EA010140EA020081EA0301B4EB5C04EE
:10064000C2BFD4EB0C0541EA045170BD41F48011E6
:100650004FF0000E013C00F3AB8014F1360FDEBF0B
:10066000002001F0004170BDC4F10004203C35DAE7
:100670000C341BDC04F11404C4F1200500FA05F36A
:1006800020FA04F001FA05F240EA020001F000420B
:1006900021F0004110EBD37021FA04F642EB060181
:1006A0005EEA430E08BF20EAD37070BDC4F10C04AB
:1006B000C4F1200500FA04F320FA05F001FA04F26F
:1006C00040EA020001F0004110EBD37041F100015B
:1006D0005EEA430E08BF20EAD37070BDC4F1200566
:1006E00000FA05F24EEA020E20FA04F301FA05F2CE
:1006F00043EA020321FA04F001F0004121FA04F276
:1007000020EA020000EBD3705EEA430E08BF20EA45
:10071000D37070BD94F0000F0FD101F0004640007F
:1007200041EB010111F4801F08BF013CF7D041EA01
:10073000060195F0000F18BF704703F00046520005
:1007400043EB030313F4801F08BF013DF7D043EAD6
:100750000603704794EA0C0F0CEA135518BF95EA8C
:100760000C0F0CD050EA410618BF52EA4306D1D113
:1007700081EA030101F000414FF0000070BD50EA32
:10078000410606BF1046194652EA430619D094EABC
:100790000C0F02D150EA013613D195EA0C0F05D1A6
:1007A00052EA03361CBF104619460AD181EA0301FA
:1007B00001F0004141F0FE4141F470014FF00000B2
:1007C00070BD41F0FE4141F4780170BD70B54FF04D
:1007D000FF0C4CF4E06C1CEA11541DBF1CEA1355CD
:1007E00094EA0C0F95EA0C0F00F0A7F8A4EB0504AF
:1007F00081EA030E52EA03354FEA013100F08880A6
:100800004FEA03334FF0805545EA131343EA12636E
:100810004FEA022245EA111545EA10654FEA002623
:100820000EF000419D4208BF964244F1FD0404F5DC
:10083000407402D25B084FEA3202B61A65EB030538
:100840005B084FEA32024FF480104FF4002CB6EBF5
:10085000020E75EB030E22BFB61A754640EA0C0075
:100860005B084FEA3202B6EB020E75EB030E22BFB5
:10087000B61A754640EA5C005B084FEA3202B6EBF6
:10088000020E75EB030E22BFB61A754640EA9C00B5
:100890005B084FEA3202B6EB020E75EB030E22BF85
:1008A000B61A754640EADC0055EA060E18D04FEA43
:1008B000051545EA16754FEA06164FEAC30343EAE3
:1008C00052734FEAC2025FEA1C1CC0D111F4801FB0
:1008D0000BD141EA00014FF000004FF0004CB6E7A9
:1008E00011F4801F04BF01430020B4F1FD0C88BF48
:1008F000BCF5E06F3FF6AFAEB5EB030C04BFB6EB53
:10090000020C5FEA500C50F1000041EB045170BD45
:100910000EF0004E4EEA113114EB5C04C2BFD4EB72
:100920000C0541EA045170BD41F480114FF0000EF6
:10093000013C90E645EA060E8DE60CEA135594EA72
:100940000C0F08BF95EA0C0F3FF43BAF94EA0C0F75
:100950000AD150EA01347FF434AF95EA0C0F7FF4EA
:1009600025AF104619462CE795EA0C0F06D152EA3E
:1009700003353FF4FDAE1046194622E750EA410622
:1009800018BF52EA43067FF4C5AE50EA41047FF433
:100990000DAF52EA43057FF4EBAE12E74FEA410296
:1009A000B2F1E04324BFB3F5001CDCF1FE5C0DD9CD
:1009B00001F0004C4FEAC0024CEA5070B2F1004F17
:1009C00040EB830008BF20F00100704711F0804F1A
:1009D00021D113F13872BCBF01F00040704741F4DF
:1009E00080114FEA5252C2F11802C2F1200C10FAE3
:1009F0000CF320FA02F018BF40F001004FEAC123C7
:100A00004FEAD32303FA0CFC40EA0C0023FA02F36A
:100A10004FEA4303CCE77FEA625307D150EA013340
:100A20001EBF4FF0FE4040F44000704701F0004010
:100A300040F0FE4040F40000704700BF80F00040EE
:100A400002E000BF81F0004142001FBF5FEA4103A6
:100A500092EA030F7FEA226C7FEA236C6AD04FEAA6
:100A60001262D2EB1363C1BFD218414048404140EB
:100A7000B8BF5B42192B88BF704710F0004F40F49D
:100A8000000020F07F4018BF404211F0004F41F4B9
:100A9000000121F07F4118BF494292EA030F3FD085
:100AA000A2F1010241FA03FC10EB0C00C3F1200398
:100AB00001FA03F100F0004302D5494260EB400027
:100AC000B0F5000F13D3B0F1807F06D340084FEA92
:100AD000310102F10102FE2A51D2B1F1004F40EB87
:100AE000C25008BF20F0010040EA030070474900EF
:100AF00040EB0000013A28BFB0F5000FEDD2B0FA8C
:100B000080FCACF1080CB2EB0C0200FA0CF0AABFAE
:100B100000EBC25052421843BCBFD040184370474C
:100B200092F0000F81F4000106BF80F40000013252
:100B3000013BB5E74FEA41037FEA226C18BF7FEA29
:100B4000236C21D092EA030F04D092F0000F08BF6B
:100B50000846704790EA010F1CBF0020704712F052
:100B60007F4F04D1400028BF40F00040704712F191
:100B700000723CBF00F50000704700F0004343F0F6
:100B8000FE4040F4000070477FEA226216BF08462C
:100B90007FEA23630146420206BF5FEA412390EAEF
:100BA000010F40F4800070474FF0000304E000BFE5
:100BB00010F0004348BF40425FEA000C08BF704796
:100BC00043F0964301464FF000001CE050EA01025A
:100BD00008BF70474FF000030AE000BF50EA01026F
:100BE00008BF704711F0004302D5404261EB41015C
:100BF0005FEA010C02BF84460146002043F0B64381
:100C000008BFA3F18053A3F50003BCFA8CF2083AA5
:100C1000A3EBC25310DB01FA02FC634400FA02FCAE
:100C2000C2F12002BCF1004F20FA02F243EB0200B5
:100C300008BF20F00100704702F1200201FA02FC17
:100C4000C2F1200250EA4C0021FA02F243EB02000A
:100C500008BF20EADC7070474FF0FF0C1CEAD0524E
:100C60001EBF1CEAD15392EA0C0F93EA0C0F6FD00F
:100C70001A4480EA010C400218BF5FEA41211ED0ED
:100C80004FF0006343EA501043EA5111A0FB0131D9
:100C90000CF00040B1F5000F3EBF490041EAD371AE
:100CA0005B0040EA010062F17F02FD2A1DD8B3F12A
:100CB000004F40EBC25008BF20F00100704790F099
:100CC000000F0CF0004C08BF49024CEA502040EAEB
:100CD00051207F3AC2BFD2F1FF0340EAC2507047B1
:100CE00040F400004FF00003013A5DDC12F1190FEF
:100CF000DCBF00F000407047C2F10002410021FA61
:100D000002F1C2F1200200FA02FC5FEA310040F178
:100D1000000053EA4C0308BF20EADC70704792F0F1
:100D2000000F00F0004C02BF400010F4000F013A29
:100D3000F9D040EA0C0093F0000F01F0004C02BF24
:100D4000490011F4000F013BF9D041EA0C018FE793
:100D50000CEAD15392EA0C0F18BF93EA0C0F0AD099
:100D600030F0004C18BF31F0004CD8D180EA0100BF
:100D700000F00040704790F0000F17BF90F0004F58
:100D8000084691F0000F91F0004F14D092EA0C0F3A
:100D900001D142020FD193EA0C0F03D14B0218BFCD
:100DA000084608D180EA010000F0004040F0FE4013
:100DB00040F40000704740F0FE4040F440007047AF
:100DC0004FF0FF0C1CEAD0521EBF1CEAD15392EA2E
:100DD0000C0F93EA0C0F69D0A2EB030280EA010C1E
:100DE00049024FEA402037D04FF0805343EA1111B7
:100DF00043EA10130CF000408B4238BF5B0042F115
:100E00007D024FF4000C8B4224BF5B1A40EA0C00B9
:100E1000B3EB510F24BFA3EB510340EA5C00B3EBEB
:100E2000910F24BFA3EB910340EA9C00B3EBD10FD9
:100E300024BFA3EBD10340EADC001B0118BF5FEA2B
:100E40001C1CE0D1FD2A3FF650AF8B4240EBC25054
:100E500008BF20F0010070470CF0004C4CEA502015
:100E60007F32C2BFD2F1FF0340EAC250704740F464
:100E700000004FF00003013A37E792F0000F00F056
:100E8000004C02BF400010F4000F013AF9D040EAD4
:100E90000C0093F0000F01F0004C02BF490011F468
:100EA000000F013BF9D041EA0C0195E70CEAD15360
:100EB00092EA0C0F08D142027FF47DAF93EA0C0F47
:100EC0007FF470AF084676E793EA0C0F04D14B022B
:100ED0003FF44CAF08466EE730F0004C18BF31F0DD
:100EE000004CCAD130F000427FF45CAF31F00043D7
:100EF0007FF43CAF5FE700BF4FF0FF3C06E000BF70
:100F00004FF0010C02E000BF4FF0010C4DF804CD92
:100F10004FEA40024FEA41037FEA226C18BF7FEAA2
:100F2000236C11D001B052EA530C18BF90EA010FA4
:100F300058BFB2EB030088BFC81738BF6FEAE17033
:100F400018BF40F0010070477FEA226C02D15FEACF
:100F5000402C05D17FEA236CE4D15FEA412CE1D03B
:100F60005DF8040B704700BF844608466146FFE702
:100F70000FB5FFF7C9FF002848BF10F1000F0FBDE4
:100F80004DF808EDFFF7F4FF0CBF012000205DF8DD
:100F900008FB00BF4DF808EDFFF7EAFF34BF012062
:100FA00000205DF808FB00BF4DF808EDFFF7E0FFFB
:100FB00094BF012000205DF808FB00BF4DF808ED4C
:100FC000FFF7D2FF94BF012000205DF808FB00BFAF
:100FD0004DF808EDFFF7C8FF34BF012000205DF891
:100FE00008FB00BF42000ED2B2F1FE4F0BD34FF010
:100FF0009E03B3EB126209D44FEA002343F000438F
:1010000023FA02F070474FF00000704712F1610FB1
:1010100001D1420202D14FF0FF3070474FF0000083
:10102000704700BF53B94AB9002908BF00281CBF48
:101030004FF0FF314FF0FF3000F074B9ADF1080C04
:101040006DE904CE00F006F8DDF804E0DDE90223E6
:1010500004B070472DE9F047089E0D4604468846C7
:10106000002B4DD18A42944668D9B2FA82F252B12D
:1010700001FA02F3C2F1200120FA01F10CFA02FC9C
:1010800041EA030894404FEA1C45210CB8FBF5FEE9
:101090001FFA8CF705FB1E8341EA03430EFB07F1A1
:1010A00099420BD91CEB03030EF1FF3080F01E8137
:1010B000994240F21B81AEF1020E63445B1AA4B266
:1010C000B3FBF5F005FB103344EA034400FB07F7DC
:1010D000A7420AD91CEB040400F1FF3380F0088119
:1010E000A74240F2058164440238E41B40EA0E4006
:1010F00000211EB1D4400023C6E90043BDE8F087BB
:101100008B4208D9002E00F0EE800021C6E90005D0
:101110000846BDE8F087B3FA83F100294AD1AB4213
:1011200002D3824200F2F980841A65EB03030120A6
:101130009846002EE2D0C6E90048DFE702B9FFDE9C
:10114000B2FA82F2002A40F09180A1EB0C054FEA3E
:101150001C471FFA8CFE0121B5FBF7F307FB135068
:10116000250C45EA00450EFB03F0A84208D91CEB0C
:10117000050503F1FF3802D2A84200F2CB804346B6
:101180002D1AA4B2B5FBF7F007FB105544EA05444D
:101190000EFB00FEA64508D91CEB040400F1FF3548
:1011A00002D2A64500F2BB802846A4EB0E0440EA1A
:1011B00003409EE7C1F120078B4022FA07FC4CEA6E
:1011C000030C20FA07F405FA01F31C43FD404FEA33
:1011D0001C4900FA01F3B5FBF9F8200C1FFA8CFE4C
:1011E00009FB185540EA054508FB0EF0A84202FA33
:1011F00001F20BD91CEB050508F1FF3A80F088805D
:10120000A84240F28580A8F1020865442D1AA4B2D4
:10121000B5FBF9F009FB105544EA054500FB0EFE4D
:10122000AE4508D91CEB050500F1FF346CD2AE4584
:101230006AD90238654440EA0840A0FB0294A5EB55
:101240000E05A542C846A64656D353D05EB1B3EBB1
:10125000080265EB0E0505FA07F722FA01F3CD4007
:101260001F43C6E900750021BDE8F087C2F12003E5
:1012700020FA03F10CFA02FC25FA03F395400D4322
:101280004FEA1C471FFA8CFEB3FBF7F107FB113046
:101290002B0C43EA004301FB0EF0984204FA02F4DF
:1012A00008D91CEB030301F1FF382FD298422DD946
:1012B000023963441B1AADB2B3FBF7F007FB1033DE
:1012C00045EA034500FB0EF3AB4208D91CEB0505CC
:1012D00000F1FF3816D2AB4214D902386544ED1A3A
:1012E00040EA014138E73146304607E78646E5E601
:1012F0001846FAE64B45A9D2B9EB020864EB0C0E8E
:101300000138A3E74046EAE7204694E74146D1E7A3
:10131000D0467BE7023B654432E7084609E7644470
:10132000023842E7704700BF844641EA000313F0E9
:1013300003036DD1403A41D351F8043B40F8043BDC
:1013400051F8043B40F8043B51F8043B40F8043B9F
:1013500051F8043B40F8043B51F8043B40F8043B8F
:1013600051F8043B40F8043B51F8043B40F8043B7F
:1013700051F8043B40F8043B51F8043B40F8043B6F
:1013800051F8043B40F8043B51F8043B40F8043B5F
:1013900051F8043B40F8043B51F8043B40F8043B4F
:1013A00051F8043B40F8043B51F8043B40F8043B3F
:1013B00051F8043B40F8043B403ABDD2303211D3DF
:1013C00051F8043B40F8043B51F8043B40F8043B1F
:1013D00051F8043B40F8043B51F8043B40F8043B0F
:1013E000103AEDD20C3205D351F8043B40F8043BDF
:1013F000043AF9D2043208D0D2071CBF11F8013BDD
:1014000000F8013B01D30B8803806046704700BFA2
:10141000082A13D38B078DD010F003038AD0C3F1B1
:101420000403D21ADB071CBF11F8013B00F8013B93
:1014300080D331F8023B20F8023B7BE7043AD9D352
:10144000013A11F8013B00F8013BF9D20B78037027
:101450004B7843708B7883706046704700000000C3
:10146000000000000000000000000000000000007C
:10147000000000000000000000000000000000006C
:1014800090F800F06DE9024520F007016FF0000CC4
:1014900010F0070491F820F040F049804FF000046C
:1014A0006FF00700D1E9002391F840F000F1080047
:1014B00082FA4CF2A4FA8CF283FA4CF3A2FA8CF37F
:1014C0004BBBD1E9022382FA4CF200F10800A4FAE6
:1014D0008CF283FA4CF3A2FA8CF3E3B9D1E904233A
:1014E00082FA4CF200F10800A4FA8CF283FA4CF371
:1014F000A2FA8CF37BB9D1E9062301F1200182FA2B
:101500004CF200F10800A4FA8CF283FA4CF3A2FA30
:101510008CF3002BC6D0002A04BF04301A4612BA3E
:10152000B2FA82F2FDE8024500EBD2007047D1E941
:10153000002304F00305C4F100004FEAC50514F0D0
:10154000040F91F840F00CFA05F562EA05021CBFA1
:1015500063EA050362464FF00004A9E700000000BB
:1015600001F0FF01102A2BDB10F0070F08D010F854
:10157000013B013A8B422DD010F0070F42B3F6D158
:10158000F0B441EA012141EA014122F007047FF071
:1015900000070023F0E80256083C85EA010586EAC8
:1015A000010685FA47F5A3FA87F586FA47F6A5FA04
:1015B00087F68EB9EED1F0BC01F0FF0102F0070210
:1015C00032B110F8013B013A83EA010313B1F8D1BB
:1015D0000020704701387047002D06BF354603389C
:1015E000073815F0010F07D1013015F4807F02BFD5
:1015F000013015F4C03F0130F0BC0138704700BF26
:101600004FF0FF3C06E000BF4FF0010C02E000BFCE
:101610004FF0010C4DF804CD4FEA410C7FEA6C5CB1
:101620004FEA430C18BF7FEA6C5C1BD001B050EA54
:10163000410C0CBF52EA430C91EA030F02BF90EA3F
:10164000020F0020704710F1000F91EA030F58BFFE
:10165000994208BF90422CBFD8176FEAE37040F060
:10166000010070474FEA410C7FEA6C5C02D150EAFE
:10167000013C07D14FEA430C7FEA6C5CD6D152EAB9
:10168000033CD3D05DF8040B704700BF844610467E
:1016900062468C461946634600E000BF01B5FFF77D
:1016A000B7FF002848BF10F1000F01BD4DF808ED4D
:1016B000FFF7F4FF0CBF012000205DF808FB00BF1E
:1016C0004DF808EDFFF7EAFF34BF012000205DF878
:1016D00008FB00BF4DF808EDFFF7E0FF94BF0120C5
:1016E00000205DF808FB00BF4DF808EDFFF7CEFFC6
:1016F00094BF012000205DF808FB00BF4DF808ED05
:10170000FFF7C4FF34BF012000205DF808FB00BFD5
:101710004FEA410C7FEA6C5C02D150EA013C0AD1ED
:101720004FEA430C7FEA6C5C02D152EA033C02D1DF
:101730004FF0000070474FF0010070474FEA410240
:1017400012F5001215D211D56FF47873B3EB625213
:1017500012D94FEAC12343F0004343EA505311F03A
:10176000004F23FA02F018BF404270474FF00000CC
:10177000704750EA013005D111F0004008BF6FF00A
:10178000004070474FF00000704700BF10B582B0B6
:10179000002401940D4B1A6B42F400121A631B6B68
:1017A00003F400130193019B22462146102001F00F
:1017B00043FB102001F078FB22462146112001F066
:1017C0003BFB112001F070FB02B010BD003802405D
:1017D00030B58DB000240794089409940A940B94B2
:1017E00001942F4B1A6B42F010021A631A6B02F02D
:1017F00010020192019A02941A6B42F080021A635D
:101800001A6B02F080020292029A03941A6B42F061
:1018100001021A631A6B02F001020392039A049404
:101820001A6B42F008021A631A6B02F00802049263
:10183000049A05941A6B42F004021A631A6B02F0C0
:1018400004020592059A06941A6B42F002021A638A
:101850001B6B03F002030693069B124D22464FF4C6
:101860008851284601F09FFE01224FF480612846EE
:1018700001F099FE4FF4A8530793012308930994AC
:101880000A9407A9284601F095FD4FF400430793F9
:101890000894099407A9284601F08CFD0DB030BDCD
:1018A000003802400010024072B6704700B595B093
:1018B0003022002108A805F0C5FA00230393049301
:1018C0000593069307930193204A116C41F08051D0
:1018D0001164126C02F080520192019A02931C4A28
:1018E000116841F480411160126802F48042029252
:1018F000029A0222089201210B9110210C910E9262
:101900000F9308231093A823119312920423139387
:1019100008A801F04FFE98B90F2303930223049304
:10192000002305934FF4A05306934FF4805307937D
:10193000052103A802F0A4F828B915B05DF804FB4E
:10194000FFF7B2FFE8E7FFF7AFFFF6E70038024026
:1019500000700040000000002DE9F04FBBB001F026
:1019600019FAFFF7A3FFFFF733FFFFF70FFF00F0B0
:10197000F1FB00F021FC00F0BBFF01F00DF801F0DD
:1019800047F800F0B3FC01F099F801F0B1F800F06D
:1019900045FC00F077FC00F019FF00F0D1FC00F0EE
:1019A000F7FC01F071F800F00BFD03F0EFFDDFF83C
:1019B000F891484604F008FD332337930024389407
:1019C000ADF8E440DFF8E4A134940DF1880B48262B
:1019D000324677495846FFF7A7FC21940DF13C08A1
:1019E000324674494046FFF79FFC6D460AF10C07EA
:1019F0000FCF0FC50FCF0FC50FCF0FC597E807004B
:101A000085E807009AE80E00204604F01BFA6A4FAA
:101A10004FF0040ACDF8D0A0684D3246294658460A
:101A2000FFF782FC2194324629464046FFF77CFCB2
:101A30006D4607F10C0CBCE80F000FC5BCE80F00A9
:101A40000FC5BCE80F000FC59CE8070085E807003C
:101A500097E80E00012004F0F5F9594FCDF8D0A019
:101A6000DFF860A1324651465846FFF75DFC2194ED
:101A7000324651464046FFF757FC6D4607F10C0CC5
:101A8000BCE80F000FC5BCE80F000FC5BCE80F0095
:101A90000FC59CE8070085E8070097E80E000220C4
:101AA00004F0D0F9484F0C2334933246514658463F
:101AB000FFF73AFC08232193324651464046FFF790
:101AC00033FC6D4607F10C060FCE0FC50FCE0FC5C8
:101AD0000FCE0FC596E8070085E8070097E80E00CF
:101AE000032004F0AFF9204604F042FA012004F08C
:101AF0003FFA022004F03CFA032004F039FA33489C
:101B000002F0A8F9324802F0A5F903F0A9FC04F0AC
:101B1000D5FB03F02BFE4FF4E13005F0B3F82D4B6D
:101B20001A68D36843F02003D36001220DF1DB0172
:101B3000294803F0E4FBD9F80020D36843F02003E0
:101B4000D36001220DF1DA01484603F0D8FB5021A1
:101B5000204604F09DFE214804F046FD204804F094
:101B6000FFFD204804F0A8FE1F4805F01FFACDE055
:101B70001E4B9B796BB11D4BD879FEF793FC08A3E4
:101B8000D3E90023FEF7F8FCFEF708FF184B986036
:101B9000E9E0174B00229A60E5E000BFAFF3008058
:101BA000FA7E6ABC7493683FC40E0020840B002048
:101BB000AC0A0020640A0020CC0B0020340D002069
:101BC000140C00201C0A00205C0C0020A40C002037
:101BD000EC0C00203C0E0020800E0020D56B00088D
:101BE000F56B0008ED6B0008B8CF0008800F0020EF
:101BF0000C0F0020002C40F0D080C74B1B78012B2D
:101C000063D1C64DC64B1B68C64A2946C64803F079
:101C10003DFD2868FEF758FCBBA3D3E90023FEF77F
:101C2000ABFC0022C14BFEF7D1FD0022C04BFEF7FA
:101C3000A3FCFEF7B3FE0146BE4E304603F016FF8E
:101C4000E868FEF741FCB0A3D3E90023FEF794FC5B
:101C50000022B64BFEF7BAFD0022B54BFEF78CFC16
:101C6000FEF79CFE014606F5867003F0FFFEA868AD
:101C7000FEF72AFCA4A3D3E90023FEF77DFC002293
:101C8000AA4BFEF7A3FD0022A94BFEF775FCFEF759
:101C900085FE014606F5067003F0E8FE6868FEF76B
:101CA00013FC99A3D3E90023FEF766FC00229F4BA7
:101CB000FEF78CFD00229E4BFEF75EFCFEF76EFEEB
:101CC000014606F5497003F0D1FE9B4BD3F8145240
:101CD000D3F82083D3F82C94D3F80801FEF7F4FB53
:101CE00006460F464846FEF7EFFBCDE904014046A5
:101CF000FEF7EAFBCDE902012846FEF7E5FBCDE958
:101D0000000132463B468D4805F0EEF803F096FDA3
:101D1000894803F0F5FB03F0F9FF7F4D95F90400C6
:101D2000FEF7C0FB0022864BFEF726FCFEF736FED0
:101D30007C4E306095F90100FEF7B4FB0022804B29
:101D4000FEF71AFCFEF72AFE7060687900283FF45F
:101D50000FAFFEF7A7FB6EA3D3E90023FEF70CFC41
:101D6000FEF71CFEB0600821764801F015FC002843
:101D70007FF440AF002CF6D1002004F01DF90120C3
:101D800004F01AF9022004F017F9032004F014F902
:101D90006D4802F04BF80124E5E7DFF8B08100243C
:101DA000349422AF48252A4669493846FFF7BCFAE1
:101DB00021940FAE2A4667493046FFF7B5FAEC4644
:101DC00008F10C0EBEE80F00ACE80F00BEE80F00F3
:101DD000ACE80F00BEE80F00ACE80F009EE807007B
:101DE0008CE8070098E80E00204604F02BF8DFF896
:101DF00068814FF00409CDF8D090DFF860A12A4641
:101E000051463846FFF790FA21942A46514630460B
:101E1000FFF78AFAEC4608F10C0EBEE80F00ACE8BA
:101E20000F00BEE80F00ACE80F00BEE80F00ACE802
:101E30000F009EE807008CE8070098E80E000120DC
:101E400004F000F8DFF81881CDF8D090DFF8149195
:101E50002A4649463846FFF767FA21942A464946FA
:101E60003046FFF761FAEC4608F10C0EBEE80F00B1
:101E7000ACE80F00BEE80F00ACE80F00BEE80F00B2
:101E8000ACE80F009EE807008CE8070098E80E0019
:101E9000022003F0D7FFDFF8D0800C2334932A46CA
:101EA00049463846FFF740FA082321932A46494617
:101EB0003046FFF739FAEC4608F10C0EBEE80F0089
:101EC000ACE80F00BEE80F00ACE80F00BEE80F0062
:101ED000ACE80F009EE807008CE8070098E80E00C9
:101EE000032003F0AFFF204604F042F8012004F085
:101EF0003FF8022004F03CF8032004F039F81248BF
:101F000001F0A8FF79E600BF0000000000C04240D9
:101F1000FA7E6ABC7493683F800F0020180F00207F
:101F20000C0000200C0F00201000002000001640C4
:101F300000408F4084100020A40F002008D000082B
:101F40000000A43F000C0240A40C0020840B0020E1
:101F5000AC0A0020640A0020CC0B0020340D0020C5
:101F6000140C00201C0A00205C0C002082B0002110
:101F700000910B4B5A6C42F480425A645A6C02F442
:101F800080420092009A01911A6C42F080521A64C9
:101F90001B6C03F080530193019B02B0704700BF9C
:101FA00000380240FEE7FEE7FEE7FEE7FEE7704787
:101FB0007047704708B500F007FF08BD08B5024834
:101FC00001F00AF908BD00BF7C0D002008B50248E9
:101FD00001F002F908BD00BFDC0D002030B583B070
:101FE000134C204602F0D6FF23681A6812F0100F37
:101FF00001D103B030BD002401941A6801925B68DE
:102000000193019B0A4802F0CCFE08E0094D285DCF
:1020100004F0F4FA295D084804F066FF01340A2C44
:10202000F4DD0B220349024803F0DAF9E1E700BFCF
:102030003C0E0020BC1A002018D0000808B5024849
:1020400002F0A8FF08BD00BF800E002008B50248BE
:1020500001F049FF08BD00BF3C0B002008B5024855
:1020600002F098FF08BD00BFC40E002008B502486A
:1020700001F039FF08BD00BFA40C002008B50248DC
:1020800001F031FF08BD00BFEC0C002038B504465C
:102090000268114B9A4204D02268104B9A420AD02F
:1020A00038BD0F4D287804F0A9FA012229462046B0
:1020B00003F025F9F0E70A4D2A780A4B1A704FF61B
:1020C000FF7301222946204602F08DFD0122294698
:1020D000204603F014F9E3E70044004000480040C4
:1020E000140A0020430000200120704708B504F0C6
:1020F0007FFE162303604FF0FF3008BD08B54FF098
:10210000FF31FFF7F3FFFEE710B503460C4A0D4918
:102110000D48006840B10C4800680344521A9342CD
:1021200006D8094A136010BD0748084C0460F2E75E
:1021300004F05EFE0C2303604FF0FF30F3E700BFB6
:102140000000022000040000180A0020101B0020DC
:102150007047000000B58DB02422002103A804F0D0
:1021600071FE00230193029312484FF080420260F7
:10217000436083604FF6FF72C26003618361032393
:10218000039301230593099303A902F025F850B99D
:1021900000230193029301A9064802F049FB28B9E4
:1021A0000DB05DF804FBFFF77FFBF1E7FFF77CFB69
:1021B000F6E700BF840B002000B58DB0242200217B
:1021C00003A804F03FFE0023019302931148124A32
:1021D0000260436083604FF6FF72C26003618361F7
:1021E0000323039301230593099303A901F0F4FF4B
:1021F00050B900230193029301A9064802F018FB8D
:1022000028B90DB05DF804FBFFF74EFBF1E7FFF7CF
:102210004BFBF6E7CC0B00200004004000B58DB06E
:102220002422002103A804F00DFE00230193029351
:102230001248134A0260436083604FF6FF72C26027
:10224000036180238361032303930123059309938F
:1022500003A901F0C1FF50B900230193029301A922
:10226000064802F0E5FA28B90DB05DF804FBFFF767
:102270001BFBF1E7FFF718FBF6E700BF140C00208B
:102280000008004000B58DB02422002103A804F00E
:10229000D9FD0023019302931248134A0260436060
:1022A00083604FF6FF72C260036180238361032362
:1022B000039301230593099303A901F08DFF50B9FE
:1022C00000230193029301A9064802F0B1FA28B94C
:1022D0000DB05DF804FBFFF7E7FAF1E7FFF7E4FA6A
:1022E000F6E700BF5C0C0020000C004000B583B096
:1022F0000023009301931048104A026040F24732D5
:102300004260836042F21073C3608023836101F0F6
:102310000BFF50B90023009301936946064802F071
:1023200087FA28B903B05DF804FBFFF7BDFAF1E7BF
:10233000FFF7BAFAF6E700BFA40C00200010004037
:1023400000B583B00023009301930F480F4A026049
:102350005322426083604FF47A73C36080238361A9
:1023600001F0E2FE50B9002300930193694606484C
:1023700002F05EFA28B903B05DF804FBFFF794FAA7
:10238000F1E7FFF791FAF6E7EC0C002000140040AB
:1023900008B50948094B0360A72343600023836005
:1023A0004FF6FF72C2600361836101F0BDFE00B9A8
:1023B00008BDFFF779FAFBE7F40A0020001C004093
:1023C00008B50A480A4B0360A723436000238360D3
:1023D0004FF47A72C26003618023836101F0A4FE2E
:1023E00000B908BDFFF760FAFBE700BF3C0B002017
:1023F0000020004000B589B003684B4A934228D0C2
:102400004A4A934234D04A4A934245D0494A934279
:1024100056D0494A934260D0484A93426AD0484ACB
:10242000934274D0474A93421FD100210791464BF3
:102430001A6C42F480721A641B6C03F48073079365
:10244000079B0A462D2000F0F7FC2D2000F02CFD04
:102450000BE0002300933C4B5A6C42F001025A649B
:102460005B6C03F001030093009B09B05DF804FB73
:1024700000210191344B1A6C42F010021A641B6C5B
:1024800003F010030193019B0A46362000F0D4FCB0
:10249000362000F009FDE8E7002102912A4B1A6C72
:1024A00042F020021A641B6C03F020030293029B8B
:1024B0000A46372000F0C0FC372000F0F5FCD4E7D6
:1024C00000230393204B5A6C42F480325A645B6CB5
:1024D00003F480330393039BC7E7002304931A4B51
:1024E0005A6C42F400325A645B6C03F40033049378
:1024F000049BBAE700230593134B5A6C42F48022E5
:102500005A645B6C03F480230593059BADE70023BD
:1025100006930D4B1A6C42F080021A641B6C03F098
:1025200080030693069BA0E70000014000100040D6
:1025300000140040004001400044014000480140B8
:10254000001C0040002000400038024070B58EB0F2
:10255000002309930A930B930C930D930368B3F133
:10256000804F0AD0504A93423ED0504A93425BD0AB
:102570004F4A934278D00EB070BD0024009403F50A
:102580000E331A6C42F001021A641A6C02F0010256
:102590000092009A01941A6B42F001021A631A6BBE
:1025A00002F001020192019A02941A6B42F00202B7
:1025B0001A631B6B03F002030293029B4FF4004368
:1025C000099302260A9601250D9509A9394800F0BC
:1025D000F1FE082309930A960B940C940D9509A912
:1025E000354800F0E7FEC6E700210391334B1A6C33
:1025F00042F002021A641A6C02F002020392039A79
:1026000004911A6B42F002021A631B6B03F002037F
:102610000493049B3023099302230A930D9309A981
:10262000254800F0C7FEA6E700210591234B1A6C50
:1026300042F004021A641A6C02F004020592059A30
:1026400006911A6B42F002021A631B6B03F002033D
:102650000693069BC023099302230A930D9309A9AD
:10266000154800F0A7FE86E700210791134B1A6C6E
:1026700042F008021A641A6C02F008020792079AE4
:1026800008911A6B42F001021A631B6B03F00103FD
:102690000893089B0323099302230A930D9309A926
:1026A000044800F087FE66E7000400400008004090
:1026B000000C0040000002400004024000380240CC
:1026C00000B58BB0002305930693079308930993F5
:1026D0000368374A93420BD0364A934220D0364A99
:1026E000934234D0354A934249D00BB05DF804FB95
:1026F00000230193324B1A6B42F010021A631B6BDA
:1027000003F010030193019B4FF4D443059302237C
:1027100006930123099305A92A4800F04BFEE4E73C
:1027200000230293264B1A6B42F010021A631B6BB4
:1027300003F010030293029B602305930223069388
:102740000323099305A91F4800F034FECDE70023B9
:1027500003931B4B1A6B42F002021A631B6B03F0CC
:1027600002030393039B4FF48073059302230693A4
:102770000323099305A9144800F01CFEB5E70023C4
:1027800004930F4B1A6B42F002021A631B6B03F0A7
:1027900002030493049B4FF40073059302230693F2
:1027A0000323099305A9084800F004FE9DE700BF34
:1027B0000000014000400140004401400048014049
:1027C00000380240001002400004024010B596B0EC
:1027D0000024129413941494159410941194099451
:1027E0000A940B940C940D940E940F94202221467D
:1027F00001A804F027FB3C483C4B03605323436093
:10280000846040F2E733C3600461446180238361E4
:1028100001F08AFC00284BD14FF48053129312A987
:10282000314801F0E7FD002845D12F4801F0A8FC10
:10283000002843D100231093119310A92A4801F0D6
:10284000F7FF00283DD16023099300220A920B92E2
:102850000C920D920E920F9209A9234801F050FD9F
:10286000002831D1042209A91F4801F049FD70BB9D
:10287000082209A91C4801F043FD58BB0C2209A9F4
:10288000194801F03DFD40BB0023019302930393DF
:10289000049305934FF400520692089301A912483D
:1028A00002F00CF8E0B91048FFF70AFF16B010BDAF
:1028B000FEF7FAFFB0E7FEF7F7FFB6E7FEF7F4FF23
:1028C000B8E7FEF7F1FFBEE7FEF7EEFFCAE7FEF757
:1028D000EBFFCDE7FEF7E8FFD0E7FEF7E5FFD3E734
:1028E000FEF7E2FFDFE700BF1C0A00200000014006
:1028F00000B58DB00023089309930A930B930193BD
:102900000293039304930593069307932048214A67
:10291000026053224260836040F2E732C26003618A
:102920008023836101F000FC18BB4FF480530893AF
:1029300008A9174801F05EFDF0B9154801F020FC28
:10294000E8B960230193002202920392059201A943
:102950000F4801F0D5FCA8B904220DEB02010C4888
:1029600001F0CEFC88B90A48FFF7AAFE0DB05DF869
:1029700004FBFEF799FFD8E7FEF796FFDDE7FEF7C9
:1029800093FFDEE7FEF790FFE6E7FEF78DFFEAE74D
:10299000340D00200040014000B589B000230193B0
:1029A0000293039304930593069307931648174ADB
:1029B00002605D224260836040F2E732C2600361E0
:1029C0008023836101F0B0FBA0B90F4801F0D8FB70
:1029D00098B960230193002202920392059201A903
:1029E000094801F08DFC58B90748FFF769FE09B0A6
:1029F0005DF804FBFEF758FFE7E7FEF755FFE8E751
:102A0000FEF752FFF0E700BF640A002000440140D7
:102A100000B589B0002301930293039304930593B7
:102A2000069307931648174A026053224260836058
:102A300040F2E732C26003618023836101F074FBDE
:102A4000A0B90F4801F09CFB98B9602301930022C4
:102A500002920392059201A9094801F051FC58B96C
:102A60000748FFF72DFE09B05DF804FBFEF71CFFD9
:102A7000E7E7FEF719FFE8E7FEF716FFF0E700BF0C
:102A8000AC0A00200048014008B50A480A4B036020
:102A90004FF4E133436000238360C36003610C2281
:102AA00042618361C36102F06FF800B908BDFEF7AF
:102AB000FBFEFBE7C40E0020004C004008B50A48AE
:102AC0000A4B03604FF4E133436000238360C3602B
:102AD00003610C2242618361C36102F055F800B9C1
:102AE00008BDFEF7E1FEFBE73C0E0020004400407D
:102AF00008B50A480A4B03604FF4E13343600023F2
:102B00008360C36003610C2242618361C36102F090
:102B10003BF800B908BDFEF7C7FEFBE7800E0020BA
:102B20000048004030B58DB0002307930893099307
:102B30000A930B930368644A934209D00446634A9C
:102B4000934231D0624A934200F091800DB030BD83
:102B5000002401945F4B1A6C42F400221A641A6C30
:102B600002F400220192019A02941A6B42F00402CC
:102B70001A631B6B03F004030293029B4FF4406340
:102B800007930223089303230A9308230B9307A9AF
:102B9000514800F00FFC22462146342000F04CF949
:102BA000342000F081F9D1E700250395494B1A6CD8
:102BB00042F400321A641A6C02F400320392039A4F
:102BC00004951A6B42F001021A631B6B03F00103B8
:102BD0000493049B0C2307930223089303230A9373
:102BE00007230B9307A93D4800F0E4FB3C483D4B0D
:102BF00003604FF0006343608560C5604FF48063FD
:102C0000036145618561C5614FF4403303624562EC
:102C100000F0EAF928BB324BA3639C633248334B84
:102C200003604FF000634360402383600023C36070
:102C30004FF48062026143618361C3614FF480326B
:102C40000262436200F0D0F970B9274B63639C6362
:102C500000221146262000F0EFF8262000F024F98B
:102C600074E7FEF721FED6E7FEF71EFEEDE700242F
:102C70000594184B1A6C42F480221A641A6C02F400
:102C800080220592059A06941A6B42F008021A6394
:102C90001B6B03F008030693069B4FF440730793E6
:102CA0000223089303230A9307230B9307A91048D1
:102CB00000F080FB22462146272000F0BDF82720A7
:102CC00000F0F2F842E700BF004C00400044004032
:102CD0000048004000380240000802400000024066
:102CE0007C0D002088600240DC0D0020A0600240C6
:102CF000000C0240DFF834D00D480E490E4A002384
:102D000002E0D458C4500433C4188C42F9D30B4A9F
:102D10000B4C002301E013600432A242FBD3FFF707
:102D200017FA04F06BF8FEF717FE70470000022058
:102D300000000020F8090020ECF10008F80900204C
:102D4000101B0020FEE7000010B504460E4B18785B
:102D50004FF47A73B3FBF0F30C4A1068B0FBF3F056
:102D600000F0B0F868B90F2C01D901200AE0002268
:102D700021464FF0FF3000F05FF8054B1C6000204B
:102D800000E0012010BD00BF040000200000002072
:102D90000800002008B50B4B1A6842F400721A6054
:102DA0001A6842F480621A601A6842F480721A60EB
:102DB000032000F02FF80F20FFF7C6FFFFF7D6F82B
:102DC000002008BD003C0240034A1168034B1B78F9
:102DD0000B441360704700BF080F00200400002060
:102DE000014B1868704700BF080F002038B5044633
:102DF000FFF7F6FF0546B4F1FF3F02D0044B1B7806
:102E00001C44FFF7EDFF401BA042FAD338BD00BFC2
:102E100004000020074AD36823F4E0631B041B0C62
:102E2000000200F4E060034343F0BF6343F4003367
:102E3000D360704700ED00E000B5194BDB68C3F3C9
:102E40000223C3F1070CBCF1040F28BF4FF0040CA0
:102E500003F1040EBEF1060F18D9033B4FF0FF3EFD
:102E60000EFA0CFC21EA0C0199400EFA03F322EA57
:102E70000303194300280BDB0901C9B200F16040CC
:102E800000F5614080F800135DF804FB0023E5E7DE
:102E900000F00F000901C9B2024B1954F4E700BF5A
:102EA00000ED00E014ED00E0002807DB00F01F0259
:102EB000400901239340024A42F82030704700BF86
:102EC00000E100E00138B0F1807F0BD24FF0E02349
:102ED0005861054AF02182F82310002098610722EA
:102EE0001A6170470120704700ED00E030B40568BA
:102EF0002C6824F480242C60046863608368402B71
:102F000005D0036899600368DA6030BC70470368D5
:102F10009A600368D960F8E710B40368D9B2103931
:102F20000B4AA2FB014212090A4CA25CC2655F294E
:102F300008D923F47F7323F0030304338365806D82
:102F400010BC704723F47F7323F003038365F6E717
:102F5000ABAAAAAA34D00008836A826992B9012B6D
:102F60000AD0022B02D00BB100207047C36A13F0C5
:102F7000807F28D100207047C36AB3F1C07F24D07E
:102F800000207047B2F5005F09D0022B25D9032B32
:102F900025D1C36A13F0807F23D100207047032B13
:102FA00003D8DFE803F01404140A00207047C36A52
:102FB00013F0807F0DD100207047C36AB3F1C07F4A
:102FC00009D0002070470120704701207047012080
:102FD0007047012070470120704701207047002092
:102FE000704701207047000070B50446FFF7F8FEF7
:102FF000002C5BD00546022384F83530002384F88A
:1030000034302268136823F00103136023681A68C0
:1030100012F0010F0AD0FFF7E3FE431B052BF5D991
:1030200020236365032084F8350070BD1A682048AA
:1030300010406168A2680A43E1680A4321690A43B3
:1030400061690A43A1690A43E1690A43216A0A43A3
:103050000243616A04291ED01A602668756925F04A
:103060000705636A1D43042B07D1A36A1D43E36A66
:103070001BB12046FFF770FF90B975612046FFF73E
:103080004BFFE26D3F239340836000206065012386
:1030900084F83530C9E7E16A206B01430A43DBE776
:1030A00040236365012084F83500BEE70120BCE7BA
:1030B0003F8010F038B50446856D90F83400012843
:1030C0002BD0012084F8340094F83500C0B20128D8
:1030D00004D0002384F83430022038BD022084F864
:1030E0003500002060652046FFF700FFE26D3F23BA
:1030F0009340AB602268136843F016031360236C9F
:1031000023B12268136843F0080313602268136830
:1031100043F0010313600020DFE70220DDE770B514
:103120000446866DFFF75CFE94F83530DBB2022B67
:1031300006D080236365002384F83430012070BDFD
:1031400005462268136823F016031360226853694A
:1031500023F080035361236CE3B12268136823F0EA
:10316000080313602268136823F0010313602368C7
:103170001B6813F0010F11D0FFF732FE431B052B24
:10318000F5D920236365032084F83500002384F8F3
:103190003430D4E7A36C002BDFD1E3E7E26D3F23AB
:1031A0009340B360012384F83530002084F8340064
:1031B000C5E790F83530DBB2022B03D0802343659E
:1031C00001207047052380F835300268136823F02A
:1031D0000103136000207047F0B583B0044600235C
:1031E0000193724B1D68724BA3FB0535AD0A876DC9
:1031F0003E68C26D08239340334210D003681A68BA
:1032000012F0040F0BD01A6822F004021A60C26D8B
:1032100008239340BB60436D43F001034365E26DB7
:1032200001239340334209D02268526912F0800F83
:1032300004D0BB60636D43F002036365E26D042359
:103240009340334209D02268126812F0020F04D072
:10325000BB60636D43F004036365E26D102393402C
:10326000334224D02268126812F0080F1FD0BB60CE
:1032700023681A6812F4802F0DD01B6813F4002FF6
:1032800004D1236C9BB12046984710E0A36C73B126
:10329000204698470BE01A6812F4807F03D11A6821
:1032A00022F008021A60236C0BB120469847E26DA9
:1032B00020239340334255D02268126812F0100F39
:1032C00050D0BB6094F83530DBB2052B0ED02368AC
:1032D0001A6812F4802F33D01B6813F4002F2AD100
:1032E000636C002B3ED0204698473BE02268136871
:1032F00023F0160313602268536923F0800353619F
:10330000236CA3B12268136823F008031360E26DF5
:103310003F239340BB60012384F83530002384F8B9
:103320003430236D002B3FD0204698473CE0A36CFF
:10333000002BE7D1EBE7E36BA3B12046984711E000
:103340001A6812F4807F09D11A6822F010021A60FC
:10335000012384F83530002384F83430E36B0BB15B
:1033600020469847636DFBB1636D13F0010F17D0D2
:10337000052384F835302268136823F001031360B5
:10338000019B01330193AB4204D823681B6813F0FF
:10339000010FF5D1012384F83530002384F834304F
:1033A000E36C0BB12046984703B0F0BD000000204D
:1033B000B5814E1B00230F2B00F2E48070B582B064
:1033C00060E085685E000324B44025EA0405CC680B
:1033D000B4402C438460456825EA02054C68C4F378
:1033E00000129A402A4342605AE0DC08083450F840
:1033F000246003F0070295000F22AA4026EA020E7D
:103400000A69AA4042EA0E0240F824205CE0072242
:1034100000E0002202FA0EF22A4302345A4D45F827
:1034200024205A4A94686FEA0C0224EA0C054E687C
:1034300016F4801F01D04CEA0405544CA560E468E2
:1034400002EA04054E6816F4001F01D04CEA040598
:103450004E4CE560646802EA04054E6816F4003FCD
:1034600001D04CEA0405494C6560246822404D684F
:1034700015F4803F01D04CEA0402444C2260013331
:103480000F2B7DD801229A400C6804EA020C32EA24
:103490000404F4D14C6804F00304013C012C90D9DD
:1034A0004A6802F00302032A09D0C4685D000322BF
:1034B000AA4024EA02048A68AA402243C2604A68F9
:1034C00002F00302022A90D004684FEA430E03225E
:1034D00002FA0EF224EA02044A6802F0030202FA37
:1034E0000EF2224302604A6812F4403FC7D0002225
:1034F0000192274A546C44F480445464526C02F4A0
:1035000080420192019A9C08A51C1F4A52F825503E
:1035100003F003024FEA820E0F2202FA0EF225EAAE
:1035200002051C4A90423FF474AF02F5806290425B
:103530001AD002F58062904218D002F58062904263
:1035400016D002F58062904214D002F5806290425B
:1035500012D002F58062904210D002F58062904253
:103560003FF455AF082255E7012253E7022251E705
:1035700003224FE704224DE705224BE7062249E7E5
:1035800002B070BD704700BF00380140003C0140F0
:1035900000380240000002400369194201D00120B6
:1035A0007047002070470AB181617047090481614A
:1035B00070470000002800F0E08170B582B004463A
:1035C000036813F0010F3BD09F4B9B6803F00C0383
:1035D000042B2CD09C4B9B6803F00C03082B21D0B0
:1035E0006368B3F5803F4FD0B3F5A02F52D0964B10
:1035F0001A6822F480321A601A6822F480221A6053
:103600006368002B50D0FFF7EBFB05468E4B1B6821
:1036100013F4003F14D1FFF7E3FB401B6428F5D9F6
:103620000320B1E1884B5B6813F4800FD8D0864B40
:103630001B6813F4003F03D06368002B00F09F81E8
:10364000236813F0020F54D07F4B9B6813F00C0FCC
:103650003ED07D4B9B6803F00C03082B33D0E3680E
:10366000002B68D0794B01221A60FFF7B9FB0546A1
:10367000754B1B6813F0020F54D1FFF7B1FB401BD1
:103680000228F5D903207FE16F4A136843F48033A1
:103690001360B5E76C4B1A6842F480221A601A680E
:1036A00042F480321A60ABE7FFF79AFB0546664B9F
:1036B0001B6813F4003FC3D0FFF792FB401B642844
:1036C000F5D9032060E1604B5B6813F4800FC6D12D
:1036D0005D4B1B6813F0020F03D0E368012B40F031
:1036E0005081594A136823F0F803216943EAC10362
:1036F0001360236813F0080F42D063696BB3534B18
:103700000122C3F8802EFFF76BFB05464E4B5B6F23
:1037100013F0020F34D1FFF763FB401B0228F5D9E9
:10372000032031E1484A136823F0F803216943EA92
:10373000C1031360DDE7454B00221A60FFF750FB21
:103740000546414B1B6813F0020FD2D0FFF748FB30
:10375000401B0228F5D9032016E13C4B0022C3F898
:10376000802EFFF73DFB0546374B5B6F13F0020FD2
:1037700006D0FFF735FB401B0228F5D9032003E1F3
:10378000236813F0040F77D02F4B1B6C13F0805F6E
:1037900033D1002301932C4B1A6C42F080521A64EF
:1037A0001B6C03F080530193019B0125284B1B6880
:1037B00013F4807F23D0A368012B34D0052B38D09D
:1037C000214B1A6F22F001021A671A6F22F00402CD
:1037D0001A67A368002B3DD0FFF702FB06461A4B81
:1037E0001B6F13F0020F46D1FFF7FAFA801B41F26C
:1037F00088339842F3D90320C6E00025D6E7144A5F
:10380000136843F480731360FFF7EAFA0646104B1F
:103810001B6813F4807FCED1FFF7E2FA801B0228E9
:10382000F5D90320B0E0084A136F43F00103136792
:10383000CFE7054B1A6F42F004021A671A6F42F085
:1038400001021A67C5E700BF003802400000474286
:1038500000700040FFF7C4FA0646524B1B6F13F08E
:10386000020F08D0FFF7BCFA801B41F28833984260
:10387000F3D9032088E0EDB9A369002B00F0838021
:10388000484A926802F00C02082A51D0022B17D045
:10389000454B00221A66FFF7A3FA0446414B1B680A
:1038A00013F0007F42D0FFF79BFA001B0228F5D9E6
:1038B000032069E03B4A136C23F080531364DBE779
:1038C000394B00221A66FFF78BFA0546354B1B6809
:1038D00013F0007F06D0FFF783FA401B0228F5D9CA
:1038E000032051E0E369226A1343626A43EA8213C8
:1038F000A26A5208013A43EA0243E26A43EA0263D7
:10390000284A5360284B01221A66FFF769FA0446D9
:10391000244B1B6813F0007F06D1FFF761FA001BF0
:103920000228F5D903202FE000202DE000202BE015
:10393000012B2BD01B4B5B6803F48001E2699142A1
:1039400026D103F03F02216A8A4223D1616A47F6F9
:10395000C0721A40B2EB811F1ED103F44031A26A3B
:103960005208013AB1EB024F18D103F07063E26ADA
:10397000B3EB026F14D1002006E001207047012054
:1039800002E0012000E0002002B070BD0120FBE752
:103990000120F9E70120F7E70120F5E70120F3E72F
:1039A0000120F1E7003802400000474208B5314BE2
:1039B0009B6803F00C03042B57D0082B57D12D4BD9
:1039C0005A6802F03F025B6813F4800F2AD0294B3B
:1039D0005968C1F3881C4FEA4C11B1EB0C006EEB37
:1039E0000E0E4FEA8E1343EA90638101091A63EBCE
:1039F0000E03DB0043EA5173C90011EB0C0C43F1D9
:103A00000003590200234FEA4C2041EADC51FDF744
:103A100009FB184B5B68C3F3014301335B00B0FB48
:103A2000F3F025E0134B5968C1F3881C4FEA4C11A1
:103A3000B1EB0C006EEB0E0E4FEA8E1343EA90636F
:103A40008101091A63EB0E03DB0043EA5173C900DD
:103A500011EB0C0C43F10003990200234FEA8C2078
:103A600041EA9C51FDF7DEFAD3E7034800E0034842
:103A700008BD00BF0038024000127A000024F400A4
:103A8000002800F09B8070B50D4604464F4B1B6824
:103A900003F007038B4208D2CBB24C4A1370136871
:103AA00003F007038B4240F08B80236813F0020F72
:103AB00017D013F0040F04D0454A936843F4E05341
:103AC0009360236813F0080F04D0414A936843F4CD
:103AD000604393603E4A936823F0F003A1680B4370
:103AE0009360236813F0010F32D06368012B21D05B
:103AF0009A1E012A25D9364A126812F0020F61D0A7
:103B000033498A6822F0030213438B60FFF768F998
:103B100006462F4B9B6803F00C036268B3EB820FE1
:103B200016D0FFF75DF9801B41F288339842F0D937
:103B3000032042E0264A126812F4003FE0D101203F
:103B40003BE0234A126812F0007FD9D1012034E013
:103B50001E4B1B6803F00703AB4207D9EAB21B4BAD
:103B60001A701B6803F00703AB422DD1236813F0D2
:103B7000040F06D0164A936823F4E053E1680B4320
:103B80009360236813F0080F07D0114A936823F459
:103B90006043216943EAC1039360FFF707FF0C4BC1
:103BA0009B68C3F303130B4AD35CD8400A4B1860DD
:103BB0000A4B1868FFF7C8F8002070BD0120704755
:103BC0000120FAE70120F8E70120F6E7003C024077
:103BD000003802401CD0000800000020080000202F
:103BE000014B1868704700BF0000002008B5FFF7C0
:103BF000F7FF044B9B68C3F38223034AD35CD8408E
:103C000008BD00BF003802402CD0000808B5FFF7FF
:103C1000E7FF044B9B68C3F34233034AD35CD840AD
:103C200008BD00BF003802402CD0000830B4036A41
:103C300023F001030362036A4268846924F0730479
:103C40000D682C4323F0020C8B6843EA0C03104DE3
:103C5000A84203D005F58065A84205D123F00803EA
:103C6000CD682B4323F00403094DA84203D005F58A
:103C70008065A84205D122F440724D692A438D69BE
:103C80002A43426084614A684263036230BC7047E1
:103C90000000014030B4036A23F480730362036AB6
:103CA0004268C46924F0730C0C6844EA0C0523F4E0
:103CB00000738C6843EA0423114CA04203D004F53E
:103CC0008064A04206D123F40063CC6843EA042355
:103CD00023F480630A4CA04203D004F58064A04220
:103CE00007D122F440524C6942EA04128C6942EA3C
:103CF00004124260C5614A68C263036230BC704707
:103D00000000014030B4036A23F480530362036A65
:103D10004468C26922F4E6420D6842EA052223F4AF
:103D200000538D6843EA0533094DA84203D005F5D9
:103D30008065A84204D124F480444D6944EA851486
:103D40004460C2614A680264036230BC704700BFCD
:103D50000000014010B4036A046A24F00104046204
:103D6000846924F0F00C4CEA021223F00A030B439E
:103D70008261036210BC704710B4046A24F010041E
:103D800004628469036A24F4704C4CEA023223F022
:103D9000A00343EA01138261036210BC7047836889
:103DA00023F070030B4343F0070383607047000068
:103DB00090F83D30DBB2012B32D1022380F83D3048
:103DC0000368194A934220D0B3F1804F1DD0A2F569
:103DD0007C42934219D002F58062934215D002F5DD
:103DE0008062934211D002F5784293420DD002F5E1
:103DF0007052934209D0A2F59432934205D01A68CA
:103E000042F001021A60002070479A6802F007022F
:103E1000062A07D01A6842F001021A600020704793
:103E20000120704700207047000001400368196AB4
:103E300041F21112114208D1196A40F24442114272
:103E400003D11A6822F001021A60012380F83D3084
:103E50000020704790F83D30DBB2012B37D10223B0
:103E600080F83D300268D36843F00103D3600368F3
:103E7000194A934220D0B3F1804F1DD0A2F57C4265
:103E8000934219D002F58062934215D002F5806208
:103E9000934211D002F5784293420DD002F5705250
:103EA000934209D0A2F59432934205D01A6842F0A9
:103EB00001021A60002070479A6802F00702062A81
:103EC00007D01A6842F001021A60002070470120F2
:103ED00070470020704700BF0000014070477047E6
:103EE00070477047704710B5044603681A6912F0AE
:103EF000020F11D0DA6812F0020F0DD06FF002023B
:103F00001A610123037703689B6913F0030F70D0D4
:103F1000FFF7E6FF0023237723681A6912F0040FE6
:103F200012D0DA6812F0040F0ED06FF004021A619A
:103F30000223237723689B6913F4407F5FD02046D8
:103F4000FFF7CEFF0023237723681A6912F0080FCA
:103F500012D0DA6812F0080F0ED06FF008021A6162
:103F6000042323772368DB6913F0030F4ED0204628
:103F7000FFF7B6FF0023237723681A6912F0100FAA
:103F800012D0DA6812F0100F0ED06FF010021A6122
:103F9000082323772368DB6913F4407F3DD0204654
:103FA000FFF79EFF0023237723681A6912F0010FA1
:103FB00003D0DA6812F0010F36D123681A6912F0C3
:103FC000800F03D0DA6812F0800F34D123681A69A9
:103FD00012F0400F03D0DA6812F0400F32D123689C
:103FE0001A6912F0200F03D0DA6812F0200F30D1D6
:103FF00010BDFFF774FF2046FFF773FF8AE72046E6
:10400000FFF76DFF2046FFF76CFF9BE72046FFF7A9
:1040100066FF2046FFF765FFACE72046FFF75FFF2E
:104020002046FFF75EFFBDE76FF001021A612046F0
:1040300001F056FCC1E76FF080021A61204600F0E3
:1040400067FCC3E76FF040021A612046FFF74AFFA2
:10405000C5E76FF020021A61204600F058FCC7E760
:104060000368304A904212D0B0F1804F0FD0A2F5D1
:104070007C4290420BD002F58062904207D002F55C
:104080008062904203D002F57842904203D123F03F
:1040900070034A681343234A90422AD0B0F1804FFC
:1040A00027D0A2F57C42904223D002F58062904254
:1040B0001FD002F5806290421BD002F578429042F8
:1040C00017D002F57052904213D002F580629042F0
:1040D0000FD002F5806290420BD0A2F59832904248
:1040E00007D002F58062904203D002F580629042D0
:1040F00003D123F44073CA68134323F080034A6951
:10410000134303608B68C3620B688362054B98425C
:1041100003D003F58063984201D10B690363012347
:10412000436170470000014040B310B5044690F869
:104130003D30F3B1022384F83D30214651F8040BA1
:10414000FFF78EFF012384F8463084F83E3084F870
:104150003F3084F8403084F8413084F8423084F8AD
:10416000433084F8443084F8453084F83D300020F2
:1041700010BD80F83C30FEF73DF9DBE701207047C9
:1041800040B310B5044690F83D30F3B1022384F8F3
:104190003D30214651F8040BFFF762FF012384F8FC
:1041A000463084F83E3084F83F3084F8403084F85C
:1041B000413084F8423084F8433084F8443084F845
:1041C000453084F83D30002010BD80F83C30FFF7CA
:1041D00085FEDBE701207047002857D070B50D46FB
:1041E000044690F83D30002B4BD0022384F83D303C
:1041F0002268936823F4804323F0070393602146E9
:1042000051F8040BFFF72CFF21688A688B690E6A4E
:104210002868104323F4407C2CF0030CAA68AB6997
:1042200042EA032343EA0C0323F47C4323F0FC0318
:10423000EA69D5F80CC04CEA022C4CEA030C2A6A55
:1042400013032A6943EA021343EA0C0326F0AA0681
:104250006A686D6942EA05123243886021688B61A1
:1042600023681A62012384F8463084F83E3084F8CB
:104270003F3084F8423084F8433084F83D300020E9
:1042800070BD80F83C30FEF761F9AEE70120704761
:1042900030B4036A23F010030362036A446882693E
:1042A00022F4E6420D6842EA052223F020038D68DD
:1042B00043EA0513114DA84203D005F58065A842D5
:1042C00006D123F08003CD6843EA051323F04003B1
:1042D0000A4DA84203D005F58065A84207D124F411
:1042E00040644D6944EA85048D6944EA850444606C
:1042F00082614A688263036230BC704700000140FB
:1043000038B590F83C30012B66D004460D460123A9
:1043100080F83C300C2A5AD8DFE802F00759595986
:104320001B5959593059595944000068FFF77EFC10
:104330002268936943F0080393612268936923F02C
:10434000040393612268936929690B4393610020F8
:104350003EE00068FFF79CFF2268936943F4006326
:1043600093612268936923F480639361226893695F
:10437000296943EA01239361002029E00068FFF7DF
:1043800089FC2268D36943F00803D3612268D369AA
:1043900023F00403D3612268D36929690B43D361F5
:1043A000002015E00068FFF7ADFC2268D36943F4F4
:1043B0000063D3612268D36923F48063D3612268E8
:1043C000D369296943EA0123D361002000E0012079
:1043D000002384F83C3038BD0220FCE710B4846828
:1043E00024F47F4C42EA03220A4342EA0C02826030
:1043F00010BC704790F83C30012B78D010B50446C3
:10440000012380F83C30022380F83D300268936835
:1044100023F47F4323F0770393600B68602B4CD029
:1044200029D8402B54D00CD9502B22D1CA684968C6
:104430000068FFF78FFC50212068FFF7B0FC0020D8
:1044400005E0202B0DD009D9302B0AD00120012303
:1044500084F83D30002384F83C3010BD0BB1102BA4
:1044600005D119462068FFF79AFC0020EFE70120EC
:10447000EDE70120EBE7B3F5805F34D0B3F5005FE3
:104480000CD1CB684A6889680068FFF7A7FF2268EB
:10449000936843F4804393600020D8E7702B24D1C5
:1044A000CB684A6889680068FFF798FF22689368BC
:1044B00043F0770393600020C9E7CA684968006841
:1044C000FFF75AFC60212068FFF769FC0020BEE777
:1044D000CA6849680068FFF73DFC40212068FFF783
:1044E0005EFC0020B3E70020B1E70120AFE7022027
:1044F000704701F01F01012303FA01FC036A23EA5C
:104500000C030362036A02FA01F10B430362704772
:1045100010B504460846002942D194F83E30DBB27B
:10452000013B18BF0123002B6ED1002851D102237B
:1045300084F83E30012201462068FFF7DAFF236845
:10454000334A934203D002F58062934203D15A6CFE
:1045500042F400425A6423682D4A934249D0B3F191
:10456000804F46D0A2F57C42934242D002F5806251
:1045700093423ED002F5806293423AD002F57842EF
:10458000934236D002F57052934232D0A2F5943263
:1045900093422ED01A6842F001021A60002032E0E5
:1045A000042908D008290DD094F84130DBB2013B32
:1045B00018BF0123B7E794F83F30DBB2013B18BFC7
:1045C0000123B0E794F84030DBB2013B18BF012370
:1045D000A9E7042805D0082807D0022384F8413031
:1045E000A8E7022384F83F30A4E7022384F8403090
:1045F000A0E79A6802F00702062A07D01A6842F07C
:1046000001021A60002010BD0120FCE70020FAE73B
:104610000000014038B504460D4600220068FFF74F
:1046200068FF23681D4A934218D002F580629342C6
:1046300014D02368196A41F21112114208D1196A83
:1046400040F24442114203D11A6822F001021A607A
:104650009DB9012384F83E30002038BD196A41F22B
:1046600011121142E5D1196A40F244421142E0D1DF
:104670005A6C22F400425A64DBE7042D05D0082D61
:1046800007D0012384F84130E6E7012384F83F3066
:10469000E2E7012384F84030DEE700BF000001407C
:1046A00038B5044690F83E00C0B294F83F3094F814
:1046B0004220D2B294F843C00D46B1B9012849D185
:1046C000012A48D1022384F83E3084F842307DB379
:1046D000042D39D0012200212068FFF70AFF0122B2
:1046E00004212068FFF705FF27E0DBB25FFA8CFCAE
:1046F000042912D0012833D1012B2CD1012A31D128
:10470000BCF1010F30D1022384F83E3084F83F30F1
:1047100084F8423084F84330D9E7012B1CD1BCF136
:10472000010F1BD1022384F83F3084F84330CEE7D9
:10473000012200212068FFF7DCFE2268136843F0A5
:1047400001031360002006E0012204212068FFF726
:10475000D0FEF2E7012038BD0120FCE71846FAE759
:104760000120F8E71846F6E71046F4E738B50446A6
:104770000D4661B104292BD0002211460068FFF7D5
:10478000B8FE002204212068FFF7B3FE04E00022F7
:1047900011460068FFF7ADFE2368196A41F2111255
:1047A000114208D1196A40F24442114203D11A68F9
:1047B00022F001021A608DB1042D0FD0012384F87C
:1047C0003E3084F83F3084F8423084F843300DE0C6
:1047D000002204210068FFF78CFEDDE745B90123C4
:1047E00084F83E30A5B9012384F84230002038BD5A
:1047F000042D05D0082D07D0012384F84130F1E7BE
:10480000012384F83F30EDE7012384F84030E9E7E5
:10481000042D05D0082D07D0012384F84530E5E7A5
:10482000012384F84330E1E7012384F84430DDE7D5
:1048300090F83C30012B3CD010B4012380F83C3080
:10484000022380F83D3003685A689C6822F0700C9F
:104850000A6842EA0C025A600368174A93421AD067
:10486000B3F1804F17D0A2F57C42934213D002F5EA
:10487000806293420FD002F5806293420BD002F522
:104880007842934207D002F57052934203D0A2F5CA
:104890009432934204D124F080044A6814439C600B
:1048A000012380F83D30002380F83C30184610BCCE
:1048B00070470220704700BF0000014090F83C3074
:1048C000012B22D0012380F83C30CB6823F44073C5
:1048D0008A68134323F480634A68134323F4006314
:1048E0000A68134323F480530A69134323F40053E3
:1048F0004A69134323F48043CA691343026853642B
:10490000002380F83C3018467047022070477047FB
:104910007047026802F10C0353E8003F23F0C00324
:104920000C3242E800310029F3D1202380F83D30D9
:104930007047026802F10C0353E8003F23F49073C0
:104940000C3242E800310029F3D1026802F114036D
:1049500053E8003F23F00103143242E800310029FC
:10496000F3D1036B012B05D0202380F83E300023C8
:1049700003637047026802F10C0353E8003F23F021
:1049800010030C3242E800310029F3D1ECE790F833
:104990003D30DBB2212B01D0022070478368B3F594
:1049A000805F17D0036A5A1C02621A7803685A6043
:1049B000C38C9BB2013B9BB2C3844BB90268D368E2
:1049C00023F08003D3600268D36843F04003D360D0
:1049D000002070470369002BE4D1036A1B8802683A
:1049E000C3F308035360036A02330362E0E7000085
:1049F00038B504460268136923F44053C1680B4379
:104A0000136183680269134342691343C2691A43FD
:104A10000168CB6823F4164323F00C031343CB60E7
:104A20000268536923F4407381690B43536103683F
:104A3000314A934206D002F58062934202D0FFF7DA
:104A4000D5F801E0FFF7E2F8E369B3F5004F29D0AC
:104A50000021031849411B1841F10001C90041EA36
:104A60005371DB00181863684FEA83024FEA9373AF
:104A700041F10001FCF7D6FA204DA5FB00325109A7
:104A8000642303FB11031B013233A5FB03235B09E2
:104A900003F0F00202EB011203F00F03216813444C
:104AA0008B6038BD0023021843EB0301121841F15B
:104AB0000001C90041EA5271D200101841F1000111
:104AC000626892185B41FCF7ADFA0C4DA5FB003211
:104AD0005109642303FB1103DB003233A5FB0323DD
:104AE0005B095A0002F4F87202EB011203F00703AB
:104AF000216813448B60D4E7001001401F85EB51FF
:104B00002DE9F84305460F4616469946DDF8208004
:104B10002C68246837EA04030CBF4FF0010C4FF0F7
:104B2000000CB4452DD1B8F1FF3FF1D0B8F1000F22
:104B300005D0FEF755F9A0EB09004045E8D92A68F1
:104B400002F10C0353E8003F23F4D0730C3242E827
:104B500000310029F3D12A6802F1140353E8003F21
:104B600023F00103143242E800310029F3D120235D
:104B700085F83D3085F83E30002385F83C30032031
:104B800000E00020BDE8F88358B310B5044690F863
:104B90003D300BB3242384F83D302268D36823F4DE
:104BA0000053D3602046FFF723FF2268136923F4E4
:104BB000904313612268536923F02A0353612268EA
:104BC000D36843F40053D36000202064202384F88A
:104BD0003D3084F83E3010BD80F83C30FDF7A2FF38
:104BE000D8E7012070472DE9F04182B01E4690F8C9
:104BF0003D30DBB2202B54D104460D4690460029AF
:104C000053D0002A53D090F83C30012B51D00123CF
:104C100080F83C3000230364212380F83D30FEF708
:104C2000DFF80746A4F82480A4F82680A368B3F52B
:104C3000805F05D04FF00008002384F83C3012E07C
:104C4000236913B14FF00008F6E7A8460025F3E703
:104C500038F8023B2268C3F308035360E28C92B237
:104C6000013A92B2E284E38C9BB273B100963B4668
:104C7000002280212046FFF743FFE0B9002DE7D056
:104C800015F8012B23685A60E8E700963B4600229E
:104C900040212046FFF734FF78B9202384F83D30C7
:104CA00000E0022002B0BDE8F0810120FAE7012017
:104CB000F8E70220F6E70320F4E70320F2E72DE906
:104CC000F04182B01E4690F83E30DBB2202B5CD122
:104CD00004460D46904600295BD0002A5BD090F830
:104CE0003C30012B59D0012380F83C300023036471
:104CF000222280F83E200363FEF772F80746A4F8EC
:104D00002C80A4F82E80A368B3F5805F05D04FF007
:104D10000008002384F83C3017E0236913B14FF0FA
:104D20000008F6E7A8460025F3E723685B68C3F3AD
:104D3000080328F8023B03E023685B682B70013509
:104D4000E28D92B2013A92B2E285E38D9BB2BBB1A1
:104D500000963B46002220212046FFF7D1FEF0B905
:104D6000002DE2D0A368B3F5805FE5D013B92369C5
:104D7000002BE1D023685B6803F07F032B70DEE734
:104D8000202384F83E30002000E0022002B0BDE87D
:104D9000F0810120FAE70120F8E70220F6E703207E
:104DA000F4E710B5044603685A6990F83D30DBB269
:104DB000212B0AD023685A6902F0400294F83E3051
:104DC000DBB2222B19D0002010BD02F08002002A95
:104DD000F0D0226802F1140353E8003F23F080036F
:104DE000143242E800310029F3D1606B08B1FEF7BC
:104DF00096F92046FFF78DFDDCE7002AE3D0226814
:104E000002F1140353E8003F23F04003143242E858
:104E100000310029F3D1A06B08B1FEF780F92046DC
:104E2000FFF787FDCFE7704708B50168CA6822F031
:104E30004002CA60202280F83D20FFF7F4FF0020E6
:104E400008BD7047704710B5846B23685A6994F8A1
:104E50003D30DBB2212B10D023685A6902F04002AA
:104E600094F83E30DBB2222B11D0236C43F01003B8
:104E700023642046FFF7E6FF10BD02F08002002AFF
:104E8000EAD00023E3842046FFF743FDE4E7002A4D
:104E9000EBD00023E3852046FFF74BFDE5E708B59F
:104EA000806B0023C385C384FFF7CCFF08BD704728
:104EB00090F83E30DBB2222B67D18368B3F5805F78
:104EC0004DD0826AB3F5805F04D0002B54D10369C2
:104ED000002B51D103685B681370836A01338362CE
:104EE000C38D9BB2013B9BB2C385002B4FD100B554
:104EF00083B00268D36823F02003D3600268D368CC
:104F000023F48073D3600268536923F00103536173
:104F1000202380F83E30036B012B33D10023036341
:104F2000026802F10C0353E8003F23F010030C3237
:104F300042E800310029F3D103681A6812F0100F1B
:104F400006D0002201921A6801925B680193019BCE
:104F5000818DFFF7ACFF002003B05DF804FB026910
:104F6000002AAED1826A03685B68C3F3080313802A
:104F7000836A02338362B3E703685B6803F07F03ED
:104F80001370AAE7FDF782F8E5E7022070470020DA
:104F90007047000030B583B0044602681368D068DB
:104FA000516913F00F0505D113F0200F02D010F056
:104FB000200F19D12DB111F0010119D110F4907FFA
:104FC00016D1216B01297DD013F0800F03D010F092
:104FD000800F40F0158113F0400F03D010F0400F08
:104FE00040F0128103B030BD2046FFF761FFF9E7C2
:104FF00013F0010F06D010F4807F03D0226C42F032
:105000000102226413F0040F04D019B1226C42F0A3
:105010000202226413F0020F04D019B1226C42F094
:105020000402226413F0080F07D010F0200F00D103
:1050300019B1226C42F008022264226C002AD1D0FD
:1050400013F0200F02D010F0200F29D123685B69E4
:1050500003F04003226C12F0080F00D163B3204626
:10506000FFF767FC23685B6913F0400F20D02268CC
:1050700002F1140353E8003F23F04003143242E8E6
:1050800000310029F3D1A36B73B1614A1A65A06B9B
:10509000FEF78FF80028A5D0A06B036D9847A1E715
:1050A0002046FFF705FFD1E72046FFF7CBFE99E743
:1050B0002046FFF7C7FE95E72046FFF7C3FE002313
:1050C00023648FE713F0100F3FF47EAF10F0100F42
:1050D0003FF47AAF0023019313680193536801935F
:1050E000019B536913F0400F50D0A26B13685B68AB
:1050F0009BB2002B3FF476AFA18D99427FF672AF41
:10510000E385D369B3F5807F37D0226802F10C03C1
:1051100053E8003F23F480730C3242E80031002949
:10512000F3D1226802F1140353E8003F23F0010396
:10513000143242E800310029F3D1226802F114034D
:1051400053E8003F23F04003143242E800310029C5
:10515000F3D1202384F83E3000232363226802F138
:105160000C0353E8003F23F010030C3242E80031F7
:105170000029F3D1A06BFDF7D2FFA18DE38D9BB287
:10518000C91A89B22046FFF792FE2BE7A18DE38D65
:105190009BB2C91A89B2E38D9BB2002B3FF422AFB8
:1051A00000293FF41FAF226802F10C0353E8003FCF
:1051B00023F490730C3242E800300028F3D12268C7
:1051C00002F1140353E8003F23F00103143242E8D4
:1051D00000300028F3D1202384F83E3000232363DD
:1051E000226802F10C0353E8003F23F010030C3255
:1051F00042E800300028F3D12046FFF758FEF1E6E0
:105200002046FFF7C4FBEDE62046FFF70DFEE9E67A
:105210009F4E000808B5806B036B012B02D0FFF78F
:1052200010FE08BD818D4908FFF741FEF9E708B57A
:105230000346806B1B681B6813F4807F2BD100230F
:10524000C385026802F10C0353E8003F23F4807326
:105250000C3242E800310029F3D1026802F1140354
:1052600053E8003F23F00103143242E800310029E3
:10527000F3D1026802F1140353E8003F23F0400326
:10528000143242E800310029F3D1202380F83E3067
:10529000036B012B05D0036B012B0FD0FCF7F6FE3F
:1052A00008BD026802F10C0353E8003F23F010032D
:1052B0000C3242E800310029F3D1ECE7818DFFF791
:1052C000F6FDEDE781628285C28500230364222218
:1052D00080F83E2080F83C30036923B10268D3682F
:1052E00043F48073D3600268536943F00103536150
:1052F0000268D36843F02003D3600020704708B5EC
:1053000090F83E30DBB2202B0DD171B17AB190F81C
:105310003C30012B0DD0012380F83C300023036387
:10532000FFF7D0FF00E0022008BD0120FCE70120CC
:10533000FAE70220F8E7000030B583B004461346D0
:105340008162828500250564222280F83E20826BDE
:105350002048D063A26B20481064A26B1F48D06421
:10536000A26B156520680A46011DA06BFDF7A2FE21
:10537000019523681A6801925B680193019B84F888
:105380003C5023695BB1226802F10C0353E8003FF3
:1053900043F480730C3242E800310029F3D12268D3
:1053A00002F1140353E8003F43F00103143242E8D2
:1053B00000310029F3D1226802F1140353E8003FC1
:1053C00043F04003143242E800310029F3D10020B9
:1053D00003B030BD2F52000815520008474E000898
:1053E00008B590F83E30DBB2202B0DD171B17AB107
:1053F00090F83C30012B0DD0012380F83C30002385
:105400000363FFF799FF00E0022008BD0120FCE7DD
:105410000120FAE70220F8E708B530B101224FF485
:1054200000510548FEF7BFF808BD00224FF40051B7
:105430000148FEF7B8F8F7E7000C024008B530B1B4
:1054400001224FF480410548FEF7ADF808BD002267
:105450004FF480410148FEF7A6F8F7E7000C024040
:1054600070B586B000210091134B1A6B42F0080210
:105470001A631B6B03F008030093009B4FF4005367
:105480000193022604960124029403910B4D01A975
:105490002846FDF78FFF2046FFF7BEFF4FF48043FD
:1054A00001930496029401A92846FDF783FF204644
:1054B000FFF7C4FF06B070BD00380240000C024088
:1054C00038B5054680240FE00020FFF7A5FF11E066
:1054D00001330F2BFCD90120FFF7B0FF002300E0C0
:1054E00001330F2BFCD964084CB12C42ECD00120C5
:1054F000FFF792FF0020FFF7A1FF0023E9E738BD87
:1055000030B585B0044600F0A1FD1E4B93E80300C2
:105510000290ADF80C10090C8DF80E10102302AAA1
:105520000021084600F05EFED4F80801FBF75AFDA2
:10553000024610250095012300214B2000F07CFE3F
:105540002B462E2200215A2000F0EAFDD4F8084113
:105550002046FBF747FDC0B2FBF72AFB0146204679
:10556000FBF770FA0849FBF777FBFBF73BFD0246B8
:10557000009503230021642000F05EFE00F066FD2C
:1055800005B030BD3CD0000800007A442DE9F0435E
:105590008BB0002500953B4C236B43F00103236344
:1055A000236B03F001030093009B4FF48059CDF867
:1055B00014904FF00108CDF8188002260896079540
:1055C000314F05A93846FDF7F5FE4FF4807305937A
:1055D00005A93846FDF7EEFE0195236B43F008035D
:1055E0002363236B03F008030193019B08230593B6
:1055F00006950896079507F5406705A93846FDF713
:10560000D9FE0295236B43F008032363236B03F059
:1056100008030293029BCDF81490CDF818800896E9
:10562000079505A93846FDF7C5FE0395236B43F0A2
:1056300008032363236B03F008030393039B4FF4D6
:1056400000630593CDF818800896079505A938469C
:10565000FDF7B0FE0495236B43F008032363236B2F
:1056600003F008030493049B4FF480630593CDF883
:1056700018800896079505A93846FDF79BFE0BB0E4
:10568000BDE8F08300380240000002402DE9F041FF
:1056900004460E4615461F4611680068FBF7DCFA03
:1056A000804669686068FBF7D7FA01464046FBF719
:1056B000CBF98046A968A068FBF7CEFA01464046C0
:1056C000FBF7C2F93946FBF77BFB30602968E068DD
:1056D000FBF7C2FA804669682069FBF7BDFA01460C
:1056E0004046FBF7B1F98046A9686069FBF7B4FA58
:1056F00001464046FBF7A8F93946FBF761FB7060AD
:105700002968A069FBF7A8FA80466968E069FBF799
:10571000A3FA01464046FBF797F98046A968206A3C
:10572000FBF79AFA01464046FBF78EF93946FBF73C
:1057300047FBB0602968606AFBF78EFA80466968AB
:10574000A06AFBF789FA01464046FBF77DF98046DF
:10575000A968E06AFBF780FA01464046FBF774F956
:105760003946FBF72DFBF060BDE8F08110B51A4C0F
:1057700001224FF480712046FDF715FFC820FDF788
:1057800035FB00224FF480712046FDF70CFF6420AA
:10579000FDF72CFB01224FF480712046FDF703FF3B
:1057A000C820FDF723FB00224FF480712046FDF74F
:1057B000FAFE6420FDF71AFB01224FF480712046A7
:1057C000FDF7F1FEC820FDF711FB00224FF48071B8
:1057D0002046FDF7E8FE10BD0000024038B5054642
:1057E00009480368DD62C56000245C62FEF7E0FAE8
:1057F000234603E0044B1B685B6A9BB2AB42F9D1C2
:105800000148FEF713FB38BDF40A002008B54FF439
:105810007A7303FB00F0FFF7E1FF08BD10B5044603
:10582000062806D90620FFF7F1FFA01FFFF7F6FFB5
:1058300010BDFFF7EBFF0120FAE7000038B5642345
:10584000012221492148FFF7CEF900250CE004EBA5
:105850008501642301221E4801441C48FFF7C3F957
:105860000134032CF3DD0135082D07DC194B53F807
:105870002520174B43F825200024F2E709250CE0EA
:1058800004EB850164230122114801440F48FFF70E
:10589000AAF90134032CF3DD01350C2D0DDCA5F143
:1058A00009030D4A4FF4867101FB0323D3F8082145
:1058B000074B43F825200024ECE764230122074925
:1058C0000248FFF790F938BD40000020800E00200C
:1058D000280F00205C0F0020A40F002041000020B2
:1058E00038B504464B4B984203D04B4B9C4211D0E9
:1058F00038BD4A4D284600F0E3FA05F5867000F001
:10590000DFFA05F5067000F0DBFA05F5497000F0E6
:10591000D7FAEAE701F0D0F9414B1B78002BE7D02A
:10592000002432E004F134033E4D35F91300FBF757
:105930003FF94FF06051FBF78FF94FF08341FBF7D0
:105940008BF9394B43F8240004F1370335F9130080
:10595000FBF72EF94FF06051FBF77EF93349FBF767
:105960007BF9334B43F8240004F13D0335F9130070
:10597000FBF71EF94FF06051FBF76EF92D49FBF76D
:105980006BF92D4B43F824000134022CCADD244B63
:105990001B7813F0010F0CD0234A1168274B1960B4
:1059A0005168596092689A601D4A137803F0FE03AB
:1059B00013701B4B1B7813F0020F0CD01C4A11689C
:1059C0001E4BD9605168196192685A61144A137864
:1059D00003F0FD031370124B1B7813F0040F0CD06F
:1059E000154A1168154B99615168D96192681A621C
:1059F0000B4A137803F0FB031370094B1B7813F069
:105A0000080F3FF475AF064A137803F0F7031370DD
:105A10006EE700BFA40C0020EC0C0020A40F0020B7
:105A2000440000206C180020981A00200000FA445E
:105A3000B01A002000003443A41A00205C0F00209C
:105A4000074B8360074B43604FF07E530360002396
:105A5000036143618361C361C360034B03627047A9
:105A60009A99193ECDCCCC3D00007A440161704733
:105A70002DE9F04104460069FAF7E4FF054660614C
:105A80002768A6693146FAF7DDFF01463846FBF77D
:105A9000E3F8074661682846FBF7DEF8014638461A
:105AA000FAF7D2FF0746D4F8088031463046FAF7B5
:105AB000CBFF01462846FAF7C5FFE169FAF7C4FFB4
:105AC00001464046FBF7C8F801463846FAF7BCFFE6
:105AD000E168FAF7B9FF0746E0600A49FBF778FA90
:105AE00030B1084BE360E661A561E068BDE8F08194
:105AF00005493846FBF74EFA0028F4D0024BE36024
:105B0000F1E700BF00007A4400007AC408B530B164
